:200000000C94AA140C94E3140C94E3140C94E3140C94E3140C94E3140C94E3140C94E31461
:200020000C94E3140C94E3140C94E3140C94E3140C94E3140C945A7D0C94E3140C94E31428
:200040000C944C780C94E3140C94E2D10C94E3140C94B84A0C94AE4A0C94E3140C94E31453
:200060000C94E3140C94E3140C94E3140C94E3140C94E3140C94E3140C94E3140C94E314C8
:200080000C94E3140C94E3140C94E31407634236B79BD8A71A39685618AEBAAB558C1D3C72
:2000A000B7CC5763BD6DEDFD753EF6177231BF000000803F08000000BE922449123EABAAA4
:2000C000AA2ABECDCCCC4C3E00000080BEABAAAAAA3E00000000BF000000803F00000000FC
:2000E00000084178D3BB4387D1133D190E3CC3BD4282AD2B3E68EC8276BED98FE1A93E4C83
:2001000080EFFFBE01C4FF7F3F00000000004E414E494E495459494E46CDCCCC3D0AD72344
:200120003C17B7D13877CC2B329595E6241FB14F0A000020410000C84200401C4620BCBE08
:200140004CCA1B0E5AAEC59D7400407A10F35A00A0724E18090010A5D4E80000E8764817BC
:200160000000E40B54020000CA9A3B000000E1F505000080969800000040420F000000A0E1
:200180008601000000102700000000E803000000006400000000000A000000000001000047
:2001A0000000002C76D888DC674F0823DFC1DFAE59E1B1B796E5E3E453C63AE65199769640
:2001C000E8E6C28426EB898C9B62ED407C6FFCEFBC9C9F40F2BAA56FA5F490055A2AF75CE9
:2001E000936B6CF9676DC11BFCE0E40D47FEF520E6B500D0ED902E03009435770500808463
:200200001E080000204E0A000000C80C333333330F986E12831141EF8D2114893BE65516DE
:20022000CFFEE6DB18D1844B381BF77C1D901DA4BBE424203284725E228100C9F124ECA1CD
:20024000E53D2744525952554E0053544F505045442E20005072696E7465722073746F703A
:200260007065642064756520746F206572726F72732E2046697820746865206572726F7207
:2002800020616E6420757365204D39393920746F20726573746172742E202854656D7065ED
:2002A0007261747572652069732072657365742E20536574206974206166746572207265CC
:2002C0007374617274696E67290A004E6F20436865636B73756D2077697468206C696E65CB
:2002E000206E756D6265722C204C617374204C696E653A20004E6F20436865636B73756D63
:200300002077697468206C696E65206E756D6265722C204C617374204C696E653A2000634B
:200320006865636B73756D206D69736D617463682C204C617374204C696E653A20004C69C0
:200340006E65204E756D626572206973206E6F74204C617374204C696E65204E756D626561
:20036000722B312C204C617374204C696E653A20004D3131300053657269616C2073746126
:20038000747573206D69736D617463680A0053442072656164206572726F720A00746F6F88
:2003A000206D75636820696E6163746976652074696D65202D2063757272656E7420636FCC
:2003C0006D6D616E643A20002121204B494C4C206361757365642062792000627573793A7B
:2003E0002070617573656420666F7220696E7075740A00627573793A2070617573656420DB
:20040000666F7220757365720A00627573793A2070726F63657373696E670A004D656469C9
:200420006120496E73657274656400506C65617365205265736574005052494E544552203C
:2004400048414C5445440025533A202553004B494C4C45442E20005072696E746572206831
:20046000616C7465642E206B696C6C28292063616C6C6564210A00006563686F3A004572E7
:20048000726F723A004F4646004F4E0042696C696E656172204C6576656C696E6720477202
:2004A00069643A0A0050726F62696E6720506F696E740025532025692F2569002E0A002FE6
:2004C0000050726F62696E67206D65736820706F696E742000202844525952554E29004778
:2004E0003239204175746F20426564204C6576656C696E67003F20284C2C522C462C4229FD
:20050000206F7574206F6620626F756E64732E0A003F2856296572626F7365206C65766559
:200520006C20696D706C61757369626C652028302D34292E0A00426164205A2076616C7505
:20054000650A004E6F2062696C696E65617220677269640A0020204D3230312058004D61F3
:200560007820416363656C65726174696F6E2028756E6974732F7332290020204D3230337F
:200580002058004D6178206665656472617465732028756E6974732F7329002052002020F2
:2005A0004D323034205000416363656C65726174696F6E2028756E6974732F73322920285E
:2005C000503C7072696E742D616363656C3E20523C726574726163742D616363656C3E20D9
:2005E000543C74726176656C2D616363656C3E290020540020530020204D323035204200E4
:20060000416476616E6365642028423C6D696E5F7365676D656E745F74696D655F75733ED5
:2006200020533C6D696E5F66656564726174653E20543C6D696E5F74726176656C5F6665DF
:200640006564726174653E20583C6D61785F6A65726B3E20593C6D61785F6A65726B3E2040
:200660005A3C6D61785F6A65726B3E20453C6D61785F6A65726B3E2900204400204900200F
:20068000204D333031205000486F74656E6420504944002E0A00AB08872884288128206E0D
:2006A0006F742064697361626C65642E20536861726564207769746800536C6565702E2E29
:2006C0002E005A2050726F62652050617374204265640A005A2050726F6265205061737463
:2006E00020426564004732384C30005A2050726F626520506173742042656400205A3A0099
:2007000020593A0042656420583A004D65736820706F696E74206F7574206F662072616EC4
:2007200067650A00436C69636B20746F20526573756D652E2E2E00616C736F20656E61627A
:200740006C6564290A004E6F204D6F76652E00456E642066696C65206C6973740A0042652B
:2007600067696E2066696C65206C6973740A004E6F206D656469610A00286E6F2066696C4E
:2007800065290043757272656E742066696C653A20004E6F74205344207072696E74696EC2
:2007A000670A005344207072696E74696E67206279746520002569730025696D2025697395
:2007C000002569682025696D2025697300256964202569682025696D20256973002569799C
:2007E00020256964202569682025696D20256973005072696E742074696D653A20006F6B85
:20080000006F6666000000000000004302000044454255473A004D313132205368757464AE
:200820006F776E004D3131332053003344205072696E746572204F46462E0020732E0A00A0
:20084000496E61637469766974792074696D656F757420002F2F004D31343520533C696E62
:200860006465783E206F7574206F662072616E67652028302D31290A005741524E494E4740
:2008800021204C6F77205A204A65726B206D6179206C65616420746F20756E77616E74657D
:2008A00064207061757365732E0A0020580020204D61783A2000200020204D696E3A2000D5
:2008C000203B200020204D323131205300250A0046523A0020466C6F773A200064697300B6
:2008E000656E0043290061626C656420286D696E2074656D702000436F6C642065787472DA
:20090000756465732061726520004F46460A00466164652048656967687420004265642095
:200920004C6576656C696E6720004661696C656420746F20656E61626C6520426564204CFB
:200940006576656C696E670A00496E76616C6964206D6573682E0A004D34323120696E6399
:200960006F727265637420706172616D657465722075736167650A004D65736820706F69D3
:200980006E74206F7574206F662072616E67650A004F666673657473204170706C69656418
:2009A000004D494E2F4D415820546F6F2046617200546F6F206661722066726F6D204D499E
:2009C0004E2F4D41580A00454550524F4D204F4B0A00290A0020746F20003F5A206F7574B7
:2009E000206F662072616E6765202800290A0020746F20003F59206F7574206F662072613F
:200A00006E6765202800290A0020746F20003F58206F7574206F662072616E676520280085
:200A20004D383400446F6E65207072696E74696E672066696C650A004D3737004D333100B6
:200A400020204D323036205800486F6D65206F666673657400203B0020204D3835312058CB
:200A6000005A2D50726F6265204F66667365740020573A00436F6F6C696E672E2E2E004525
:200A8000312025530020573A0042656420436F6F6C696E672E2E2E004265642048656174AF
:200AA000696E672E2E2E00206661696C65642120426164206865617465722069640A0050C1
:200AC0004944204175746F74756E650023646566696E652044454641554C545F004B642033
:200AE000004B6920004B7020002066696E6973686564212050757420746865206C6173742E
:200B0000204B702C204B6920616E64204B6420636F6E7374616E74732066726F6D20626520
:200B20006C6F7720696E746F20436F6E66696775726174696F6E2E680A00504944204175BE
:200B4000746F74756E6500206661696C6564212074696D656F75740A0050494420417574F8
:200B60006F74756E6500206661696C6564212054656D706572617475726520746F6F2068FC
:200B80006967680A00504944204175746F74756E6500504944204379636C657300255320C9
:200BA00025692F256900204B643A2000204B693A2000204B703A200020436C61737369637C
:200BC00020504944200A002054753A2000204B753A2000206D61783A2000206D696E3A20F3
:200BE0000020643A200020626961733A200048656174696E672E2E2E002073746172740A5C
:200C000000504944204175746F74756E6500206661696C6564212054656D70657261747505
:200C2000726520746F6F20686967680A00504944204175746F74756E65005049442041759C
:200C4000746F74756E65004572723A207574663820666F6E74206E6F7420696E6974696105
:200C60006C697A65642E004572723A207574663820666F6E74206E6F7420696E697469613E
:200C80006C697A65642E004572723A207574663820666F6E74206E6F7420696E697469611E
:200CA0006C697A65642E00200020003A00200020003A003A002568753A25303268750025FB
:200CC000303268753A253032687500253032687527253032687500256875642025303268D3
:200CE000753A25303268750042656400456E636C6F73757265002000250020202020202021
:200D000020002020202000657272001FE020102010201010201020201020103030084004EF
:200D20008003001FE03FF03FF03FF01FE01FE03FF03FF03FF00FC0078003003FFFF038005A
:200D40007030FC3020FC102078102030102C00D02E31D02F7BD02F7BD02E31D02C00D02029
:200D6000301020781020FC1030FC303800703FFFF03FFFF038007031863023871027879078
:200D80002F87D02F03D02030102078102078102030102F03D02F87D0278790238710318684
:200DA000303800703FFFF01FFFF81FFFF804104002082002082004104008208010410010FC
:200DC00041000820800410400000001FFFF81FFFF85072696E742041626F72746564004D6F
:200DE00032350050617573696E672E2E2E004D3234003F0049676E6F7265005265736574D2
:200E000000496E697469616C697A6520454550524F4D004D333033205531204525692053E9
:200E20002569004175746F74756E65202A20504944005049442D44202A005049442D49207D
:200E40002A005049442D50202A004D696E2054726176656C205370656564004D696E205667
:200E6000656C6F63697479004D61782040205370656564004D6178204520416363656C005F
:200E80004D6178204020416363656C0054726176656C20416363656C005265747261637499
:200EA00020416363656C00416363656C004D61782040204A65726B005A2050726F6265209E
:200EC00057697A6172640050726F6265205A204F66667365740050726F62652059204F6662
:200EE000667365740050726F62652058204F666673657400402073746570732F6D6D004170
:200F00006476616E6365642053657474696E6773003F0043616E63656C00496E6974004D25
:200F200034323800496E697469616C697A6520454550524F4D0054656D70657261747572F0
:200F4000650053746570732F6D6D0050726F6265204F666673657473004A65726B004163F2
:200F600063656C65726174696F6E004D617820537065656420286D6D2F73290053657420DB
:200F8000486F6D65204F66667365747300436F6E66696775726174696F6E00000C0F00FE5D
:200FA00007022503BB017FFE08FE08FE05080806000040F0C888889878100508080600005D
:200FC000C0F88888888888F80505050600012030F830200508080600002070F820202020E8
:200FE000E00509090600FF2070A8A8B888887020070505070001D86C366CD80509090600C9
:20100000FFF8A88888888888A8F8050A0A0600FE205050505088A8A888700303030600038A
:2010200040A040FFFFFFFFFFFFFFFFFFFFFFFFFFFFFFFFFFFFFFFFFFFF0000000605FF019B
:20104000070706020080808080800080030303060105A0A0A005060606000050F85050F88E
:20106000500509090600FF2070A8A07028A87020050707060000C8C8102040989805070700
:2010800006000040A0A040A890680103030602058080800309090601FF20404080808040DB
:2010A00040200309090601FF80404020202040408005070706000020A8702070A8200505A2
:2010C000050600012020F820200203030601FFC04080050101060003F8020202060100C029
:2010E000C005070706000008101020404080050707060000708898A8C888700307070601A6
:201100000040C040404040E0050707060000708808102040F8050707060000F8081030080D
:20112000887005070706000010305090F81010050707060000F880F00808887005070706C4
:201140000000304080F0888870050707060000F8081010202020050707060000708888708D
:2011600088887005070706000070888878081060020505060100C0C000C0C002060606013E
:20118000FFC0C000C040800305050601012040804020050303060002F800F80305050601E4
:2011A000018040204080050707060000708810202000200507070600007088B8A8B88070F4
:2011C000050707060000708888F8888888050707060000F04848704848F005070706000044
:2011E00070888080808870050707060000F04848484848F0050707060000F88080F080801D
:20120000F8050707060000F88080F08080800507070600007088808098887005070706009B
:2012200000888888F8888888030707060100E04040404040E00507070600003810101010DD
:2012400090600507070600008890A0C0A09088050707060000808080808080F8050707062B
:20126000000088D8A8888888880507070600008888C8A898888805070706000070888888E4
:20128000888870050707060000F08888F080808005070706000070888888A8906805070771
:2012A000060000F08888F0A0908805070706000070888070088870050707060000F820202E
:2012C0002020202005070706000088888888888870050707060000888888885050200507D0
:2012E0000706000088888888A8A850050707060000888850205088880507070600008888FF
:201300005020202020050707060000F80810204080F80309090601FFE08080808080808081
:20132000E0050707060000804040201010080309090601FFE020202020202020E0050303A6
:201340000600052050880501010600FEF80303030601058040200505050600007008788805
:20136000780507070600008080F0888888F0050505060000708080887005070706000008C6
:201380000878888888780505050600007088F08070050707060000304840E0404040050753
:2013A000070600FE708888887808700507070600008080F0888888880307070601004000A9
:2013C000C0404040E00409090601FE10003010101010906005070706000080808890E09081
:2013E00088030707060100C04040404040E0050505060000D0A8A8A8A8050505060000B023
:20140000C888888805050506000070888888700507070600FEF0888888F080800507070637
:2014200000FE78888888780808050505060000B0C880808005050506000078807008F0058F
:2014400007070600002020F82020201805050506000088888898680505050600008888886E
:2014600050200505050600008888A8A85005050506000088502050880507070600FE88882B
:201480008850204080050505060000F8102040F80309090601FF20404040804040402001C3
:2014A00009090602FF8080808080808080800309090601FF804040402040404080050303CD
:2014C00006000248A890FF41425300504C41004572723A20454550524F4D20436F7272755C
:2014E0007074004572723A20454550524F4D20435243004572723A20454550524F4D205307
:20150000697A65004572723A20454550524F4D2056657273696F6E005A2056616C756500BB
:20152000496E646578205900496E64657820580053746F72652053657474696E6773004C00
:201540006F61642053657474696E6773005A2050726F62652057697A6172640050726F6250
:2015600065205A204F6666736574004661646520486569676874004F6666004F6E0042659D
:2015800064204C6576656C696E670045646974204D657368004C6576656C204265640047F4
:2015A00032394E00473239004175746F20486F6D65004D6F74696F6E00426564004E6F7AC6
:2015C0007A6C650046616E20537065656400436F6E66696775726174696F6E0052657374A4
:2015E0006F72652044656661756C7473004C6F61642053657474696E67730053746F72654F
:201600002053657474696E67730050726568656174202420436F6E660050726F6265205A34
:20162000204F666673657400416476616E6365642053657474696E6773004D61696E204DAA
:20164000656E75003F004261636B0053746F70004D323200417474616368204D65646961E6
:20166000004D32310053656C6563742066726F6D204D656469610052656C65617365204D58
:201680006564696100436F6E66696775726174696F6E0054656D7065726174757265004D84
:2016A0006F74696F6E005072656865617420437573746F6D00526573756D65205072696E73
:2016C000740054756E650053746F70205072696E74005061757365205072696E7400496E45
:2016E000666F2053637265656E0043616E6E6F7420656E746572207375626469723A2000F1
:201700000A4D3234004D32332025730002202E2E000152656672657368004D61696E204D62
:20172000656E75002100486F74656E6420746F6F20636F6C64004261636B0050726F636540
:201740006564004D6F7665204578747275646572004F6666004F6E00536F667420456E640B
:2017600073746F7073004D6F74696F6E0044697361626C65205374657070657273004D380B
:201780003400426564204C6576656C696E67004175746F20486F6D65004D61696E204D651B
:2017A0006E750043616E63656C00446F6E6500302E30323500302E31004D6F766520246DAE
:2017C0006D00312E300050726F6265205A204F6666736574005A004D6F7665204E6F7A7A52
:2017E0006C6520746F20426564004D6F76696E6720746F2050726F62696E6720506F730034
:2018000050726F62696E67205A205265666572656E636500486F6D696E672058595A0047FA
:20182000323800507265686561742024204265640050726568656174202420456E6400546E
:20184000656D706572617475726500436F6F6C646F776E0046616E2053706565640042653C
:2018600064004E6F7A7A6C6500CB14C714507265686561742024004D61696E204D656E7581
:20188000004261627973746570205A004261627973746570204000466C6F770046616E202D
:2018A000537065656400426564004E6F7A7A6C65005370656564004D61696E204D656E757F
:2018C000006F70656E00545249474745524544003A20007A5F6D696E00795F6D696E0078AE
:2018E0005F6D696E005265706F7274696E6720656E6473746F70207374617475730A002080
:20190000746F6F206C6F6E6720657874727573696F6E2070726576656E7465640A0020631A
:201920006F6C6420657874727573696F6E2070726576656E7465640A00486F6D652025731F
:2019400020466972737400486F6D696E67204661696C656400000000000000000000000098
:20196000005761726E696E673A20486F6D696E672042756D702044697669736F72203C20A5
:20198000310A000202040000A0400000A04000000040FFFFFF53746F77205A2D50726F6220
:2019A00065004465706C6F79205A2D50726F62650000004A43000057430000344300000018
:2019C00000000000000000000053657474696E67732053746F72656400290A002062797483
:2019E00065733B20637263200053657474696E67732053746F726564202800455252004504
:201A00004550524F4D20496E697469616C697A65640A0048617264636F64656420446566F6
:201A200061756C742053657474696E6773204C6F616465640020286D6D2900203B204C659F
:201A400076656C696E67200020204D3432302053004175746F20426564204C6576656C6906
:201A60006E670020460020420020480020204D3134352053004D6174657269616C206865AB
:201A80006174757020706172616D657465727300204A002020473239205720490020204D6F
:201AA0003134392043203B20556E69747320696E2043656C736975730A0054656D70657231
:201AC000617475726520556E697473002020473231203B004C696E65617220556E697473DF
:201AE00000454550524F4D206461746173697A65206572726F722E0A00202863616C6375D7
:201B00006C6174656429210A0020213D2000454550524F4D20435243206D69736D617463FB
:201B200068202D202873746F726564292000454550524F4D20436F72727570740A0020537A
:201B4000697A653A2000496E6465783A2000290A002062797465733B2063726320002073D1
:201B6000746F7265642073657474696E6773207265747269657665642028000000964300AB
:201B80000096430000A0400000C8415E45B9425E45B9420000C8440000C842BC020000BCB7
:201BA0000200006400000050C30000204D61726C696E3D563930290A00454550524F4D2012
:201BC00076657273696F6E206D69736D617463682028454550524F4D3D0024F4D43050C30D
:201BE0008D20C3A24117828B7011127A900D826CDA0AA861E108C7586607615142061F4B10
:201C00005E05C145A6041B411204093D9703723931034136DB0266339202D4305302812EF7
:201C20001D02642CEE01762AC501B128A101102781018F2564012B244A01E1223401AD21B3
:201C400020018D200C01811FFC00851EED00981DDF00B91CD200E71BC700201BBB00651A04
:201C6000B200B319A9000A19A0006A189800D217920040178A00B616840032167E00B41525
:201C800079003B157400C7146F0058146A00EE1366008813620026135E00C8125B006D1238
:201CA000570016125500C111510070114E0022114C00D61049008D1046004710450002101F
:201CC0004200C00F4000800F3E00420F3C00060F3A00CC0E3900930E37005C0E3500270E4B
:201CE0003400F30D3200C10D3100900D2F00610D2F00320D2D00050D2C00D90C2A00AF0CA2
:201D00002A00850C28005D0C2800350C27000E0C2500E90B2500C40B2400A00B23007D0B46
:201D200022005B0B21003A0B2100190B2000F90A1F00DA0A1F00BB0A1E009D0A1D00800AFA
:201D40001C00640A1C00480A1C002C0A1B00110A1A00F7091A00DD091900C4091900AB0936
:201D60001800930918007B091700640917004D09170036091600200915000B091500F60851
:201D80001500E1081500CC081400B8081400A4081300910813007E0813006B08120059088A
:201DA00012004708120035081200230811001208110001081000F1071100E0071000D0070A
:201DC0001000C0070F00B1071000A1070F0092070F0083070F0074070E0066070E005807FA
:201DE0000E004A070E003C070E002E070D0021070D0014070D0007070D00FA060D00ED066B
:201E00000C00E1060D00D4060C00C8060C00BC060C00B0060B00A5060C0099060B008E067E
:201E20000B0083060B0078060B006D060B0062060B0057060A004D060A0043060B00380633
:201E40000A002E060A00240609001B060A0011060A0007060900FE050A00F4050900EB05A6
:201E60000900E2050900D9050900D0050900C7050800BF050900B6050900AD050800A505DB
:201E800008009D050800950509008C050800840508007C050700750508006D0508006505D5
:201EA00007005E050800560507004F050800470507004005070039050700320507002B05A0
:201EC0000700240507001D050700160507000F0506000905070002050600FC040700F50444
:201EE0000600EF040700E8040600E2040600DC040600D6040600D0040700C9040500C404C9
:201F00000600BE040600B8040600B2040600AC040600A6040500A10406009B040500960427
:201F20000600900405008B04060085040500800405007B04050076040600700405006B046A
:201F4000050066040500610405005C04050057040500520405004D04050048040400440495
:201F600005003F0405003A04040036040500310405002C04040028040500230404001F04A6
:201F800005001A04040016040400120405000D040400090404000504040001040500FC03A5
:201FA0000400F8030400F4030400F0030400EC030400E8030400E4030400E0030400DC0399
:201FC0000400D8030400D4030300D1030400CD030400C9030400C5030400000000000000FC
:201FE000000000000000000000000000000000000000D1036D6403570D0347C6023B8B02FB
:202000003259022B2E0225090221E8011CCC011AB201179B011487011374011163010F5439
:20202000010E46010D39010D2C010B21010A17010A0D0109040108FC0008F40007ED000759
:20204000E60007DF0006D90006D30005CE0006C80005C30004BF0005BA0004B60004B200A1
:2020600004AE0004AA0004A60003A300049F00039C00039900039600039300029100038E7F
:2020800000028C00038900028700038400028200028000027E00027C00027A00027800021A
:2020A0007600017500027300027100017000026E00016D00026B00016A0002680001670053
:2020C000026500016400016300016200026000015F00015E00015D00015C00015B00015ADA
:2020E000000159000158000157000156000155000154000153000152000151000051000188
:202100005000014F00014E00014D00004D00014C00014B00014A00004A0001490001480074
:202120000048000147000146000046000145000045000144000143000043000142000042A6
:2021400000014100004100014000004000013F00003F00013E00003E00013D00003D000103
:202160003C00003C00013B00003B00013A00003A00013900003900003900013800003800DE
:202180000137000037000037000136000036000036000135000035000134000034000034EE
:2021A000000133000033000033000132000032000032000131000031000031000031000128
:2021C0003000003000003000012F00002F00002F00002F00012E00002E00002E00012D00F9
:2021E000002D00002D00002D00012C00002C00002C00002C00012B00002B00002B00002BFA
:2022000000012A00002A00002A00002A00002A00012900002900002900002900012800001D
:202220002800002800002800002800012700002700002700002700002700012600002600ED
:202240000026000026000026000026000125000025000025000025000025000025000124E2
:202260000000240000240000240000240000240001230000230000230000230000230000FA
:202280002300012200002200002200002200002200002200002200012100002100002100C8
:2022A0000021000021000021000021000120000020000020000020000020000020000020B9
:2022C00000002000011F00001F00001F00001F00001F00001F00001F000020436F756E74DB
:2022E00020583A0042656400453100626564002C2073797374656D2073746F70706564214F
:20230000204865617465725F49443A20004572723A204D415854454D50004D415854454D93
:2023200050207472696767657265640048656174696E67204661696C656400486561746960
:202340006E67206661696C6564004572723A204D494E54454D50004D494E54454D502074D8
:20236000726967676572656400544845524D414C2052554E4157415900546865726D616CF3
:202380002052756E6177617900202F0020403A0000002100240027002A005761726E696E48
:2023A000673A0053442063617264206F6B0A006F70656E526F6F74206661696C65640A0042
:2023C000766F6C756D652E696E6974206661696C65640A004E6F20534420636172640A00BC
:2023E0002E0A006F70656E206661696C65642C2046696C653A2000667265736800646F69F4
:202400006E67002066696C653A20004E6F77200046696C652073656C65637465640A002066
:2024200053697A653A200046696C65206F70656E65643A2000454E4420535542524F555407
:20244000494E450A002220706F73002220706172656E743A2200535542524F5554494E45CA
:202460002043414C4C207461726765743A220053756263616C6C204F766572666C6F7700E3
:202480004578636565646564206D617820535542524F5554494E452064657074683A006DB3
:2024A00061726C696E66772E6F7267006275676669782D322E312E78001FFFFFFFFFFFFFB1
:2024C000600000000001FF400000000000FF8000000000007F83CF00000C303F87FF80008B
:2024E0000C301F867980000C000F8C30C7838C30E78C30CFC7CC31F38C30DCECEC33B98C14
:2025000030D86C6C33198C30D06C0C33198C30D86C0C33198C30DC6C0E3B198C30CF7C0773
:202520009F198C30C77C038F1940000000000002600000000000061FFFFFFFFFFFF820015E
:20254000400130013B01400136016001310170012C0190012701B0012201C0011D01F001C7
:2025600018011002130130020E016002090190020401C002FF000003FA004003F50080035F
:20258000F000D003EB002004E6007004E100E004DC004005D700C005D2004006CD00D006D2
:2025A000C8008007C3003008BE00F008B900C009B400B00AAF00B00BAA00D00CA500000E88
:2025C000A000500F9B00C01096005012910000148C00C0158700B0178200B0197D00D01B92
:2025E0007800001E730040206E0090226900F024640040275F0090295A00E02B5500102EFA
:20260000500020304B0010324600E033410090353C001037370070383200A0392D00B03AAA
:202620002800A03B2300603C1E00103D1900903D1400103E0F00703E0A00C03E0500003F1C
:202640000000403FFBFF803FF6FFC03FF1FF2020506C616E6E6572427566666572427974C5
:2026600065733A20002046726565204D656D6F72793A200020436F6D70696C65643A2041AB
:20268000707220313020323032340A004D61726C696E206275676669782D322E312E780A6F
:2026A0000020536F6674776172652052657365740A00205761746368646F67205265736582
:2026C000740A002042726F776E206F75742052657365740A002045787465726E616C2052DA
:2026E000657365740A00506F77657255700A0073746172740A004732385859004D313030CB
:2027000031006F6B006572726F722077726974696E6720746F2066696C650A00446F6E650D
:2027200020736176696E672066696C652E0A004D323900456E6473746F7073002553202534
:202740006320256320256320256300205A3A0020593A0020583A00656E6473746F70732075
:202760006869743A200000002200250028002B0002020202020202020404040404040404F0
:2027800003030303030303030101010101010101010204081020408001020408102040801B
:2027A00001020408102040808040201008040201000000010200090A0000000004030807EF
:2027C00000000000000000000000000000000000302E30323500302E3100312E30004D6F2A
:2027E000766520246D6D0031300000004A4300005743000034434D6F766520417869730095
:202800004D6F7665202A004D6F7665204000200053656C6563742066726F6D204D656469ED
:20282000610020002000205A3A200020593A200042656420583A200050726F62696E672082
:202840004661696C65640A0050726F62696E67204661696C65640043616E6E6F74206F7091
:20286000656E207375626469722000220A00556E6B6E6F776E20636F6D6D616E643A202225
:2028800000204500205A0020590020204D393220580053746570732070657220756E69741A
:2028A000003B200020746F6F206C6F6E6720657874727573696F6E2070726576656E7465E1
:2028C000640A0020636F6C6420657874727573696F6E2070726576656E7465640A006F6BE6
:2028E0000A00526573656E643A20007C3C3E5E2B3D3F2F5B5D3B2C2A225C0020453A002063
:202900005A3A0020593A00583A004572726F722077726974696E6720746F20454550524F12
:202920004D210A003344205072696E7465722052656164792E005072696E74696E672E2EBA
:202940002E005072696E742050617573656400009DE145E711241FBECFEFD0E4DEBFCDBF63
:2029600084B780932F1414BE0FB6F894A89580916000886180936000109260000FBE12E0D8
:20298000A0E0B1E0E2E4FEEE01E00BBF02C007900D92AE36B107D9F724E1AEE6B2E001C079
:2029A0001D92AF32B207E1F714E1C9EAD4E104C02197FE010E94EDF2C83AD107C9F70E9461
:2029C000D1E20C9415F70C940000CF93DF93EC01CB01BA010E943AEC20E030E048EC52E46E
:2029E0000E94B7F32FE632E143E85AE30E9440F3688379838A839B83DF91CF910895CF9345
:202A0000DF93EC01CB01BA010E943AEC20E030E048EC52E40E94B7F32FE632E143E85AE3B2
:202A20000E9440F3688379838A839B83DF91CF910895CF93DF93EC01CB01BA010E943AEC32
:202A400020E030E048EC52E40E94B7F32FE632E143E85AE30E9440F3688379838A839B8339
:202A6000DF91CF910895CF93DF93EC01CB01BA010E943AEC20E030E040E251E40E94B7F326
:202A80002AE037ED43E25CE30E9440F3688379838A839B83DF91CF910895CF93DF93EC018F
:202AA000CB01BA010E943AEC20E030E040E251E40E94B7F32AE037ED43E25CE30E9440F3AD
:202AC000688379838A839B83DF91CF910895CF93DF93EC01CB01BA010E943AEC6883798380
:202AE0008A839B83DF91CF910895CF93DF93EC01CB01BA010E943AEC688379838A839B831C
:202B0000DF91CF910895CF93DF93EC01CB01BA010E9438EC2AE037ED43E25DE30E94B7F35B
:202B20000E9424F4688379838A839B83DF91CF910895CF93DF93EC01CB01BA010E943AEC4C
:202B40002AE037ED43E25DE30E94B7F3688379838A839B83DF91CF910895FC015183408383
:202B60000895FC01A081B1811C92A281B3818C918F5F8C930280F381E02D90818CE0989F82
:202B8000800D1124EDE3F2E113AE84AF08955B9800C087FD43C0409800C05B9A00C000C0F8
:202BA0005B9800C086FD46C0409800C05B9A00C000C05B9800C085FD3BC0409800C05B9A0F
:202BC00000C000C05B9800C084FD30C0409800C05B9A00C000C05B9800C083FD25C0409854
:202BE00000C05B9A00C000C05B9800C082FD1AC0409800C05B9A00C000C05B9800C081FD56
:202C00000FC0409800C05B9A00C000C05B9800C0409800C05B9A00C000C00895409ABCCF16
:202C2000409AF0CF409AE5CF409ADACF409ACFCF409AC4CF409AB9CF90E080E00895CF93D4
:202C4000DF93C091F706D091F80681E0CE31D105E4F020E030E040E05FE36091F3067091EE
:202C6000F4068091F5069091F6060E9440F30E941FF46C1B7D0B77FF03C0719561957109E9
:202C800081E0633071050CF080E0DF91CF910895CF93DF93DB01F9019C919130C1F09430F4
:202CA00080F094509C938830D1F480819181009771F0019791838083480F591FEA01188206
:202CC00006C08C3539F49C5F9C93943041F4DF91CF9108958B3339F781E08C93F8CF2081DA
:202CE0003181B9016F5F7F4F71836083420F531FEA018883808191818F3591056CF7E7CFB6
:202D00000F931F9381E00091901310919113209192133091931340918C1350918D136091E6
:202D20008E1370918F13041715072607370708F480E01F910F91089520917B12833021F45E
:202D400025FD0CC024FD0CC030E0A90102C0559547958A95E2F7CA018170089581E0089507
:202D600080E008958091D60384FD0BC08091D80387FD07C09091D903937081E019F480E01B
:202D8000089581E008952FEB280F2A3108F047C0E22FF0E08091D6039091D703A091D8031B
:202DA000B091D90304C0B695A795979587952A95D2F780FD02C081700895E454FC4FE0812A
:202DC000EE2341F18091420790914307E80FF92FF11D808190ED980F9A3030F08E3251F4AA
:202DE000818180538A3098F4F093B203E093B10381E008958D3211F08B3249F4818190ED22
:202E0000980F9A3088F38E3211F48281EACFF0E0E0E0EACF1092B2031092B103E9CF80E037
:202E20000895CF93DF9385E4AEDF882309F188E04091D6035091D7036091D8037091D90310
:202E4000972F9170C92F90E0D92FCC0FDD1F71FB222720F930E0220F331F220F331FC22B93
:202E600067FB442740F9C42B8C2BDF91CF91089580E0DECF88DF882341F081E02091B10323
:202E80003091B203232B09F480E008958EEF0E94C0920C944893A4E0B0E0E1E5F7E10C9436
:202EA0000CF30E9438EC69837A838B839C83CE0101960E94B79A2496E2E00C9428F30E9405
:202EC00038EC2AE037ED43E25DE30E94B7F30E9424F4E1CFCF92DF92EF92FF92CF93DF93CD
:202EE00000D000D0CDB7DEB76B017C0120E030E0A9010E9434EC87FD1BC06DEB77E386E03D
:202F000095E3A70196010E9440F369837A838B839C83CE0101960E94B79A0F900F900F90D9
:202F20000F90DF91CF91FF90EF90DF90CF9008956DEB77E386E095EBE4CF0E943AEC2AE08C
:202F400037ED43E25DE30E94B7F3C4CF0E943AECC1CF8F929F92AF92BF92CF92DF92EF927A
:202F6000FF926B017C0120E030E0A9010E9434EC87FD76C06DEB77E386E095E3A7019601D2
:202F80000E9440F342E050E00E94699A6B017C018BE2F7FE09C0F094E094D094C094C11CC4
:202FA000D11CE11CF11C8DE280931207C701B60120E137E240E050E00E94D1F28AE0882E11
:202FC000912CA12CB12CCA01B901A50194010E94D1F2605D60931307C701B60128EE33E0F3
:202FE00040E050E00E94D1F2CA01B901A50194010E94D1F2605D60931407C701B60124E6A3
:2030000030E040E050E00E94D1F2CA01B901A50194010E94D1F2605D609315078EE2809377
:203020001607C701B601A50194010E94D1F26B01CA01B901A50194010E94D1F2605D609313
:20304000170780E3C80EC092180782E197E0FF90EF90DF90CF90BF90AF909F908F90089579
:203060006DEB77E386E095EB89CF0E943AEC20E030E048EC52E40E94B7F32FE632E143E87F
:203080005AE30E9440F365CF8F929F92AF92BF92CF92DF92EF92FF926B017C0120E030E029
:2030A000A9010E9434EC87FDCCC06DEB77E386E095E3A70196010E9440F36B017C0120E007
:2030C00030E0A9010E9434EC87FF04C0F7FAF094F7F8F09442E050E0C701B6010E94699ACC
:2030E0006B017C0160E280E4C81682E4D8068FE0E806F1048CF0C701B60120E432E44FE089
:2031000050E00E94D1F2CA01B9012AE030E040E050E00E94D1F2605D6093110760E280EA52
:20312000C81686E8D80681E0E806F1048CF0C701B60120EA36E841E050E00E94D1F2CA017D
:20314000B9012AE030E040E050E00E94D1F2605D6093120760E280E1C81687E2D806E10470
:20316000F1048CF0C701B60120E137E240E050E00E94D1F2CA01B9012AE030E040E050E0A1
:203180000E94D1F2605D6093130760E288EEC81683E0D806E104F1048CF0C701B60128EE3E
:2031A00033E040E050E00E94D1F2CA01B9012AE030E040E050E00E94D1F2605D6093140728
:2031C00060E284E6C816D104E104F1048CF0C701B60124E630E040E050E00E94D1F2CA0121
:2031E000B9012AE030E040E050E00E94D1F2605D609315078EE2809316078AE0882E912CFD
:20320000A12CB12CC701B601A50194010E94D1F26B01CA01B901A50194010E94D1F2605D97
:203220006093170780E3C80EC092180781E197E0FF90EF90DF90CF90BF90AF909F908F9042
:2032400008956DEB77E386E095EB33CF0E943AEC20E030E048EC52E40E94B7F32FE632E181
:2032600043E85AE30E9440F30FCFCF92DF92EF92FF92CF93DF9300D000D0CDB7DEB76B0156
:203280007C0120E030E0A9010E9434EC87FD1DC06DEB77E386E095E3A70196010E9440F330
:2032A00069837A838B839C8362E070E0CE0101960E94249B0F900F900F900F90DF91CF9153
:2032C000FF90EF90DF90CF9008956DEB77E386E095EBE2CF0E943AEC20E030E040E251E4FD
:2032E0000E94B7F32AE037ED43E25CE30E9440F3BCCFCF92DF92EF92FF92CF93DF9300D008
:2033000000D0CDB7DEB76B017C0120E030E0A9010E9434EC87FD1DC06DEB77E386E095E36E
:20332000A70196010E9440F369837A838B839C8363E070E0CE0101960E94249B0F900F90CB
:203340000F900F90DF91CF91FF90EF90DF90CF9008956DEB77E386E095EBE2CF0E943AECD5
:2033600020E030E040E251E40E94B7F32AE037ED43E25CE30E9440F3BCCF0E943AEC20E0E0
:2033800030E048EC52E40E94B7F32FE632E143E85AE30E9440F30C94B5AB0E943AEC0C949A
:2033A00086ADCB010C941A970C94BF820C94BF820C947B820C947B820C947B820C947B8287
:2033C00063E972E084E690E00E94E79E70E060E08AE090E00E94E79E6AEB72E084E690E03C
:2033E0000C94E79E0E94AB94EBCF882309F0E8CF68E270E080E991E00C94E79E0E942A7FCE
:20340000F4CF0E9416B5F1CFCF92DF92EF92FF920F931F930E9494D10091E6031091E70378
:203420002091E8033091E9036B017C01C01AD10AE20AF30A9701860137FD11C02091E503FF
:2034400020952093E5036A547C4F8F4F9F4F6093E6037093E7038093E8039093E90381E090
:203460009091E503911101C080E01F910F91FF90EF90DF90CF900895CF93DF93C091F70695
:20348000D091F806209729F16091F3067091F4068091F5069091F6060E941FF46E5F7F4F9E
:2034A00024976C177D07ACF470936A05609369050E9494D1605679478E4F9F4F60936B052C
:2034C00070936C0580936D0590936E05DF91CF91089510926B0510926C0510926D05109215
:2034E0006E05F4CFEF92FF920F931F93CF93DF93EC018B017A018A859B858617970731F0DD
:20350000888199810E9414D41B870A87B701888199810E94D3CD2E813F81820F932F911D3E
:203520009F838E8390E080E0CDB7DEB7E6E00C9424F3B0E0A0E0EFE9FAE10C9404F3EC01AB
:203540007B018A018A859B858617970731F0888199810E9414D4FB86EA8688859985019679
:2035600009F5CC80DA808E81D80EA880B980D5015596ED91FC91C5010995C80E780110E0E2
:20358000F70121917F0121111FC08E819F81810F911D9F838E8390E080E0CDB7DEB7EAE09D
:2035A0000C9420F3EE80FF80B801888199810E94D3CD8E0D9F2D911D28853985281739074E
:2035C00080F681E090E0E9CF4C2D6D2DC5010E946CD4D80E180FD4CFB0E0A0E0E2EFFAE1C5
:2035E0000C9407F3EC01D62E1CAD0BAD7C0184E0E80EF11CE98DFA8DC7010995412F480FB1
:203600002D2D602FC7010E946CD49BAD890F8BAF81E090E0CDB7DEB7E7E00C9423F3B0E006
:20362000A0E0E5E1FBE10C9405F36B01E9014A3009F4D5C0453109F081C0DB011296ED91BC
:20364000FC91F28096818781419A00C00000E6E2F0E03197F0F7092F182FEF2CE29420EF4B
:20366000E22230E1B32EBF0CE80188EF90DA00C0000086E290E00197F0F7BFE1BF1508F438
:203680009BC08F2D8077806882DA8E2D80DA00C0000086E290E00197F0F780E878DA80E092
:2036A00076DA00C0000086E290E00197F0F78AEF6EDA00C0000086E290E00197F0F7005F6C
:2036C0001F4F8881807F63DA89918295807F5FDAC017D107B1F700C0000086E290E0019747
:2036E000F0F7F394E0E1EE0EFB10BECF4198D6011296ED91FC9180819281980F9283218132
:20370000921708F09FC194819F5F94839381890F821710F08FEF820F8383458150E0440FDB
:20372000551F70E060E0868197810E94A0F681E0CDB7DEB7E9E00C9421F3DEC1FB01028119
:203740001381423309F485C108F48DC1463409F475C1473409F482C14B3349F789812B81F7
:20376000D80112967C91129713963C91213009F4BFC1233009F0A0C148EF480F582F91E09B
:20378000341708F490E031E0541708F030E0492F432B61E0571708F460E0462311F49323F9
:2037A00031F2FA8030E0F901EA55FE4FD0802E553E4FF901E08099C180EE8F0D8068807FD1
:2037C000E6D98F2D8295807FE2D900C0000086E290E00197F0F780E8DAD980E861CF399A00
:2037E0004198389A4098539A5B9A419A00C0000086E290E00197F0F788E790E0CEE9DFE01D
:20380000FE013197F1F70197D9F788EFC0D900C0000086E290E00197F0F780E2B8D980E017
:20382000B6D900C0000086E290E00197F0F780E0AED980E8ACD900C0000086E290E00197DE
:20384000F0F780E0A4D980E1A2D900C0000086E290E00197F0F7CE010197F1F7CE010197FB
:20386000F1F7CE010197F1F7CE010197F1F7CE010197F1F7CE010197F1F7CE010197F1F7D5
:20388000CE010197F1F7CE010197F1F7CE010197F1F7CE010197F1F7CE010197F1F7CE01CE
:2038A0000197F1F7CE010197F1F72197F1F780E26ED980E46CD900C0000086E290E0019717
:2038C000F0F780E264D980E662D900C0000086E290E00197F0F7D0E0C0E08C2F80778068C0
:2038E00056D98D2F54D900C0000086E290E00197F0F780E84CD980E04AD900C0000086E261
:2039000090E00197F0F78AEF42D900C0000086E290E00197F0F780E25B9800C0409800C060
:203920005B9A00C000C05B9800C0409800C05B9A00C000C05B9800C0409800C05B9A00C052
:2039400000C05B9800C0409800C05B9A00C000C05B9800C0409800C05B9A00C000C05B9834
:2039600000C0409800C05B9A00C000C05B9800C0409800C05B9A00C000C05B9800C040982F
:2039800000C05B9A00C000C05B9800C0409800C05B9A00C000C05B9800C0409800C05B9AF2
:2039A00000C000C05B9800C0409800C05B9A00C000C05B9800C0409800C05B9A00C000C007
:2039C0005B9800C0409800C05B9A00C000C05B9800C0409800C05B9A00C000C05B9800C0B4
:2039E000409800C05B9A00C000C05B9800C0409800C05B9A00C000C000C00000E6E2F0E0A2
:203A00003197F0F7815009F087CF88EFC0D800C0000086E290E00197F0F7CF5FD05FC03262
:203A200009F05BCF80E0B3D880ECB1D800C0000086E290E00197F0F7419879CEF80185814D
:203A4000888375CE80E0CDB7DEB7E9E00C9421F353C0B901C8010E942CD269CED801119635
:203A60008C91888364CE443191F0473109F05FCE1882D80112968C911297898315968C91A3
:203A8000159781508A8313968C918B8350CED80115964C91159750E0440F551F70E060E016
:203AA00016968D919C910E94A0F6F801128280818150838314823BCE381708F438CE8717E4
:203AC00008F435CEFA80E12CD12C243070F46ACEBE01C8010E942CD2898198819D0D988363
:203AE0008E0D8983FF0C09F422CEF7FEF6CFF0CF58E0580F482F43CECF93DF938091EF03B0
:203B00008823B1F10E94D098EC0144E050E060E270E08FE292E10E94A0F6109233128FE207
:203B200092E1FC0101900020E9F7CF01805392418D30910548F44EE050E0481B590BBE019B
:203B4000815D9D4E0E947DEB8FE292E1FC0101900020E9F7CF01805392418D30910540F423
:203B6000FC01E15DFD4E25E220830C9709F01182DF91CF910895ACE0B0E0E1ECFDE10C9412
:203B800006F3F0907812E09079122091EA03211112C047E65CE06E2D8F2D0E94C5D490E01A
:203BA00080E0F80EF0927812E092791299272C96E8E00C9422F3C0904512D090461221E433
:203BC00032E13A8329832F2D30E03C832B832E2D30E03E832D8318861F822FEF3FEF3A8768
:203BE00029871C861B8609E91AE19E012F5F3F4F43E050E7BC01C6010E94AFB9B60181E426
:203C000092E10E9414D48F819885CBCFA4E1B0E0ECE0FEE10C9408F37C01FB016081718139
:203C2000828193818E010F5F1F4F248141E00E9460E7F70101900020E9F79F01215031097F
:203C40002E193F092E31310550F44FE150E0421B530BBC01C701820F931F0E947DEBC70147
:203C60006496E6E00C9424F3A4E0B0E0EAE3FEE10C940CF380E090E0A0EAB0E489839A8357
:203C8000AB83BC8341E061E0CE0101960E9427922496E2E00C9428F38091B1039091B203C2
:203CA000009731F04AE050E070E060E00C9400EA60E070E0CB0108958091B1039091B20344
:203CC000009731F04AE050E070E060E00C94D3E860E070E0CB010895EFDF97FD0AC0ECDFF7
:203CE0006F3F71058105910509F02CF4E5DF862F089580E008958FEF0895CF93C62FBAD854
:203D0000882311F0E9DFC82F8C2FCF9108958091B1039091B203892B39F0DEDF91E0811148
:203D200001C090E0892F089591E0FCCFCF93DF93C82FD62F9FD8882321F0E9DFDF91CF9126
:203D400008958C2F20D88111F9CF8D2FF7CFB4DFCB010895CF93DF93EB018CD8882311F06B
:203D6000F6DFEC01CE01DF91CF9108950F931F93CF938091B1039091B2030097F9F0FC0177
:203D80008F01C1912C2F2F7DA1F0C53431F0C53621F0C83511F0C83799F7F801108270E01B
:203DA00060E00E947DE7F801C083CF911F910F91089570E060E00E947DE7F7CF60E070E048
:203DC000CB01F3CFCF92DF92EF92FF926A017B0151D8882319F0CADF6B017C01C701B6019C
:203DE000FF90EF90DF90CF900895B0E0A0E0EBEFFEE10C940CF320E24F8158856E818D8136
:203E00000E9443CDE2E00C9428F30F931F93522F20912D1230912E122817390741F110925A
:203E2000890490932E1280932D128B0130E020E00093210710932207209323073093240752
:203E400040931A0750931B0784549E4321F410926E041092550482E080935B0181E0809347
:203E6000310710926D0410926F04109260041F910F91089520E040E070E060E084E49EE356
:203E8000C4CFCF930E94AB940E942A7FC82F882319F080E00E942C7E8C2FA7DAEBDFCF9144
:203EA00008958FE19FE09093AC068093AB06E2CFAEE1B0E0EEE5FFE10C940AF38091330772
:203EC000282F082E000C330BF901EE0FFF1FE65EFE4F91819F9390819F933F938F9383E186
:203EE0009EE09F938F938E010F5F1F4F1F930F930E94CDEB40E450E0B8018DEA96E00E943B
:203F00007DEBB8DF0FB6F894DEBF0FBECDBF6E96E4E00C9426F3CF93DF93C0915504CC236D
:203F2000B1F0C150C093550489E0C89FE0011124C15EDB4F6A817B812F814E81888199816B
:203F400064DF888580936E04DF91CF91089592DFFBCFE0915504E63028F581E08E0F8093D6
:203F600055044091210750912207609123077091240720911A0790911B0780916E0439E0ED
:203F8000E39FF0011124E15EFB4FA0912D12B0912E12B183A0834283538364837583268385
:203FA00097838087089520915804211107C0909357048093560481E080935804CADF20E0D9
:203FC00040E070E060E083E696E21FDF81E080936E040E94E38210926E049DCF83EE9DE0F7
:203FE000E2DF81E080936E0482E499E20E9475BB8FED9DE09093AC068093AB060895A2E0B6
:20400000B0E0E5E0F0E20C940CF34BE250E06623A9F0BC0182E092E10E942EEB8AE290E032
:204020009A838983CE0101960E94D5B910921E0410921D042296E2E00C9428F3BC0182E0E6
:2040400092E10E947DEBEACFB0E0A0E0EAE2F0E20C940CF38D8187FF03C01092580C80E020
:204060009091580C282F082E000C330B9217130609F08CF48093580C9E01285F3F4F4E81AF
:204080005F816AE270E082E092E10E94FCEB10921E0410921D04E2E00C9428F3A1E2B0E02F
:2040A000E4E5F0E20C940CF367FF03C01092580C60E05091580C262F062E000C330B5217D6
:2040C000130609F014F56093580C19821F8E442301F14FE150E0BC01CE0101960E942EEB8F
:2040E0004BE250E0BE016F5F7F4F82E092E10E947DEB8AE290E099A388A3CE0180960E945F
:20410000D5B910921E0410921D04A196E2E00C9428F34FE150E0BC01CE0101960E947DEB49
:20412000DFCF0F931F930E9494D10091190410911A0420911B0430911C04601B710B820BD4
:20414000930B97FD0BC080B18695817091E08927029B8260039B8460809344078091440749
:2041600081709091440791FD826090911804981749F0813009F148F0823079F0833091F01B
:20418000809318041F910F910895913079F09230B9F79091170491500CC0992339F09330D6
:2041A000C1F3EECF9130A9F3923051F7909117049F5F90931704E4CF992359F3933001F739
:2041C000F5CFCF92DF92EF92FF92CF93C82F0E9494D16B017C0124EA30E74DE75FE3609162
:2041E0001C0170911D0180911E0190911F010E9434EC87FD18C08AEF90E0A0E0B0E08C0D62
:204200009D1DAE1DBF1D8093030490930404A0930504B0930604C0931801CF91FF90EF9095
:20422000DF90CF90089580E090E0DC01E8CF8F3010F48F5F08958F500895CF938091EB0384
:20424000811154C0109278121092791210927A121092461210924512109248121092471247
:2042600010924A1281E08093491282E280934B121092501210924F12E4E6F2E122E732E1DD
:204280008FEF81932E173F07E1F7C1E0C09361122BE138EB3093571220935612C09358128F
:2042A0001092591210925A1290E490935B1210925C122AE138EB309373122093721221E120
:2042C00031E030934412209343129BE09093681290E19093691291E19093661280936512EE
:2042E000809364120E946BD2C093EB0381E08093EA0386EF9CE09093850C8093840C1092CA
:20430000870C1092860C0998119A0A98129A0B98139A07DF109217040E94F6B9CF910895FB
:20432000A7E0B0E0E6E9F1E20C94FCF26C015B01542E1901ED824E2C2EEF9CEE892E9CE00E
:20434000992E421721F088EE882E8CE0982E852D052C000C990BFC01E256FE4FFF83EE83C6
:2043600014140CF07CC0AE014F5F5F4F63E070E7C5010E94BDA07C0149815A816B817C8168
:20438000411551056105710509F469C04B3751056105710509F4C0C04E3751056105710587
:2043A00009F4BAC04A3251056105710509F05DC057FE17C0442D042C000C550B4F5F5F4F2D
:2043C000B401C6010E942EEBC6010E94AFA0481AF60101900020E9F79F012150310939017F
:2043E0002EC03601FFEF6F1A7F0A25E4F60120834A94442009F457C0630181E04B37510502
:204400006105710509F480E0850D8A3084F036013FEF631A730A4A946AE00E949DF2805D0E
:20442000F6018083442009F43EC0892F63013601FFEF6F1A7F0A805DF60180834A941414F3
:2044400094F5442D042C000C550B4F5F5F4FB701C3010E942EEBC3010E94AFA0481A8D810E
:2044600084192796E2E10C9418F3443251056105710509F03FC001151105C1F0442D042C56
:20448000000C550B4F5F5F4FB801C6010E942EEBC6010E94AFA0481AF60101900020E9F777
:2044A000CF0101973C01630157015ACF2114310451F4F501D6013D01EE16FF0649F1849160
:2044C0008D933196F8CF442D042C000C550B4F5F5F4FB101C6010E947DEBC6010E94AFA08A
:2044E000481AF60101900020E9F79F01215031093901D9CF4034510561057105D1F6360101
:204500003FEF631A730AEE81FF818081F6018083F30110824A94C7CF57FE6FCF4BCF9CE066
:20452000899F802D112491E0980F9093E4032CE0280F2093320730E02E5F3F4F409175129D
:204540004217130619F014F080E00895209177129217D0F7662341F08E5F0E9450D38091B8
:2045600032078E5F0E9450D38091320790917512891750F3209177129091E403291720F3E6
:20458000109278128093791281E008952091E303022E000C330B8217130641F08093E30366
:2045A0006BE97FE081E492E10C9414D40895ACE0B0E0EDEDF2E20C9408F3FC016081718116
:2045C000828193816F3F71058105910509F070F48DE392E101D8E0914512F0914612319603
:2045E000849190E02C96E6E00C9424F310917812009179122091EA0321110FC047E85CE0A6
:20460000602F812F0E94C5D490E080E0180F10937812009379129927E5CFE0904512F09023
:20462000461221E432E13A832983212F30E03C832B83202F30E03E832D8318861F822FEFA7
:204640003FEF3A8729871C861B8629E93AE1AE014F5F5F4FBF01C7010E9418B9B70181E428
:2046600092E10E9414D48F819885D0CFA8E0B0E0ECE3F3E20C94FEF26C015A014901FB0117
:2046800090818CE0989F800D1124982FF6012081822F880F820F880F80937812909379128A
:2046A0004115510509F4A0C0DA82C9827C836B83011122C0AE014B5F5F4FB401C5010E9445
:2046C000BDA05C018D819E81AF81B885892B8A2B8B2B09F489C0CE01059669DFF601808177
:2046E0008F5F8083853130F3CE0101960E94B115E1CF10E075010DC07A0110E00AC0E11415
:20470000F104B9F38FEFE81AF80A10E0E114F10489F3AE014B5F5F4FB401C5010E94BDA09F
:204720005C014D805E806F8078844114510461047104E9F0F0E24F16510461047104A9F02A
:20474000D301C2018D97A109B1090297A105B10570F04BE2441651046104710441F05AE0C4
:204760004516510461047104E9F5112341F2F6018081482F410F5527551F4631510534F0CA
:20478000853020F0CE0101960E94B11581E0411451046104710409F480E0180FF601808125
:2047A000810F8083112369F01150AE014B5F5F4FB401C7010E94BDA07C01CE010596F7DE39
:2047C000F1CF411451046104710471F0FAE04F1651046104710409F08CCFCE0101960E946A
:2047E000B11588CF1F5F92CF2896E0E10C941AF3A3E0B0E0EEEFF3E20C94FCF24C013B01B5
:204800005A011901280181E080936E0440912107509122076091230770912407411551051E
:204820006105710571F0141615060CF080E080936004109221071092220710922307109220
:20484000240710916004809106078B8310920607811105C080915B01882309F46CC0C201F2
:204860000E94A1A0082F80E0C114D10419F0C6010E94A1A01A821982E114F104B1F4402F2C
:2048800050E0282F30E0CA01820F931F46976CF485E190E0841B950B821B930B97FD0196BB
:2048A000959587958A8381E0898301E023E030E7A201BE016F5F7F4FCE010296D7DEE1142E
:2048C000F10489F08A81882321F01A8289818F5F898300E026E030E7A701BE016F5F7F4F03
:2048E000CE010296C3DEC114D10451F000E023E030E7A601BE016F5F7F4FCE010296B6DECE
:2049000041E04127B30181E00E94B3D3C4010E94A1A0412FB40194E1981B892F0E94B3D3FC
:20492000FB81FF2341F0111101C05101A114B10431F0F50109952396E2E10C9418F3EBDA68
:20494000FACFCF92DF92EF92FF920F931F9381E1C82E8FE0D82EF12CE12C04E21FE030E06A
:2049600020E041E45FE163E17FE08AE19FE040DF1F910F91FF90EF90DF90CF900895B0E0CD
:20498000A0E0E5ECF4E20C9404F3ADB6BEB681E09EE00E94A1A090E001962DB73EB7281B9D
:2049A000390B0FB6F8943EBF0FBE2DBF8DB79EB701967C0161E07EE00E9427EBE0910D0727
:2049C000E15010E000E0E43038F4F0E0EE0FFF1FED5DFD4F0081118182EFC82E8DE0D82E28
:2049E0002AE33FE141E45FE164EF7DE08BEF9DE0FFDE0FB6F894BEBE0FBEADBEEAE00C9432
:204A000020F3EDE3F2E183AF64AFCA01B4C8B3C8CF93DF93FC0125AD211104C021E025AF6B
:204A20000E946BD2C0914312D0914412E0917212F091731282E00995E0917212F091731244
:204A400081E0099530E020E044E1BE0181E492E10E9466D224E732E147E1BE0181E492E1D4
:204A60000E9466D2E0917212F091731280E00995DF91CF910895ACE0B0E0E1E4F5E20C949E
:204A800006F3F0907812E09079122091EA03211112C047E45CE06E2D8F2D0E94C5D490E00D
:204AA00080E0F80EF0927812E092791299272C96E8E00C9422F3C0904512D090461221E424
:204AC00032E13A8329832F2D30E03C832B832E2D30E03E832D8318861F827A8769871C86D3
:204AE0001B8609E91AE19E012F5F3F4F46E050E7BC01C6010E94AFB9B60181E492E10E9451
:204B000014D48F819885CDCFB0E0A0E0EAE8F5E20C94FCF22B01142F6901ADB6BEB642FBB0
:204B2000662760F9FCDC882309F4C5C0212F2170722E1270612EC2010E94A1A036E0839F1A
:204B4000C00111249C012D5F3F4F4DB75EB7421B530B0FB6F8945EBF0FBE4DBFEDB7FEB734
:204B600031964F012091660130916701EDB7FEB732832183339611920197E8F7F12CE12C1E
:204B80004114510499F00091360710913707209134073091350785E1E82E40913307B20112
:204BA000C401BEDB36E0839F70011124C114D10401F1C6010E94AFA0582E8823D1F07110F2
:204BC00042C0F6018081222423948A3351F0212CC6016C010196F6012081203271F45A948B
:204BE000F8CFFFEFCF1ADF0A5A9426E0E20EF11CEFCF212C512C711002C0662031F180E862
:204C000090E08E199F09F52D26E0F20280199109112466E070E00E94AAF2362E7720B1F0E1
:204C2000462E67FF03C044244394460E459400E810E014146CF48DEA9CE00E94BB1D081B7B
:204C4000190B4A94F6CF212CDACF312C00E810E0E114F10419F0B801C4010DDF5520F1F0AF
:204C60006620B9F0711015C00730110590F0222031F08BEA9CE00E94BB1D081B190B1314A6
:204C800044F489EA9CE00E94BB1D081B190B3A94F6CFB801C601EFDE081B190B07301105B8
:204CA00028F087EA9CE00E94BB1DF6CF0FB6F894BEBE0FBEADBE0FB6F894BEBE0FBEADBEA6
:204CC000E2E10C9418F380915B01882349F0609156047091570430E020E041E081E014CFF9
:204CE00008956FEF7FEFC7CEA7E1B0E0EAE7F6E20C9400F33C015B010E94A1A0882EC5016A
:204D00000E94AFA0912C23E130E06901C81AD10825E2F22EC814D90414F49FE1F92E8F2D61
:204D200090E09C012E5F3F4F409175124217130611F00CF03BC00997209177122817190651
:204D4000ACF1009136071091370720913407309135074091330710927812F092791285E176
:204D6000E82EB301CE010196DBDA6EE770E0CE01019681DE11E0A114B104A1F083EB9CE00E
:204D800046DEC814D904A4F44CE0F40E80917512F81640F0209177124F2D4950550B2417B0
:204DA000150644F46796EEE00C941CF310E0E3CF1123C1F380E290E0A0E0B0E089839A8391
:204DC000AB83BC838C2D880FC80ECC0CC0927812F0927912CE010196EADBC50182DFE2CF7C
:204DE0000F931F93CF93DF93FC01EB018091210790912207A0912307B0912407B7FD73C071
:204E000040912507509126076091270770912807481759076A077B0714F4DB01CA018093C4
:204E2000210790932207A0932307B093240720915B012223B9F04091290750912A07609134
:204E40002B0770912C078C019D01040F151F261F371FC901B8010995BC0180912F07909199
:204E6000300742DF80910607811108C080911E078823A1F180915B01882381F180912D0720
:204E800090912E070097B1F0409121075091220760912307709124070091290710912A07A7
:204EA00020912B0730912C07400F511F621F731FFE010995E0911F07F0912007309741F075
:204EC00080911E07811103C08091060781110995809106071092060781111DD8DF91CF91D5
:204EE0001F910F91089580E090E0DC0198CF6FEF74E186E299E174CF69E175E18DEB99E147
:204F00006FCF6DE475E18EEA99E16ACF65E775E18DEC99E165CF63E875E18FE597E160CFFC
:204F200069E975E18DE997E15BCF67E675E186EA97E156CF6DEA75E181ED99E151CF65EEF9
:204F400074E185E398E14CCF63E375E18AE699E147CFADE0B0E0EFEAF7E20C94FCF2982F40
:204F6000862F3A016901502E2DB63EB6692FD7DA882309F4A5C0C601002309F44BC00E9498
:204F8000A1A0F82EA0904512B09046128091EA0381115FC08FEF9FEF8D8783E1482E4F187B
:204FA00000913607109137072091340730913507409133078DB69EB6842D90E002966DB7DC
:204FC0007EB7681B790B0FB6F8947EBF0FBE6DBF8DB79EB701965C01E42CB301A1D9782E9D
:204FE00096E0499EB0011124C50145DD0FB6F8949EBE0FBE8DBEFF2009F462C0471881EBB8
:205000009CE005DD442009F442C08FEA9CE0FFDC4A94F8CF0E94AFA0F82EA0904512B0907C
:2050200046128091EA03882309F4B4CFFE0133968AE0DF011D928A95E9F781E492E19A833A
:20504000898302E71AE19E012F5F3F4F46E050E712C0FE0133968AE0DF011D928A95E9F7B6
:2050600081E492E19A83898302E71AE19E012F5F3F4F43E050E7B601C5010E94AFB9B501F9
:2050800081E492E10E9414D48F81988585CF40913207AD858A2F90E0B6E0FB9E90011124D3
:2050A0000296821793070CF4C90190E8981B9093781240937912C601552059F00E94BB1D26
:2050C0000FB6F8943EBE0FBE2DBE2D96E2E10C9418F307DEF5CFA0E1B0E0E1E7F8E20C949E
:2050E000FEF280E1E8E6F1E0DE01119601900D928A95E1F70E9452CED0901A079D2C65E0C2
:20510000762E7D0C6D2C61948824839473E0572ED11014C080911C07882309F4CCC080910B
:205120005B01882359F081E090911C07911180E024E04FEF5EE0662D0E9443CDAA24A394AE
:20514000B12C4D2C4918DA102EC08FEF8A0D8093330710923707109236071092350710921F
:20516000340780911C078D1509F4B7C080915B018823C9F011E080911C078D1110E0F50130
:20518000EE0FFF1FEE0FFF1FED57F84F60A171A182A193A10E946A1700E09C0148E65EE0D8
:2051A000642D812FD6DECA2C81E08A0D9FEFA91AB90A94E0A916B10431F68D112BC050927E
:2051C00033071092370710923607109235071092340780911C078D1509F4A9C080915B0172
:2051E0008823C1F0BD2CB91811E080911C078D1110E06091B3077091B4078091B507909191
:20520000B6070E946A1700E09C0148E65EE06B2D812F9FDE82E08C0D8D1121C080911C0752
:205220008D1509F4A2C080915B018823C1F0BD2CB91811E080911C078D1110E06091C3077C
:205240007091C4078091C5079091C6070E946A1700E09C014BE55EE06B2D812F7ADE83E0A6
:205260008C0D8D1120C080911C078D1509F49AC080915B018823B9F011E080911C078D1166
:2052800010E06091C7077091C8078091C9079091CA070E946A1700E09C014AE45EE06D2D16
:2052A0006919812F56DED3947D1032CF84E08C0D80931B070EC0809106071092060788231B
:2052C00009F42DCF0E948B1F80913107882309F426CF6096E0E10C941AF38091060710927F
:2052E0000607882309F442CFB501660F771F660F771FFB01349781E090E08C0F9D1FE80F36
:20530000F91FE080F180028113816D55784F20E030E040E85FE388E69EE00E94A6CE809276
:205320006F0480913107882309F420CFD2CF8091060710920607882309F450CFE12C1CE3D9
:20534000F12E0CE116E420E030E040E85FE363EB77E088E69EE00E94A6CE80926F04809190
:205360003107882309F43ACFB4CF8091060710920607882309F457CFE12C1CE3F12E0CE10E
:2053800016E420E030E0A90163EC77E08BE59EE00E94A6CE80926F0480913107882309F439
:2053A00042CF97CF8091060710920607882309F45FCFE12C1CE3F12E0CE116E420E030E0B1
:2053C000A90167EC77E08AE49EE00E94A6CE80926F0480913107882309F44ACF7ACFA8E017
:2053E000B0E0E5EFF9E20C94FCF200918707109188072091890730918A0780918B0790913A
:205400008C07A0918D07B0918E0780179107A207B30710F4D901C8010091830710918407DE
:205420002091850730918607BC01CD01601771078207930710F4C901B8010E9438EC2B01CB
:205440003C010E9452CE20911A0728872A83822F8B5F898387E0922F821B8B8386E0821BA2
:205460008C8385E0821B8D8384E0821B8E8383E0821B8F8322E0322E391A292E2194288579
:2054800021112DC080911C078823C9F080915B01882359F081E090911C07911180E024E049
:2054A0004FEF5EE0622D0E9443CD98859F5F988729812913E4CF88E080931B070CC08091E2
:2054C000060710920607882309F30E948B1F809131078823D9F22896E2E10C9418F3888525
:2054E000813009F06BC080911C078130F1F080915B018823D1F211E080911C07813009F067
:2055000010E06091B7077091B8078091B9079091BA070E946A1761E02A81621B00E09C0170
:2055200047EA5EE0812F15DDC0CF80910607109206078823E1F22AE037ED43E25DE36091FC
:20554000B7077091B8078091B9079091BA070E9499EC0E941FF45B016C0121E0A21AB108FF
:20556000C108D1082AE037ED43E25DE3C301B2010E9499EC0E941FF47B018C0121E0E21A9D
:20558000F108010911091F921F9290E9892E97E2992E21E030E040E050E067EB77E087EAA1
:2055A0009EE00E9405CE888580936F040F900F9080913107882309F49ACF8DCF88858230B2
:2055C00009F090C180911C078230D9F080915B01882309F46ACF11E080911C07823009F0B4
:2055E00010E06091BB077091BC078091BD079091BE070E946A1700E09C0149E95EE0632DE9
:2056000091CF80910607109206078823F9F260918F077091900780919107909192070E94A3
:2056200038EC7B018C0120E030E048EC52E46BEB77E089E99EE00E94A6CE81E080936F0429
:2056400080913107882311F246CF80911C078330D9F080915B01882309F427CF11E0809181
:205660001C07833009F010E06091BF077091C0078091C1079091C2070E946A1700E09C0189
:205680004CE85EE06F814ECF80910607109206078823F9F22AE037ED43E25DE36091BF07DE
:2056A0007091C0078091C1079091C2070E9499EC0E941FF45B016C0121E0A21AB108C1087B
:2056C000D1082AE037ED43E25DE3C301B2010E9499EC0E941FF47B018C0121E0E21AF1080C
:2056E000010911091F921F9280E9882E87E2982E21E030E040E050E06FEB77E08CE89EE0D2
:205700000E9405CE81E080936F040F900F9080913107882309F49DCFDECE10923307109268
:20572000370710923607109235071092340780911C078430D9F080915B01882309F4B5CE48
:2057400011E080911C07843009F010E0609183077091840780918507909186070E944B1731
:2057600000E09C0140E85EE06E81DCCE80910607109206078823F9F20EED19E124E630E03B
:2057800040E050E063E877E080E89EE00E94E3CE81E080936F0480913107882361F29BCE47
:2057A000FF24F394F09233071092370710923607109235071092340780911C078530D9F057
:2057C00080915B01882309F470CE11E080911C07853009F010E06091870770918807809193
:2057E000890790918A070E944B1700E09C0140E85EE06D8197CE80910607109206078823B5
:20580000F9F20CED19E124E630E040E050E067E877E080E89EE00E94E3CEF0926F0480915B
:205820003107882369F257CE82E080933307109237071092360710923507109234078091CB
:205840001C078630D9F080915B01882309F42DCE11E080911C07863009F010E060918B074F
:2058600070918C0780918D0790918E070E944B1700E09C0140E85EE06C8154CE8091060725
:20588000109206078823F9F20AED19E12AE030E040E050E06BE877E080E89EE00E94E3CE85
:2058A00081E080936F0480913107882361F213CE8091060710920607882341F108ED19E140
:2058C00024E630E040E050E06FE877E084E79EE00E94E3CE81E080936F0480913107882399
:2058E000A9F0F9CD8885833009F4AFCE843009F414CF853009F454CF863009F495CF8730D8
:2059000009F0D3CD80911C07873091F280915B01882309F4CACD11E080911C07873009F0FF
:2059200010E060918F077091900780919107909192070E944B1700E09C0144E75EE06B811F
:20594000F1CDA3E1B0E0E7EAFCE20C94FCF20E9452CE70901A07798A25E0270D2A8B872DB0
:2059600081958B8B22242394711014C080911C07882309F464C080915B01882359F081E0E7
:2059800090911C07911180E024E04FEF5EE06B890E9443CD80E1E8E7F1E0DE011196019083
:2059A0000D928A95E1F76EEF362E44244394512C672C9989691A21E0231508F4B8C074106B
:2059C0002EC08FEF840D809333071092370710923607109235071092340780911C07871533
:2059E00009F43FC080915B018823C9F011E080911C07871110E0F201EE0FFF1FEE0FFF1F04
:205A0000ED5BF84F60817181828193810E94A91700E09C014DEA5EE0662D812F9ADA81E0A1
:205A2000840D9FEF491A590A339422E03212C3CF73949A89971198CF80931B070EC0809195
:205A4000060710920607882309F495CF0E948B1F80913107882309F48ECF6396E2E10C9488
:205A600018F38091060710920607882309F4BACF4201880C991C880C991C84010450110955
:205A8000F801E95BF84F20E030E048EC52E460817181828193810E9499EC2FE632E143E8A4
:205AA0005AE30E9440F30E941FF45B016C012AE0A21AB108C108D108E1E0F0E0EC0FFD1F8D
:205AC000E00FF11F20E030E048EC52E460817181828193810E9499EC2FE632E143E85AE3AC
:205AE0000E9440F30E941FF47B018C012AE0E21AF10801091109C4018D5B984F1F921F92FA
:205B00005FE9852E57E2952E2AE030E040E050E0BC018DEA9EE00E9405CE20926F040F9039
:205B20000F9080913107882309F45CCF96CF74102DC08FEF840D80933307109237071092F6
:205B40003607109235071092340780911C07871501F180915B018823C9F011E080911C0795
:205B6000871110E0F201EE0FFF1FEE0FFF1FED5BF84F60817181828193810E9486AD00E046
:205B80009C014DEA5EE0662D812FE3D984E0830D48CF80910607109206078823D1F242016B
:205BA000880C991C880C991C840104501109F801E95BF84F60817181828193810E941FF43D
:205BC0005B016C0121E0A21AB108C108D108E1E0F0E0EC0FFD1FE00FF11F60817181828167
:205BE00093810E941FF47B018C0121E0E21AF10801091109C4018D5B984F1F921F9226E8B5
:205C0000822E27E2922E21E030E040E050E0BC018DEA9EE00E9405CE20926F040F900F9020
:205C200080913107882309F494CF17CFB0E0A0E0ECE1FEE20C94FDF20E9452CEC0911A07AA
:205C400045E0442E4C0ED4E0DC1B83E0782E7C1A82E0682E6C1A81E0582E5C1A3C2E3194FF
:205C6000C11126C080911C07882389F080915B01882309F43FC081E090911C07911180E059
:205C800024E04FEF5EE0632D0E9443CD33C08091060710920607882349F30E948B1F80913E
:205CA0003107882319F3CDB7DEB7E1E10C9419F3C13009F068C080911C07813011F1809164
:205CC0005B018823B9F011E080911C07813009F010E060911B0D70911C0D80911D0D9091B6
:205CE0001E0D0E94791900E09C0145EE5EE0652D812F2FD9CF5F4C12B3CF85E080931B0765
:205D0000D2CF80910607109206078823C1F220E030E040E251E460911B0D70911C0D8091FC
:205D20001D0D90911E0D0E9499EC2AE037ED43E25CE30E9440F30E941FF45B016C0123EED0
:205D4000A20E27E0B21EC11CD11C1F921F9221E8822E27E2922E17ECE12E1FE0F12E00E0FE
:205D600010E02DE138EF4FEF5FEF6BE17DE085EE9EE00E9405CE0F900F9080913107882331
:205D800009F49DCF90CFC23009F09EC080911C078230D9F080915B01882309F4ABCF11E0C3
:205DA00080911C07823009F010E060911F0D7091200D8091210D9091220D0E94791900E026
:205DC0009C0146ED5EE0662D93CF80910607109206078823F9F220E030E040E251E4609105
:205DE0001F0D7091200D8091210D9091220D0E9499EC2AE037ED43E25CE30E9440F30E948A
:205E00001FF45B016C0125E6A20E28E0B21EC11CD11C1F921F9281E8882E87E2982E1BEC92
:205E2000E12E10E1F12E00E010E02BE937EF4FEF5FEF6FE17DE086ED9EE00E9405CE0F90FB
:205E40000F9080913107882309F4A4CF2CCF80911C078330D9F080915B01882309F44ACF66
:205E600011E080911C07833009F010E06091230D7091240D8091250D9091260D0E94B5AB75
:205E800000E09C0147EC5EE0672D32CF80910607109206078823F9F287EC9EE00E942ACF90
:205EA000809131078823B9F2FECE8091060710920607882391F084ED93E70E94AAA1809195
:205EC0003107882351F0EFCEC33009F2C43009F011CF80911C07843041F380915B018823F2
:205EE00009F408CF81E090911C07943009F080E023E048EB5EE06D2FC7CEA6E0B0E0E3E886
:205F0000FFE20C94FCF20E9452CE20911A072D832A83822F8B5F8983922F91959B8344240D
:205F2000439484E0821B8C83FD81F11114C080911C07882309F48AC080915B01882359F09F
:205F400081E090911C07911180E024E04FEF5EE06B810E9443CD43E8642E47E0742E21E0F5
:205F60002E833D803A942D808A81281A9D81EE819E1328C03092330710923707109236070A
:205F8000109235071092340780911C07891709F46FC080915B018823A9F011E080911C0770
:205FA000FE818F1310E0F30164897589868997890E94441800E09C0144EF5EE0622D812F97
:205FC0000E94A9275E80F4E06F0E711C21E0250D2E83243059F68D81843069F593E0909356
:205FE00033071092370710923607109235071092340780911C07843009F47FC080915B015C
:206000008823C9F0F1E0FE8380911C07843009F01E826091A3077091A4078091A507909124
:20602000A6070E94441800E09C0144EF5EE06C818E810E94A9272D812F5F2D8389818213CE
:2060400073CF5394539450921B070EC08091060710920607882309F46FCF0E948B1F80914E
:206060003107882309F468CF2696E2E10C9418F38091060710920607882309F48ACF20E011
:2060800030E048EC52E4F30164897589868997890E9499EC2FE632E143E85AE30E9440F3EC
:2060A0000E941FF45B016C01F4EFAF1AF1E0BF0AC108D10886ED99E19F938F9327E7822E7B
:2060C00027E2922E18EEE12E1FE3F12E0FE010E024EF31E040E050E0B3016C5E7F4F84EFAF
:2060E0009EE00E9405CE40926F040F900F9080913107882309F44DCFB7CF809106071092D7
:206100000607882309F47ACF20E030E048EC52E46091A3077091A4078091A5079091A60735
:206120000E9499EC2FE632E143E85AE30E9440F30E941FF45B016C01E4EFAE1AE1E0BE0A31
:20614000C108D10884ED99E19F938F9387E7882E87E2982E18EEE12E1FE3F12E0FE010E0F6
:2061600024EF31E040E050E063EA77E084EF9EE00E9405CE40926F040F900F9080913107D5
:20618000882309F43BCF70CFB0E0A0E0EAECF0E30C94FCF20E9452CEC0911A0765E0262EFA
:2061A0002C0ED1E084E0782E7C1A83E0682E6C1A82E0582E5C1A4D2E4C1A3C2E3194C11195
:2061C00015C080911C07882309F482C080915B01882309F4E4C181E090911C07911180E06B
:2061E00024E04FEF5EE0632D0E9443CD80900D0D90900E0DA0900F0DB090100D8092690450
:2062000090926A04A0926B04B0926C0421E732EB47E25EE36091110D7091120D8091130DAC
:206220009091140D0E94B7F36B017C01C0926504D0926604E0926704F092680421E732EB70
:2062400047E25EE36091150D7091160D8091170D9091180D0E9499EC60936104709362043A
:206260008093630490936404C13009F083C0109233071092370710923607109235071092D1
:20628000340780911C078130B1F180915B018823C1F011E080911C07813009F010E06091C3
:2062A000690470916A0480916B0490916C040E94351900E09C0142E45EE0642D812F0E943D
:2062C000A927CF5FC2117BCF85E080931B070EC08091060710920607882309F477CF0E94DE
:2062E0008B1F80913107882309F470CFCDB7DEB7E2E10C9418F380910607109206078823C5
:2063000021F220E030E040E251E4C501B4010E9499EC2AE037ED43E25CE30E9440F30E9458
:206320001FF45B016C012AE0A21AB108C108D10888EA94E39F938F9344EA842E47E2942E58
:2063400012E3E12E16E8F12E01E010E02AE030E040E050E069E674E082E49EE00E9405CEE5
:20636000C0936F040F900F9080913107882309F48CCFBCCFC23009F068C0109233071092B1
:20638000370710923607109235071092340780911C078230D9F080915B01882309F491CF01
:2063A00011E080911C07823009F010E0609165047091660480916704909168040E94A917ED
:2063C00000E09C014AE35EE0652D78CF80910607109206078823F9F220E030E048EC52E41F
:2063E000C701B6010E9499EC2FE632E143E85AE30E9440F30E941FF45B016C0121E0A21A57
:20640000B108C108D10881E994E39F938F932FE9822E27E2922E17E5E12E1EE3F12E0FE041
:2064200010E021E030E040E050E065E674E08AE39EE00E9405CED0936F040F900F908091E7
:206440003107882309F4A7CF51CFC33009F07FC01092330710923707109236071092350722
:206460001092340720911C072330D9F080915B01882309F426CF11E080911C07833009F074
:2064800010E0609161047091620480916304909164040E94351900E09C0142E35EE0662DEB
:2064A0000DCF20910607109206072223F9F220E030E040E251E40E9499EC2AE037ED43E282
:2064C0005CE30E9440F30E941FF45B016C012AE0A21AB108C108D1088AE794E39F938F93CD
:2064E00084EA882E87E2982E12E3E12E16E8F12E01E010E02AE030E040E050E061E674E052
:2065000082E39EE00E9405CED0936F040F900F9080913107882309F4A9CFE8CE80910607D2
:2065200010920607882321F108E51FE124E031E046E950E06AE171E083E29EE00E946ACF34
:20654000D0936F0480913107882391F0CFCEC43009F0B7CE10923307109237071092360746
:20656000109235071092340780911C078430B1F280915B01882309F4A4CE11E080911C0729
:20658000843009F010E080911A0190911B010E941A9700E09C0143E25EE0672D8FCE8091C0
:2065A0000D0D90910E0DA0910F0DB091100D8093690490936A04A0936B04B0936C0421E76C
:2065C00032EB47E25EE36091110D7091120D8091130D9091140D0E94B7F3609365047093E7
:2065E0006604809367049093680421E732EB47E25EE36091150D7091160D8091170D909108
:20660000180D0E9499EC6093610470936204809363049093640455CE4F925F926F927F9261
:206620008F929F92BF92CF92DF92EF92FF920F931F93CF93DF931092DB031092DA032FE39A
:206640002093DE031092DD031092DC031092D6031092D7031092D8031092D9039C01F9011A
:2066600090812F5F3F4F9032D1F39E34C9F4818190ED980F9A3020F08D3211F08B3281F4E6
:2066800032969F012F5F3F4F808180538A3008F46DC09F012F5F3F4F8081803209F468C02B
:2066A000F0934307E09342078F010F5F1F4FC0816AE270E0C8010E94BAF6009731F0FC0138
:2066C000319780818032E1F31182CD3421F0C43511F0C734D9F5F80180810F5F1F4F80327B
:2066E000D1F380538A3090F5C093DE0390E080E06AE0AF014F5F5F4F689F9001699F300D8D
:206700001124C901C0972081820F911D27FD9A95FA01208120532A3060F39093DD0380931E
:20672000DC03DF0131962C912032D9F3CD3461F58E31910539F0F0F48731910519F08C312B
:20674000910511F5B093DB03A093DA03DF91CF911F910F91FF90EF90DF90CF90BF909F90F2
:206760008F907F906F905F904F900895F90189CFF9018FCF8537910538F08737910510F306
:20678000803A13E09107F1F2809042079090430740E050E0BA0130E020E0C12CD12C760192
:2067A000C394FD013196DC91DD2309F484C0D132F1F4CD34E1F480329105C9F44093D603A0
:2067C0005093D7036093D8037093D903F093DB03E093DA0363E270E0CF010E94BAF6009750
:2067E00009F4B4CFFC011082B1CFDF01DACFD154DA3108F05BC0DF011D91103291F0A0ED60
:20680000A10FAA30E8F01E3271F4A181A053AA30B8F02115310519F49F0121503109B12C29
:2068200013C0FD01E8CF1D3211F01B3291F7A181B0EDBA0FBA3020F0AE3259F7A281E6CF21
:20684000BE2EB818309759F3AD2FB0E02601370104C0440C551C661C771CDA95D2F744295F
:20686000552966297729A454BC4FBC92A081A154AA3108F4BACFDF01D191DD2309F491CF05
:2068800000EDB02EBD0E19E01B15A8F713EDB12EBD0E11E01B1578F7DB3269F3FD01319632
:2068A000DC91D03209F07DCFDF01F8CF21153105E9F69D01DBCF3093DB032093DA034093E6
:2068C000D6035093D7036093D8037093D9033ECF2091580C211103C060E00C94FF1F0895C3
:2068E000FC016591759185919491089581E08093F80C089521E732EB47E25EE360916104CD
:206900007091620480916304909164040E94B7F36093150D7093160D8093170D9093180D09
:20692000E5CF21E732EB47E25EE3609165047091660480916704909168040E9499EC60932C
