:100000000C9435140C945F140C945F140C945F14CE
:100010000C945F140C945F140C945F140C945F1494
:100020000C945F140C945F140C945F140C945F1484
:100030000C945F140C9402440C945F140C945F14A1
:100040000C945F140C94B3560C948BDC0C945F14DA
:100050000C945ECC0C945F140C945F140C945F149D
:100060000C945F140C945F140C945F140C945F1444
:100070000C945F140C945F140C945F140C945F1434
:100080000C945F140C945F140C945F14D5D89CD717
:10009000CED711D9CED7CED7CED7CED7CED7CED7F3
:1000A000CED7CED7CED7CED7CED7CED7CED7CED728
:1000B000CED7CED7CED7CED7CED7CED7CED7CED718
:1000C000CED7CED7CED7CED70BD9CED7CED7CED7C9
:1000D000CED7CED7CED7CED7CED7E4D8CED7CED7E1
:1000E000CED7CED7CED7CED7CED7CED7CED7CED7E8
:1000F00028D9CBD78CD98FD982D986D9A6D9A6D9D8
:1001000093D997D99DD9A1D9FCDB01DC06DC10DCA1
:100110003EDC3EDC1ADC22DC2ADC34DC05A84CCDDB
:10012000B2D44EB93836A9020C50B9918688083C31
:10013000A6AAAA2ABE000000803F4E414E494E4961
:100140005459494E46CDCCCC3D0AD7233C17B7D1A4
:100150003877CC2B329595E6241FB14F0A0000204A
:10016000410000C84200401C4620BCBE4CCA1B0EC9
:100170005AAEC59D74434F4D4D554E494341544968
:100180004F4E0044525952554E004552524F525311
:1001900000494E464F004543484F00536C6565701B
:1001A0002E2E2E00486F6D65205859206669727397
:1001B000740A00486F6D652058592066697273741F
:1001C00000436C69636B20746F20726573756D6595
:1001D0002E2E2E004E6F206D6F76652E00456E64BC
:1001E0002066696C65206C6973740A0042656769F2
:1001F0006E2066696C65206C6973740A00286E6FE6
:100200002066696C6529005344207072696E7469B8
:100210006E67206279746520004E6F74205344200D
:100220007072696E74696E670A0043757272656EEA
:10023000742066696C653A200046696C65206465C7
:100240006C657465643A0044656C6574696F6E2012
:100250006661696C65642C2046696C653A200025EE
:10026000697920256964202569682025696D202524
:100270006973005072696E742074696D653A20006C
:100280006F66660044454255473A00334420507239
:10029000696E746572204F66662E002C20004649F8
:1002A000524D574152455F4E414D453A4D61726C3A
:1002B000696E20312E312E392E322028476974681C
:1002C00075622920534F555243455F434F44455F64
:1002D00055524C3A68747470733A2F2F676974687A
:1002E00075622E636F6D2F4D61726C696E46697217
:1002F0006D776172652F4D61726C696E2050524F3F
:10030000544F434F4C5F56455253494F4E3A312E4E
:1003100030204D414348494E455F545950453A338A
:1003200044205072696E7465722045585452554489
:1003300045525F434F554E543A3120555549443A42
:1003400063656465326132662D343161322D343734
:1003500034382D396231322D6335356336326633A8
:10036000363766660A002F2F20004D313435205372
:100370003C696E6465783E206F7574206F662072EC
:10038000616E67652028302D31290A00416363655D
:100390006C65726174696F6E3A2050005741524E1D
:1003A000494E4721204C6F77205A204A65726B20B6
:1003B0006D6179206C65616420746F20756E776162
:1003C0006E746564207061757365732E0A004F66E4
:1003D0006673657473206170706C69656400457242
:1003E000723A20546F6F206661722100546F6F2043
:1003F0006661722066726F6D207265666572656EE9
:10040000636520706F696E740A0020204D61783A30
:10041000200020204D696E3A2000536F66742065DD
:100420006E6473746F70733A200020466C6F773A75
:10043000200050726F6265205A204F6666736574A3
:100440003A200020643A0020693A0020703A0049BE
:100450006E76616C69642065787472756465720A81
:100460000043290A0061626C656420286D696E2072
:1004700074656D702000436F6C64206578747275CC
:100480006465732061726520004D65736820706F2C
:10049000696E742063616E6E6F7420626520726590
:1004A000736F6C7665640A004D34323120696E6377
:1004B0006F727265637420706172616D65746572CC
:1004C0002075736167650A00454550524F4D204FB6
:1004D0004B0A003F5A206F7574206F662072616E60
:1004E000676520282D353020746F203530290A00AB
:1004F0003F4B2076616C7565206F7574206F6620A8
:1005000072616E67652028302D3130292E0A004136
:100510006476616E6365204B3D0041637469766566
:100520002045787472756465723A200096019101D5
:100530008A018301750100010F150E12FFFFFFFFF5
:1005400016170E13FFFFFFFF03021A14FFFFFFFF32
:10055000FFFFFF0C04FFFFFF01000EFFFFFF0C1960
:100560000DFF1853746F77205A2D50726F6265001B
:100570004465706C6F79205A2D50726F626500422D
:10058000696C696E656172204C6576656C696E6731
:1005900020477269643A0A00486F6D696E67206689
:1005A00061696C656400202844525952554E2900F7
:1005B000473239204175746F20426564204C65765E
:1005C000656C696E67003F20284C2C522C462C42EB
:1005D00029206F7574206F6620626F756E64732EAC
:1005E0000A00426164205A2076616C75650A004EEB
:1005F0006F2062696C696E65617220677269640A56
:100600000020746F6F206C6F6E6720657874727550
:1006100073696F6E2070726576656E7465640A002A
:1006200020636F6C6420657874727573696F6E20D7
:1006300070726576656E7465640A0024F4D4305077
:10064000C38E20C2A24017828B7011127A910D8145
:100650006CD90AA861E108C7586607615143061EB4
:100660004B5D05C145A7041A411104093D9803716A
:100670003931034036DB0265339102D430540280B5
:100680002E1D02632CEE01752AC501B028A00110B1
:100690002781018F2564012B244B01E0223401AC1A
:1006A000211F018D200D01801FFC00841EED00978D
:1006B0001DDF00B81CD200E61BC600201BBC006476
:1006C0001AB200B219A8000A19A0006A189900D13C
:1006D00017910040178B00B516840031167E00B3C9
:1006E0001579003A157300C7146F0058146A00EEAC
:1006F0001366008813630025135E00C7125B006C4D
:1007000012570015125400C111510070114F0021F1
:10071000114B00D61049008D1047004610440002CE
:10072000104200C00F4000800F3E00420F3C000608
:100730000F3B00CB0E3800930E37005C0E350027C0
:100740000E3400F30D3200C10D3100900D30006009
:100750000D2E00320D2D00050D2C00D90C2B00AEF6
:100760000C2900850C29005C0C2700350C27000E95
:100770000C2600E80B2400C40B2400A00B23007DF2
:100780000B23005A0B2100390B2100180B2000F815
:100790000A1F00D90A1E00BB0A1E009D0A1D008008
:1007A0000A1D00630A1C00470A1B002C0A1B0011CB
:1007B0000A1A00F7091A00DD091900C4091900AB6B
:1007C000091900920917007B091800630917004CEA
:1007D00009160036091600200916000A091500F549
:1007E000081500E0081400CC081400B8081400A490
:1007F000081400900813007D0812006B08130058BD
:1008000008120046081200340811002308110012D3
:1008100008110001081100F0071000E0071000D0D7
:10082000071000C0071000B0070F00A107100091CB
:10083000070E0083070F0074070F0065070E0057AF
:10084000070E0049070E003B070D002E070E002083
:10085000070D0013070D0006070D00F9060C00ED4B
:10086000060D00E0060C00D4060C00C8060C00BC07
:10087000060C00B0060C00A4060B0099060C008DB7
:10088000060B0082060B0077060B006C060B00615E
:10089000060A0057060B004C060A0042060A0038FA
:1008A000060A002E060A0024060A001A060A00108C
:1008B00006090007060A00FD050900F4050900EB1A
:1008C000050900E2050900D9050900D0050900C79E
:1008D000050900BE050900B5050800AD050800A51D
:1008E0000509009C050800940508008C0508008493
:1008F0000508007C050800740508006C0507006504
:100900000508005D050700560508004E050700476D
:100910000507004005080038050700310507002AD3
:10092000050700230507001C050600160507000F34
:100930000507000805060002050700FB040600F590
:10094000040700EE040600E8040600E2040700DBEA
:10095000040600D5040600CF040600C9040600C33F
:10096000040600BD040600B7040600B1040500AC8F
:10097000040600A6040600A00405009B04060095DA
:10098000040500900406008A040500850405008023
:100990000406007A04050075040500700405006B68
:1009A00004050066040500610405005C04050057A9
:1009B000040500520405004D0405004804050043E9
:1009C0000405003E0404003A040500350405003027
:1009D0000404002C04050027040400230405001E61
:1009E0000404001A04040016040500110404000D98
:1009F000040400090405000404040000040400FCCD
:100A0000030400F8030400F4030400F0030400EC02
:100A1000030400E8030400E4030400E0030400DC32
:100A2000030400D8030400D4030400D0030400CC62
:100A3000030400C8030300C503030024F404D92001
:100A40001BC40C5C0E9804C4095F0265077101F4B5
:100A500005F900FB04B30048048700C1036900588E
:100A600003550003034500BE023A008402310053DF
:100A7000022A002902250004022000E4011C00C80B
:100A8000011900AF011700980114008401130071CF
:100A90000110006101100051010E0043010D0036EC
:100AA000010B002B010B0020010B00150109000CAC
:100AB00001090003010800FB000800F3000800EB37
:100AC000000700E4000600DE000600D8000600D2A1
:100AD000000600CC000500C7000500C2000500BDEF
:100AE000000400B9000400B5000400B1000400AD2A
:100AF000000400A9000400A5000300A20003009F59
:100B00000004009B0003009800030095000200937E
:100B1000000300900003008D0002008B000300889A
:100B20000002008600020084000300810002007FB2
:100B30000002007D0002007B0002007900020077C5
:100B400000010076000200740002007200010071D2
:100B50000002006F0002006D0001006C0002006ADC
:100B600000010069000200670001006600010065E5
:100B700000010064000200620001006100010060E9
:100B80000001005F0002005D0001005C0001005BED
:100B90000001005A000100590001005800010057EF
:100BA00000010056000100550001005400010053EF
:100BB00000000053000100520001005100010050EC
:100BC0000001004F0001004E0000004E0001004DEA
:100BD0000001004C0001004B0000004B0001004AE6
:100BE00000010049000100480000004800010047E2
:100BF00000010046000000460001004500000045DD
:100C000000010044000100430000004300010042D5
:100C100000000042000100410000004100010040CE
:100C20000001003F0000003F0001003E0000003EC8
:100C30000001003D0000003D0001003C0000003CC0
:100C40000000003C0001003B0000003B0001003AB6
:100C50000000003A000100390000003900010038AE
:100C600000000038000000380001003700000037A5
:100C7000000100360000003600000036000100359B
:100C80000000003500000035000100340000003491
:100C90000000003400010033000000330000003386
:100CA000000100320000003200000032000100317B
:100CB0000000003100000031000100300000003071
:100CC000000000300001002F0000002F0000002F66
:100CD0000000002F0001002E0000002E0000002E5A
:100CE0000001002D0000002D0000002D0000002D4F
:100CF0000001002C0000002C0000002C0000002C43
:100D00000001002B0000002B0000002B0000002B36
:100D10000001002A0000002A0000002A0000002A2A
:100D2000000100290000002900000029000000291E
:100D30000000002900010028000000280000002811
:100D40000000002800000028000100270000002704
:100D500000000027000000270000002700010026F7
:100D600000000026000000260000002600000026EB
:100D700000010025000000250000002500000025DE
:100D800000000025000000250001002400000024D0
:100D900000000024000000240000002400010023C3
:100DA00000000023000000230000002300000023B7
:100DB00000000023000000230001002200000022A8
:100DC000000000220000002200000022000000229B
:100DD000000100210000002100000021000000218E
:100DE000000000210000002100000021000100207F
:100DF0000000002000000020000000200000002073
:100E00000000002000000020000000200001001F62
:100E10000000001F0000001F0000001F0000001F56
:100E20000000001F0000001F0001001E0000001E47
:100E30000000001E0000001E000000C23100001C67
:100E4000260000F4190000D80F0000EB080000C0D5
:100E500004000075020000400100006265640A00A1
:100E60002C2073797374656D2073746F7070656472
:100E700021204865617465725F49443A20004B49FE
:100E80004C4C45442E200057726974696E6720747B
:100E90006F2066696C653A200046696C6520736551
:100EA0006C65637465640A002053697A653A2000B2
:100EB00046696C65206F70656E65643A2000646FEA
:100EC000696E67004E6F772000454E4420535542AF
:100ED000524F5554494E450A002220706F7300222C
:100EE00020706172656E743A2200535542524F551C
:100EF00054494E452043414C4C20746172676574DF
:100F00003A2200747279696E6720746F2063616C95
:100F10006C207375622D67636F64652066696C650C
:100F200073207769746820746F6F206D616E79200B
:100F30006C6576656C732E204D4158206C65766526
:100F40006C2069733A004572726F723A006F706577
:100F50006E206661696C65642C2046696C653A2078
:100F60000043616E6E6F74206F70656E20737562E2
:100F700064697220006563686F3A004531204865F6
:100F80006174696E67206661696C656400426564BE
:100F90002068656174696E67206661696C656400CC
:100FA000453120544845524D414C2052554E4157F1
:100FB00041590042454420544845524D414C20522D
:100FC000554E4157415900546865726D616C20520D
:100FD000756E61776179004531204572723A204D16
:100FE000415854454D50004572723A204D41585475
:100FF000454D5020424544004D415854454D5020E8
:101000007472696767657265640045312045727264
:101010003A204D494E54454D50004572723A204D8C
:10102000494E54454D5020424544004D494E54458B
:101030004D5020747269676765726564004D38347D
:1010400020582059205A204500202F002042403AA5
:101050000020403A0070012C0190012701B00122CC
:1010600001C0011D01F00118011002130130020E30
:10107000016002090190020401C002FF000003FAAE
:10108000004003F5008003F000D003EB002004E6ED
:10109000007004E100E004DC004005D700C005D288
:1010A000004006CD00D006C8008007C3003008BE4F
:1010B00000F008B900C009B400B00AAF00B00BAA34
:1010C00000D00CA500000EA000500F9B00C0109691
:1010D000005012910000148C00C0158700B01782D8
:1010E00000B0197D00D01B7800001E730040206EF8
:1010F0000090226900F024640040275F0090295A84
:1011000000E02B5500102E500020304B00103246CE
:1011100000E033410090353C001037370070383222
:1011200000A0392D00B03A2800A03B2300603C1EEF
:1011300000103D1900903D1400103E0F00703E0A53
:1011400000C03E0500003F0000403FFBFF803FF62F
:10115000FFC03FF1FF3344205072696E7465722006
:1011600052656164792E005072696E74696E672EE3
:101170002E2E005072696E74207061757365640064
:101180004D313930205335300A4732380A47323929
:101190000A4D313137205361766520656570726F75
:1011A0006D20746F2073746F7265206E6577206395
:1011B0006667004D313930205335300A4D313039B2
:1011C00020533230350A4732380A47302058313000
:1011D000312059313032205A300A4D3231312053CA
:1011E000300A4D3131372053617665206565707264
:1011F0006F6D20746F2073746F7265206E65772039
:1012000063666700486561742F486F6D652026200E
:101210005A206F6666736574004865617420426584
:10122000642F486F6D652F4C6576656C0050726950
:101230006E742061626F72746564004E6F20534457
:101240002063617264004368616E676520534420C7
:1012500063617264004D3231005072696E742066B1
:10126000726F6D2053440053746F70207072696EFA
:101270007400526573756D65207072696E740049F3
:101280006E69742E2053442063617264005061754E
:101290007365207072696E740054756E65004375D5
:1012A00073746F6D20436F6D6D616E647300496E72
:1012B000666F2073637265656E00466C6F770053CE
:1012C00070656564005072656865617420504C41BA
:1012D00020456E64005072656865617420504C4111
:1012E0002042656400507265686561742041425314
:1012F00020456E64005072656865617420414253F8
:10130000204265640000060900FE070192032120C7
:101310007FFF07FF07FF0000000600000107070628
:10132000020080808080800080030202060105A008
:10133000A00507070600005050F850F85050050768
:10134000070600002078A07028F020050707060097
:1013500000C0C810204098180507070600006090DC
:10136000A040A89068020303060104C04080030760
:101370000706010020408080804020030707060107
:10138000008040202020408005050506000120A89F
:1013900070A8200505050600012020F82020020382
:1013A000030602FFC04080050101060003F80202A7
:1013B00002060200C0C00505050600010810204015
:1013C00080050707060000708888888888700307F2
:1013D0000706010040C040404040E0050707060006
:1013E00000708808708080F8050707060000F81074
:1013F00020100808F005070706000010305090F88C
:101400001010050707060000F880F008088870052E
:101410000707060000708080F088887005070706BF
:101420000000F808102020202005070706000070A3
:10143000888870888870050707060000708888789B
:10144000080870020505060200C0C000C0C0020600
:10145000060602FFC0C000C0408004070706000067
:1014600010204080402010050303060002F800F819
:101470000407070601008040201020408005070770
:1014800006000070880810200020050707060000ED
:1014900070880868A8A8700507070600007088888B
:1014A000F8888888050707060000F08888F0888893
:1014B000F0050707060000708880808088700507A7
:1014C00007060000F08888888888F005070706006E
:1014D00000F88080F08080F8050707060000F8809B
:1014E00080F0808080050707060000708880B8883B
:1014F0008870050707060000888888F888888801B2
:10150000070706020080808080808080050707062C
:1015100000003810101010906005070706000088C2
:1015200090A0C0A0908805070706000080808080FA
:101530008080F805070706000088D8A88888888872
:101540000507070600008888C8A898888805070747
:1015500006000070888888888870050707060000E4
:10156000F08888F080808005070706000070888872
:1015700088A89068050707060000F08888F0A0900A
:1015800088050707060000788080700808F00507C6
:1015900007060000F820202020202005070706006D
:1015A0000088888888888870050707060000888872
:1015B0008888885020050707060000888888888862
:1015C000A850050707060000888850205088880525
:1015D0000707060000888888502020200507070696
:1015E0000000F80810204080F8030707060100E01B
:1015F0008080808080E00505050600018040201085
:1016000008030707060100E02020202020E0050352
:1016100003060004205088050101060000F80202BC
:10162000020602058040050505060000700878885E
:10163000780507070600008080B0C88888F0050597
:101640000506000070808088700507070600000806
:101650000868988888780505050600007088F88075
:10166000700507070600003048E04040404005068E
:10167000060600FF708888780870050707060000D6
:101680008080B0C888888801070706020080008033
:10169000808080800308080601FF20002020202091
:1016A000A040040707060000808090A0C0A090031F
:1016B0000707060100C04040404040E00505050620
:1016C0000000D0A8A8A8A8050505060000B0C88895
:1016D000888805050506000070888888700506065C
:1016E0000600FFF08888F080800506060600FF7877
:1016F0008888780808050505060000B0C880808045
:1017000005050506000070807008F0040707060054
:10171000004040E040404030050505060000888854
:10172000889868050505060000888888502005050A
:10173000050600008888A8A8500505050600008851
:10174000502050880506060600FF888888780870B3
:10175000050505060000F8102040F80307070601FC
:1017600000204040804040200107070602008080A2
:101770008080808080030707060100804040204071
:10178000408005020206000268900000000600008A
:1017900000060900FE000000000001090008FE002C
:1017A0000005080806000040F0C8888898781005F1
:1017B0000808060000C0F88888888888F8050505AC
:1017C0000600012030F830200508080600002070CF
:1017D000F820202020E00509090600FF2070A8A8B5
:1017E000B8888870200509090600FFE080C0B0A80D
:1017F000283028280509090600FFF8A88888888865
:1018000088A8F8050A0A0600FE205050505088A803
:10181000A8887003030306000340A04025753A25FD
:101820003032750025756420253032753A25303206
:10183000750020202020202000092000000000004A
:1018400000000000000000003FFFF000000000006A
:1018500000000000000000380070000000000000E0
:1018600000000000000030FC30000000000000001C
:10187000000000000020FC1000000000000000003C
:1018800000000000207810000000000000000000B0
:1018900000000020301000000000000000000000E8
:1018A00000002C00D03FC00000000000000020829B
:1018B000002E31D07FE00000000000000010410049
:1018C0002F7BD07FE0000000000000001041002FBF
:1018D0007BD07FE0000000000000002082002E315D
:1018E000D03FC0000000000000004104002C00D0E8
:1018F0003FC0000000000000008208002030107F80
:10190000E0000000000000008208002078107FE066
:101910000000000000000041040020FC107FE000F7
:1019200000000000000020820030FC301F8000001A
:1019300000000000000000003800700F00000000F0
:1019400000000000FFFFC03FFFF0060000000000A5
:10195000000000FFFFC000000000000000000000C9
:1019600000000000003FFFF0000000000000000049
:1019700000000000380070000000000000000000BF
:101980000000003186300000000000000000000070
:10199000000023871000000000000000000000008D
:1019A00000278790000000000000000000000000F9
:1019B0002F87D00000000000000000000000002F72
:1019C00003D03FC000000000000000208200203053
:1019D000107FE0000000000000001041002078109F
:1019E0007FE0000000000000001041002078107F20
:1019F000E0000000000000002082002030103FC006
:101A0000000000000000004104002F03D03FC00090
:101A10000000000000008208002F87D07FE0000057
:101A200000000000008208002787907FE00000008F
:101A3000000000004104002387107FE00000000048
:101A40000000002082003186301F8000000000006E
:101A500000000000003800700F00000000000000CF
:101A600000FFFFC03FFFF006000000000000000084
:101A7000FFFFC00000004D6F74696F6E0056547216
:101A80006176206D696E00566D696E00566D6178E5
:101A9000204500566D6178205A00566D61782059B6
:101AA00000566D6178205800416D617820450041F5
:101AB0006D6178205A00416D6178205900416D6157
:101AC00078205800412D74726176656C00412D724A
:101AD00065747261637400416363656C0056652DC3
:101AE0006A65726B00567A2D6A65726B0056792DA5
:101AF0006A65726B0056782D6A65726B0045737467
:101B00006570732F6D6D005A73746570732F6D6DF2
:101B1000005973746570732F6D6D00587374657020
:101B2000732F6D6D0020540020520020286D6D2908
:101B30000020204D393030204B004C696E656172B9
:101B400020416476616E63653A0A0020204D383585
:101B500031205A005A2D50726F6265204F666673AD
:101B600065740020440020204D3330312050005057
:101B700049442073657474696E67733A0A0020469D
:101B80000020420020480020204D313435205300F1
:101B90004D6174657269616C20686561747570204F
:101BA000706172616D65746572733A0A00204A0053
:101BB0002020473239205720490020204D34323030
:101BC0002053004175746F20426564204C65766532
:101BD0006C696E673A0A0020204D3230362058007A
:101BE000486F6D65206F66667365743A0A00202041
:101BF0004D32303520510020453C6D61785F655F86
:101C00006A65726B3E0020583C6D61785F785F6A50
:101C100065726B3E20593C6D61785F795F6A6572D1
:101C20006B3E205A3C6D61785F7A5F6A65726B3EED
:101C300000416476616E6365643A20513C6D696E63
:101C40005F7365676D656E745F74696D655F7573ED
:101C50003E20533C6D696E5F6665656472617465B4
:101C60003E20543C6D696E5F74726176656C5F6690
:101C7000656564726174653E0020204D3230342009
:101C80005000416363656C65726174696F6E2028F2
:101C9000756E6974732F7332293A20503C707269E3
:101CA0006E745F616363656C3E20523C7265747252
:101CB0006163745F616363656C3E20543C74726160
:101CC00076656C5F616363656C3E0A0020204D326F
:101CD00030312058004D6178696D756D2041636326
:101CE000656C65726174696F6E2028756E697473B6
:101CF0002F7332293A0A0020204D32303320580009
:101D00004D6178696D756D20666565647261746595
:101D1000732028756E6974732F73293A0A00202086
:101D20004D393220580053746570732070657220ED
:101D3000756E69743A0A0020204D313439204320F1
:101D40003B20556E69747320696E2043656C73691E
:101D500075730A002020473231202020203B005498
:101D60005249474745524544006F70656E007A5F9F
:101D70006D696E00795F6D696E00785F6D696E00E8
:101D80005265706F7274696E6720656E6473746FEC
:101D900070207374617475730A004D3234004D32D3
:101DA0003320257300556E6B6E6F776E20636F6DF9
:101DB0006D616E643A20220050726F62696E672016
:101DC0006661696C65640A0050726F62696E6720B3
:101DD0006661696C656400205A3A200020593A20F7
:101DE0000042656420583A200053442063617264C5
:101DF000206F6B0A006F70656E526F6F74206661A2
:101E0000696C65640A00766F6C756D652E696E6924
:101E100074206661696C65640A00534420696E69C8
:101E200074206661696C0A00486F6D652025732512
:101E300073257320666972737400486F6D652000A6
:101E40004578747275646572004D6F7665205A002E
:101E50004D6F76652059004D6F76652058004F66AE
:101E600066004F6E200050726570617265004C6FA5
:101E700061642073657474696E677300536F667470
:101E800020456E6473746F707300496E6974696184
:101E90006C697A6520454550524F4D005265737408
:101EA0006F7265206661696C736166650041647676
:101EB000616E6365204B004D333033205531204532
:101EC0002569205325690050726568656174204159
:101ED000425320636F6E66005072656865617420BE
:101EE000504C4120636F6E66005049442041757428
:101EF0006F74756E65005049442D44005049442D5F
:101F000049005049442D500053746F726520736529
:101F10007474696E6773004E6F7A7A6C65004661FF
:101F20006E2073706565640054656D7065726174D0
:101F3000757265006F6B00526573656E643A2000C0
:101F40004B494C4C20636175736564206279207441
:101F50006F6F206D75636820696E61637469766563
:101F60002074696D65202D2063757272656E742012
:101F7000636F6D6D616E643A2000506C65617365CE
:101F8000207265736574005052494E544552204882
:101F9000414C544544005072696E7465722068610A
:101FA0006C7465642E206B696C6C28292063616CED
:101FB0006C6564210A00656E7175657565696E678B
:101FC0002022005761726E696E673A20486F6D6912
:101FD0006E672042756D702044697669736F722058
:101FE0003C20310A0000000000000000000000005A
:101FF000000000484200004842000080400000000D
:10200000000202040000A0400000A04000000040C8
:1020100000004A430000574300003443FFFFFF46DF
:102020006164652048656967687400507265686519
:10203000617420414253005072656865617420509C
:102040004C41004C6576656C20626564004732380F
:102050000A473239004D34323800436F6F6C646F79
:10206000776E0044697361626C652073746570708B
:10207000657273004D38340053657420686F6D6568
:10208000206F66667365747300486F6D65205A0033
:10209000473238205A00486F6D6520590047323862
:1020A000205900486F6D652058004732382058008D
:1020B0004175746F20686F6D6500473238004D6F51
:1020C00076652061786973004D6F766520302E301B
:1020D00032356D6D004D6F766520302E316D6D009F
:1020E0004D6F766520316D6D004D6F766520313016
:1020F0006D6D007C3C3E5E2B3D3F2F5B5D3B2C2A93
:10210000225C0050726F6265205A204F66667365CC
:1021100074004D61696E0053746570732F6D6D00AE
:102120004A65726B00416363656C65726174696FC7
:102130006E0056656C6F6369747900436F6E7472DC
:102140006F6C0043616E6E6F7420656E74657220F3
:102150007375626469723A2000022E2E0001526586
:10216000667265736800454550524F4D2064617436
:102170006173697A65206572726F722E0A00496E0A
:102180006465783A2000BC020000BC0200006400D4
:102190000000102700000000964300009643000056
:1021A000A0400000C8415E45B9425E45B94200000A
:1021B000C8440000C842206D61783A2000206D6953
:1021C0006E3A200020573A004520436F6F6C696ECD
:1021D000672E2E2E00452048656174696E672E2E8D
:1021E0002E0042656420636F6F6C696E672E2E2E21
:1021F000004265642068656174696E672E2E2E004A
:1022000020436F756E7420583A0020453A002364CD
:102210006566696E652044454641554C545F4B6484
:10222000200023646566696E652044454641554C2F
:10223000545F4B69200023646566696E65204445E0
:102240004641554C545F4B70200050494420417525
:10225000746F74756E652066696E69736865642154
:102260002050757420746865206C617374204B7005
:102270002C204B6920616E64204B6420636F6E7369
:1022800074616E74732066726F6D2062656C6F7717
:1022900020696E746F20436F6E6669677572617432
:1022A000696F6E2E680A00504944204175746F743E
:1022B000756E65206661696C6564212074696D6561
:1022C0006F75740A00204B643A2000204B693A2055
:1022D00000204B703A20000A20436C6173736963DD
:1022E00020504944200A002054753A2000204B75A4
:1022F0003A200020643A200020626961733A20008D
:10230000504944204175746F74756E65206661692B
:102310006C6564212054656D7065726174757265B9
:1023200020746F6F20686967680A00504944204133
:1023300075746F74756E652073746172740A0050E1
:102340004944204175746F74756E65206661696CCF
:1023500065642120426164206578747275646572D9
:10236000206E756D6265720A004F66660A004661EE
:102370006465204865696768742000426564204C84
:102380006576656C696E6720004661696C656420DE
:10239000746F20656E61626C6520426564204C65D7
:1023A00076656C696E670A0053544F505045442E51
:1023B00020005072696E7465722073746F7070655E
:1023C000642064756520746F206572726F72732E5D
:1023D0002046697820746865206572726F7220618A
:1023E0006E6420757365204D39393920746F207201
:1023F0006573746172742E202854656D7065726106
:10240000747572652069732072657365742E20532C
:1024100065742069742061667465722072657374D6
:10242000617274696E67290A004E6F2043686563A4
:102430006B73756D2077697468206C696E65206EAA
:10244000756D6265722C204C617374204C696E65E9
:102450003A2000636865636B73756D206D69736DF9
:10246000617463682C204C617374204C696E653A0A
:1024700020004C696E65204E756D6265722069732F
:10248000206E6F74204C617374204C696E65204E11
:10249000756D6265722B312C204C617374204C6910
:1024A0006E653A20004D313130004D3331005344D8
:1024B0002072656164206572726F720A00446F6EEB
:1024C00065207072696E74696E672066696C650A52
:1024D0000020496E76616C69642065787472756459
:1024E00065722000205A3A0020593A002020506C92
:1024F000616E6E6572427566666572427974657367
:102500003A20002046726565204D656D6F72793AFC
:102510002000312E312E392E320A004D61726C6945
:102520006E0020536F667477617265205265736523
:10253000740A00205761746368646F672052657382
:1025400065740A002042726F776E206F7574205296
:10255000657365740A002045787465726E616C203D
:1025600052657365740A00506F77657255700A0082
:102570006175746F25692E67006572726F722077BE
:10258000726974696E6720746F2066696C650A00F1
:10259000456E6473746F7073202563202563202556
:1025A0006320256300656E6473746F7073206869BF
:1025B000743A2000446F6E6520736176696E6720FF
:1025C00066696C652E0A004D3239001FFFFFFFFF60
:1025D000FFFF600000000001FF400000000000FF5E
:1025E0008000000000007F83CF00000C303F87FF99
:1025F00080000C301F867980000C000F8C30C78360
:102600008C30E78C30CFC7CC31F38C30DCECEC3342
:10261000B98C30D86C6C33198C30D06C0C33198C6D
:1026200030D86C0C33198C30DC6C0E3B198C30CFED
:102630007C079F198C30C77C038F19400000000075
:102640000002600000000000061FFFFFFFFFFFF810
:1026500050726F7465637465642050696E0A00532C
:1026600074616E6461726420446576696174696F37
:102670006E3A20002052616E67653A20004D656118
:102680006E3A200046696E6973686564210A00200D
:1026900072616E67653A2000207369676D613A2048
:1026A00000206D65616E3A20003A207A3A200020C1
:1026B0006F662000476F696E6720746F3A00436C45
:1026C0006F636B776973650A00436F756E7465722B
:1026D0002D0020446972656374696F6E3A20002092
:1026E0002020616E676C653A2000537461727469D2
:1026F0006E67207261646975733A2000506F736968
:1027000074696F6E696E67207468652070726F629D
:10271000652E2E2E0A003F4E756D626572206F6623
:10272000206C65677320696E206D6F76656D656ED0
:1027300074206E6F7420706C61757369626C6520B3
:1027400028302D3135292E0A003F2028582C5929B0
:10275000206F7574206F6620626F756E64732E0A29
:10276000003F53616D706C652073697A65206E6FF0
:102770007420706C61757369626C652028342D3526
:1027800030292E0A004D3438205A2D50726F626560
:10279000205265706561746162696C697479205456
:1027A0006573740A003F2856296572626F7365204D
:1027B0006C6576656C20697320696D706C617573EA
:1027C00069626C652028302D34292E0A004572720A
:1027D0006F722077726974696E6720746F20454547
:1027E00050524F4D210A0000002100240027002AEA
:1027F0000000002200250028002B000000200023FC
:10280000002600290002020202020202020404045D
:102810000404040404030303030303030301010189
:10282000010101010101020408102040800102049D
:1028300008102040800102040810204080804020C1
:102840001008040201000000010200090A00000053
:102850000004030807000000000000000000000062
:10286000000000000000B6E1F6E211241FBECFEF29
:10287000D0E4DEBFCDBF12E0A0E0B1E0E8ECFAEEBC
:1028800001E00BBF02C007900D92AA37B107D9F73C
:1028900024E1AAE7B2E001C01D92AD39B207E1F729
:1028A00014E1C4E3D4E104C02197FE010E9431F297
:1028B000C333D107C9F70E947AE30C9458F50C94FE
:1028C0000000A7E2B0E0E7E6F4E10C943AF2809170
:1028D00096148D3409F474C3843511F40C94C7260E
:1028E000873411F00C9411278091941490919514D1
:1028F0008D31910509F407C164F48430910509F420
:10290000ADC01CF4029768F157C34C9709F4E4C0BA
:1029100053C38A35910509F486C244F48E3191057A
:1029200009F4F5C08A9709F4CBC146C38B359105EC
:1029300009F47DC28C35910509F03EC366E6262E6A
:1029400061E0362E73ECE72E71E1F72E8FED9DE0FE
:102950009FA38EA3EFECCE2EEDE0DE2E00E010E084
:10296000A6C280911301882311F40C941327A6E6C4
:102970008A2EA1E09A2EBFECEB2EB1E1FB2E0FEDDB
:102980001DE08FECA82E8DE0B82E9DE7C92E92E0B9
:10299000D92E712CF40181914F010E94D6C7882352
:1029A00011F10E94AEC7F6012081211104C02091CF
:1029B0008102222341F0F80120813181428153813B
:1029C0000E9472F20AC0F3E07F1639F0F50120810F
:1029D0003181428153810E9471F2F70160837183DA
:1029E000828393830AC0F80180819181A281B3819F
:1029F000F70180839183A283B3837394F4E0EF0E95
:102A0000F11C0C5F1F4F24E0A20EB11C4FEFC41A43
:102A1000D40A84E07812BECF86E40E941FC88823BF
:102A2000C9F00E94AEC720E030E0A9010E9411F475
:102A3000181684F40E94AEC720E030E040E752E46C
:102A40000E94ECF26093330170933401809335015E
:102A5000909336010E94BB950C94132780E50E9449
:102A60001FC8882329F00E946EC76B017C0103C038
:102A7000C12CD12C760183E50E941FC8882361F008
:102A80000E94AEC720E030E04AE754E40E9424EE02
:102A90000E9459F36B017C010E94684280919D085D
:102AA000811105C060E08BE991E00E940C680E94F2
:102AB0007FDCC60ED71EE81EF91E0E947FDCDC01FB
:102AC000CB018C199D09AE09BF09B7FD02C00C945A
:102AD00013270E94D394F1CF8091CE0D8770873059
:102AE00011F00C9416278FE40E941FC8882319F058
:102AF0000E949FC703C08FE40E94D6C781110C9427
:102B000013270C9416270E94942E0C941327C09020
:102B1000DF0DD090E00DE090E10DF090E20D88E542
:102B20000E941FC8811108C020E030E0A901C70140
:102B3000B6010E9472F202C00E94AEC768A379A3D8
:102B40008AA39BA3C090E30DD090E40DE090E50D27
:102B5000F090E60D89E50E941FC8811109C020E0B0
:102B600030E040E352E4C701B6010E9471F202C0B6
:102B70000E94AEC79B01AC0169837A838B839C83DF
:102B800068A179A18AA19BA10E94DE93882311F4F8
:102B90000C94132780E00E94142B0E94482C85E49B
:102BA0000E941FC8882321F00E949FC7182F04C0CD
:102BB00085E40E94D6C711E086E50E941FC88823DD
:102BC00021F00E947EC79B0102C021E030E0412F2E
:102BD000BE016F5F7F4FCE0180960E949D876B0183
:102BE0007C019B01AC010E948DF481115FC088A023
:102BF00099A0AAA0BBA020E030E0A901C501B401C2
:102C00000E94BFED87FF05C027E137EB41E558EB98
:102C100004C027E137EB41E558E3C501B4010E9448
:102C200072F2AB01BC0181EE9DE10E94D5DC89808E
:102C30009A80AB80BC8020E030E0A901C501B401DE
:102C40000E94BFED87FF05C027E137EB41E558EB58
:102C500004C027E137EB41E558E3C501B4010E9408
:102C600072F2AB01BC018CED9DE10E94D5DC20E04D
:102C700030E0A901C701B6010E94BFED87FF05C082
:102C800027E137EB41E558EB04C027E137EB41E59D
:102C900058E3C701B6010E9472F2AB01BC0187ED97
:102CA0009DE10E94D5DC8AE00E94B5C80E942F2CCD
:102CB000113011F40E943F2D0E948EC00C941327F6
:102CC00080911301882311F40C94132789E40E9446
:102CD0001FC8E82E882321F00E947EC7F62E01C06F
:102CE000F12C8AE40E941FC8082F882321F00E943B
:102CF0007EC7162F01C010E0EE2019F0F6E0FF1598
:102D000020F0002381F0173070F0E9E8F4E08491BE
:102D10008F010F5F1F4F882311F40C9413270E941B
:102D2000B5C8F801F4CF0E94ABC8EE20F1F02091B5
:102D30000F12309110124F2D4203B001439F700DBE
:102D4000112480912A1290912B12680F791F072E5F
:102D5000000C880B990B0E94C5ED6093CF11709306
:102D6000D0118093D1119093D2110023E9F02091DA
:102D70001112309112121203B001139F700D112421
:102D800080912C1290912D12680F791F072E000C44
:102D9000880B990B0E94C5ED6093D3117093D411E9
:102DA0008093D5119093D61180E50E941FC8882387
:102DB000E9F00E949FC78823E9F00023D9F020E0C2
:102DC00030E040E352E46091D3117091D4118091CE
:102DD000D5119091D6110E9472F26093D311709325
:102DE000D4118093D5119093D61104C080E50E9430
:102DF000D6C7E1CF86E40E941FC8882309F42ACEF3
:102E00000E94AEC76B017C0120E030E0A9010E9466
:102E100011F418160CF01ECE20E030E040E752E42A
:102E2000C701B6010DCE109281020C94132781E0E8
:102E3000809381020C9413270E94AEC72B013C01A2
:102E4000133049F0F60120813181428153810E9483
:102E500071F22B013C01EEA1FFA120813181428161
:102E60005381C301B2010E9471F24B015C012DEB51
:102E700037E346E855EB0E9411F487FD20C02DEBA7
:102E800037E346E855E3C501B4010E94BFED1816CB
:102E9000B4F01F5FF4E0EF0EF11C8EA19FA1049629
:102EA0009FA38EA394E0C90ED11C143031F1F1011F
:102EB00081911F010E941FC8882359F3BDCF133091
:102EC00051F44092EB0D5092EC0D6092ED0D70922A
:102ED000EE0D01E0DECFA5019401F7016081718163
:102EE000828193810E9472F2F701608371838283F1
:102EF0009383812F0E94D832CCCF002309F458C08D
:102F0000C090EB0DD090EC0DE090ED0DF090EE0D3B
:102F100020E030E0A901C701B6010E9472F22091C1
:102F2000F40C3091F50C4091F60C5091F70C0E9486
:102F300024EE0E9415F46093290970932A09809366
:102F40002B0990932C09C0921909D0921A09E0928A
:102F50001B09F0921C099091F7088091F8089817C6
:102F600019F00E940A4224C00E94684280916F00BA
:102F7000982F927081FF05C080916F008D7F8093A4
:102F80006F004091290950912A0960912B09709195
:102F90002C09409336085093370860933808709393
:102FA0003908992329F080916F00826080936F0027
:102FB0000E948EC00C9413270E94AE890C94132794
:102FC00080919414909195148537910509F485C7E3
:102FD0000CF0ACC08B34910509F405C50CF04FC062
:102FE0008931910509F482C21CF58431910509F4F7
:102FF00092C17CF48131910509F404C22CF402974A
:1030000008F48CC10C94C426429709F446C60C946B
:10301000C4268631910509F442C20CF43CC28731C2
:10302000910509F442C2489709F455C20C94C4268C
:103030008E31910509F410C384F48B31910509F4A4
:1030400069C20CF459C28C31910509F4FBC24D9749
:1030500011F40C9413270C94C4268032910509F4C2
:103060008DC30CF4D7C38A32910509F488C4C09784
:1030700011F00C94C4260E9414CD0C9413278936A9
:10308000910509F457C544F58335910509F400C647
:103090009CF48D34910509F4AEC40CF4A8C48135B8
:1030A000910509F4DAC58235910511F00C94C42616
:1030B000109280020C9413278535910509F422C6DD
:1030C0000CF4EBC58C35910509F437C688369105AB
:1030D00009F495C40C94C4268E36910509F4BCC439
:1030E0009CF48B36910509F4A6C50CF486C58C3684
:1030F000910509F417C58D36910511F00C94C4267D
:103100000E947DC40C9413278037910509F40EC5E5
:103110000CF4B5C48237910509F497C6833791053D
:1031200011F00C94C426EEE9F2E0CCC68D32E1E059
:103130009E0711F40C940F240CF06FC08B3C91058A
:1031400009F4C0C7ACF58C38910509F434C5ACF46A
:103150008737910509F41CC70CF4CEC68837910552
:1031600009F419C78937910511F00C94C4261092FF
:10317000A5121092A4120C9413278B39910509F40F
:10318000F3C434F48139910509F40BC70C94C426B7
:103190008E3B910509F42DC5893C910511F00C94E5
:1031A000C426B6E6EB2EB1E0FB2E0CEB1CE071C79B
:1031B0008C3D910511F40C944223ACF48D3C9105A7
:1031C00011F40C94F2200CF498C78E3C910511F484
:1031D0000C947121833D910511F00C94C426E5E710
:1031E000FFE00C946322823E910511F40C94B2230B
:1031F0003CF48D3D910511F40C944F230C94C4269E
:10320000823221E0920711F40C94DB238C3291403E
:1032100011F40C94E6230C94C426843FE1E09E074D
:1032200011F40C94B0250CF03FC0823921E09207D4
:1032300011F40C940925DCF48F32E1E09E0711F4BF
:103240000C94032514F40C94AF24803921E09207E8
:1032500011F40C9406258139914011F00C94C42688
:1032600081E00E94C92D0E948EC00C941327843ADD
:10327000E1E09E0711F40C9411254CF48A39914039
:1032800011F00C94C4260E9439BC0C941327853A83
:1032900041E0940711F40C9414258C3A914011F4F8
:1032A0000C9493210C94C4268C30F2E09F0711F407
:1032B0000C94E925B4F4863F41E0940711F40C9492
:1032C000B62514F40C94B325873FF1E09F0711F461
:1032D0000C94B925883F914011F40C94C5250C94A9
:1032E000C426843843E0940711F40C9457263CF428
:1032F0008335934011F40C94F2250C94C426803A43
:1033000023E0920709F479C2873E934011F40C94AC
:10331000AF260C94C426ECEEF1E07FC0A09092148E
:10332000B090931480E50E941FC8882359F00E9432
:103330006EC76B017C0111E0672B682B692B31F4A0
:1033400010E004C010E0C12CD12C760183E50E946E
:103350001FC8882311F40C94F6270E94AEC720E002
:1033600030E04AE754E40E9424EE0E9459F36B01D6
:103370007C0111110BC0672B682B692B39F4A11448
:10338000B10421F0F5018081811102C010E001C07B
:1033900011E00E946842112329F061E0C5010E94FA
:1033A000466805C060E081EC91E00E940C6881E015
:1033B0008093430CC114D104E104F104B1F00E94E4
:1033C0007FDCC60ED71EE81EF91E0E947FDCDC01E2
:1033D000CB018C199D09AE09BF09B7FF0DC08091C3
:1033E000430C81110C94FB2707C08091430C882368
:1033F00019F00E94D394F9CF0E946A5D1092430C99
:103400000C94132760E084ED91E00E940C685E98B4
:103410005E9815985E980C94132784918F010F5F26
:103420001F4F882321F00E94B5C8F801F6CF1092F3
:10343000CB0B8EE799E00E94EBA58BE1EEE7F9E07C
:10344000DE01159601900D928A95E1F780917C0935
:1034500090917D099C838B8380E891E09A83898396
:1034600040E050E0BE016F5F7F4F80E090E00E943F
:10347000C54ECE0101960E945794EDEDF1E0849186
:103480008F010F5F1F4F882311F40C9413270E94A4
:10349000B5C8F801F4CF0E94E7850C941327109269
:1034A0004D0910924E090C941327E0919214F0915B
:1034B00093148081882329F0803209F41082319698
:1034C000F8CF40E061E080919214909193140E94B3
:1034D00024510C94132780914E09882319F081E020
:1034E00080934D090E947A430C94132710924D0942
:1034F0000E949C430C94132780914E09882311F459
:103500000C94132783E50E941FC881110C94FF2798
:103510000C94132783E40E94D6C7882309F450C073
:10352000EAE2F2E084918F010F5F1F4F882321F0C0
:103530000E94B5C8F801F6CF8091190B811103C024
:10354000EDEFF1E012C0BE016F5F7F4F86E19BE0BF
:103550000E94DAA48E010F5F1F4FF80181918F0145
:10356000882349F10E94B5C8F8CF84918F010F5F7D
:103570001F4F882301F10E94B5C8F801F6CF5CE225
:10358000C52E55E0D52EE12CF12C20E0809195023E
:1035900090E00E2C02C0959587950A94E2F780FD85
:1035A0009EC28FEFE81AF80A92E0C90ED11CE5E03E
:1035B000EE16F10459F78AE00E94B5C80C9413275F
:1035C00080914E09882339F080914D09882319F0A4
:1035D000E7E0F2E003C0E9E1F2E028C084918F0166
:1035E0000F5F1F4F882321F00E94B5C8F801F6CF66
:1035F0006091C70B7091C80B8091C90B9091CA0B59
:103600004AE00E943ECB8FE20E94B5C86091C30B96
:103610007091C40B8091C50B9091C60B4AE00E943B
:103620003ECB8AE00E94B5C80C94132784918F0189
:103630000F5F1F4F882311F40C9413270E94B5C805
:10364000F801F4CF40E060E08091921490919314DF
:103650000E9424510C94132780914E09882311F461
:103660000C94132786E19BE00E949ED586E19BE0A7
:103670000E94B5A410924C0910924B0980914E09FA
:10368000882311F40C941327009192141091931431
:103690000E94874EB801CE0180960E9495508C0101
:1036A000892B11F40C94132768A179A16115710578
:1036B00011F06C5F7F4F19821C8222E0A801CE01BD
:1036C00001960E94FCA9811102C0F12C14C0CE0108
:1036D00001960E940C4E8823C1F361E0CE01019651
:1036E0000E94BEA4009789F325EEFC0120831C8272
:1036F0000E9467D3F82ECE0101960E942BC8F110CC
:1037000003C0E7E4F2E022C0E9E3F2E084917F0144
:103710002FEFE21AF20A882321F00E94B5C8F701C0
:10372000F5CFF80181918F01882319F00E94B5C867
:10373000F8CF8AE00E94B5C81092C70B1092C80B50
:103740001092C90B1092CA0B0C94132784917F011D
:103750002FEFE21AF20A882321F00E94B5C8F70180
:10376000F5CFF80181918F01882319F00E94B5C827
:10377000F8CF8EE20E94B5C80C94132780914D09B2
:1037800081110E94684280914E09882311F40C94A3
:10379000132780E50E941FC8882319F00E949FC745
:1037A00003C080E50E94D6C7182F482F61E08091A2
:1037B0009214909193140E94245183E50E941FC893
:1037C000882381F00E947EC7AB01BC014093C70BE8
:1037D0005093C80B6093C90B7093CA0B86E19BE0B2
:1037E0000E94D9A380914E09882319F081E080932B
:1037F0004D0911110C94132775CE8091921490915C
:10380000931421E020934C0940E060E00E94245191
:103810000C9413270E942B436B017C0120E831E5B7
:1038200041E050E00E94ADF1C9016DE671E00E94F7
:103830000AF24B015C01C701B60120E13EE040E025
:1038400050E00E94ADF1CA01B90128E130E040E04A
:1038500050E00E94ADF12B013C011B01C701B601F4
:103860002CE330E040E050E00E94ADF16B017C01C0
:10387000CA01B9012CE330E040E050E00E94ADF114
:103880008E010F5F1F4F8114910499F0DF92CF9248
:103890007F936F935F924F92BF92AF929F928F925E
:1038A0008FE592E09F938F931F930F930E9459EDA2
:1038B00013C0A114B104B1F0DF92CF927F936F9344
:1038C0005F924F92BF92AF9283E692E09F938F9365
:1038D0001F930F930E9459ED0FB6F894DEBF0FBEF1
:1038E000CDBF32C04114510479F0DF92CF927F9363
:1038F0006F935F924F9287E692E09F938F931F930F
:103900000F930E9459EDE8CF6115710569F0DF92C0
:10391000CF927F936F938BE692E09F938F931F9349
:103920000F930E9459EDD8CFDF92CF928FE692E0AD
:103930009F938F931F930F930E9459ED0F900F90B9
:103940000F900F900F900F9060E0C8010E944668A2
:10395000E5E7FFE084917F012FEFE21AF20A882366
:1039600021F00E94B5C8F701F5CFB80183E792E0D6
:103970000E940DDD8AE00E94B5C80C94132783E5F0
:103980000E941FC8882311F40C9413270E948EC72D
:10399000E82E80E50E941FC8882339F00E948EC758
:1039A000182F87FF03C00C9413271BE189E40E94A2
:1039B0001FC8882341F00E949FC781110C94E12801
:1039C000E6E3F5E00BC089E40E94D6C7F6CF319656
:1039D00045E0E336F40711F40C94E12884911813C0
:1039E000F6CF0C943F280E947A430C9413270E9430
:1039F0009C430C9413270E94B1430C94132788E630
:103A000090E00E9498CB81110C941327809195022D
:103A100083FF02C00C94132783E50E941FC88823EC
:103A200011F40C9413270E94AEC70E9454F3CB01EB
:103A30000E94A8670E94AEC720E030E04AEA52E444
:103A40000E94BFED181614F40C9413270E94B14382
:103A50000E946A5D0C9413278EE40E941FC888237D
:103A600011F40C9413270E947EC7609399087093F9
:103A70009A0880939B0890939C080C94132783E5E5
:103A80000E94D6C7882359F083E50E941FC8882367
:103A900019F00E948EC701C080E080939502E5E78F
:103AA000FFE084918F010F5F1F4F811103C0E4E895
:103AB000F2E004C00E94B5C8F801F3CF84918F01F1
:103AC0000F5F1F4F882321F00E94B5C8F801F6CF81
:103AD00080919502811153CDE0E8F2E018C0BB243B
:103AE000B394B20E222319F08CE20E94B5C8F601FD
:103AF00085919491FC0184918F010F5F1F4F882362
:103B000021F00E94B5C8F801F6CF2B2D4ACD849143
:103B10008F010F5F1F4F882309F44DCD0E94B5C858
:103B2000F801F5CF10925F010C9413278EE79EE009
:103B30000E94739489E690E00E9498CB81110C94C6
:103B4000F628E4E3FFE184918F010F5F1F4F882384
:103B500021F00E94B5C8F801F6CF0E94C3548AE054
:103B60000E94B5C80C94F62883E50E941FC88823DC
:103B700011F40C9413270E948EC7182F8D3308F070
:103B80001CE31093C2110E947FDC6B017C01212F8A
:103B900030E0A8EEB3E00E94FBF1C60ED71EE81E8F
:103BA000F91EC092BE11D092BF11E092C011F092E6
:103BB000C1110C9413278091950283FF02C00C94CD
:103BC000132783E50E941FC8882311F40C94132740
:103BD0000E94AEC70E9454F36436710514F064E687
:103BE00070E070934C1460934B140E94EA560C944E
:103BF00013270E94C5C20C94132780E50E941FC89A
:103C0000811106C083E50E941FC8882361F006C0A9
:103C10000E948EC781110C941327F4CF0E947EC797
:103C20006F3F710510F06FEF70E070934E1460936A
:103C30004D140C94132780E50E941FC8811106C003
:103C400010924E1410924D140C9413270E947EC7AC
:103C5000672B11F00C941327F3CF0E9436570E9464
:103C6000097C10924E1410924D1410927C02109206
:103C70007B0210927A0268EE73E080E090E00E948E
:103C80001D6760E08BE892E00E940C680C9413279B
:103C900081E0809380020C94132783E50E941FC863
:103CA0008823A1F00E94AEC720E030E04AE754E448
:103CB0000E9424EE0E9459F36093450170934601DF
:103CC00080934701909348010C94132788E50E9444
:103CD000D6C781110C94102889E50E94D6C781119E
:103CE0000C9410288AE50E94D6C781110C941028E4
:103CF00085E40E94D6C781110C9410280E94097C8B
:103D00000C94132783E50E94D6C7882311F40C94E2
:103D100013270E94AEC720E030E04AE754E40E9437
:103D200024EE0E9459F36093BA117093BB118093F3
:103D3000BC119093BD110C94132736E6C32E31E0CD
:103D4000D32E48EEE42E4CE0F42E10E0F6018191E3
:103D50006F010E94D6C7882309F46DC0133009F0A3
:103D600063C00E94AEC74B015C0120E030E040EA36
:103D700051E40E94BFED87FF4EC0A5019401609100
:103D8000F40C7091F50C8091F60C9091F70C0E9458
:103D9000ECF22B013C019B01AC016091E40C7091B1
:103DA000E50C8091E60C9091E70C0E9424EE609364
:103DB000E40C7093E50C8093E60C9093E70CA30160
:103DC00092016091B80C7091B90C8091BA0C9091ED
:103DD000BB0C0E9424EE6093B80C7093B90C8093D6
:103DE000BA0C9093BB0C6091701470917114809117
:103DF0007214909173140E94C3EDA30192010E946A
:103E000024EE0E9459F360937014709371148093A0
:103E10007214909373148092F40C9092F50CA0920B
:103E2000F60CB092F70C07C00E94AEC7F701608392
:103E30007183828393831F5FF4E0EF0EF11C1430D3
:103E400009F084CF0E9490DEEEC70E94684283E5AD
:103E50000E941FC8882309F4ABC80E947EC7623045
:103E6000710509F0A5C80E94219A8BE50E94B5C88A
:103E70006091AA117091AB118091AC119091AD112C
:103E800042E00E94EDCB4091AE115091AF11609194
:103E9000B0117091B1118BE992E00E94D5DC409194
:103EA000B2115091B3116091B4117091B5118BE9B9
:103EB00092E00E94D5DC8DE50E94B5C88AE00E94A0
:103EC000B5C8B1C784918F010F5F1F4F882309F4D4
:103ED000AAC70E94B5C8F801F5CF809192149091BD
:103EE0009314FC012081222321F060E00E944668A7
:103EF0009AC70E946A5D97C700919214109193141B
:103F000083E0D12C40E08150E1F0F8019081292F2D
:103F10002B7F2134C1F721812133A9F7913421F07E
:103F2000953421F441E002C0DD24D39498012E5F42
:103F30003F4F89012F5F3F4FF80190819032C9F3C5
:103F4000E2CF442369F0E5E7FFE084917F012FEFA2
:103F5000E21AF20A882321F00E94B5C8F701F5CFD2
:103F6000DD2069F0E6E6F3E084917F014FEFE41A8B
:103F7000F40A882321F00E94B5C8F701F5CFF801B3
:103F800081918F01882309F416CB0E94B5C8F7CF21
:103F90000E94247F48C781E08093A5128093A412D9
:103FA00042C783E50E941FC8882319F00E947EC77C
:103FB00002C060E070E08B01112702301105D4F0DF
:103FC000E6E4FFE084918F010F5F1F4F811103C072
:103FD000EAE6F3E004C00E94B5C8F801F3CF84918B
:103FE0008F010F5F1F4F882309F41DC70E94B5C8BA
:103FF000F801F5CF88E40E941FC88823A9F00E9429
:104000007EC76A3A71053CF06530F1E07F072CF01D
:1040100064E071E002C06AEA70E0F801EE0FFF1F91
:10402000E05FFE4E7183608386E40E941FC8882390
:10403000A9F00E947EC7F801EE0FFF1FEC5EFE4E56
:10404000718360836F3F710519F014F06FEF70E0BA
:1040500077FF02C060E070E07183608382E40E94B9
:104060001FC8882309F4DFC60E947EC7653071052A
:1040700034F0653671052CF064E670E002C065E04E
:1040800070E0000F111FF801E45FFE4E7183608342
:10409000CAC6F70181917F010E94D6C7882349F0E3
:1040A0000E94AEC70E9459F3F80160837183828336
:1040B00093830C5F1F4FFCE00C3C1F0751F70E94DD
:1040C00028DDB1C6A6E6EA2EA1E0FA2E0CEA1CE035
:1040D000F70181917F010E94D6C7882339F00E94A1
:1040E000AEC7F80160837183828393830C5F1F4F97
:1040F000FCE00C3B1F0761F796C683E50E941FC8D2
:104100008823A1F00E94AEC76093D40C7093D50CA5
:104110008093D60C9093D70C6093CC0C7093CD0CFD
:104120008093CE0C9093CF0C10E001C011E080E59D
:104130000E941FC8882359F00E94AEC76093D40C18
:104140007093D50C8093D60C9093D70C10E082E539
:104150000E941FC8882359F00E94AEC76093D00CFC
:104160007093D10C8093D20C9093D30C10E084E523
:104170000E941FC8882359F00E94AEC76093CC0CE0
:104180007093CD0C8093CE0C9093CF0C4CC6112322
:1041900009F449C64091D40C5091D50C6091D60CCD
:1041A0007091D70C8CE893E00E94D5DC4091D00C44
:1041B0005091D10C6091D20C7091D30C88E29BE1AC
:1041C0000E94D5DC4091CC0C5091CD0C6091CE0C6E
:1041D0007091CF0C85E29BE10E94D5DC8AE00E94C1
:1041E000B5C821C681E50E94D6C7882351F00E9438
:1041F0006EC76093900270939102809392029093A5
:10420000930283E50E94D6C7882351F00E94AEC76F
:104210006093A80C7093A90C8093AA0C9093AB0C9C
:1042200084E50E94D6C7882351F00E94AEC76093F0
:10423000A40C7093A50C8093A60C9093A70C88E512
:104240000E94D6C7882351F00E94AEC76093D80C55
:104250007093D90C8093DA0C9093DB0C89E50E9463
:10426000D6C7882351F00E94AEC76093DC0C7093D0
:10427000DD0C8093DE0C9093DF0C8AE50E94D6C79C
:104280008823F1F00E94AEC76093E00C7093E10CBC
:104290008093E20C9093E30C2DEC3CEC4CEC5DE352
:1042A0000E94BFED181664F0ECE9F3E084918F01F1
:1042B0000F5F1F4F882321F00E94B5C8F801F6CF89
:1042C00085E40E94D6C7882309F4ADC50E94AEC715
:1042D0006093E40C7093E50C8093E60C9093E70CEC
:1042E000A2C5E6E6CE2EE1E0DE2EF7EAEF2EF2E101
:1042F000FF2E10E0F60181916F010E94D6C788233E
:1043000051F00E94AEC7F70160837183828393836B
:10431000812F0E94D8321F5FF4E0EF0EF11C1330A2
:1043200049F70C94D8170E94578581117CC505EE7A
:104330001FE18FED9DE09FA38EA3FE0131964F01FB
:104340007CE1A72E70E2B72E1F01F80165917591EF
:1043500085919491EEA1FFA1C190D190E190F1904F
:10436000FFA3EEA3A70196010E9471F22B013C016D
:10437000F101608371838283938320E030E040EA1F
:1043800051EC0E9411F487FD0AC020E030E040EAC1
:1043900051E4C301B2010E94BFED18162CF4F501DF
:1043A000849118160CF461C6F101C190D190E1908E
:1043B000F1901F0120E030E040EA51ECC701B60166
:1043C0000E9411F487FD0AC020E030E040EA51E489
:1043D000C701B6010E94BFED181684F5E6E4FFE0C0
:1043E00084918F010F5F1F4F811103C0ECEEF3E04A
:1043F00004C00E94B5C8F801F3CF84918F010F5F0C
:104400001F4F882321F00E94B5C8F801F6CF61E064
:104410008EED93E00E940C680E94196C88E290E097
:1044200099A388A388EC90E09DA38CA3BE01605E55
:104430007F4FCE0184960E940885F5C40C5F1F4F04
:10444000FFEFAF1ABF0A2FE1013F120709F07DCF3E
:1044500067EAE62E62E1F62E10E0F4018191919177
:10446000A191B1914F01F70181939193A193B193E0
:104470007F01812F0E94D8321F5F133071F70E9495
:104480008EC060E08EEC93E00E940C6883E992E0BD
:104490009DA38CA304E610E019A308A3BE016C5DE4
:1044A0007F4FCE0180960E9408858AEB92E09DA303
:1044B0008CA319A308A3BE016C5D7F4FCE0180962B
:1044C0000E940885B0C484918F010F5F1F4F88231D
:1044D00021F00E94B5C8F801F6CF83E50E94D6C747
:1044E000882321F00E949FC780933801EAE1F4E01D
:1044F00084918F010F5F1F4F882321F00E94B5C860
:10450000F801F6CF80913801882319F0E2E6FEE148
:1045100002C0EEE5FEE184918F010F5F1F4F811114
:1045200003C0E2E1F4E004C00E94B5C8F801F3CF93
:1045300084918F010F5F1F4F882321F00E94B5C81F
:10454000F801F6CF2091CF0D3091D00D4091D10DD3
:104550005091D20D609118127091191280911A1217
:1045600090911B120E9472F2AB01BC0183ED9CE1A1
:104570000E94D5DC2091D30D3091D40D4091D50D02
:104580005091D60D60911C1270911D1280911E12D7
:1045900090911F120E9472F2AB01BC0180EA90E27E
:1045A0000E94D5DC2091D70D3091D80D4091D90DC6
:1045B0005091DA0D60912012709121128091221297
:1045C000909123120E9472F2AB01BC0181E59BE144
:1045D0000E94D5DCEAE0F4E084918F010F5F1F4F69
:1045E000882321F00E94B5C8F801F6CF2091CF0DA5
:1045F0003091D00D4091D10D5091D20D6091490173
:1046000070914A0180914B0190914C010E9472F28D
:10461000AB01BC0183ED9CE10E94D5DC2091D30D60
:104620003091D40D4091D50D5091D60D60914D0132
:1046300070914E0180914F01909150010E9472F251
:10464000AB01BC0180EA90E20E94D5DC2091D70D3D
:104650003091D80D4091D90D5091DA0D60915101F2
:104660007091520180915301909154010E9472F215
:10467000AB01BC0181E59BE10E94D5DC8AE00E9490
:10468000B5C8D1C383E50E941FC8882309F4CBC3F2
:104690000E947EC770931E0160931D01C4C38DEDFF
:1046A00090E00E9498CB8111BEC383E50E941FC891
:1046B000811103C0E5E7FFE02FC00091D60B10E0A9
:1046C0000E947EC7000F111FF801E55EFE4F718347
:1046D00060838091D60B90E08C01000F111F000FBA
:1046E000111F095E1E4F880F991FFC01E55EFE4FEA
:1046F00060817181072E000C880B990B0E94C5ED1B
:104700002AE037ED43E25CE30E9424EEF801608387
:1047100071838283938387C384918F010F5F1F4FBF
:10472000882321F00E94B5C8F801F6CF85E40E94E5
:10473000B5C88091D60B805D0E94B5C8E091D60BBC
:10474000F0E0EE0FFF1FE55EFE4F608171818AE2AF
:1047500094E00E94F3DC85E20E94B5C88AE00E94E2
:10476000B5C861C380E50E94D6C7882309F45BC33E
:104770000E947EC76B017C0183E50E941FC88823CD
:1047800021F00E947EC78B0102C00FEF1FEFC8010E
:104790000196039708F047C3D7FC45C38C2DE6E389
:1047A000F5E09491891709F46AC4319625E0E3365F
:1047B000F207B9F767C48AE50E941FC8811187C450
:1047C00083E50E941FC8811182C42DC383E50E9426
:1047D0001FC8882319F00E947EC702C064E071E000
:1047E00079A368A380E50E941FC8882339F00E943E
:1047F0007EC7693843E1740730F402C068EE73E0A5
:104800007A83698304C088E893E19A838983BE012F
:10481000605E7F4FCE0101960E94088504C385E447
:104820000E941FC8811110C080E50E94D6C788234E
:1048300091F00E94AEC760930011709301118093B4
:1048400002119093031107C00E948EC7882361F361
:10485000E6E4FFE071C089E40E94D6C7882381F0B6
:104860000E94AEC72CEA35EC47E25EE30E9424EEDC
:10487000609308117093091180930A1190930B11A2
:1048800084E40E94D6C7882381F00E94AEC72CEA38
:1048900035EC47E25EE30E94ECF260930411709302
:1048A00005118093061190930711E5E7FFE08491CD
:1048B0008F010F5F1F4F882321F00E94B5C8F801B8
:1048C000F6CF409100115091011160910211709149
:1048D00003118BE494E00E94D5DC2CEA35EC47E22E
:1048E0005EE3609108117091091180910A11909115
:1048F0000B110E94ECF2AB01BC0187E494E00E9432
:10490000D5DC2CEA35EC47E25EE36091041170914E
:10491000051180910611909107110E9424EEAB01C0
:10492000BC0183E494E00E94D5DC8AE00E94B5C813
:104930007AC20E94B5C8F80184918F010F5F1F4FA2
:104940008111F7CFEFE4F4E084918F010F5F1F4FE7
:10495000882309F468C20E94B5C8F801F5CF83E541
:104960000E94D6C7182F882371F00E94AEC70E94FC
:1049700054F3709301016093000121E0672B09F06B
:1049800020E02093940280E50E94D6C7882359F046
:104990002091000130910101232B11F00E949FC74B
:1049A0008093940240C211113EC2E5E7FFE084917A
:1049B0008F010F5F1F4F882321F00E94B5C8F801B7
:1049C000F6CF80919402882319F06CE272E002C065
:1049D0006FE272E086E794E00E940DDD60910001D5
:1049E0007091010185E694E00E94F3DCE1E6F4E0D9
:1049F00084918F010F5F1F4F882309F414C20E9416
:104A0000B5C8F801F5CF0E9477BC0DC20E9468427C
:104A10000AC280E00E94C92D0E943F2D0E948EC0D4
:104A200002C20E9455C1FFC189E40E941FC88823A9
:104A300021F00E947EC76B0103C0CC24CA94DC2CF9
:104A4000EC2C8AE40E941FC8882321F00E947EC7B4
:104A50008B0102C00FEF1FEF8AE50E94D6C7F82E28
:104A6000811105C081E50E94D6C7B82E01C0B12CC6
:104A7000E7FC07C0802F07FD04C0F1101CC0B11077
:104A80001AC0E6E4FFE084918F010F5F1F4F811190
:104A900003C0E8EAF4E004C00E94B5C8F801F3CF0F
:104AA00084918F010F5F1F4F882309F4BCC10E94BE
:104AB000B5C8F801F5CF96E09C1510F00730D0F09E
:104AC000E6E4FFE084918F010F5F1F4F811103C067
:104AD000E9E8F4E004C00E94B5C8F801F3CF84917E
:104AE0008F010F5F1F4F882309F49DC10E94B5C835
:104AF000F801F5CF0E2C000CFF08082F880F110BC2
:104B00000E94AEC7BB2099F027E02E9DF0012F9D9B
:104B1000F00D1124E00FF11FEE0FFF1FEE0FFF1F2E
:104B2000E850F34F208131814281538103C020E05E
:104B300030E0A901A7E0AE9DF001AF9DF00D11247A
:104B40000E0F1F1F000F111F000F111F0850134FD2
:104B50000E9472F2F801608371838283938363C140
:104B60000E9426B860C10E941AB85DC10E9465B259
:104B70005AC183E50E94D6C7882321F00E949FC7AF
:104B800091E089270E944F7F4EC181E080932F12D0
:104B90000E9470B310922F12882309F444C1E5E7F4
:104BA000FFE084918F010F5F1F4F811103C0E8EC7C
:104BB000F4E004C00E94B5C8F801F3CF84918F01DE
:104BC0000F5F1F4F882309F42EC10E94B5C8F8015A
:104BD000F5CF80914D09882309F425C181E08093A8
:104BE000500921C18AE50E941FC8811103C0E5E771
:104BF000FFE03BC00E94AEC76B017C0120E030E0CB
:104C000048E452EC0E9411F487FD0AC020E030E035
:104C100048E452E4C701B6010E94BFED18161CF427
:104C2000E6E4FFE00CC0C092DB0DD092DC0DE09218
:104C3000DD0DF092DE0DF7C00E94B5C8F801849139
:104C40008F010F5F1F4F8111F7CFE3EDF4E08491E7
:104C50008F010F5F1F4F882309F4E5C00E94B5C87C
:104C6000F801F5CF0E94B5C8F80184918F010F5F5C
:104C70001F4F8111F7CFE3E0F1E284918F010F5FC5
:104C80001F4F882321F00E94B5C8F801F6CF40914C
:104C9000DB0D5091DC0D6091DD0D7091DE0D8BE729
:104CA0009EE00E94D5DC8AE00E94B5C8BCC08BE4BF
:104CB0000E941FC8811103C0E5E7FFE036C08BE406
:104CC0000E941FC88823C1F00E94AEC76B017C01FF
:104CD00020E030E0A9010E9411F487FD0AC020E025
:104CE00030E040E251E4C701B6010E94BFED181662
:104CF00034F4E0EFF4E00EC0C12CD12C76010E9418
:104D00006842C092FC10D092FD10E092FE10F0922A
:104D1000FF1089C084918F010F5F1F4F882309F412
:104D200082C00E94B5C8F801F5CF84918F010F5F52
:104D30001F4F882321F00E94B5C8F801F6CF40919B
:104D4000FC105091FD106091FE107091FF108FE0EB
:104D500095E00E94D5DC8AE00E94B5C864C081E07D
:104D6000809313011092FB0F83E50E941FC88823D4
:104D700039F00E949FC7811156C00E945B9C53C0AE
:104D800083E50E94D6C7F7CF0E94AE894CC0F09051
:104D900094140E9468421091171280E045D4FF20BD
:104DA00029F1E5E7FFE084918F010F5F1F4F882312
:104DB00021F00E94B5C8F801F6CF84E50E94B5C87D
:104DC0006F2D70E080E090E04AE00E943ECB80E2F0
:104DD0000E94B5C8EFE4F4E084918F010F5F1F4F8C
:104DE000882309F10E94B5C8F801F6CF1092320C61
:104DF000812F1AD4E5E7FFE084918F010F5F1F4FE9
:104E0000882321F00E94B5C8F801F6CF6091320CDA
:104E100070E08AE195E00E94F3DC8AE00E94B5C868
:104E200002C00E94AE890E94409CE0C10E9468427C
:104E300080E0FAD32DD511E01093A51288E50E94E9
:104E4000D6C7B82E89E50E94D6C7082F8AE50E94EA
:104E5000D6C7A82EB11004C0011104C01A2505C080
:104E6000011102C010E001C01A2D0E94ABC882E5FA
:104E70000E941FC8882361F00E94AEC76B017C01AD
:104E800020E030E0A9010E94BFED882361F105C058
:104E9000C12CD12CF0E4EF2EFE2C111104C0B11066
:104EA00002C0002389F1C092D711D092D811E092AC
:104EB000D911F092DA11A70196016091E70D709176
:104EC000E80D8091E90D9091EA0D0E94BFED87FFFA
:104ED0000AC019821A821B821C82BE016F5F7F4F3B
:104EE00087ED91E1AED5111105C0B11003C00111DC
:104EF00006C00AC080E00E9493921123C1F381E0B2
:104F00000E949392111103C0AA2009F460C08091FD
:104F1000CE0D83708330F9F060E083EB91E00E9466
:104F20000C68E5E7FFE084918F010F5F1F4F81114F
:104F300003C0E4EAF1E004C00E94B5C8F801F3CF71
:104F400084918F010F5F1F4F882309F43FC00E9497
:104F5000B5C8F801F5CF0E9434C780E090E0AAEC14
:104F6000B2E48093CF119093D011A093D111B0935C
:104F7000D211E090E70DF090E80D0091E90D10914D
:104F8000EA0DE092D711F092D8110093D911109345
:104F9000DA1180E090E0A2E1B3E48093D311909322
:104FA000D411A093D511B093D61119821A821B8205
:104FB0001C82FE0131966F019C01AD0160E070E042
:104FC0008AEC92E484D482E00E94939258D50E94A5
:104FD00034C78091A4128093A51281E025D33FD4D9
:104FE00083E0809337010E948EC01DCF11110C9475
:104FF000C6190C94BF190E94D3940C94E5190E9411
:105000007EC7AB01BC014093C70B5093C80B6093A4
:10501000C90B7093CA0B86E19BE00E94D9A303CF12
:105020000E94684288E50E94D6C7882331F05E9AC4
:105030008091CE0D8E7F8093CE0D89E50E94D6C7DC
:10504000882331F05E9A8091CE0D8D7F8093CE0DB6
:105050008AE50E94D6C7882309F4E5CE159A809187
:10506000CE0D8B7F8093CE0DDECEF7FAF094F7F85D
:10507000F094F101C082D182E282F38295C90E944C
:10508000BDE7D1CE0E946842BC2C60E08C2D0E940E
:105090009DDB0F3FFFEF1F0741F48C2D0E9449DB82
:1050A00001E010E0892B31F00FC00130110561F4EF
:1050B00001E010E08B2D0E9449DB8017910709F475
:1050C000B2CE0E94D394F6CF00E010E0F3CF0E945E
:1050D000AEC720E030E040E050EC0E94BFED87FD1D
:1050E00015C00E94AEC720E030E040E050E40E94CE
:1050F00011F418162CF00E94AEC76B017C010BC096
:10510000C12CD12CE12C90E4F92E05C0C12CD12C5E
:10511000E12C80ECF82E8091CE0D82FF18C000911A
:10512000200C1091210C2091F00C3091F10C409149
:10513000F20C5091F30CC701B6010E9424EE0E94BC
:1051400054F3600F711F7093210C6093200C80E565
:105150000E94D6C7882329F00E949FC7882309F49C
:1051600062CEA70196016091DB0D7091DC0D8091FC
:10517000DD0D9091DE0D0E9472F26093DB0D709355
:10518000DC0D8093DD0D9093DE0DE5E7FFE084916B
:105190008F010F5F1F4F882321F00E94B5C8F801CF
:1051A000F6CF4091DB0D5091DC0D6091DD0D7091DB
:1051B000DE0D82E394E00E94D5DC8AE00E94B5C84F
:1051C00032CE61E0812F0E949DDB6E2D812F0E94E7
:1051D0006FDBF12CB701812F0E94D9DB143009F06D
:1051E00022CEF0924E14E0924D141DCEA796E2E12D
:1051F0000C9456F290917C029817C9F080937C022F
:10520000882369F080914D1490914E1490937B0205
:1052100080937A0210924E1410924D14089580914A
:105220007A0290917B0290934E1480934D140895CE
:10523000CF92DF92EF920F931F93CF93DF93CDB76F
:10524000DEB760970FB6F894DEBF0FBECDBFE0901B
:10525000320CEFEDFDE080859185A285B385448118
:105260005581668177810081118122813381098393
:105270001A832B833C834D835E836F837887898772
:105280009A87AB87BC871D861E861F86188AAE014B
:10529000475F5F4FBE016B5F7F4FCE0101960E945B
:1052A0007E7CCE010D966C0103E311E02BEE3DE018
:1052B000AE01475F5F4FBE016B5F7F4F0C970E944F
:1052C000183360960FB6F894DEBF0FBECDBFDF91E6
:1052D000CF911F910F91EF90DF90CF900895A4E1AF
:1052E000B0E0E5E7F9E20C943BF2F82E4A015B01ED
:1052F00028013901082F10E0F801E45EFF4DE49128
:10530000332433941E160CF4312CEE24E39420E065
:1053100030E0A901C501B4010E9411F418160CF087
:10532000E12C3E2459F082E0F81208C081E062DFEF
:1053300069E170E080E090E00E941D67000F111F9E
:10534000000F111FF801E152F24F6F01108211821C
:10535000128213820E9434C7F60180829182A28257
:10536000B382E090320C20E030E0A901C301B20129
:105370000E94BFED811107C0F801EF50F04E45903B
:10538000559065907490498A5A8A6B8A7C8A80917C
:10539000E70D9091E80DA091E90DB091EA0D4091D3
:1053A000E30D5091E40D6091E50D7091E60D0091D3
:1053B000DF0D1091E00D2091E10D3091E20D098398
:1053C0001A832B833C834D835E836F837887898721
:1053D0009A87AB87BC871D861E861F86188AAE01FA
:1053E000475F5F4FBE016B5F7F4FCE0101960E940A
:1053F0007E7CCE010D966C018E010F5E1F4F2BEE51
:105400003DE0AE01475F5F4FBE016B5F7F4F0C9782
:105410000E9418330E946842332081F092E0F91212
:1054200002C080E0E7DE8091B812882319F0109264
:10543000B81204C088E995E00E9473946496E1E193
:105440000C9457F2CF92DF92EF92FF9260910F127D
:1054500070911012072E000C880B990B0E94C5ED5D
:105460006B017C012DEB37E346E855EB0E9411F40C
:1054700087FD0AC02DEB37E346E855E3C701B601C7
:105480000E94BFED18164CF4A701960160E070E091
:1054900080E89FE30E94ECF203C060E070E0CB0183
:1054A0006093A2117093A3118093A4119093A511FE
:1054B0006091111270911212072E000C880B990B3B
:1054C0000E94C5ED6B017C012DEB37E346E855EBFF
:1054D0000E9411F487FD0AC02DEB37E346E855E33F
:1054E000C701B6010E94BFED18164CF4A701960142
:1054F00060E070E080E89FE30E94ECF203C060E0AF
:1055000070E0CB016093A6117093A7118093A8114E
:105510009093A911FF90EF90DF90CF900895A0E0B5
:10552000B0E0E5E9FAE20C9440F2EFE7F5E08491AF
:10553000EF012196882321F00E94B5C8FE01F7CF24
:10554000C12CD12C7601C0E080E20E94B5C8CF5FAB
:10555000C630D1F7C701B6010E94D2CB8FEFC81A6F
:10556000D80AE80AF80A97E0C916D104E104F10460
:1055700051F78AE00E94B5C808EF1CE0C12CD12C7D
:10558000760180E20E94B5C8C701B6010E94D2CB65
:10559000C0E0D0E080E20E94B5C8F801EC0FFD1F2A
:1055A00080809180A280B380A5019401C501B401DF
:1055B0000E948DF4811112C020E030E0A901C501E4
:1055C000B4010E9411F487FD03C08BE20E94B5C8AC
:1055D00043E0C501B4010E94EDCB09C0B12C80E2CB
:1055E0000E94B5C8B3948DE396E0B912F9CF6C96DA
:1055F000C43CD10579F68AE00E94B5C88FEFC81A7D
:10560000D80AE80AF80A0C5F1F4F97E0C916D104C0
:10561000E104F10409F0B5CF8AE00E94B5C8CDB726
:10562000DEB7ECE00C945CF2ACE0B0E0EAE1FBE267
:105630000C9449F2882331F020910F12309110120E
:10564000232BA9F190911712891789F1182F0E9425
:1056500068428CE0EAE6F1E0DE01119601900D92DD
:105660008A95E1F7CE0101960E943D9A1093171298
:10567000111117C00E94219A8AEA91E10E94477C89
:105680008091B2119091B311A091B411B091B51164
:105690008093E70D9093E80DA093E90DB093EA0D88
:1056A00004C08FED9DE00E94477C0E9434C72C9679
:1056B000E3E00C9465F2CF92DF92EF92FF9280E0EC
:1056C000B3DF109212121092111210921012109257
:1056D0000F1210922D1210922C1210922B12109267
:1056E0002A1248EF5CE027E0C12CD12C80ECE82E98
:1056F0008FE7F82E80E090E0FA01E80FF91FC082F2
:10570000D182E282F38204968C319105A9F721506F
:10571000445E5F4F2111EECFFF90EF90DF90CF906E
:105720000895ACE0B0E0E7E9FBE20C9444F26B01D1
:105730007C01142F9B01AC016091590C70915A0CA3
:1057400080915B0C90915C0C0E94BFED882309F462
:1057500082C00091171280E067DF20E030E0A901ED
:10576000C701B6010E9411F418161CF0C12CD12CEF
:105770007601C092590CD0925A0CE0925B0CF092D8
:105780005C0C2DEB37E346E855EBC701B6010E94F0
:1057900011F487FD0AC02DEB37E346E855E3C70156
:1057A000B6010E94BFED18164CF4A701960160E007
:1057B00070E080E89FE30E94ECF203C060E070E0DC
:1057C000CB01609386027093870280938802909346
:1057D000890280EF9FEFA9E7B4EC80938202909357
:1057E0008302A0938402B09385020023A1F18091EB
:1057F000DF0D9091E00DA091E10DB091E20D898354
:105800009A83AB83BC838091E30D9091E40DA091CA
:10581000E50DB091E60D8D839E83AF83B8878091AF
:10582000E70D9091E80DA091E90DB091EA0D8987FF
:105830009A87AB87BC8781E0F7DE112361F04CE0EB
:1058400050E06FED7DE0CE0101960E94DAF4892BE5
:1058500011F00E948EC02C96E8E00C9460F28091CA
:105860008C0290918D02A0918E02B0918F02809354
:10587000330190933401A0933501B09336018091A8
:105880008A0290918B0290931E0180931D010895CE
:105890008091330190913401A0913501B09136018E
:1058A00080938C0290938D02A0938E02B0938F020E
:1058B00080911D0190911E0190938B0280938A022A
:1058C00084E690E090931E0180931D010895AEE060
:1058D000B0E0EDE6FCE20C943CF26D837E838F83B6
:1058E000988729873A874B875C8747015801DE866E
:1058F000CD868091330190913401A0913501B09112
:10590000360189839A83AB83BC83D601CD90DD9029
:10591000ED90FC9020E030E0A901C701B6010E94A3
:10592000BFED811106C0E9EFFFE1C590D590E5908C
:10593000F490A50194016091E70D7091E80D8091BC
:10594000E90D9091EA0D0E94BFED87FF11C0C09252
:105950003301D0923401E0923501F0923601809209
:10596000E70D9092E80DA092E90DB092EA0D60DC8F
:10597000ED85FE85408051806280738020E030E0BC
:10598000A901C301B2010E94BFED811108C040907E
:105990002F0150903001609031017090320140929F
:1059A00033015092340160923501709236018D813D
:1059B0009E81AF81B8858093DF0D9093E00DA09319
:1059C000E10DB093E20D89859A85AB85BC85809306
:1059D000E30D9093E40DA093E50DB093E60D28DC64
:1059E0002091E70D3091E80D4091E90D5091EA0DBD
:1059F000C501B4010E94BFED87FF11C0C092330101
:105A0000D0923401E0923501F09236018092E70D98
:105A10009092E80DA092E90DB092EA0D09DC0E9487
:105A2000684289819A81AB81BC81809333019093D4
:105A30003401A0933501B09336012E96E0E10C9429
:105A400058F2CF92DF92EF92FF920F931F936B0168
:105A5000FC01E080F18002811381EFEDFDE0248103
:105A600035814681578160817181828193812FDFE9
:105A70001F910F91FF90EF90DF90CF900895CF92FC
:105A8000DF92EF92FF92CF93DF93CDB7DEB72897E7
:105A90000FB6F894DEBF0FBECDBF20E030E040E28D
:105AA00051E46091E70D7091E80D8091E90D9091BE
:105AB000EA0D0E94BFED8823E1F01D821E821F8245
:105AC0001886C12CD12C80E2E82E81E4F82EC98200
:105AD000DA82EB82FC82BE016B5F7F4FCE010196C2
