:100000000C9410170C943A170C943A170C943A1756
:100010000C943A170C943A170C943A170C943A171C
:100020000C943A170C943A170C943A170C943A170C
:100030000C943A170C94FD9D0C943A170C943A17B3
:100040000C943A170C94B5B00C942E8A0C943A1771
:100050000C94C23A0C943A170C943A170C943A1731
:100060000C943A170C943A170C943A170C943A17CC
:100070000C943A170C943A170C943A170C943A17BC
:100080000C943A170C943A170C943A172D4E304EA4
:10009000234E274E474E474E344E384E3E4E424E2C
:1000A0009D89A289A789B189DF89DF89BB89C38935
:1000B000CB89D589084AD73B3BCE016E84BCBFFDB6
:1000C000C12F3D6C74319ABD56833DDA3D00C77F28
:1000D00011BED9E4BB4C3E916BAAAABE00000080C1
:1000E0003F05A84CCDB2D44EB93836A9020C50B950
:1000F000918688083CA6AAAA2ABE000000803F007C
:100100004E414E494E495459494E46CDCCCC3D0AFC
:10011000D7233C17B7D13877CC2B329595E6241FDF
:10012000B14F0A000020410000C84200401C462098
:10013000BCBE4CCA1B0E5AAEC59D74434F4D4D55A7
:100140004E49434154494F4E0044525952554E0076
:100150004552524F525300494E464F004543484F77
:100160000020746F6F206C6F6E67206578747275F5
:1001700073696F6E2070726576656E7465640A00CF
:1001800020636F6C6420657874727573696F6E207C
:1001900070726576656E7465640A0047322F473366
:1001A0002062616420706172616D65746572730AAA
:1001B00000536C6565702E2E2E00526573756D6947
:1001C0006E67207072696E74004D616C79616E208B
:1001D0004D3135302072656164792E00436C69635E
:1001E0006B20746F20726573756D652E2E2E004E18
:1001F0006F206D6F76652E00456E642066696C65B4
:10020000206C6973740A00426567696E2066696CC8
:1002100065206C6973740A005344207072696E74AF
:10022000696E67206279746520004E6F74205344B4
:10023000207072696E74696E670A0046696C652089
:1002400064656C657465643A0044656C6574696FD7
:100250006E206661696C65642C2046696C653A2085
:10026000006F70656E206661696C65642C2046695C
:100270006C653A200043616E6E6F74206F70656E1E
:100280002073756264697220002569730025696DA9
:1002900020256973002569682025696D202569730B
:1002A00000256964202569682025696D202569730A
:1002B0000025697920256964202569682025696DF4
:1002C00020256973005072696E742074696D653AF7
:1002D000200000010F150E12FF16170E13FF030268
:1002E0001A14FFFFFF0C04FFFFFF01000EFFFF0CBD
:1002F000190DFF18FFFFFFFFFFFF50726F7465635A
:100300007465642050696E0A0045256920257300D4
:100310004D616C79616E204D3135302072656164BC
:10032000792E005C015701500149013B016F66665F
:100330000044454255473A004B494C4C45442E2019
:10034000004D3131332053006F6B00486561746993
:100350006E6720646F6E652E0020573A0045256950
:10036000202573004D616C79616E204D3135302050
:1003700072656164792E0042656420646F6E652E3B
:100380000020573A004265642048656174696E67D1
:100390002E004D616C79616E204D313530204F66F5
:1003A000662E004361703A454D455247454E4359CC
:1003B0005F5041525345523A300A004361703A430C
:1003C0004153455F4C494748545F4252494748545E
:1003D0004E4553533A300A004361703A544F4747F1
:1003E0004C455F4C49474854533A300A00436170CA
:1003F0003A534F4654574152455F504F5745523A32
:10040000300A004361703A4255494C445F504552AE
:1004100043454E543A300A004361703A4C455645C4
:100420004C494E475F444154413A300A00436170A1
:100430003A5A5F50524F42453A300A004361703A8F
:100440004155544F4C4556454C3A300A0043617073
:100450003A5052494E545F4A4F423A310A00436182
:10046000703A50524F47524553533A300A00436155
:10047000703A4155544F5245504F52545F54454D78
:10048000503A310A004361703A454550524F4D3A57
:10049000310A004361703A53455249414C5F584F0D
:1004A0004E5F584F46463A300A004649524D574132
:1004B00052455F4E414D453A4D61726C696E203137
:1004C0002E312E3720284769746875622920534FD2
:1004D000555243455F434F44455F55524C3A68740B
:1004E0007470733A2F2F6769746875622E636F6D2D
:1004F0002F4D61726C696E4669726D776172652FFE
:100500004D61726C696E2050524F544F434F4C5F97
:1005100056455253494F4E3A312E30204D414348B3
:10052000494E455F545950453A4D616C79616E2092
:100530004D3135302045585452554445525F434F54
:10054000554E543A3120555549443A63303431645C
:100550003338612D653364332D346362382D383878
:1005600064312D6435623361366639343462610A30
:10057000002F2F20007A5F6D696E3A2000795F6D41
:10058000696E3A2000785F6D696E3A20005265709E
:100590006F7274696E6720656E6473746F70207318
:1005A00074617475730A004D31343520533C696EA3
:1005B0006465783E206F7574206F662072616E6787
:1005C000652028302D31290A0053657474696E67DF
:1005D0002054726176656C20416363656C6572615D
:1005E00074696F6E3A200053657474696E672052A7
:1005F00065747261637420416363656C65726174D4
:10060000696F6E3A200053657474696E672050728A
:10061000696E7420416363656C65726174696F6EA5
:100620003A200053657474696E67205072696E7465
:1006300020616E642054726176656C20416363654D
:100640006C65726174696F6E3A2000205A002059FF
:1006500000580020204D61783A2000205A0020598F
:1006600000580020204D696E3A20004F6E20004F48
:10067000666600536F667420656E6473746F707382
:100680003A2000486F6D6520257325732573206619
:1006900069727374002066697273740A005A005993
:1006A000005800486F6D6520004F6666736574736F
:1006B000206170706C696564004572723A20546FF5
:1006C0006F206661722100546F6F20666172206630
:1006D000726F6D207265666572656E636520706FFE
:1006E000696E740A004E6F2063617365206C6967E0
:1006F00068740A0041637469766520457874727580
:100700006465723A2000556E6B6E6F776E20636F72
:100710006D6D616E643A2022004C696E65204E75E5
:100720006D626572206973206E6F74204C61737402
:10073000204C696E65204E756D6265722B312C20E0
:100740004C617374204C696E653A20004B494C4CE7
:1007500045442E200053544F505045442E20005005
:1007600072696E7465722073746F70706564206452
:10077000756520746F206572726F72732E204669E2
:100780007820746865206572726F7220616E6420D3
:10079000757365204D39393920746F207265737413
:1007A0006172742E202854656D7065726174757263
:1007B000652069732072657365742E2053657420FB
:1007C00069742061667465722072657374617274F5
:1007D000696E67290A004E6F20436865636B737505
:1007E0006D2077697468206C696E65206E756D6226
:1007F00065722C204C617374204C696E653A200040
:10080000636865636B73756D206D69736D61746387
:10081000682C204C617374204C696E653A20004D41
:10082000313130004D3331004D38342058205920BB
:100830005A20450053442072656164206572726FCE
:10084000720A00446F6E65207072696E74696E671B
:100850002066696C650A0020496E76616C696420C7
:1008600065787472756465722000000000000000F5
:1008700000000000000000004E4300005C43000048
:100880002A43205A3A0020593A0020436F756E746B
:1008900020583A0020453A00205A3A0020593A00A0
:1008A000583A00466C6F7700466C6F770046616E71
:1008B0002073706565640046616E207370656564C1
:1008C0000042656400426564004E6F7A7A6C650090
:1008D0004E6F7A7A6C65005370656564005370657D
:1008E0006564004D61696E005072656865617420D1
:1008F000504C4120456E64005072656865617420FB
:10090000504C4120426564005072656865617420F6
:10091000504C41005072657061726500507265689C
:100920006561742041425320456E640050726568D1
:1009300065617420414253204265640050726568CD
:1009400065617420414253005072657061726500A8
:100950004D343238005072656865617420504C41E6
:1009600000436F6F6C646F776E00507265686561ED
:1009700074204142530044697361626C6520737452
:10098000657070657273004D38340053657420686B
:100990006F6D65206F666673657473004175746F63
:1009A00020686F6D6500473238004D6F76652061B5
:1009B000786973004D61696E004D6F76652058004F
:1009C0004D6F76652059004D6F7665205A00457849
:1009D000747275646572004D6F766520302E316DCE
:1009E0006D004D6F766520316D6D004D6F76652021
:1009F00031306D6D004D6F7665206178697300450B
:100A000078747275646572004D6F7665205A004D7A
:100A10006F76652059004D6F76652058007C3C3E0E
:100A20005E2B3D3F2F5B5D3B2C2A225C00457272A2
:100A30006F722077726974696E6720746F20454504
:100A400050524F4D210A0000002100240027002AA7
:100A50000000002200250028002B000000200023B9
:100A6000002600290002020202020202020404041B
:100A70000404040404030303030303030301010147
:100A8000010101010101020408102040800102045B
:100A9000081020408001020408102040808040207F
:100AA0001008040201000000010200090A00000011
:100AB0000004030807000000000000000000000020
:100AC00000000000004B494C4C45442E2000202DD6
:100AD00020496E76616C696420657874727564650E
:100AE00072206E756D62657220210A0000000000A0
:100AF00000000000000000000000000000000000F6
:100B000000000000000000000000000000000000E5
:100B100000000000000000000000000000000000D5
:100B200000000000000000000000000000000000C5
:100B300000000000000000000000000000000000B5
:100B400000000000000000000000000000000000A5
:100B50000000000000000000000000000000000095
:100B60000000000000000000000000000000000085
:100B70000000000000000000000000000000000075
:100B80000000000000000000000000000000000065
:100B90000000000000000000000000000000000055
:100BA0000000000000000000000000000000000045
:100BB0000000000000000000000000000000000035
:100BC0000000000000000000000000000000000025
:100BD0000000000000000000000000000000000015
:100BE0000000000000000000000000000000000005
:100BF00000000000000000000000000007000003EB
:100C00008000000000000000000000001FC0000F76
:100C1000E07C03E0781C0781E0F03E0E7FE0003FBF
:100C2000F07E07E0FC1C0381C1F83F0E7FF8007FD7
:100C3000F07E07E0FC1C03C3C1F83F0E7BFE01FE03
:100C4000F07F0FE1FE1C01C383FC3F8E7CFF87F920
:100C5000F0770EE1FE1C01E783FC3B8E7F7FCFF730
:100C6000F0779EE1CE1C00E7039C3BCE7F9FFFCF39
:100C7000F0739CE3CF1C00FF079E39CE7FE7FF3F58
:100C8000F073FCE3871C007E070E39EE7FFBFEFF4E
:100C9000F071F8E3871C007E0F0F38EE7FFCF9FF40
:100CA000F071F8E7FF9C003C0FFF38FE7FFF27FF45
:100CB000F070F0E7FF9C003C0FFF387E7FFFDFFF06
:100CC000F070F0EFFFDC003C1FFFB87E7FDFFFDF3E
:100CD000F07060EF03DFF83C1E07B83E7FC7FF1FD0
:100CE000F07060EE01DFF83C1C03B83E7FC3FE1FCE
:100CF000F07000EE01DFF83C1C03B81E7FC3FE1F3E
:100D0000F000000000000000000000007FC3DE1FB4
:100D1000F07FFFFFFFFFFFFFFFFFFFFE7FC3DE1F30
:100D2000F07FFFFFFFFFFFFFFFFFFFFE7FC3DE1F20
:100D3000F07C3FFAFBFFFFFFFD7ABFFE7FC3DE1FA3
:100D4000F07D9FFBFFFFFFFFFF7EF7FE7FC3DE1FEF
:100D5000F07D931A8A18E38C451AA2DE3FC3DE0F9A
:100D6000F07C2DCACAD6E924CD6AB6BE1F83DE0741
:100D7000E07DA36A9AD6E926656AB63E0603DE01DF
:100D8000807D910A8AD8E38C451AB37E0003DE0089
:100D9000007FFFFFFFFEEFFFFFFFFF7E0003DE008F
:100DA000007FFFFFFFF1EFFFFFFFFEFE0003DE000D
:100DB000007FFFFFFFFFFFFFFFFFFFFE0003DE00DE
:100DC000007FFFFFFFFFFFFFFFFFFFFE0003DE00CE
:100DD0000000000000000000000000000001DC0036
:100DE00000000000000000000000000000005000B3
:100DF00000000000000000000000000000000000F3
:100E000000000000000000000000000000000000E2
:100E100000000000000000000000000000000000D2
:100E200000000000000000000000000000000000C2
:100E300000000000000000000000000000000000B2
:100E400000000000000000000000000000000000A2
:100E50000000000000000000000000000000000092
:100E60000000000000000000000000000000000082
:100E70000000000000000000000000000000000072
:100E80000000000000000000000000000000000062
:100E90000000000000000000000000000000000052
:100EA0000000000000000000000000000000000042
:100EB0000000000000000000000000000000000032
:100EC0000000000000000000000000000000000022
:100ED0000000000000000000000000000000000012
:100EE0000000000000000000000000001FFFFFFFE6
:100EF000FFFFFF600000000001FF40000000000055
:100F0000FF8000000000007F83CF00000C303F878F
:100F1000FF80000C301F867980000C000F8C30C7DA
:100F2000838C30E78C30CFC7CC31F38C30DCECECE9
:100F300033B98C30D86C6C33198C30D06C0C3319BD
:100F40008C30D86C0C33198C30DC6C0E3B198C3027
:100F5000CF7C079F198C30C77C038F19400000009D
:100F6000000002600000000000061FFFFFFFFFFFFF
:100F7000F82020506C616E6E65724275666665720F
:100F800042797465733A20002046726565204D658C
:100F90006D6F72793A2000436F6D70696C65643AC9
:100FA0002044656320323120323031370A00207C02
:100FB00020417574686F723A20284F6C6C79290A49
:100FC00000323031372D31322D31352031323A3047
:100FD0003000204C61737420557064617465643A0C
:100FE0002000312E312E370A004D61726C696E007F
:100FF00020536F6674776172652052657365740A59
:1010000000205761746368646F672052657365746C
:101010000A002042726F776E206F757420526573DC
:1010200065740A002045787465726E616C205265A3
:101030007365740A00506F77657255700A00737497
:101040006172740A006572726F72207772697469D6
:101050006E6720746F2066696C650A00456E647364
:10106000746F70732025632025632025632025631A
:1010700000205A3A0020593A0020583A00656E6420
:1010800073746F7073206869743A2000446F6E65E2
:1010900020736176696E672066696C652E0A004D63
:1010A00032390053442063617264206F6B0A006F11
:1010B00070656E526F6F74206661696C65640A00BA
:1010C000766F6C756D652E696E6974206661696CEA
:1010D00065640A00534420696E6974206661696C16
:1010E0000A006175746F25692E67004D3234004D1A
:1010F00032332025730057726974696E6720746FEC
:101100002066696C653A20006F70656E20666169C3
:101110006C65642C2046696C653A20006F70656EC2
:10112000206661696C65642C2046696C653A200014
:1011300046696C652073656C65637465640A00209C
:1011400053697A653A200046696C65206F70656E58
:1011500065643A20006F70656E206661696C656435
:101160002C2046696C653A20002066696C653A203F
:1011700000646F696E67006672657368004E6F7712
:101180002000454E4420535542524F5554494E4538
:101190000A002220706F73002220706172656E74E5
:1011A0003A2200535542524F5554494E452043412F
:1011B0004C4C207461726765743A22004B494C4C68
:1011C00045442E2000747279696E6720746F206325
:1011D000616C6C207375622D67636F64652066694E
:1011E0006C6573207769746820746F6F206D616E11
:1011F00079206C6576656C732E204D4158206C65A6
:1012000076656C2069733A004572726F723A0043DA
:10121000616E6E6F74206F70656E207375626469A5
:101220007220006563686F3A0056652D6A65726BBF
:101230000056652D6A65726B0056652D6A65726B86
:1012400000567A2D6A65726B00567A2D6A65726B4C
:101250000056792D6A65726B0056792D6A65726B3E
:101260000056792D6A65726B0056782D6A65726B2F
:101270000056782D6A65726B0056782D6A65726B20
:10128000004D6F74696F6E004573746570732F6DD8
:101290006D004573746570732F6D6D005A737465BE
:1012A00070732F6D6D005A73746570732F6D6D00C0
:1012B0005973746570732F6D6D0059737465707315
:1012C0002F6D6D005873746570732F6D6D005873BA
:1012D000746570732F6D6D004D6F74696F6E005380
:1012E000746570732F6D6D004A65726B00416363A6
:1012F000656C65726174696F6E0056656C6F6369C9
:10130000747900436F6E74726F6C0046696C2E20A6
:101310004469612E0046696C2E204469612E004F9D
:101320006666004F6E20004520696E206D6D3300AB
:10133000436F6E74726F6C0043616E6E6F742065E4
:101340006E746572207375626469723A2000022EB1
:101350002E000152656672657368004D61696E000A
:1013600020746F6F206C6F6E672065787472757370
:10137000696F6E2070726576656E7465640A002010
:10138000636F6C6420657874727573696F6E20701A
:10139000726576656E7465640A004578747275646A
:1013A0006572004D6F7665205A004D6F7665205945
:1013B000004D6F766520580050726570617265004F
:1013C000496E697469616C697A6520454550524F70
:1013D0004D00436F6E74726F6C00526573746F7260
:1013E00065206661696C73616665004C6F6164209D
:1013F00073657474696E677300496E697469616CB2
:10140000697A6520454550524F4D0053746F72659F
:101410002073657474696E67730046696C616D65ED
:101420006E74004D6F74696F6E0054656D706572F7
:101430006174757265004D61696E00507265686512
:1014400061742041425320636F6E6600507265687C
:1014500065617420504C4120636F6E6600504944B2
:101460002D44005049442D44005049442D4900501A
:1014700049442D49005049442D50005049442D50B5
:101480000046616E2073706565640046616E20736E
:10149000706565640042656400426564004E6F7A61
:1014A0007A6C65004E6F7A7A6C6500436F6E747269
:1014B0006F6C0053746F72652073657474696E6726
:1014C000730042656400426564004E6F7A7A6C6511
:1014D000004E6F7A7A6C650046616E2073706565A8
:1014E000640046616E2073706565640054656D70BC
:1014F0006572617475726500290A002062797465ED
:10150000733B20637263200053657474696E677364
:101510002053746F726564202800202863616C6317
:10152000756C6174656429210A0020213D20004505
:101530004550524F4D20435243206D69736D617485
:101540006368202D202873746F7265642920002938
:101550000A002062797465733B2063726320002067
:1015600073746F7265642073657474696E67732039
:10157000726574726965766564202800204D617219
:101580006C696E3D563437290A0028454550524F44
:101590004D3D00454550524F4D2076657273696F41
:1015A0006E206D69736D61746368200048617264B8
:1015B000636F6465642044656661756C742053656F
:1015C0007474696E6773204C6F616465640A00BC53
:1015D000020000BC020000640000001027000000B0
:1015E000009643000096430000A0400000C8415E02
:1015F00045B9425E45B9420000C8440000CE42529F
:101600006573656E643A20006F6B00627573793A9A
:101610002070617573656420666F7220696E7075E5
:10162000740A00627573793A20706175736564207D
:10163000666F7220757365720A00627573793A205D
:1016400070726F63657373696E670A004B494C4C27
:1016500045442E20004B494C4C20636175736564F2
:1016600020627920746F6F206D75636820696E61E8
:1016700063746976652074696D65202D20637572C9
:1016800072656E7420636F6D6D616E643A200050F8
:101690006C65617365207265736574005052494EC4
:1016A0005445522048414C544544005072696E7470
:1016B00065722068616C7465642E206B696C6C289F
:1016C000292063616C6C6564210A00656E71756523
:1016D0007565696E672022000000000000000000B0
:1016E0000000000000004842000048420000804026
:1016F000000000005761726E696E673A20486F6D96
:10170000696E672042756D702044697669736F72E7
:10171000203C20310A000202040000A0400000A08A
:10172000400000004000004E4300005C4300002ADF
:1017300043FFFFFF00060900FE0701920321207FFF
:10174000FF07FF07FF000000060000010707060271
:101750000080808080800080030202060105A0A036
:101760000507070600005050F850F85050050707CD
:101770000600002078A07028F0200507070600006A
:10178000C0C810204098180507070600006090A008
:1017900040A89068020303060104C04080030707C5
:1017A00006010020408080804020030707060100DA
:1017B0008040202020408005050506000120A870FB
:1017C000A8200505050600012020F82020020303BB
:1017D0000602FFC04080050101060003F802020274
:1017E000060200C0C0050505060001081020408063
:1017F0000507070600007088888888887003070737
:1018000006010040C040404040E0050707060000D8
:10181000708808708080F8050707060000F810201F
:10182000100808F005070706000010305090F81067
:1018300010050707060000F880F008088870050703
:1018400007060000708080F0888870050707060092
:1018500000F80810202020200507070600007088E7
:1018600088708888700507070600007088887808E7
:101870000870020505060200C0C000C0C0020606CE
:101880000602FFC0C000C040800407070600001029
:10189000204080402010050303060002F800F804F1
:1018A000070706010080402010204080050707063A
:1018B000000070880810200020050707060000704F
:1018C000880868A8A870050707060000708888F8CF
:1018D000888888050707060000F08888F08888F067
:1018E000050707060000708880808088700507075C
:1018F000060000F08888888888F005070706000041
:10190000F88080F08080F8050707060000F88080E6
:10191000F0808080050707060000708880B88888FE
:1019200070050707060000888888F88888880107FE
:1019300007060200808080808080800507070600FF
:1019400000381010101090600507070600008890FE
:10195000A0C0A090880507070600008080808080D6
:1019600080F805070706000088D8A88888888805B9
:1019700007070600008888C8A89888880507070612
:10198000000070888888888870050707060000F0C6
:101990008888F080808005070706000070888888A6
:1019A000A89068050707060000F08888F0A09088D6
:1019B000050707060000788080700808F005070713
:1019C000060000F820202020202005070706000040
:1019D00088888888888870050707060000888888B6
:1019E000888850200507070600008888888888A80E
:1019F0005005070706000088885020508888050792
:101A00000706000088888850202020050707060068
:101A100000F80810204080F8030707060100E08066
:101A200080808080E00505050600018040201008C8
:101A3000030707060100E02020202020E005030323
:101A4000060004205088050101060000F802020289
:101A500006020580400505050600007008788878B4
:101A60000507070600008080B0C88888F0050505D6
:101A700006000070808088700507070600000808CF
:101A800068988888780505050600007088F88070D9
:101A90000507070600003048E040404040050606C4
:101AA0000600FF7088887808700507070600008028
:101AB00080B0C888888801070706020080008080FF
:101AC0008080800308080601FF200020202020A03D
:101AD00040040707060000808090A0C0A090030784
:101AE00007060100C04040404040E00505050600F3
:101AF00000D0A8A8A8A8050505060000B0C88888D9
:101B000088050505060000708888887005060606A9
:101B100000FFF08888F080800506060600FF7888C0
:101B200088780808050505060000B0C88080800593
:101B3000050506000070807008F004070706000025
:101B40004040E04040403005050506000088888898
:101B50009868050505060000888888502005050559
:101B60000600008888A8A8500505050600008850D2
:101B70002050880506060600FF88888878087005CA
:101B80000505060000F8102040F8030707060100CD
:101B900020404080404020010707060200808080EE
:101BA000808080800307070601008040402040407D
:101BB0008005020206000268900000000600002571
:101BC000753A2530327500253032753A2530327538
:101BD0000025756420253032753A25303275005A5B
:101BE000005900580009200000000000000000001B
:101BF000000000007FFFE000000000000000000087
:101C00000000007000E00000000000000000000084
:101C1000000061F86000000000000000000000000B
:101C20000041F8200000000000000000000000005B
:101C300040F0200000000000000000000000004014
:101C400060200000000000000000000000005801BB
:101C5000A07F80000000000000004104005C63A041
:101C6000FFC0000000000000002082005EF7A0FF1F
:101C7000C0000000000000002082005EF7A0FFC04E
:101C8000000000000000004104005C63A07F8000B1
:101C90000000000000008208005801A07F800000C2
:101CA0000000000001041000406020FFC0000000A0
:101CB0000000000104100040F020FFC00000000000
:101CC00000000082080041F820FFC0000000000072
:101CD000000041040061F8603F00000000000000C7
:101CE000000000007000E01E000000000000000185
:101CF000FFFF807FFFE00C0000000000000001FFFC
:101D0000FF80000000000000000000000000000054
:101D1000007FFFE000000000000000000000000065
:101D20007000E00000000000000000000000006300
:101D30000C60000000000000000000000000470EE2
:101D4000200000000000000000000000004F0F20F5
:101D50000000000000000000000000005F0FA00075
:101D600000000000000000000000005E07A07F806F
:101D700000000000000000410400406020FFC0009F
:101D800000000000000020820040F020FFC00000A2
:101D9000000000000020820040F020FFC000000092
:101DA000000000004104004060207F80000000002F
:101DB0000000008208005E07A07F80000000000095
:101DC00000010410005F0FA0FFC000000000000031
:101DD000010410004F0F20FFC000000000000000B1
:101DE000820800470E20FFC00000000000000041F4
:101DF0000400630C603F00000000000000000000D1
:101E0000007000E01E0000000000000001FFFF80E5
:101E10007FFFE00C0000000000000001FFFF8000D9
:101E2000000000060900FE00000000000109000893
:101E3000FE000005080806000040F0C88888987871
:101E400010050808060000C0F88888888888F8050A
:101E500005050600012030F83020050808060000BE
:101E60002070F820202020E00509090600FF2070DE
:101E7000A8A8B8888870200509090600FFE080C07E
:101E8000B0A8283028280509090600FFF8A8888886
:101E9000888888A8F8050A0A0600FE20505050508D
:101EA00088A8A8887003030306000340A04024F418
:101EB000D43050C38E20C2A24017828B7011127A88
:101EC000910D816CD90AA861E108C7586607615174
:101ED00043061E4B5D05C145A7041A411104093D87
:101EE0009803713931034036DB0265339102D430F7
:101EF0005402802E1D02632CEE01752AC501B02804
:101F0000A001102781018F2564012B244B01E022C1
:101F10003401AC211F018D200D01801FFC00841EA7
:101F2000ED00971DDF00B81CD200E61BC600201B89
:101F3000BC00641AB200B219A8000A19A0006A18FD
:101F40009900D117910040178B00B5168400311607
:101F50007E00B31579003A157300C7146F0058144A
:101F60006A00EE1366008813630025135E00C71233
:101F70005B006C12570015125400C1115100701112
:101F80004F0021114B00D61049008D10470046101C
:101F9000440002104200C00F4000800F3E00420F7C
:101FA0003C00060F3B00CB0E3800930E37005C0E52
:101FB0003500270E3400F30D3200C10D3100900DB5
:101FC0003000600D2E00320D2D00050D2C00D90CB7
:101FD0002B00AE0C2900850C29005C0C2700350C69
:101FE00027000E0C2600E80B2400C40B2400A00BD5
:101FF00023007D0B23005A0B2100390B2100180B05
:102000002000F80A1F00D90A1E00BB0A1E009D0A04
:102010001D00800A1D00630A1C00470A1B002C0AD1
:102020001B00110A1A00F7091A00DD091900C4097A
:102030001900AB091900920917007B091800630900
:1020400017004C09160036091600200916000A0967
:102050001500F5081500E0081400CC081400B808B5
:102060001400A4081400900813007D0812006B08E7
:102070001300580812004608120034081100230803
:1020800011001208110001081100F0071000E0070C
:102090001000D0071000C0071000B0070F00A10704
:1020A000100091070E0083070F0074070F006507EB
:1020B0000E0057070E0049070E003B070D002E07C4
:1020C0000E0020070D0013070D0006070D00F9068E
:1020D0000C00ED060D00E0060C00D4060C00C8064E
:1020E0000C00BC060C00B0060C00A4060B00990600
:1020F0000C008D060B0082060B0077060B006C06A9
:102100000B0061060A0057060B004C060A00420647
:102110000A0038060A002E060A0024060A001A06DB
:102120000A001006090007060A00FD050900F4056B
:102130000900EB050900E2050900D9050900D005F1
:102140000900C7050900BE050900B5050800AD0571
:102150000800A50509009C050800940508008C05E9
:102160000800840508007C050800740508006C055B
:102170000700650508005D050700560508004E05C7
:10218000070047050700400508003805070031052E
:1021900007002A050700230507001C050600160591
:1021A00007000F0507000805060002050700FB04ED
:1021B0000600F5040700EE040600E8040600E20449
:1021C0000700DB040600D5040600CF040600C9049E
:1021D0000600C3040600BD040600B7040600B104EF
:1021E0000500AC040600A6040600A00405009B043C
:1021F000060095040500900406008A040500850485
:102200000500800406007A040500750405007004CA
:1022100005006B04050066040500610405005C040C
:10222000050057040500520405004D04050048044C
:102230000500430405003E0404003A04050035048B
:102240000500300404002C040500270404002304C6
:1022500005001E0404001A040400160405001104FD
:1022600004000D0404000904050004040400000433
:102270000400FC030400F8030400F4030400F0036A
:102280000400EC030400E8030400E4030400E0039A
:102290000400DC030400D8030400D4030400D003CA
:1022A0000400CC030400C8030300C503030024F4A6
:1022B00004D9201BC40C5C0E9804C4095F02650796
:1022C0007101F405F900FB04B30048048700C10361
:1022D00069005803550003034500BE023A0084021A
:1022E000310053022A002902250004022000E401E3
:1022F0001C00C8011900AF011700980114008401E7
:102300001300710110006101100051010E00430122
:102310000D0036010B002B010B0020010B001501F5
:1023200009000C01090003010800FB000800F3008C
:102330000800EB000700E4000600DE000600D800FD
:102340000600D2000600CC000500C7000500C20050
:102350000500BD000400B9000400B5000400B10090
:102360000400AD000400A9000400A5000300A200C1
:1023700003009F0004009B000300980003009500E9
:10238000020093000300900003008D0002008B0008
:102390000300880002008600020084000300810020
:1023A00002007F0002007D0002007B000200790035
:1023B0000200770001007600020074000200720043
:1023C0000100710002006F0002006D0001006C004E
:1023D00002006A0001006900020067000100660057
:1023E000010065000100640002006200010061005C
:1023F0000100600001005F0002005D0001005C0060
:1024000001005B0001005A00010059000100580062
:102410000100570001005600010055000100540062
:102420000100530000005300010052000100510060
:102430000100500001004F0001004E0000004E005E
:1024400001004D0001004C0001004B0000004B005A
:1024500001004A0001004900010048000000480056
:102460000100470001004600000046000100450051
:10247000000045000100440001004300000043004B
:102480000100420000004200010041000000410044
:102490000100400001003F0000003F0001003E003D
:1024A00000003E0001003D0000003D0001003C0036
:1024B00000003C0000003C0001003B0000003B002D
:1024C00001003A0000003A00010039000000390024
:1024D000010038000000380000003800010037001B
:1024E0000000370001003600000036000000360012
:1024F0000100350000003500000035000100340007
:1025000000003400000034000100330000003300FC
:1025100000003300010032000000320000003200F1
:1025200001003100000031000000310001003000E6
:10253000000030000000300001002F0000002F00DC
:1025400000002F0000002F0001002E0000002E00D0
:1025500000002E0001002D0000002D0000002D00C5
:1025600000002D0001002C0000002C0000002C00B9
:1025700000002C0001002B0000002B0000002B00AD
:1025800000002B0001002A0000002A0000002A00A1
:1025900000002A0001002900000029000000290095
:1025A0000000290000002900010028000000280088
:1025B000000028000000280000002800010027007B
:1025C000000027000000270000002700000027006F
:1025D0000100260000002600000026000000260062
:1025E0000000260001002500000025000000250055
:1025F0000000250000002500000025000100240047
:10260000000024000000240000002400000024003A
:10261000010023000000230000002300000023002D
:10262000000023000000230000002300010022001E
:102630000000220000002200000022000000220012
:102640000000220001002100000021000000210004
:1026500000002100000021000000210000002100F6
:1026600001002000000020000000200000002000E9
:1026700000002000000020000000200000002000DA
:1026800001001F0000001F0000001F0000001F00CD
:1026900000001F0000001F0000001F0001001E00BE
:1026A00000001E0000001E0000001E0000004D384B
:1026B0003420582059205A20450070012C019001E7
:1026C0002701B0012201C0011D01F0011801100213
:1026D000130130020E016002090190020401C002E0
:1026E000FF000003FA004003F5008003F000D00370
:1026F000EB002004E6007004E100E004DC0040058B
:10270000D700C005D2004006CD00D006C800800723
:10271000C3003008BE00F008B900C009B400B00A18
:10272000AF00B00BAA00D00CA500000EA000500F07
:102730009B00C01096005012910000148C00C01530
:102740008700B0178200B0197D00D01B7800001EF2
:10275000730040206E0090226900F024640040273E
:102760005F0090295A00E02B5500102E50002030B9
:102770004B0010324600E033410090353C001037EA
:10278000370070383200A0392D00B03A2800A03B45
:102790002300603C1E00103D1900903D1400103EC7
:1027A0000F00703E0A00C03E0500003F0000403FA1
:1027B000FBFF803FF6FFC03FF1FF202F002042408B
:1027C0003A0020403A0020440020490020204D33A8
:1027D00030312050005049442073657474696E672D
:1027E000733A0A0020460020420020480020204D75
:1027F0003134352053004D6174657269616C206815
:10280000656174757020706172616D657465727355
:102810003A0A00205A0020590020204D323036203C
:102820005800486F6D65206F66667365743A0A00DC
:10283000204500205A002059002058002042002046
:10284000540020204D323035205300416476616EB3
:102850006365643A20533C6D696E5F6665656472BA
:102860006174653E20543C6D696E5F74726176657B
:102870006C5F66656564726174653E20423C6D699B
:102880006E5F7365676D656E745F74696D655F75A6
:10289000733E20583C6D61785F78795F6A65726B32
:1028A0003E205A3C6D61785F7A5F6A65726B3E20AC
:1028B000453C6D61785F655F6A65726B3E0A00201A
:1028C000540020520020204D32303420500041630B
:1028D00063656C65726174696F6E2028756E6974CA
:1028E000732F7332293A20503C7072696E745F61A5
:1028F0006363656C3E20523C726574726163745F01
:10290000616363656C3E20543C74726176656C5FF4
:10291000616363656C3E0A00204500205A0020591F
:102920000020204D3230312058004D6178696D759E
:102930006D20416363656C65726174696F6E2028F8
:10294000756E6974732F7332293A0A00204500208E
:102950005A0020590020204D3230332058004D615C
:1029600078696D756D206665656472617465732044
:1029700028756E6974732F73293A0A002045002068
:102980005A0020590020204D3932205800537465D8
:1029900070732070657220756E69743A0A00202089
:1029A0004D3230302044300A0020204D323030206B
:1029B00044002044697361626C65640A0046696C76
:1029C000616D656E742073657474696E67733A0027
:1029D00020204D3134392043203B20556E697473DB
:1029E00020696E2043656C736975730A0020204767
:1029F0003231202020203B20556E69747320696E8F
:102A0000206D6D0A006265640A002C20737973746E
:102A1000656D2073746F7070656421204865617402
:102A200065725F49443A200048656174696E6720A9
:102A30006661696C65640048656174696E672066EB
:102A400061696C65640048656174696E67206661E0
:102A5000696C65640048656174696E6720666169C8
:102A60006C656400544845524D414C2052554E41CE
:102A700057415900546865726D616C2052756E61E2
:102A8000776179004572723A204D494E54454D5058
:102A900020424544004572723A204D494E54454DFE
:102AA00050004D494E54454D50207472696767651A
:102AB000726564004572723A204D415854454D503C
:102AC00020424544004572723A204D415854454DCC
:102AD00050004D415854454D5020747269676765E8
:102AE0007265640020643A0020693A0020703A0060
:102AF00043290A0061626C656420286D696E207448
:102B0000656D702000436F6C642065787472756425
:102B1000657320617265200023646566696E6520B7
:102B20002044454641554C545F4B64200023646566
:102B300066696E65202044454641554C545F4B699B
:102B4000200023646566696E652020444546415532
:102B50004C545F4B702000504944204175746F7491
:102B6000756E652066696E697368656421205075AD
:102B70007420746865206C617374204B702C204B3A
:102B80006920616E64204B6420636F6E7374616EA4
:102B900074732066726F6D2062656C6F7720696E4A
:102BA000746F20436F6E66696775726174696F6ECA
:102BB0002E680A00504944204175746F74756E6523
:102BC000206661696C6564212074696D656F757438
:102BD0000A00544845524D414C2052554E415741F0
:102BE0005900546865726D616C2052756E61776131
:102BF000790048656174696E67206661696C656417
:102C00000048656174696E67206661696C6564007F
:102C1000504944204175746F74756E652066616912
:102C20006C6564212054656D7065726174757265A0
:102C300020746F6F20686967680A00204B643A202F
:102C400000204B693A2000204B703A20000A2043B4
:102C50006C617373696320504944200A00205475E5
:102C60003A2000204B753A2000206D61783A200010
:102C7000206D696E3A200020643A2000206269616C
:102C8000733A20005654726176206D696E00565476
:102C9000726176206D696E005654726176206D699E
:102CA0006E00566D696E00566D696E00566D696EE8
:102CB00000566D6178204500566D617820450056BC
:102CC0006D6178204500566D6178205A00566D611F
:102CD00078205A00566D6178205A00566D61782030
:102CE0005900566D6178205900566D617820590061
:102CF000566D6178205800566D6178205800566DE9
:102D000061782058004D6F74696F6E00416D617875
:102D1000204500416D6178204500416D6178205A61
:102D200000416D6178205A00416D61782059004161
:102D30006D6178205900416D6178205800416D61C6
:102D400078205800412D74726176656C00412D74B5
:102D5000726176656C00412D7265747261637400F6
:102D6000412D7265747261637400416363656C0028
:102D7000416363656C004D6F74696F6E00507269DA
:102D80006E742070617573656400005072696E74B2
:102D90002061626F72746564004D3231004E6F20A5
:102DA00053442063617264004368616E6765205319
:102DB000442063617264004D3231005072696E7458
:102DC0002066726F6D2053440053746F70207072D0
:102DD000696E7400496E69742E20534420636172D9
:102DE0006400526573756D65207072696E74005071
:102DF00061757365207072696E7400436F6E7472D2
:102E00006F6C00507265706172650054756E65007C
:102E1000496E666F2073637265656E0017D01DCCB6
:102E200011241FBECFEFD0E4DEBFCDBF12E0A0E083
:102E3000B1E0E6E0FBEB01E00BBF02C007900D92B2
:102E4000A63BB107D9F722E1A6EBB2E001C01D9283
:102E5000A23EB207E1F717E1CFE0D7E104C0219726
:102E6000FE010E94E1DCCE30D107C9F70E94E4C721
:102E70000C9476DD0C9400002F923F924F925F925B
:102E80006F927F928F929F92AF92BF92CF92DF927A
:102E9000EF92FF920F931F93CF93DF93CDB7DEB7DF
:102EA000C857D1090FB6F894DEBF0FBECDBF81E081
:102EB00090E090930D0880930C088091DB128D3484
:102EC00009F4DCC7843511F40C94242E873411F0F6
:102ED0000C94652E8091D9129091DA12843091056C
:102EE00009F4ACC554F497FF02C00C947F2E2091D6
:102EF0003701823091055CF525C08A35910509F4CA
:102F00000FC72CF44C9709F4DFC50C947F2E8B353A
:102F1000910509F409C78C35910511F00C947F2EA9
:102F20000E94C29D73E8272E71E0372EEDE1CE2E70
:102F3000E8E0DE2EE12CF12C00E010E022961FAE3E
:102F4000229733C721110C94862E0C947F2E2223B6
:102F500011F40C947F2E11E0029709F010E00E940A
:102F6000433582E50E943635882309F45CC10E940E
:102F7000D4346B017C01409057035090580360900B
:102F8000590370905A0380915B0390915C03A09168
:102F90005D03B0915E0325968CAF9DAFAEAFBFAF22
:102FA00025972091290830912A0840912B085091AB
:102FB0002C0829962CAF3DAF4EAF5FAF299780917B
:102FC0002D0890912E08A0912F08B0913008659699
:102FD0008CAF9DAFAEAFBFAF659720E030E0A901E9
:102FE000C701B6010E945CD5882309F40DC5A30171
:102FF000920129966CAD7DAD8EAD9FAD29970E9453
:103000005CD5811111C025962CAD3DAD4EAD5FADA7
:10301000259765966CAD7DAD8EAD9FAD65970E9491
:103020005CD5882309F4F0C420E030E0A901C70191
:10303000B6010E945CD5881F8827881F18130BC013
:1030400020E030E040E85FE36D962CAF3DAF4EAF3F
:103050005FAF6D970AC080E090E0A0E8BFEB6D968F
:103060008CAF9DAFAEAFBFAF6D97A3019201299614
:103070006CAD7DAD8EAD9FAD29970E948CD96196C8
:103080006CAF7DAF8EAF9FAF619725962CAD3DADF8
:103090004EAD5FAD259765966CAD7DAD8EAD9FADA8
:1030A00065970E948CD969966CAF7DAF8EAF9FAF4C
:1030B000699761962CAD3DAD4EAD5FAD6197CA018C
:1030C000B9010E94C2D54B015C0169962CAD3DADA2
:1030D0004EAD5FAD6997CA01B9010E94C2D59B018F
:1030E000AC01C501B4010E948DD90E943BDC2D9634
:1030F0006CAF7DAF8EAF9FAF2D9720E030E040E00A
:103100005FE30E94C2D54B015C01A7019601C70194
:10311000B6010E94C2D56B017C01A5019401C501D5
:10312000B4010E94C2D59B01AC01C701B6010E9447
:103130008CD90E943BDC9B01AC016D966CAD7DADE2
:103140008EAD9FAD6D970E94C2D54B015C01299653
:103150002CAD3DAD4EAD5FAD2997C301B2010E94CC
:103160008DD920E030E040E05FE30E94C2D56B01E2
:103170007C0169966CAD7DAD8EAD9FAD6997905821
:103180002D962CAD3DAD4EAD5FAD2D970E9487DAEB
:103190009B01AC01C501B4010E94C2D59B01AC01E9
:1031A000C701B6010E948DD9A30192010E948CD95A
:1031B0006B017C0165962CAD3DAD4EAD5FAD659765
:1031C00025966CAD7DAD8EAD9FAD25970E948DD9B6
:1031D00020E030E040E05FE30E94C2D52B013C01DB
:1031E0002D962CAD3DAD4EAD5FAD2D9761966CAD7E
:1031F0007DAD8EAD9FAD61970E9487DA9B01AC01DA
:10320000C501B4010E94C2D59B01AC01C301B2014A
:103210000E948DD925962CAD3DAD4EAD5FAD259765
:103220000E948CD914C089E40E943635882329F085
:103230000E94D4346B017C0103C0C12CD12C7601D7
:103240008AE40E9436358823F9F00E94D4346596CA
:103250006CAF7DAF8EAF9FAF659720E030E0A901E6
:10326000C701B6010E945CD581111EC020E030E08C
:10327000A90165966CAD7DAD8EAD9FAD65970E9441
:103280005CD5811111C0C0C320E030E0A901C701A5
:10329000B6010E945CD5882309F4B6C365961CAEBE
:1032A0001DAE1EAE1FAE6597A7019601505825961C
:1032B0002CAF3DAF4EAF5FAF259765968CAD9DAD02
:1032C000AEADBFAD6597B05829968CAF9DAFAEAF90
:1032D000BFAF2997CA01B9010E94C2D54B015C0159
:1032E00029962CAD3DAD4EAD5FAD2997CA01B90110
:1032F0000E94C2D59B01AC01C501B4010E948DD9C9
:103300000E943BDCAD966CAF7DAF8EAF9FAFAD97AB
:1033100020915703309158034091590350915A031B
:103320002D962CAF3DAF4EAF5FAF2D97A701960105
:103330002D966CAD7DAD8EAD9FAD2D970E948DD934
:103340006D966CAF7DAF8EAF9FAF6D9780915B0335
:1033500090915C03A0915D03B0915E0369968CAF80
:103360009DAFAEAFBFAF699765962CAD3DAD4EAD8D
:103370005FAD6597BC01CD010E948DD9A1966CAF60
:103380007DAF8EAF9FAFA1972091290830912A0879
:1033900040912B0850912C08A5962CAF3DAF4EAF15
:1033A0005FAFA5976D962CAD3DAD4EAD5FAD6D9702
:1033B000A5966CAD7DAD8EAD9FADA5970E948CD9C5
:1033C0006B017C0180912D0890912E08A0912F080F
:1033D000B0913008A9968CAF9DAFAEAFBFAFA997A3
:1033E000A1962CAD3DAD4EAD5FADA197BC01CD0119
:1033F0000E948CD94B015C0120915F0330916003E6
:103400004091610350916203E5962CAF3DAF4EAF02
:103410005FAFE59760913108709132088091330871
:10342000909134080E948CD961966CAF7DAF8EAFBD
:103430009FAF61978091350890913608A091370829
:10344000B0913808E1968CAF9DAFAEAFBFAFE197BA
:1034500020916303309164034091650350916603AA
:10346000E9962CAF3DAF4EAF5FAFE997A70196014C
:1034700025966CAD7DAD8EAD9FAD25970E94C2D5D2
:103480002B013C01A501940129966CAD7DAD8EAD5B
:103490009FAD29970E94C2D59B01AC01C301B20127
:1034A0000E948DD92B013C01A501940125966CAD9C
:1034B0007DAD8EAD9FAD25970E94C2D54B015C01BD
:1034C000A701960129966CAD7DAD8EAD9FAD299774
:1034D0000E94C2D59B01AC01C501B4010E948CD9E8
:1034E000A30192010E940CDA6B017C0120E030E024
:1034F000A9010E945CD587FF0AC02BED3FE049EC93
:1035000050E4C701B6010E948DD96B017C011123E3
:1035100051F02BED3FE049EC50E4C701B6010E94A9
:103520008CD96B017C0120E030E0A901C701B60114
:103530000E945CD5811128C0A5962CAD3DAD4EAD45
:103540005FADA5972D966CAD7DAD8EAD9FAD2D97E2
:103550000E945CD5811118C0A9962CAD3DAD4EAD31
:103560005FADA99769966CAD7DAD8EAD9FAD699746
:103570000E945CD5811108C0ABEDCA2EAFE0DA2EF7
:10358000A9ECEA2EA0E4FA2EAD962CAD3DAD4EADE1
:103590005FADAD97C701B6010E94C2D59B01AC01DA
:1035A0000E94C2D54B015C0161962CAD3DAD4EAD84
:1035B0005FAD6197CA01B9010E94C2D59B01AC0100
:1035C000C501B4010E948DD90E943BDC4B015C0116
:1035D0002FE632E143E85AE30E945CD587FD10C232
:1035E000C501B4010E942FDB0E9400DB1B01672B89
:1035F00019F422242394312CB10180E090E00E9440
:1036000061D54B015C019B01AC01C701B6010E9471
:1036100087DA2D966CAF7DAF8EAF9FAF2D97A5014A
:10362000940161966CAD7DAD8EAD9FAD61970E94AA
:1036300087DAAD966CAF7DAF8EAF9FAFAD97E99651
:103640002CAD3DAD4EAD5FADE997E1966CAD7DAD76
:103650008EAD9FADE1970E948CD9A50194010E9487
:1036600087DAE1966CAF7DAF8EAF9FAFE1972D9675
:103670002CAD3DAD4EAD5FAD2D97CA01B9010E9495
:10368000C2D520E030E040E05FE30E94C2D59B015C
:10369000AC0160E070E080E89FE30E948CD9A596C1
:1036A0006CAF7DAF8EAF9FAFA597E5968CAD9DAD0E
:1036B000AEADBFADE59789879A87AB87BC87E996A2
:1036C0002CAD3DAD4EAD5FADE9972D873E874F8761
:1036D000588B6091060170910701072E000C880B32
:1036E000990B0E9463D52091000130910101409116
:1036F0000201509103010E94C2D52AE037ED43E256
:103700005CE30E94C2D568A379A38AA39BA30E940D
:10371000228A9B01AC0128533F4F4F4F5F4FA99620
:103720002CAF3DAF4EAF5FAFA99722964FAC22971B
:1037300023965FAC239724966FAC249725967FAC95
:10374000259741E050E067965FAF4EAF679759E12C
:103750002E965FAF2E976796AEADBFAD6797A21559
:10376000B30509F43CC10E940EB30E94228ADC0119
:10377000CB01A9962CAD3DAD4EAD5FADA997821B97
:10378000930BA40BB50BB7FD10C00E94228A9B01BE
:10379000AC0128533F4F4F4F5F4FA9962CAF3DAF21
:1037A0004EAF5FAFA9970E9417872E963FAD2E9719
:1037B00031502E963FAF2E97332309F44BC0A59678
:1037C0002CAD3DAD4EAD5FADA59729966CAD7DADF1
:1037D0008EAD9FAD29970E94C2D56B017C012D96BD
:1037E0002CAD3DAD4EAD5FAD2D97B201C3010E9432
:1037F000C2D5A70196010E948DD97B018C01A596A7
:103800002CAD3DAD4EAD5FADA597B201C3010E9499
:10381000C2D54B015C012D962CAD3DAD4EAD5FADDB
:103820002D9729966CAD7DAD8EAD9FAD29970E94E9
:10383000C2D59B01AC01C501B4010E948CD92B01FA
:103840003C01C701D80129968CAF9DAFAEAFBFAF89
:10385000299761C067964EAD5FAD6797BA0180E06A
:1038600090E00E9461D52D962CAD3DAD4EAD5FAD83
:103870002D970E94C2D54B015C010E9482DA6B0138
:103880007C01C501B4010E942DDC4B015C01A70144
:10389000960125966CAD7DAD8EAD9FAD25970E94AE
:1038A000C2D52B013C01A501940165966CAD7DAD9F
:1038B0008EAD9FAD65970E94C2D59B01AC01C3013F
:1038C000B2010E948DD92B013C01A50194012596DE
:1038D0006CAD7DAD8EAD9FAD25970E94C2D54B01DD
:1038E0005C01A701960165966CAD7DAD8EAD9FAD77
:1038F00065970E94C2D59B01AC01C501B4010E942D
:103900008CD929966CAF7DAF8EAF9FAF299759E1C7
:103910002E965FAF2E979201A3016D966CAD7DAD93
:103920008EAD9FAD6D970E948DD969837A838B830D
:103930009C8329962CAD3DAD4EAD5FAD2997A196E8
:103940006CAD7DAD8EAD9FADA1970E948DD96D837D
:103950007E838F839887AD962CAD3DAD4EAD5FAD28
:10396000AD9769857A858B859C850E948DD96987FD
:103970007A878B879C87E1962CAD3DAD4EAD5FADD0
:10398000E1976D857E858F8598890E948DD96D8799
:103990007E878F87988B80911401882321F0CE0138
:1039A00001960E940F85E090B6028E01005E1F4FC7
:1039B0009E01235F3F4FAE01475F5F4FBE016B5FCC
:1039C0007F4FCE0101960E94A06F67968EAD9FAD8E
:1039D0006797019667969FAF8EAF6797BCCEE090D2
:1039E000B6028E01005E1F4F25E338E041E358E048
:1039F0006DE278E089E298E00E94A06F0E94E935CC
:103A00000E94F3350C947F2EE8E0F2E184918F015F
:103A10000F5F1F4F882321F00E94FE35F801F6CF7B
:103A2000EBE9F1E084918F010F5F1F4F882311F4C0
:103A30000C947F2E0E94FE35F801F4CF80E50E94A1
:103A40003635882329F00E9490346B017C0103C035
:103A5000C12CD12C760183E50E943635882361F094
:103A60000E94D43420E030E04AE754E40E94C2D5FA
:103A70000E9400DB6B017C010E94C29D80913F018E
:103A8000811105C060E081EB91E00E9432950E94B7
:103A9000F3358091150890911608A0911708B09100
:103AA0001808C80ED91EEA1EFB1E0E94228ADC01DD
:103AB000CB018C199D09AE09BF09B7FD02C00C945A
:103AC0007F2E0E941787F1CF0E94C29D8091000136
:103AD00090910101A0910201B09103018093BE0277
:103AE0009093BF02A093C002B093C10280910601DF
:103AF000909107019093BD028093BC0284E690E010
:103B000090930701809306010E94F33581E0809332
:103B1000F50F88E50E940735E82E89E50E940735F4
:103B2000082F8AE50E940735F82EE11005C0011123
:103B300005C011E0182705C0011102C010E001C046
:103B4000182F80E1E7E5F3E0A9E2B8E001900D92DB
:103B50008A95E1F7111105C0E11003C0002309F4B3
:103B6000B2C01092310810923208109233081092AD
:103B7000340820E030E0A90160915F037091600398
:103B800080916103909162030E945CD587FF88C099
:103B900020910001309101014091020150910301F7
:103BA00025962CAF3DAF4EAF5FAF2597ECEEF6E11B
:103BB000459055906590749040920001509201019B
:103BC000609202017092030110925F0310926003F1
:103BD00010926103109262030E943F33A0905F0F26
:103BE000B090600FC090610FD090620F9090630F03
:103BF0008090640F3090650F2090660F292D382D2E
:103C0000432D522DB501C6010E945CD587FD04C02D
:103C1000A92CB82CC32CD22CC501D601809300014D
:103C200090930101A0930201B09303010E943F33DE
:103C30008090310890903208A0903308B0903408FA
:103C4000A501940160915F0370916003809161030D
:103C5000909162030E94EDDB181694F440920001EB
:103C600050920101609202017092030180925F0301
:103C700090926003A0926103B09262030E943F336E
:103C80000E94C29D25968CAD9DADAEADBFAD259772
:103C90008093000190930101A0930201B09303016E
:103CA000111105C0E11003C0011107C00CC080E074
:103CB00090E00E94A1851123B9F381E090E00E9479
:103CC000A185111102C0FF2021F082E090E00E9446
:103CD000A1850E9412348091F40F8093F50F80919A
:103CE000BE029091BF02A091C002B091C102809328
:103CF000000190930101A0930201B0930301809110
:103D0000BC029091BD0290930701809306010E942E
:103D1000F33583E080933E010E94E5390C947F2EB9
:103D20001092BB020C947F2E81E08093BB020C9416
:103D30007F2E0E94D4344B015C010330110559F0F1
:103D4000F701E858F74F20813181428153810E9469
:103D50008CD94B015C01F701E95AFC4F208131817C
:103D600042815381C501B4010E948CD92B013C01D1
:103D70002DEB37E346E855EB0E94EDDB87FD1DC0D8
:103D80002DEB37E346E855E3C301B2010E945CD551
:103D900018169CF00F5F1F4FB4E0CB0ED11CE4E06F
:103DA000EE0EF11C0430110559F1D1018D911D0168
:103DB0000E943635882371F3BCCF0330110569F4B6
:103DC0008092630390926403A0926503B0926603AD
:103DD000B1E02296BFAF2297DDCFA3019201F60199
:103DE00060817181828193810E948DD9D6016D930A
:103DF0007D938D939C931397C8010E945433CACF2F
:103E00002296FFAD2297FF23A9F1C0906303D090C3
:103E10006403E0906503F0906603209135073091CC
:103E200036074091370750913807C701B6010E9405
:103E3000C2D50E94FADB6093EE0F7093EF0F809370
:103E4000F00F9093F10FC701B6010E94F9DA2FB776
:103E5000F8946093CA0E7093CB0E8093CC0E90931F
:103E6000CD0E2FBF1092DE0F1092DF0F1092E00FD9
:103E70001092E10F0E94E5390C947F2E8091D912A7
:103E80009091DA128037910509F4C1C60CF0C5C0D3
:103E90008A32910509F493C50CF072C088319105FE
:103EA00009F47EC2B4F58231910511F40C942B27EC
:103EB000BCF497FF02C00C947F2E823091050CF465
:103EC00094C1419711F00C947F2E60E08FEE91E049
:103ED0000E9432955E985E9815985E980C947F2E9D
:103EE0008531910509F441C23CF4449711F00C94DA
:103EF0007F2EE7E0F2E003C28631910509F439C272
:103F0000479711F00C947F2EE091D712F091D812C0
:103F10003AC28C31910509F498C264F48A31910552
:103F200009F449C20CF055C2109224100E94F5BB4E
:103F30000C947F2E8F31910509F49BC42CF44E977D
:103F400009F48DC20C947F2E8032910509F48AC346
:103F5000819711F00C947F2EE090D712F090D81238
:103F600082E090E09093AA128093A912F701019049
:103F70000020E9F731975F01AE18BF08F701B6C31B
:103F80008C35910511F40C94792734F58135910520
:103F900009F444C78CF48C34910509F450C58D3470
:103FA000910509F450C58B34910511F00C947F2EC6
:103FB0000E94B5BB0C947F2E8335910509F447C749
:103FC0000CF442C78435910509F445C78535910540
:103FD00009F476C70C947F2E8B36910509F40CC733
:103FE00064F48936910509F464C60CF0E0C688369D
:103FF000910509F42CC50C947F2E8D36910509F49A
:104000009CC60CF400C68E36910509F478C58F362F
:10401000910509F487C50C947F2E8E3C910511F40F
:104020000C94252B0CF06AC08C38910509F423C63A
:1040300074F58537910511F40C94AD2884F482371A
:10404000910511F40C9401280CF4E9C5833791050E
:1040500011F00C947F2EEAEAF4E00C9406288737DE
:10406000910511F40C94F42814F40C94B5288837B5
:10407000910511F40C9458298937910511F00C948D
:104080007F2E1092F50F1092F40F0C947F2E883C27
:10409000910511F40C94D5297CF48B39910509F420
:1040A00025C68E3B910509F466C68139910511F04C
:1040B0000C947F2E0C945E298B3C910511F40C948A
:1040C000332A84F4893C910511F00C947F2E6FE61D
:1040D000E62E6FE0F62E03E811E074E0D72ED00E46
:1040E0000C941B2A8C3C910511F40C94502A8D3CA5
:1040F000910511F40C94BA2A0C947F2E833621E09A
:10410000920711F40C94F62DB4F5823E910511F44A
:104110000C94382C9CF48C3D910511F40C94282CB3
:104120008D3D910511F40C94352C833D910511F0D2
:104130000C947F2EE3E2F2E10C944A2B8D3241E0A5
:10414000940711F40C94642C3CF48C32914011F4DB
:104150000C943B2C0C947F2E8E32B1E09B0711F413
:104160000C94672C8F32914011F00C947F2E0E949A
:1041700012B50C947F2E853FF1E09F0711F40C944B
:10418000E42DF4F48A3931E0930709F444C54CF482
:104190008039914011F00C947F2E0E94C29D0C94A6
:1041A0007F2E8C3AA1E09A0711F40C946A2C843F7C
:1041B000914011F00C947F2E0E94AA7D0C947F2ECA
:1041C000873FE1E09E0711F40C94EA2D14F40C945F
:1041D000E72D803A23E0920709F43EC3873E9340DF
:1041E00011F40C940F2E0C947F2EA090D712B09047
:1041F000D81280E50E943635882359F00E94903409
:104200006B017C0111E0672B682B692B31F410E006
:1042100004C010E0C12CD12C760183E50E94363514
:104220008823F1F00E94D43420E030E04AE754E4DF
:104230000E94C2D50E9400DB6B017C01111112C0EB
:10424000672B682B692B71F4A114B10459F0D501C7
:104250008C91882339F061E0C5010E94519507C017
:10426000112391F360E08CED91E00E94329583E0A0
:1042700090E090930D0880930C0881E0809358089B
:104280000E94C29D0E94F335C114D104E104F104DF
:10429000E9F08091150890911608A0911708B09147
:1042A0001808C80ED91EEA1EFB1E0E94228ADC01D5
:1042B000CB018C199D09AE09BF09B7FF1CC08091C5
:1042C00058088823C1F00E941787EFCF80915808C3
:1042D000882319F00E941787F9CF809114109091CC
:1042E000151060E0029719F489EC91E002C08AEBA6
:1042F00091E00E943295109258080C947F2E849180
:104300008F010F5F1F4F882321F00E94FE35F801B7
:10431000F6CF1092AA121092A91240E050E0BA0112
:1043200085E590E10E94084761E570E1CE010196C4
:104330000E94AE4440E050E0BE016F5F7F4F84E7D3
:1043400092E00E943F50CE0101960E949C86E8EFC9
:10435000F1E084918F010F5F1F4F882311F40C94BB
:104360007F2E0E94FE35F801F4CF0E9497550C94E1
:104370007F2E10922410109225100C947F2E8032E4
:1043800009F41082319680818111F9CF40E061E01B
:104390008091D7129091D8120E9456520C947F2E81
:1043A00080912510882319F081E0809324100E94C9
:1043B000B5BB0C947F2E80912510882311F40C94AA
:1043C0007F2E83E50E94363581110C94642F0C9466
:1043D0007F2E80912510882351F1E8E1F2E084914D
:1043E0008F010F5F1F4F882321F00E94FE35F801D7
:1043F000F6CF6091A0127091A1128091A2129091BB
:10440000A3124AE00E94AA388FE20E94FE35609112
:104410009C1270919D1280919E1290919F124AE081
:104420000E94AA388AE00E94FE350C947F2EEAE2B0
:10443000F2E084918F010F5F1F4F882311F40C94D9
:104440007F2E0E94FE35F801F4CF40E060E08091BD
:10445000D7129091D8120E9456520C947F2E8091C0
:104460002510882311F40C947F2E8FEE91E10E9489
:10447000D5468FEE91E10E94408210922310109257
:104480002210E090D712F090D81280912510882346
:1044900011F40C947F2E0E94CDC2FE0131966F0163
:1044A000CF010E94D84481E590E1909371108093F0
:1044B0007010D7018C918F3209F060C06FE270E00C
:1044C000C7010E9433DD8C010F5F1F4F09F45CC0F0
:1044D0006FE270E0C8010E9433DD5C01009709F4CF
:1044E00054C00817190708F050C04C01801A910AEF
:1044F000A401B801CE0180960E945CDDE0E2F0E00C
:10450000EC0FFD1FE80DF91D10828E01005E1F4F9C
:10451000F80181918F01882319F00E94FE35F8CFB0
:104520008AE00E94FE3560917010709171106115E3
:10453000710511F06C5F7F4F21E0AE01405E5F4F6F
:10454000CE0105960E94FC4C811112C0BE01605E36
:104550007F4F81E692E00E94206E8EE20E94FE353F
:104560008AE00E94FE35C6010E949C860C947F2E34
:10457000D0927110C09270108501A6CF82E790E1B1
:1045800090937110809370108701609170107091FA
:1045900071106115710511F06C5F7F4F18A21BA29D
:1045A00022E0A801CE0180960E94FC4C811102C03D
:1045B000F12C14C0CE0180960E943BC28823C1F327
:1045C00061E0CE0180960E944982009789F325EE32
:1045D000DC012C931BA20E94E244F82ECE018096AF
:1045E0000E94DA35FF2009F1EBE3F2E084917F01CC
:1045F000BFEFEB1AFB0A882321F00E94FE35F7017A
:10460000F5CFF80181918F01882319F00E94FE35C2
:10461000F8CF8AE00E94FE351092A0121092A112EB
:104620001092A2121092A31218C0E9E4F2E0849151
:104630007F012FEFE21AF20A882321F00E94FE3553
:10464000F701F5CFD8018D918D01882319F00E94D3
:10465000FE35F8CF8EE20E94FE35C6010E949C8690
:104660000C947F2E8091241081110E94C29D809114
:104670002510882311F40C947F2E80E50E94363596
:10468000882319F00E94C43403C080E50E940735D6
:10469000182F482F61E08091D7129091D8120E9474
:1046A000565283E50E943635882381F00E94A0345B
:1046B000AB01BC014093A0125093A1126093A212CF
:1046C0007093A3128FEE91E10E940847809125100C
:1046D000882319F081E08093241011110C947F2E0F
:1046E00066CE80818F3209F410823196CF018E1907
:1046F0009F098A159B05ACF361E570E1CE018096B8
:104700000E94AE4400E010E06BE1762E0A151B0516
:104710000CF099C0F701E00FF11F8081811102C0F8
:104720000F5F1F4F6701C00ED11EF60180818823E5
:1047300009F489C00F5F1F4FF701E00FF11F80815F
:104740008111F8CF40E050E0BA01CE0184960E947A
:104750000847BE01605E7F4FCE0101960E94AE44C5
:10476000A601BE016F5F7F4F84E792E00E943F5039
:10477000CE0101960E949C868FE20E94FE358091B8
:104780003410882319F084E390E102C081E092E0C4
:104790004C01D4018D914D01882319F00E94FE3502
:1047A000F8CF80912610882309F44DC0CE010196E0
:1047B0000E94D84421E0A601BE016C5D7F4FCE016E
:1047C00005960E94FC4C811128C08AE00E94FE35AB
:1047D000E3E2F2E184918F010F5F1F4F882321F004
:1047E0000E94FE35F801F6CFE5E7F2E084918F01F3
:1047F0000F5F1F4F882321F00E94FE35F801F6CF8E
:10480000F60181916F01882319F00E94FE35F8CFDF
:10481000CE0101960E949C8616C0CE0184960E940D
:104820004082FE013596DE019496872D01900D920F
:104830008A95E1F78B819C819BA38AA3CE01019687
:104840000E949C8663CF8AE00E94FE35CE0180964E
:104850000E949C860C947F2E8091D7129091D81242
:1048600021E02093231040E060E00E9456520C9417
:104870007F2E0E94E3C35CE3C52ED12CE12CF12CEA
:10488000A70196010E9450D9762E672ECA01B90160
:10489000A70196010E9450D96B017C01CA01B901A0
:1048A00028E130E040E050E00E9450D94B015C012B
:1048B000C9016DE671E00E949ADC8E010F5F1F4F07
:1048C0006115710599F06F927F92DF92CF929F925E
:1048D0008F929F938F937F936F9381EB92E09F933F
:1048E0008F931F930F930E94F3D412C00097B1F0DF
:1048F0006F927F92DF92CF929F928F929F938F932E
:1049000081EA92E09F938F931F930F930E94F3D4B9
:104910000FB6F894DEBF0FBECDBF36C08114910430
:10492000A104B10479F06F927F92DF92CF929F92AF
:104930008F9285E992E09F938F931F930F930E942C
:10494000F3D4E6CFC114D104E104F10469F06F920D
:104950007F92DF92CF928DE892E09F938F931F9387
:104960000F930E94F3D4D4CF6F927F9289E892E0A4
:104970009F938F931F930F930E94F3D40F900F90E8
:104980000F900F900F900F9060E0C8010E9451951A
:10499000E3E2F2E184917F01BFEFEB1AFB0A882387
:1049A00021F00E94FE35F701F5CFB80185EC92E0C9
:1049B0000E94206E8AE00E94FE350C947F2E83E5D3
:1049C0000E943635882311F40C947F2E0E94B03457
:1049D000E82E80E50E943635882341F00E94A034FD
:1049E0008B0177FF02C00C947F2E02C00BE110E018
:1049F000902FE2EDF2E088E28E0F2491921729F0D9
:104A000031968E13FACF0C94752FE8E0F2E1849181
:104A10008F010F5F1F4F882321F00E94FE35F801A0
:104A2000F6CFEAEFF2E084918F010F5F1F4F8823EA
:104A300011F40C947F2E0E94FE35F801F4CF0E94F1
:104A4000F5BB0C947F2E0E94F3C20C947F2E88E657
:104A500090E00E94123981110C947F2E80914A07B8
:104A600083FF02C00C947F2E83E50E943635882395
:104A700011F40C947F2E0E94D4340E94F9DA7093C2
:104A8000440F6093430F80E00E941AAF0E94D43419
:104A900020E030E04AEA52E40E945CD518163CF06F
:104AA0000E94F3C260E080E193E00E9432950E9490
:104AB000D43420916D0830916E0840916F08509168
:104AC00070080E94EDDB181614F00C947F2E8AE11A
:104AD00092E09F938F938091B30D90E001969F9306
:104AE0008F9389E093E09F938F931F920E94D8C287
:104AF0000FB6F894DEBF0FBECDBF0C947F2E8EE4B0
:104B00000E943635882311F40C947F2E0E94A03425
:104B10006093530F7093540F8093550F9093560FDB
:104B20000C947F2E83E50E940735882359F083E596
:104B30000E943635882319F00E94B03401C080E00D
:104B400080934A07E3E2F2E184918F010F5F1F4FE8
:104B5000882321F00E94FE35F801F6CFE1E3F3E06F
:104B600084918F010F5F1F4F882321F00E94FE3533
:104B7000F801F6CF80914A078823A1F143E2C42EC1
:104B800043E0D42EE12CF12C20E080914A0790E004
:104B90000E2C02C0959587950A94E2F780FF17C006
:104BA000BB24B394B20E222319F08CE20E94FE358E
:104BB000F60125913491F901849189010F5F1F4F0E
:104BC000882321F00E94FE359801F5CF2B2DFFEFB1
:104BD000EF1AFF0A32E0C30ED11C45E0E416F104DF
:104BE000A1F60CC0EDE2F3E084918F010F5F1F4F3F
:104BF000882321F00E94FE35F801F6CF8AE00E945A
:104C0000FE350C947F2E109282010C947F2E88E347
:104C100093E00E94AE860E94B3B40C947F2E83E58D
:104C20000E943635882369F00E94B0348D3320F419
:104C300080931D010C947F2E8CE380931D010C94B6
:104C40007F2EE3E2F2E184918F010F5F1F4F8823F3
:104C500021F00E94FE35F801F6CF40911D0150E091
:104C600060E070E081E493E00E94E9A48AE00E94A1
:104C7000FE350C947F2E80914A0783FF02C00C946E
:104C80007F2E83E50E943635882311F40C947F2E05
:104C90000E94D4340E94F9DA6437710514F063E796
:104CA00070E07093420F6093410F0E94CFAE0C945E
:104CB0007F2E89E690E00E941239811111C0E8E44C
:104CC000F3E084918F010F5F1F4F882321F00E9432
:104CD000FE35F801F6CF0E94A6A88AE00E94FE35B4
:104CE00010920D0810920C080C94AB3283E50E94D0
:104CF0003635882311F40C947F2E0E94B034182F7F
:104D00008D3308F01CE3109312080E94228A6B0175
:104D10007C01212F30E0A8EEB3E00E947DD9C60EC1
:104D2000D71EE81EF91EC0920E08D0920F08E0921E
:104D30001008F09211080C947F2E8DE690E00E94EE
:104D4000123981110C947F2E80914A0783FF02C093
:104D50000C947F2E83E50E94363562968FAF629762
:104D600081110C948B2F82E50E94363581110C94B1
:104D70008B2F0C947F2E80914A0783FF02C00C94E6
:104D80007F2E60E085E893E00E94329583E50E94E3
:104D9000363562968FAF629781110C94233182E58C
:104DA0000E94363581110C9423310C947F2E80E5BE
:104DB0000E943635811108C083E50E943635811185
:104DC00009C03FEF20E00AC00E94B03481110C946A
:104DD0007F2EF2CF0E94A034362F272F832F922FC1
:104DE0008F3F910519F010F08FEF90E09093460FF0
:104DF0008093450F0C947F2E80E50E9436358111FB
:104E000006C01092460F1092450F0C947F2E0E9400
:104E1000A034672B11F00C947F2EF3CF0E9465AF66
:104E20000E94C29D0E94A4861092460F1092450FC8
:104E300068EE73E080E090E00E94459460E082E9D3
:104E400093E00E9432955BC71092BA0258C781E086
:104E50008093BA0254C783E50E943635882399F0BF
:104E60000E94D43420E030E04AE754E40E94C2D5E6
:104E70000E9400DB60931E0170931F01809320014C
:104E8000909321013CC788E50E94073581110C945D
:104E90008F3289E50E94073581110C948F328AE5A3
:104EA0000E94073581110C948F3285E40E940735EA
:104EB00081110C948F320E94C29D0E94A4861FC74C
:104EC00083E50E940735882309F419C70E94D4346A
:104ED00020E030E04AE754E40E94C2D50E9400DBA3
:104EE0006093190870931A0880931B0890931C080C
:104EF00006C713E8C12E11E0D12E09E2E02E07E02B
:104F0000F02E10E0D6018D916D010E9407358823A7
:104F100009F46DC0133009F063C00E94D4344B0112
:104F20005C0120E030E040EA51E40E945CD587FF5C
:104F30004EC0A501940160913507709136078091AC
:104F40003707909138070E9487DA2B013C019B01BB
:104F5000AC016091250770912607809127079091F9
:104F600028070E94C2D56093250770932607809377
:104F7000270790932807A301920160916B0F70910E
:104F80006C0F80916D0F90916E0F0E94C2D560934F
:104F90006B0F70936C0F80936D0F90936E0F6091F9
:104FA0005707709158078091590790915A070E94AE
:104FB00061D5A30192010E94C2D50E9400DB6093DB
:104FC0005707709358078093590790935A07809218
:104FD000350790923607A0923707B092380707C07E
:104FE0000E94D434F70160837183828393831F5FAF
:104FF000F4E0EF0EF11C143009F084CF0E94746FBE
:105000007EC60E94C29D0E94E53979C684918F01B7
:105010000F5F1F4F882321F00E94FE35F801F6CF65
:10502000E3E9F4E084918F010F5F1F4F882321F0A3
:105030000E94FE35F801F6CFE5E8F4E084918F0197
:105040000F5F1F4F882321F00E94FE35F801F6CF35
:10505000EEE6F4E084918F010F5F1F4F882321F06B
:105060000E94FE35F801F6CFEEE5F4E084918F0161
:105070000F5F1F4F882321F00E94FE35F801F6CF05
:10508000EDE4F4E084918F010F5F1F4F882321F03E
:105090000E94FE35F801F6CFECE3F4E084918F0135
:1050A0000F5F1F4F882321F00E94FE35F801F6CFD5
:1050B000EDE2F4E084918F010F5F1F4F882321F010
:1050C0000E94FE35F801F6CFE8E1F4E084918F010B
:1050D0000F5F1F4F882321F00E94FE35F801F6CFA5
:1050E000E3E0F4E084918F010F5F1F4F882321F0EC
:1050F0000E94FE35F801F6CFEDEEF3E084918F01CA
:105100000F5F1F4F882321F00E94FE35F801F6CF74
:10511000E8EDF3E084918F010F5F1F4F882321F0AA
:105120000E94FE35F801F6CFEBEBF3E084918F019E
:105130000F5F1F4F882321F00E94FE35F801F6CF44
:10514000E3EAF3E084918F010F5F1F4F882309F496
:10515000D6C50E94FE35F801F5CF60E08091D712E8
:105160009091D8120E945195CAC585E40E943635A7
:10517000882319F00E94C43403C085E40E940735D7
:10518000882361F0E3E2F2E184918F010F5F1F4F0A
:10519000882321F00E94FE35F801F6CF81E40E94B9
:1051A0003635882319F00E94C43403C081E40E947C
:1051B0000735882361F0E1E7F5E084918F010F5F07
:1051C0001F4F882321F00E94FE35F801F6CF009191
:1051D000D7121091D812D8018D918D01882309F42E
:1051E0000DCD0E94FE35F7CFEDE8F5E084918F01FB
:1051F0000F5F1F4F882321F00E94FE35F801F6CF84
:10520000E5E8F5E084918F010F5F1F4F882321F0BF
:105210000E94FE35F801F6CF329B03C005E012E094
:1052200002C00AE012E0F80181918F01882319F091
:105230000E94FE35F8CF8AE00E94FE35EDE7F5E0EA
:1052400084918F010F5F1F4F882321F00E94FE354C
:10525000F801F6CF339B03C005E012E002C00AE07C
:1052600012E0D8018D918D01882319F00E94FE353E
:10527000F8CF8AE00E94FE35E5E7F5E084918F01E2
:105280000F5F1F4F882321F00E94FE35F801F6CFF3
:10529000349B03C005E012E002C00AE012E0F8010E
:1052A00081918F01882309F4A9CC0E94FE35F7CFA4
:1052B00081E08093F50F8093F40F21C583E50E9470
:1052C0003635882319F00E94A03402C060E070E0F7
:1052D0008B01112702301105CCF0E8E0F2E1849156
:1052E0008F010F5F1F4F882321F00E94FE35F801C8
:1052F000F6CFE7EAF5E084918F010F5F1F4F882317
:1053000009F4FDC40E94FE35F801F5CF88E40E943F
:1053100036358823A9F00E94A0346A3A71053CF022
:105320006530F1E07F072CF064E071E002C06AEACA
:1053300070E0F801EE0FFF1FEC58F84F71836083A7
:1053400086E40E9436358823A9F00E94A034F80133
:10535000EE0FFF1FE858F84F718360836F3F7105B0
:1053600019F014F06FEF70E077FF02C060E070E0BA
:105370007183608382E40E943635882309F4BFC4B8
:105380000E94A0346530710534F0653671052CF04B
:1053900064E670E002C065E070E0000F111FF801E4
:1053A000E059F84F71836083AAC488EC90E00E94B2
:1053B00012398111A4C484E40E9407358823C1F105
:1053C0000E94D43411E020E030E0A9010E945CD5B5
:1053D000811101C010E010933D07112349F10E9493
:1053E000D434E091B30D24E0E29FF0011124E75C96
:1053F000F84F608371838283938320E030E0A901BA
:105400006091390770913A0780913B0790913C0772
:105410000E945CD581110CC080E090E0A0E4B0E473
:105420008093390790933A07A0933B07B0933C07CA
:105430000E948A5F64C4D8018D918D010E94073556
:10544000882349F00E94D4340E9400DBF701608376
:10545000718382839383F4E0EF0EF11CD012EBCFC3
:105460000E94476E4CC44FE5E42E4FE0F42E03E853
:1054700011E054E0D52ED00ED8018D918D010E94FF
:105480000735882339F00E94D434F7016083718393
:1054900082839383F4E0EF0EF11CD012EDCF2FC482
:1054A00083E50E9407358823D9F00E94D434AB01EC
:1054B000BC014093870F5093880F6093890F7093BE
:1054C0008A0F40937F0F5093800F6093810F7093EA
:1054D000820F83E296E00E9423A58AE00E94FE35B7
:1054E00080E50E940735882399F00E94D434AB01EF
:1054F000BC014093870F5093880F6093890F70937E
:105500008A0F86E096E00E9423A58AE00E94FE357D
:1055100082E50E940735882399F00E94D434AB01BC
:10552000BC014093830F5093840F6093850F709359
:10553000860F87EE95E00E9423A58AE00E94FE3543
:1055400084E50E940735882309F4D9C30E94D43426
:10555000AB01BC0140937F0F5093800F6093810F8C
:105560007093820F89EC95E00E9423A58AE00E9447
:10557000FE35C5C383E50E940735882351F00E949C
:10558000D43460935B0F70935C0F80935D0F9093A6
:105590005E0F84E50E940735882351F00E94D434C1
:1055A0006093570F7093580F8093590F90935A0F31
:1055B00082E40E940735882351F00E949034609362
:1055C000460770934707809348079093490788E5FB
:1055D0000E940735882351F00E94D4346093190744
:1055E00070931A0780931B0790931C0789E50E940C
:1055F0000735882351F00E94D43460931D077093BF
:105600001E0780931F07909320078AE50E940735A5
:10561000882351F00E94D4346093210770932207AD
:10562000809323079093240785E40E9407358823FD
:1056300009F465C30E94D43460932507709326074C
:1056400080932707909328075AC323E8C22E21E0AE
:10565000D22E3BE4E32E33E0F32E00E010E0D6013F
:105660008D916D010E940735882351F00E94D4343A
:10567000F7016083718382839383C8010E9454334E
:105680000F5F1F4FF4E0EF0EF11C0330110539F7E7
:105690000C943A1F84918F010F5F1F4F882321F0D4
:1056A0000E94FE35F801F6CF83E50E940735882376
:1056B00021F00E94C43480931401E3E7F6E0849162
:1056C0008F010F5F1F4F882321F00E94FE35F801E4
:1056D000F6CF80911401811103C0EFE6F6E002C01D
:1056E000EBE6F6E084918F010F5F1F4F882321F0D6
:1056F0000E94FE35F801F6CFE3E6F6E084918F01D3
:105700000F5F1F4F882321F00E94FE35F801F6CF6E
:10571000209178083091790840917A0850917B085F
:1057200060912B0370912C0380912D0390912E0397
:105730000E948DD9AB01BC0181E696E00E9423A5B1
:1057400020917C0830917D0840917E0850917F081F
:1057500060912F0370913003809131039091320357
:105760000E948DD9AB01BC018EE596E00E9423A575
:1057700020918008309181084091820850918308DF
:105780006091330370913403809135039091360317
:105790000E948DD9AB01BC018BE596E00E9423A548
:1057A000E3E5F6E084918F010F5F1F4F882321F01E
:1057B0000E94FE35F801F6CF2091780830917908E3
:1057C00040917A0850917B0860910801709109011D
:1057D00080910A0190910B010E948DD9AB01BC010F
:1057E00081E596E00E9423A520917C0830917D08F8
:1057F00040917E0850917F0860910C0170910D01DD
:1058000080910E0190910F010E948DD9AB01BC01D6
:105810008EE496E00E9423A52091800830918108B3
:10582000409182085091830860911001709111019C
:1058300080911201909113010E948DD9AB01BC019E
:105840008BE496E00E9423A58AE00E94FE3557C2B1
:1058500083E50E943635882309F451C20E94A034A2
:1058600070930701609306014AC20E949BBA47C227
:105870000E9440BA44C283E50E943635882319F05D
:105880000E94A03402C064E071E079A368A380E5BF
:105890000E943635882339F00E94A034693823E10C
:1058A000720730F402C068EE73E07A83698304C043
:1058B00088E893E19A838983BE01605E7F4FCE01C1
:1058C00001960E9481BB1BC20E94A3B918C20E940C
:1058D0004DB915C20091750881E00827F09076084F
:1058E000F826109177081827011102C0FF2019F03F
:1058F000E3E2F2E119C01111FBCF98ED892E96E198
:10590000992E27E533E023963FAF2EAF2397AE01C4
:105910004F5F5F4F5A0101E317E11A0153E0500F47
:1059200026965FAF26977BC084916F013FEFC31A25
:10593000D30A882321F00E94FE35F601F5CFE3EA71
:10594000F6E084916F014FEFC41AD40A882321F046
:105950000E94FE35F601F5CF002369F0E1EAF6E09A
:1059600084916F015FEFC51AD50A882321F00E9448
:10597000FE35F601F5CFFF2069F0EFE9F6E08491FE
:105980006F019FEFC91AD90A882321F00E94FE35C2
:10599000F601F5CF111103C0E5E9F6E00DC0EDE920
:1059A000F6E084916F01AFEFCA1ADA0A8823A1F3F7
:1059B0000E94FE35F601F5CF84916F01BFEFCB1A3F
:1059C000DB0A882321F00E94FE35F601F5CF111184
:1059D00003C044E752E002C044E152E0F11003C0CA
:1059E00024E732E002C026E132E0011103C084E77F
:1059F00092E002C088E192E05F934F933F932F9330
:105A00009F938F9383E896E09F938F931F920E94BA
:105A1000D8C20FB6F894DEBF0FBECDBF70C1F4017F
:105A200065917591859194912396AEADBFAD239705
:105A3000CD90DD90ED90FD902396BFAFAEAF239754
:105A4000A70196010E948CD92B013C0120E030E097
:105A500040EA51EC0E94EDDB87FD10C020E030E011
:105A600040EA51E4C301B2010E945CD5181634F03B
:105A7000F10140825182628273820DC0F8018491EB
:105A80001816B4F7F7FAF094F7F8F094F101C08221
:105A9000D182E282F382D101CD90DD90ED90FD9034
:105AA0001D0120E030E040EA51ECC701B6010E9440
:105AB000EDDB87FF03C0E8E0F2E10BC020E030E05F
:105AC00040EA51E4C701B6010E945CD5181684F57E
:105AD000F2CF84918F010F5F1F4F882321F00E9426
