:100000000C9435140C945F140C945F140C945F14CE
:100010000C945F140C945F140C945F140C945F1494
:100020000C945F140C945F140C945F140C945F1484
:100030000C945F140C9440430C945F140C945F1464
:100040000C945F140C94F1550C94C7DC0C945F1461
:100050000C949ACC0C945F140C945F140C945F1461
:100060000C945F140C945F140C945F140C945F1444
:100070000C945F140C945F140C945F140C945F1434
:100080000C945F140C945F140C945F1411D9D8D79E
:100090000AD84DD90AD80AD80AD80AD80AD80AD80C
:1000A0000AD80AD80AD80AD80AD80AD80AD80AD840
:1000B0000AD80AD80AD80AD80AD80AD80AD80AD830
:1000C0000AD80AD80AD80AD847D90AD80AD80AD8E2
:1000D0000AD80AD80AD80AD80AD820D90AD80AD8F9
:1000E0000AD80AD80AD80AD80AD80AD80AD80AD800
:1000F00064D907D8C8D9CBD9BED9C2D9E2D9E2D9F7
:10010000CFD9D3D9D9D9DDD938DC3DDC42DC4CDCC0
:100110007ADC7ADC56DC5EDC66DC70DC05A84CCD73
:10012000B2D44EB93836A9020C50B9918688083C31
:10013000A6AAAA2ABE000000803F4E414E494E4961
:100140005459494E46CDCCCC3D0AD7233C17B7D1A4
:100150003877CC2B329595E6241FB14F0A0000204A
:10016000410000C84200401C4620BCBE4CCA1B0EC9
:100170005AAEC59D74434F4D4D554E494341544968
:100180004F4E0044525952554E004552524F525311
:1001900000494E464F004543484F00536C6565701B
:1001A0002E2E2E00486F6D65205859206669727397
:1001B000740A00486F6D652058592066697273741F
:1001C00000436C69636B20746F20726573756D6595
:1001D0002E2E2E004E6F206D6F76652E00456E64BC
:1001E0002066696C65206C6973740A0042656769F2
:1001F0006E2066696C65206C6973740A00286E6FE6
:100200002066696C6529005344207072696E7469B8
:100210006E67206279746520004E6F74205344200D
:100220007072696E74696E670A0043757272656EEA
:10023000742066696C653A200046696C65206465C7
:100240006C657465643A0044656C6574696F6E2012
:100250006661696C65642C2046696C653A200025EE
:10026000697920256964202569682025696D202524
:100270006973005072696E742074696D653A20006C
:100280006F66660044454255473A00334420507239
:10029000696E746572204F66662E002C20004649F8
:1002A000524D574152455F4E414D453A4D61726C3A
:1002B000696E20312E312E392E322028476974681C
:1002C00075622920534F555243455F434F44455F64
:1002D00055524C3A68747470733A2F2F676974687A
:1002E00075622E636F6D2F4D61726C696E46697217
:1002F0006D776172652F4D61726C696E2050524F3F
:10030000544F434F4C5F56455253494F4E3A312E4E
:1003100030204D414348494E455F545950453A338A
:1003200044205072696E7465722045585452554489
:1003300045525F434F554E543A3120555549443A42
:1003400063656465326132662D343161322D343734
:1003500034382D396231322D6335356336326633A8
:10036000363766660A002F2F20004D313435205372
:100370003C696E6465783E206F7574206F662072EC
:10038000616E67652028302D31290A00416363655D
:100390006C65726174696F6E3A2050005741524E1D
:1003A000494E4721204C6F77205A204A65726B20B6
:1003B0006D6179206C65616420746F20756E776162
:1003C0006E746564207061757365732E0A004F66E4
:1003D0006673657473206170706C69656400457242
:1003E000723A20546F6F206661722100546F6F2043
:1003F0006661722066726F6D207265666572656EE9
:10040000636520706F696E740A0020466C6F773ADE
:10041000200050726F6265205A204F6666736574C3
:100420003A200020643A0020693A0020703A0049DE
:100430006E76616C69642065787472756465720AA1
:100440000043290A0061626C656420286D696E2092
:1004500074656D702000436F6C64206578747275EC
:100460006465732061726520004D65736820706F4C
:10047000696E742063616E6E6F74206265207265B0
:10048000736F6C7665640A004D34323120696E6397
:100490006F727265637420706172616D65746572EC
:1004A0002075736167650A00454550524F4D204FD6
:1004B0004B0A003F5A206F7574206F662072616E80
:1004C000676520282D353020746F203530290A00CB
:1004D00050726F6265205A204F6666736574003FE4
:1004E0004B2076616C7565206F7574206F66207285
:1004F000616E67652028302D3130292E0A00416455
:1005000076616E6365204B3D0041637469766520BA
:1005100045787472756465723A2000960191018A7B
:10052000018301750100010F150E12FFFFFFFF1679
:10053000170E13FFFFFFFF03021A14FFFFFFFFFF59
:10054000FFFF0C04FFFFFF01000EFFFFFF0C190D62
:10055000FF1853746F77205A2D50726F62650044F4
:1005600065706C6F79205A2D50726F626500426918
:100570006C696E656172204C6576656C696E67208A
:10058000477269643A0A00486F6D696E6720666158
:10059000696C656400202844525952554E29004721
:1005A0003239204175746F20426564204C65766550
:1005B0006C696E67003F20284C2C522C462C422937
:1005C000206F7574206F6620626F756E64732E0ADB
:1005D00000426164205A2076616C75650A004E6F96
:1005E0002062696C696E65617220677269640A00D5
:1005F00020746F6F206C6F6E6720657874727573EE
:10060000696F6E2070726576656E7465640A00208D
:10061000636F6C6420657874727573696F6E207097
:10062000726576656E7465640A0024F4D43050C334
:100630008E20C2A24017828B7011127A910D816CAC
:10064000D90AA861E108C7586607615143061E4BE5
:100650005D05C145A7041A411104093D980371398C
:1006600031034036DB0265339102D4305402802ED0
:100670001D02632CEE01752AC501B028A0011027C8
:1006800081018F2564012B244B01E0223401AC2130
:100690001F018D200D01801FFC00841EED00971DA1
:1006A000DF00B81CD200E61BC600201BBC00641A89
:1006B000B200B219A8000A19A0006A189900D1174F
:1006C000910040178B00B516840031167E00B315DB
:1006D00079003A157300C7146F0058146A00EE13BE
:1006E00066008813630025135E00C7125B006C125E
:1006F000570015125400C111510070114F00211103
:100700004B00D61049008D104700461044000210DF
:100710004200C00F4000800F3E00420F3C00060F19
:100720003B00CB0E3800930E37005C0E3500270ED1
:100730003400F30D3200C10D3100900D3000600D1A
:100740002E00320D2D00050D2C00D90C2B00AE0C07
:100750002900850C29005C0C2700350C27000E0CA5
:100760002600E80B2400C40B2400A00B23007D0B03
:1007700023005A0B2100390B2100180B2000F80A26
:100780001F00D90A1E00BB0A1E009D0A1D00800A18
:100790001D00630A1C00470A1B002C0A1B00110ADB
:1007A0001A00F7091A00DD091900C4091900AB097C
:1007B0001900920917007B091800630917004C09FA
:1007C000160036091600200916000A091500F5085A
:1007D0001500E0081400CC081400B8081400A408A0
:1007E0001400900813007D0812006B0813005808CD
:1007F00012004608120034081100230811001208E4
:10080000110001081100F0071000E0071000D007E8
:100810001000C0071000B0070F00A10710009107DB
:100820000E0083070F0074070F0065070E005707BF
:100830000E0049070E003B070D002E070E00200793
:100840000D0013070D0006070D00F9060C00ED065C
:100850000D00E0060C00D4060C00C8060C00BC0617
:100860000C00B0060C00A4060B0099060C008D06C7
:100870000B0082060B0077060B006C060B0061066E
:100880000A0057060B004C060A0042060A0038060A
:100890000A002E060A0024060A001A060A0010069C
:1008A000090007060A00FD050900F4050900EB052B
:1008B0000900E2050900D9050900D0050900C705AE
:1008C0000900BE050900B5050800AD050800A5052D
:1008D00009009C050800940508008C0508008405A3
:1008E00008007C050800740508006C050700650514
:1008F00008005D050700560508004E05070047057E
:1009000007004005080038050700310507002A05E3
:100910000700230507001C050600160507000F0544
:1009200007000805060002050700FB040600F504A1
:100930000700EE040600E8040600E2040700DB04FA
:100940000600D5040600CF040600C9040600C3044F
:100950000600BD040600B7040600B1040500AC049F
:100960000600A6040600A00405009B0406009504EA
:100970000500900406008A04050085040500800433
:1009800006007A04050075040500700405006B0478
:10099000050066040500610405005C0405005704B9
:1009A0000500520405004D040500480405004304F9
:1009B00005003E0404003A04050035040500300437
:1009C00004002C04050027040400230405001E0471
:1009D00004001A04040016040500110404000D04A8
:1009E0000400090405000404040000040400FC03DE
:1009F0000400F8030400F4030400F0030400EC0313
:100A00000400E8030400E4030400E0030400DC0342
:100A10000400D8030400D4030400D0030400CC0372
:100A20000400C8030300C503030024F404D9201BF9
:100A3000C40C5C0E9804C4095F0265077101F405DB
:100A4000F900FB04B30048048700C10369005803A0
:100A5000550003034500BE023A00840231005302F0
:100A60002A002902250004022000E4011C00C8011C
:100A70001900AF01170098011400840113007101DF
:100A800010006101100051010E0043010D003601FC
:100A90000B002B010B0020010B00150109000C01BC
:100AA000090003010800FB000800F3000800EB0048
:100AB0000700E4000600DE000600D8000600D200B1
:100AC0000600CC000500C7000500C2000500BD00FF
:100AD0000400B9000400B5000400B1000400AD003A
:100AE0000400A9000400A5000300A20003009F0069
:100AF00004009B000300980003009500020093008F
:100B00000300900003008D0002008B0003008800AA
:100B100002008600020084000300810002007F00C2
:100B200002007D0002007B000200790002007700D5
:100B300001007600020074000200720001007100E2
:100B400002006F0002006D0001006C0002006A00EC
:100B500001006900020067000100660001006500F5
:100B600001006400020062000100610001006000F9
:100B700001005F0002005D0001005C0001005B00FD
:100B800001005A00010059000100580001005700FF
:100B900001005600010055000100540001005300FF
:100BA00000005300010052000100510001005000FC
:100BB00001004F0001004E0000004E0001004D00FA
:100BC00001004C0001004B0000004B0001004A00F6
:100BD00001004900010048000000480001004700F2
:100BE00001004600000046000100450000004500ED
:100BF00001004400010043000000430001004200E6
:100C000000004200010041000000410001004000DE
:100C100001003F0000003F0001003E0000003E00D8
:100C200001003D0000003D0001003C0000003C00D0
:100C300000003C0001003B0000003B0001003A00C6
:100C400000003A00010039000000390001003800BE
:100C500000003800000038000100370000003700B5
:100C600001003600000036000000360001003500AB
:100C700000003500000035000100340000003400A1
:100C80000000340001003300000033000000330096
:100C9000010032000000320000003200010031008B
:100CA0000000310000003100010030000000300081
:100CB0000000300001002F0000002F0000002F0076
:100CC00000002F0001002E0000002E0000002E006A
:100CD00001002D0000002D0000002D0000002D005F
:100CE00001002C0000002C0000002C0000002C0053
:100CF00001002B0000002B0000002B0000002B0047
:100D000001002A0000002A0000002A0000002A003A
:100D1000010029000000290000002900000029002E
:100D20000000290001002800000028000000280021
:100D30000000280000002800010027000000270014
:100D40000000270000002700000027000100260007
:100D500000002600000026000000260000002600FB
:100D600001002500000025000000250000002500EE
:100D700000002500000025000100240000002400E0
:100D800000002400000024000000240001002300D3
:100D900000002300000023000000230000002300C7
:100DA00000002300000023000100220000002200B8
:100DB00000002200000022000000220000002200AB
:100DC000010021000000210000002100000021009E
:100DD000000021000000210000002100010020008F
:100DE0000000200000002000000020000000200083
:100DF00000002000000020000000200001001F0073
:100E000000001F0000001F0000001F0000001F0066
:100E100000001F0000001F0001001E0000001E0057
:100E200000001E0000001E000000C23100001C2651
:100E30000000F4190000D80F0000EB080000C00407
:100E4000000075020000400100006265640A002C89
:100E50002073797374656D2073746F70706564218D
:100E6000204865617465725F49443A20004B494CE3
:100E70004C45442E200057726974696E6720746F68
:100E80002066696C653A200046696C652073656C64
:100E900065637465640A002053697A653A200046E8
:100EA000696C65206F70656E65643A2000646F69D7
:100EB0006E67004E6F772000454E442053554252D6
:100EC0004F5554494E450A002220706F730022206E
:100ED000706172656E743A2200535542524F5554F8
:100EE000494E452043414C4C207461726765743A09
:100EF0002200747279696E6720746F2063616C6C74
:100F0000207375622D67636F64652066696C657315
:100F1000207769746820746F6F206D616E79206C22
:100F20006576656C732E204D4158206C6576656C36
:100F30002069733A004572726F723A006F70656E85
:100F4000206661696C65642C2046696C653A2000F6
:100F500043616E6E6F74206F70656E20737562648E
:100F6000697220006563686F3A0045312048656109
:100F700074696E67206661696C656400426564200F
:100F800068656174696E67206661696C65640045B7
:100F90003120544845524D414C2052554E41574105
:100FA000590042454420544845524D414C20525529
:100FB0004E4157415900546865726D616C205275FD
:100FC0006E61776179004531204572723A204D415A
:100FD0005854454D50004572723A204D4158544581
:100FE0004D5020424544004D415854454D502074C9
:100FF0007269676765726564004531204572723AAF
:10100000204D494E54454D50004572723A204D498D
:101010004E54454D5020424544004D494E54454D97
:101020005020747269676765726564004D383420BA
:10103000582059205A204500202F002042403A00D5
:1010400020403A0070012C0190012701B0012201DB
:10105000C0011D01F00118011002130130020E0140
:101060006002090190020401C002FF000003FA00BF
:101070004003F5008003F000D003EB002004E600FD
:101080007004E100E004DC004005D700C005D20098
:101090004006CD00D006C8008007C3003008BE005F
:1010A000F008B900C009B400B00AAF00B00BAA0044
:1010B000D00CA500000EA000500F9B00C0109600A1
:1010C0005012910000148C00C0158700B0178200E8
:1010D000B0197D00D01B7800001E730040206E0008
:1010E00090226900F024640040275F0090295A0094
:1010F000E02B5500102E500020304B0010324600DF
:10110000E033410090353C00103737007038320032
:10111000A0392D00B03A2800A03B2300603C1E00FF
:10112000103D1900903D1400103E0F00703E0A0063
:10113000C03E0500003F0000403FFBFF803FF6FF40
:10114000C03FF1FF3344205072696E7465722052C3
:10115000656164792E005072696E74696E672E2E17
:101160002E005072696E7420706175736564004D55
:10117000313930205335300A4732380A4732390A7C
:101180004D313137205361766520656570726F6D22
:1011900020746F2073746F7265206E6577206366AC
:1011A00067004D313930205335300A4D3130392008
:1011B000533230350A4732380A47302058313031FF
:1011C0002059313032205A300A4D323131205330DB
:1011D0000A4D313137205361766520656570726F35
:1011E0006D20746F2073746F7265206E6577206355
:1011F000666700486561742F486F6D652026205A28
:10120000206F66667365740048656174204265648A
:101210002F486F6D652F4C6576656C005072696E56
:10122000742061626F72746564004E6F20534420B5
:1012300063617264004368616E6765205344206394
:10124000617264004D3231005072696E74206672B2
:101250006F6D2053440053746F70207072696E7408
:1012600000526573756D65207072696E7400496E09
:1012700069742E2053442063617264005061757359
:1012800065207072696E740054756E6500437573E5
:10129000746F6D20436F6D6D616E647300496E668F
:1012A0006F2073637265656E00466C6F77005370D4
:1012B000656564005072656865617420504C41201A
:1012C000456E64005072656865617420504C412021
:1012D0004265640050726568656174204142532024
:1012E000456E640050726568656174204142532008
:1012F0004265640000060900FE0701920321207F79
:10130000FF07FF07FF0000000600000107070602B5
:101310000080808080800080030202060105A0A07A
:101320000507070600005050F850F8505005070711
:101330000600002078A07028F020050707060000AE
:10134000C0C810204098180507070600006090A04C
:1013500040A89068020303060104C0408003070709
:10136000060100204080808040200307070601001E
:101370008040202020408005050506000120A8703F
:10138000A8200505050600012020F82020020303FF
:101390000602FFC04080050101060003F8020202B8
:1013A000060200C0C00505050600010810204080A7
:1013B000050707060000708888888888700307077B
:1013C00006010040C040404040E00507070600001D
:1013D000708808708080F8050707060000F8102064
:1013E000100808F005070706000010305090F810AC
:1013F00010050707060000F880F008088870050748
:1014000007060000708080F08888700507070600D6
:1014100000F808102020202005070706000070882B
:10142000887088887005070706000070888878082B
:101430000870020505060200C0C000C0C002060612
:101440000602FFC0C000C04080040707060000106D
:10145000204080402010050303060002F800F80435
:10146000070706010080402010204080050707067E
:101470000000708808102000200507070600007093
:10148000880868A8A870050707060000708888F813
:10149000888888050707060000F08888F08888F0AB
:1014A00005070706000070888080808870050707A0
:1014B000060000F08888888888F005070706000085
:1014C000F88080F08080F8050707060000F880802B
:1014D000F0808080050707060000708880B8888843
:1014E00070050707060000888888F8888888010743
:1014F0000706020080808080808080050707060044
:101500000038101010109060050707060000889042
:10151000A0C0A0908805070706000080808080801A
:1015200080F805070706000088D8A88888888805FD
:1015300007070600008888C8A89888880507070656
:10154000000070888888888870050707060000F00A
:101550008888F080808005070706000070888888EA
:10156000A89068050707060000F08888F0A090881A
:10157000050707060000788080700808F005070757
:10158000060000F820202020202005070706000084
:1015900088888888888870050707060000888888FA
:1015A000888850200507070600008888888888A852
:1015B00050050707060000888850205088880507D6
:1015C00007060000888888502020200507070600AD
:1015D00000F80810204080F8030707060100E080AB
:1015E00080808080E005050506000180402010080D
:1015F000030707060100E02020202020E005030368
:10160000060004205088050101060000F8020202CD
:1016100006020580400505050600007008788878F8
:101620000507070600008080B0C88888F00505051A
:101630000600007080808870050707060000080813
:1016400068988888780505050600007088F880701D
:101650000507070600003048E04040404005060608
:101660000600FF708888780870050707060000806C
:1016700080B0C88888880107070602008000808043
:101680008080800308080601FF200020202020A081
:1016900040040707060000808090A0C0A0900307C8
:1016A00007060100C04040404040E0050505060037
:1016B00000D0A8A8A8A8050505060000B0C888881D
:1016C00088050505060000708888887005060606EE
:1016D00000FFF08888F080800506060600FF788805
:1016E00088780808050505060000B0C880808005D8
:1016F000050506000070807008F00407070600006A
:101700004040E040404030050505060000888888DC
:10171000986805050506000088888850200505059D
:101720000600008888A8A850050505060000885016
:101730002050880506060600FF888888780870050E
:101740000505060000F8102040F803070706010011
:101750002040408040402001070706020080808032
:1017600080808080030707060100804040204040C1
:1017700080050202060002689000000006000000DA
:10178000060900FE000000000001090008FE00003C
:1017900005080806000040F0C888889878100508F9
:1017A00008060000C0F88888888888F805050506BE
:1017B00000012030F830200508080600002070F8ED
:1017C00020202020E00509090600FF2070A8A8B805
:1017D000888870200509090600FFE080C0B0A828AD
:1017E0003028280509090600FFF8A8888888888815
:1017F000A8F8050A0A0600FE205050505088A8A8F4
:10180000887003030306000340A04025753A253085
:1018100032750025756420253032753A25303275D1
:1018200000202020202020000920000000000000CF
:10183000000000000000003FFFF00000000000007A
:1018400000000000000038007000000000000000F0
:10185000000000000030FC3000000000000000002C
:101860000000000020FC100000000000000000004C
:1018700000000020781000000000000000000000C0
:1018800000002030100000000000000000000000F8
:10189000002C00D03FC000000000000000208200AB
:1018A0002E31D07FE0000000000000001041002F2A
:1018B0007BD07FE0000000000000001041002F7B83
:1018C000D07FE0000000000000002082002E31D018
:1018D0003FC0000000000000004104002C00D03F89
:1018E000C0000000000000008208002030107FE0EF
:1018F000000000000000008208002078107FE00057
:1019000000000000000041040020FC107FE0000007
:10191000000000000020820030FC301F800000002A
:10192000000000000000003800700F000000000000
:10193000000000FFFFC03FFFF006000000000000B5
:101940000000FFFFC00000000000000000000000D9
:10195000000000003FFFF000000000000000000059
:1019600000000038007000000000000000000000CF
:101970000000318630000000000000000000000080
:10198000002387100000000000000000000000009D
:101990002787900000000000000000000000002FDA
:1019A00087D00000000000000000000000002F03AE
:1019B000D03FC00000000000000020820020301056
:1019C0007FE0000000000000001041002078107F40
:1019D000E0000000000000001041002078107FE0CF
:1019E000000000000000002082002030103FC000F6
:1019F0000000000000004104002F03D03FC00000A1
:101A000000000000008208002F87D07FE000000067
:101A1000000000008208002787907FE0000000009F
:101A20000000004104002387107FE0000000000058
:101A300000002082003186301F800000000000007E
:101A4000000000003800700F0000000000000000DF
:101A5000FFFFC03FFFF0060000000000000000FF95
:101A6000FFC00000004D6F74696F6E0056547261C4
:101A700076206D696E00566D696E00566D61782036
:101A80004500566D6178205A00566D6178205900E6
:101A9000566D6178205800416D6178204500416D98
:101AA0006178205A00416D6178205900416D61785C
:101AB000205800412D74726176656C00412D72656D
:101AC000747261637400416363656C0056652D6ACE
:101AD00065726B00567A2D6A65726B0056792D6AB5
:101AE00065726B0056782D6A65726B00457374657C
:101AF00070732F6D6D005A73746570732F6D6D0068
:101B00005973746570732F6D6D00587374657073BD
:101B10002F6D6D0020540020520020286D6D29008B
:101B200020204D393030204B004C696E65617220A9
:101B3000416476616E63653A0A0020204D38353184
:101B4000205A005A2D50726F6265204F6666736589
:101B5000740020440020204D333031205000504983
:101B6000442073657474696E67733A0A00204600F6
:101B700020420020480020204D3134352053004DB4
:101B80006174657269616C2068656174757020703C
:101B90006172616D65746572733A0A00204A0020B3
:101BA00020473239205720490020204D3432302040
:101BB00053004175746F20426564204C6576656CF6
:101BC000696E673A0A0020204D32303620580048AE
:101BD0006F6D65206F66667365743A0A0020204D4C
:101BE00032303520510020453C6D61785F655F6A79
:101BF00065726B3E0020583C6D61785F785F6A6566
:101C0000726B3E20593C6D61785F795F6A65726BDB
:101C10003E205A3C6D61785F7A5F6A65726B3E0068
:101C2000416476616E6365643A20513C6D696E5F14
:101C30007365676D656E745F74696D655F75733E1E
:101C400020533C6D696E5F66656564726174653EC4
:101C500020543C6D696E5F74726176656C5F666579
:101C60006564726174653E0020204D32303420502E
:101C700000416363656C65726174696F6E202875DD
:101C80006E6974732F7332293A20503C7072696EFA
:101C9000745F616363656C3E20523C72657472616F
:101CA00063745F616363656C3E20543C747261765B
:101CB000656C5F616363656C3E0A0020204D3230C5
:101CC000312058004D6178696D756D204163636501
:101CD0006C65726174696F6E2028756E6974732FFC
:101CE0007332293A0A0020204D3230332058004DFB
:101CF0006178696D756D2066656564726174657380
:101D00002028756E6974732F73293A0A0020204DBC
:101D100039322058005374657073207065722075D5
:101D20006E69743A0A0020204D3134392043203B3B
:101D300020556E69747320696E2043656C736975F4
:101D4000730A002020473231202020203B005452CB
:101D500049474745524544006F70656E007A5F6D94
:101D6000696E00795F6D696E00785F6D696E005213
:101D700065706F7274696E6720656E6473746F70DE
:101D8000207374617475730A00206D61783A2000C5
:101D9000206D696E3A200020573A004520436F6F4E
:101DA0006C696E672E2E2E00452048656174696E41
:101DB000672E2E2E0042656420636F6F6C696E671C
:101DC0002E2E2E004265642068656174696E672E50
:101DD0002E2E0020436F756E7420583A0020453A2D
:101DE0000020204D61783A200020204D696E3A2075
:101DF00000536F667420656E6473746F70733A205D
:101E00000023646566696E652044454641554C541F
:101E10005F4B64200023646566696E652044454617
:101E200041554C545F4B69200023646566696E65BB
:101E30002044454641554C545F4B70200050494466
:101E4000204175746F74756E652066696E6973687C
:101E50006564212050757420746865206C6173740A
:101E6000204B702C204B6920616E64204B642063F2
:101E70006F6E7374616E74732066726F6D2062652D
:101E80006C6F7720696E746F20436F6E666967753B
:101E9000726174696F6E2E680A0050494420417562
:101EA000746F74756E65206661696C656421207459
:101EB000696D656F75740A00204B643A2000204BF1
:101EC000693A2000204B703A20000A20436C61736D
:101ED00073696320504944200A002054753A200059
:101EE000204B753A200020643A200020626961731B
:101EF0003A2000504944204175746F74756E652016
:101F00006661696C6564212054656D7065726174E9
:101F100075726520746F6F20686967680A005049A0
:101F200044204175746F74756E65207374617274AA
:101F30000A00504944204175746F74756E652066BF
:101F400061696C65642120426164206578747275F2
:101F5000646572206E756D6265720A004F66660A6E
:101F600000466164652048656967687420004265C1
:101F700064204C6576656C696E6720004661696C0B
:101F8000656420746F20656E61626C6520426564D3
:101F9000204C6576656C696E670A004D3234004DE1
:101FA000323320257300556E6B6E6F776E20636F32
:101FB0006D6D616E643A20220050726F62696E67C7
:101FC000206661696C65640A0050726F62696E67B1
:101FD000206661696C656400205A3A200020593AF5
:101FE000200042656420583A200053442063617207
:101FF00064206F6B0A006F70656E526F6F7420669D
:1020000061696C65640A00766F6C756D652E696E2A
:102010006974206661696C65640A00534420696EC6
:102020006974206661696C0A00486F6D65202573CC
:102030002573257320666972737400486F6D65207F
:10204000004578747275646572004D6F7665205A2C
:10205000004D6F76652059004D6F76652058004F12
:102060006666004F6E200050726570617265004CAC
:102070006F61642073657474696E677300536F6673
:102080007420456E6473746F707300496E6974696F
:10209000616C697A6520454550524F4D0052657319
:1020A000746F7265206661696C7361666500416476
:1020B00076616E6365204B004D33303320553120FF
:1020C0004525692053256900507265686561742053
:1020D00041425320636F6E6600507265686561749B
:1020E00020504C4120636F6E66005049442041757A
:1020F000746F74756E65005049442D440050494416
:102100002D49005049442D500053746F726520735F
:10211000657474696E6773004E6F7A7A6C650046F9
:10212000616E2073706565640054656D70657261E1
:1021300074757265006F6B00526573656E643A204A
:10214000004B494C4C2063617573656420627920B3
:10215000746F6F206D75636820696E616374697652
:10216000652074696D65202D2063757272656E74CB
:1021700020636F6D6D616E643A2000506C65617311
:1021800065207265736574005052494E5445522063
:1021900048414C544544005072696E746572206821
:1021A000616C7465642E206B696C6C2829206361F6
:1021B0006C6C6564210A00656E7175657565696E84
:1021C000672022005761726E696E673A20486F6D12
:1021D000696E672042756D702044697669736F720D
:1021E000203C20310A000000000000000000000038
:1021F000000000004842000048420000804000000B
:1022000000000202040000A0400000A04000000006
:102210004000004A430000574300003443FFFFFFE3
:102220004661646520486569676874005072656836
:102230006561742041425300507265686561742085
:10224000504C41004C6576656C20626564004732F5
:10225000380A473239004D34323800436F6F6C64AE
:102260006F776E0044697361626C6520737465708A
:1022700070657273004D38340053657420686F6D5B
:1022800065206F66667365747300486F6D65205ACC
:1022900000473238205A00486F6D65205900473298
:1022A00038205900486F6D65205800473238205853
:1022B000004175746F20686F6D6500473238004DBE
:1022C0006F76652061786973004D6F766520302EDA
:1022D0003032356D6D004D6F766520302E316D6D6D
:1022E000004D6F766520316D6D004D6F7665203144
:1022F000306D6D007C3C3E5E2B3D3F2F5B5D3B2C8B
:102300002A225C004D61696E0053746570732F6DF5
:102310006D004A65726B00416363656C6572617440
:10232000696F6E0056656C6F6369747900436F6EF8
:1023300074726F6C0043616E6E6F7420656E7465AD
:1023400072207375626469723A2000022E2E0001B9
:102350005265667265736800454550524F4D206462
:1023600061746173697A65206572726F722E0A00FA
:10237000496E6465783A2000BC020000BC0200008F
:102380006400000010270000000096430000964300
:102390000000A0400000C8415E45B9425E45B94218
:1023A0000000C8440000C84253544F505045442ECA
:1023B00020005072696E7465722073746F7070655E
:1023C000642064756520746F206572726F72732E5D
:1023D0002046697820746865206572726F7220618A
:1023E0006E6420757365204D39393920746F207201
:1023F0006573746172742E202854656D7065726106
:10240000747572652069732072657365742E20532C
:1024100065742069742061667465722072657374D6
:10242000617274696E67290A004E6F2043686563A4
:102430006B73756D2077697468206C696E65206EAA
:10244000756D6265722C204C617374204C696E65E9
:102450003A2000636865636B73756D206D69736DF9
:10246000617463682C204C617374204C696E653A0A
:1024700020004C696E65204E756D6265722069732F
:10248000206E6F74204C617374204C696E65204E11
:10249000756D6265722B312C204C617374204C6910
:1024A0006E653A20004D313130004D3331005344D8
:1024B0002072656164206572726F720A00446F6EEB
:1024C00065207072696E74696E672066696C650A52
:1024D0000020496E76616C69642065787472756459
:1024E00065722000205A3A0020593A002020506C92
:1024F000616E6E6572427566666572427974657367
:102500003A20002046726565204D656D6F72793AFC
:102510002000312E312E392E320A004D61726C6945
:102520006E0020536F667477617265205265736523
:10253000740A00205761746368646F672052657382
:1025400065740A002042726F776E206F7574205296
:10255000657365740A002045787465726E616C203D
:1025600052657365740A00506F77657255700A0082
:102570006175746F25692E67006572726F722077BE
:10258000726974696E6720746F2066696C650A00F1
:10259000456E6473746F7073202563202563202556
:1025A0006320256300656E6473746F7073206869BF
:1025B000743A2000446F6E6520736176696E6720FF
:1025C00066696C652E0A004D3239001FFFFFFFFF60
:1025D000FFFF600000000001FF400000000000FF5E
:1025E0008000000000007F83CF00000C303F87FF99
:1025F00080000C301F867980000C000F8C30C78360
:102600008C30E78C30CFC7CC31F38C30DCECEC3342
:10261000B98C30D86C6C33198C30D06C0C33198C6D
:1026200030D86C0C33198C30DC6C0E3B198C30CFED
:102630007C079F198C30C77C038F19400000000075
:102640000002600000000000061FFFFFFFFFFFF810
:1026500050726F7465637465642050696E0A00532C
:1026600074616E6461726420446576696174696F37
:102670006E3A20002052616E67653A20004D656118
:102680006E3A200046696E6973686564210A00200D
:1026900072616E67653A2000207369676D613A2048
:1026A00000206D65616E3A20003A207A3A200020C1
:1026B0006F662000476F696E6720746F3A00436C45
:1026C0006F636B776973650A00436F756E7465722B
:1026D0002D0020446972656374696F6E3A20002092
:1026E0002020616E676C653A2000537461727469D2
:1026F0006E67207261646975733A2000506F736968
:1027000074696F6E696E67207468652070726F629D
:10271000652E2E2E0A003F4E756D626572206F6623
:10272000206C65677320696E206D6F76656D656ED0
:1027300074206E6F7420706C61757369626C6520B3
:1027400028302D3135292E0A003F2028582C5929B0
:10275000206F7574206F6620626F756E64732E0A29
:10276000003F53616D706C652073697A65206E6FF0
:102770007420706C61757369626C652028342D3526
:1027800030292E0A004D3438205A2D50726F626560
:10279000205265706561746162696C697479205456
:1027A0006573740A003F2856296572626F7365204D
:1027B0006C6576656C20697320696D706C617573EA
:1027C00069626C652028302D34292E0A004572720A
:1027D0006F722077726974696E6720746F20454547
:1027E00050524F4D210A0000002100240027002AEA
:1027F0000000002200250028002B000000200023FC
:10280000002600290002020202020202020404045D
:102810000404040404030303030303030301010189
:10282000010101010101020408102040800102049D
:1028300008102040800102040810204080804020C1
:102840001008040201000000010200090A00000053
:102850000004030807000000000000000000000062
:10286000000000000000F2E132E311241FBECFEFB0
:10287000D0E4DEBFCDBF12E0A0E0B1E0E0E4FBEECB
:1028800001E00BBF02C007900D92AC37B107D9F73A
:1028900024E1ACE7B2E001C01D92AF39B207E1F725
:1028A00014E1C4E3D4E104C02197FE010E946DF25B
:1028B000C333D107C9F70E94B6E30C9494F50C9486
:1028C0000000A7E2B0E0E7E6F4E10C9476F2809134
:1028D00098148D3409F474C3843511F40C940226D1
:1028E000873411F00C944C26809196149091971493
:1028F0008D31910509F407C164F48430910509F420
:10290000ADC01CF4029768F157C34C9709F4E4C0BA
:1029100053C38A35910509F486C244F48E3191057A
:1029200009F4F5C08A9709F4CBC146C38B359105EC
:1029300009F47DC28C35910509F03EC378E6272E57
:1029400071E0372EE5ECEE2EE1E1FE2E81EE9DE00A
:102950009FA38EA3F1EDCF2EFDE0DF2E00E010E06F
:10296000A6C280911501882311F40C944E26B8E676
:102970008B2EB1E09B2E11EDE12E11E1F12E01EE37
:102980001DE081EDA82E8DE0B82E9FE7C92E92E0C4
:10299000D92E712CF40181914F010E9412C8882315
:1029A00011F10E94EAC7F6012081211104C0209193
:1029B0008302222341F0F801208131814281538139
:1029C0000E94AEF20AC0F3E07F1639F0F5012081D3
:1029D0003181428153810E94ADF2F701608371839E
:1029E000828393830AC0F80180819181A281B3819F
:1029F000F70180839183A283B3837394F4E0EF0E95
:102A0000F11C0C5F1F4F24E0A20EB11C4FEFC41A43
:102A1000D40A84E07812BECF86E40E945BC8882383
:102A2000C9F00E94EAC720E030E0A9010E944DF4FD
:102A3000181684F40E94EAC720E030E040E752E430
:102A40000E9428F36093350170933601809337011B
:102A5000909338010E94FF9F0C944E2680E50E94BF
:102A60005BC8882329F00E94AAC76B017C0103C0C0
:102A7000C12CD12C760183E50E945BC8882361F0CC
:102A80000E94EAC720E030E04AE754E40E9460EE8A
:102A90000E9495F36B017C010E94A64180919F08E2
:102AA000811105C060E08BE991E00E944A670E94B5
:102AB000BBDCC60ED71EE81EF91E0E94BBDCDC0183
:102AC000CB018C199D09AE09BF09B7FD02C00C945A
:102AD0004E260E94179FF1CF8091D00D87708730CE
:102AE00011F00C9451268FE40E945BC8882319F0E2
:102AF0000E94DBC703C08FE40E9412C881110C94AE
:102B00004E260C9451260E94D22D0C944E26C09035
:102B1000E10DD090E20DE090E30DF090E40D88E53A
:102B20000E945BC8811108C020E030E0A901C70104
:102B3000B6010E94AEF202C00E94EAC768A379A360
:102B40008AA39BA3C090E50DD090E60DE090E70D21
:102B5000F090E80D89E50E945BC8811109C020E072
:102B600030E040E352E4C701B6010E94ADF202C07A
:102B70000E94EAC79B01AC0169837A838B839C83A3
:102B800068A179A18AA19BA10E94229E882311F4A9
:102B90000C944E2680E00E94522A0E94862B85E4E7
:102BA0000E945BC8882321F00E94DBC7182F04C055
:102BB00085E40E9412C811E086E50E945BC8882364
:102BC00021F00E94BAC79B0102C021E030E0412FF2
:102BD000BE016F5F7F4FCE0180960E94E1916B0135
:102BE0007C019B01AC010E94C9F481115FC088A0E7
:102BF00099A0AAA0BBA020E030E0A901C501B401C2
:102C00000E94FBED87FF05C027E137EB41E558EB5C
:102C100004C027E137EB41E558E3C501B4010E9448
:102C2000AEF2AB01BC0182EE9FE10E9411DD898012
:102C30009A80AB80BC8020E030E0A901C501B401DE
:102C40000E94FBED87FF05C027E137EB41E558EB1C
:102C500004C027E137EB41E558E3C501B4010E9408
:102C6000AEF2AB01BC018DED9FE10E9411DD20E0D1
:102C700030E0A901C701B6010E94FBED87FF05C046
:102C800027E137EB41E558EB04C027E137EB41E59D
:102C900058E3C701B6010E94AEF2AB01BC0188ED5A
:102CA0009FE10E9411DD8AE00E94F1C80E946D2B15
:102CB000113011F40E947D2C0E941D880C944E2628
:102CC00080911501882311F40C944E2689E40E940A
:102CD0005BC8E82E882321F00E94BAC7F62E01C0F7
:102CE000F12C8AE40E945BC8082F882321F00E94FF
:102CF000BAC7162F01C010E0EE2019F0F6E0FF155C
:102D000020F0002381F0173070F0E9E6F4E08491C0
:102D10008F010F5F1F4F882311F40C944E260E94E1
:102D2000F1C8F801F4CF0E94E7C8EE20F1F020913D
:102D30001112309112124F2D4203B001439F700DBA
:102D4000112480912C1290912D12680F791F072E5B
:102D5000000C880B990B0E9401EE6093D1117093C7
:102D6000D2118093D3119093D4110023E9F02091D4
:102D70001312309114121203B001139F700D11241D
:102D800080912E1290912F12680F791F072E000C40
:102D9000880B990B0E9401EE6093D5117093D611A8
:102DA0008093D7119093D81180E50E945BC8882347
:102DB000E9F00E94DBC78823E9F00023D9F020E086
:102DC00030E040E352E46091D5117091D6118091CA
:102DD000D7119091D8110E94AEF26093D5117093E3
:102DE000D6118093D7119093D81104C080E50E942A
:102DF00012C8E1CF86E40E945BC8882309F42ACE7A
:102E00000E94EAC76B017C0120E030E0A9010E942A
:102E10004DF418160CF01ECE20E030E040E752E4EE
:102E2000C701B6010DCE109283020C944E2681E0AC
:102E3000809383020C944E260E94EAC72B013C012A
:102E4000133049F0F60120813181428153810E9483
:102E5000ADF22B013C01EEA1FFA120813181428125
:102E60005381C301B2010E94ADF24B015C012DEB15
:102E700037E346E855EB0E944DF487FD20C02DEB6B
:102E800037E346E855E3C501B4010E94FBED18168F
:102E9000B4F01F5FF4E0EF0EF11C8EA19FA1049629
:102EA0009FA38EA394E0C90ED11C143031F1F1011F
:102EB00081911F010E945BC8882359F3BDCF133055
:102EC00051F44092ED0D5092EE0D6092EF0D709224
:102ED000F00D01E0DECFA5019401F7016081718161
:102EE000828193810E94AEF2F701608371838283B5
:102EF0009383812F0E941632CCCF002309F458C04F
:102F0000C090ED0DD090EE0DE090EF0DF090F00D33
:102F100020E030E0A901C701B6010E94AEF2209185
:102F2000F60C3091F70C4091F80C5091F90C0E947E
:102F300060EE0E9451F460932B0970932C098093EA
:102F40002D0990932E09C0921B09D0921C09E09282
:102F50001D09F0921E099091F9088091FA089817BE
:102F600019F00E94484124C00E94A64180916F0040
:102F7000982F927081FF05C080916F008D7F8093A4
:102F80006F0040912B0950912C0960912D0970918F
:102F90002E09409338085093390860933A0870938B
:102FA0003B08992329F080916F00826080936F0025
:102FB0000E941D880C944E260E94F2930C944E267B
:102FC00080919614909197148537910509F484C7E0
:102FD0000CF0ACC08B34910509F40AC50CF04FC05D
:102FE0008931910509F486C21CF58431910509F4F3
:102FF00096C17CF48131910509F408C22CF4029742
:1030000008F490C10C94FF25429709F44AC60C9429
:10301000FF258631910509F446C20CF440C2873180
:10302000910509F446C2489709F459C20C94FF254A
:103030008E31910509F414C384F48B31910509F4A0
:103040006DC20CF45DC28C31910509F4FFC24D973D
:1030500011F40C944E260C94FF258032910509F44E
:1030600091C30CF4DBC38A32910509F48CC4C09778
:1030700011F00C94FF250E9450CD0C944E268936F9
:10308000910509F45CC544F58335910509F405C63D
:103090009CF48D34910509F4B3C40CF4ADC48135AE
:1030A000910509F4DFC58235910511F00C94FF25D7
:1030B000109282020C944E268535910509F423C6A0
:1030C0000CF4EFC58C35910509F436C688369105A8
:1030D00009F49AC40C94FF258E36910509F4C1C4F5
:1030E0009CF48B36910509F4ABC50CF48BC58C367A
:1030F000910509F41CC58D36910511F00C94FF253E
:103100000E94268C0C944E268037910509F413C535
:103110000CF4BAC48237910509F496C68337910539
:1031200011F00C94FF25EEE9F2E0CBC68D32E1E020
:103130009E0711F40C944A230CF073C08B3C91054C
:1031400009F4BEC7CCF58C38910509F439C5ACF447
:103150008737910509F41BC70CF4CDC68837910554
:1031600009F418C78937910511F00C94FF251092C6
:10317000A7121092A6120C944E268B39910509F4D1
:10318000F8C434F48139910509F40AC70C94FF2579
:103190008E3B910509F432C5893C910511F00C94E0
:1031A000FF25B8E6EB2EB1E0FB2E0EEB1CE08EEC1B
:1031B000C82E8CE0D82E6CC78C3D910511F40C9470
:1031C0006222ACF48D3C910511F40C94F0200CF4C7
:1031D00092C78E3C910511F40C946F21833D9105AB
:1031E00011F00C94FF250E943E870C944E26823EDF
:1031F000910511F40C94EC223CF48D3D910511F4F1
:103200000C9489220C94FF25823221E0920711F45C
:103210000C9416238C32914011F40C9421230C94BD
:10322000FF25843FE1E09E0711F40C94EB240CF0A1
:103230003FC0823921E0920711F40C944424DCF45D
:103240008F32E1E09E0711F40C943E2414F40C94A8
:10325000EA23803921E0920711F40C94412481394A
:10326000914011F00C94FF2581E00E94072D0E94EF
:103270001D880C944E26843AE1E09E0711F40C94CC
:103280004C244CF48A39914011F00C94FF250E9493
:10329000EB820C944E26853A41E0940711F40C948D
:1032A0004F248C3A914011F40C9491210C94FF25F9
:1032B0008C30F2E09F0711F40C942425B4F4863F7F
:1032C00041E0940711F40C94F12414F40C94EE24CE
:1032D000873FF1E09F0711F40C94F424883F91405C
:1032E00011F40C9400250C94FF25843843E09407D6
:1032F00011F40C9492253CF48335934011F40C9412
:103300002D250C94FF25803A23E0920709F479C219
:10331000873E934011F40C94EA250C94FF25ECEEC3
:10332000F1E07FC0A0909414B090951480E50E94C5
:103330005BC8882359F00E94AAC76B017C0111E089
:10334000672B682B692B31F410E004C010E0C12C0E
:10335000D12C760183E50E945BC8882311F40C947C
:1033600031270E94EAC720E030E04AE754E40E9497
:1033700060EE0E9495F36B017C0111110BC0672B6D
:10338000682B692B39F4A114B10421F0F501808177
:10339000811102C010E001C011E00E94A64111237A
:1033A00029F061E0C5010E94846705C060E081ECFE
:1033B00091E00E944A6781E08093450CC114D104DA
:1033C000E104F104B1F00E94BBDCC60ED71EE81E7A
:1033D000F91E0E94BBDCDC01CB018C199D09AE09F2
:1033E000BF09B7FF0DC08091450C81110C943627A1
:1033F00007C08091450C882319F00E94179FF9CFD0
:103400000E94A85C1092450C0C944E2660E084ED5E
:1034100091E00E944A675E985E9815985E980C94B9
:103420004E2684918F010F5F1F4F882321F00E9449
:10343000F1C8F801F6CF1092CD0B80E899E00E9418
:103440002FB08BE1E0E8F9E0DE01159601900D92D6
:103450008A95E1F780917E0990917F099C838B8307
:1034600082E891E09A83898340E050E0BE016F5F7B
:103470007F4F80E090E00E94034ECE0101960E94B3
:103480009B9EEDEDF1E084918F010F5F1F4F88232C
:1034900011F40C944E260E94F1C8F801F4CF0E945A
:1034A0002B900C944E2610924F09109250090C94B8
:1034B0004E26E0919414F09195148081882329F090
:1034C000803209F410823196F8CF40E061E08091BB
:1034D0009414909195140E9462500C944E26809101
:1034E0005009882319F081E080934F090E94B84267
:1034F0000C944E2610924F090E94DA420C944E26EC
:1035000080915009882311F40C944E2683E50E9483
:103510005BC881110C943A270C944E2683E40E94D8
:1035200012C8882309F450C0EAE2F2E084918F01C6
:103530000F5F1F4F882321F00E94F1C8F801F6CFDA
:1035400080911B0B811103C0EDEFF1E012C0BE01B1
:103550006F5F7F4F88E19BE00E941EAF8E010F5F7F
:103560001F4FF80181918F01882349F10E94F1C812
:10357000F8CF84918F010F5F1F4F882301F10E94C4
:10358000F1C8F801F6CF6BE1C62E65E0D62EE12C2E
:10359000F12C20E08091970290E00E2C02C09595CE
:1035A00087950A94E2F780FD9FC24FEFE41AF40A70
:1035B00082E0C80ED11C95E0E916F10459F78AE0C3
:1035C0000E94F1C80C944E2680915009882339F04E
:1035D00080914F09882319F0E7E0F2E003C0E9E1A8
:1035E000F2E028C084918F010F5F1F4F882321F0E4
:1035F0000E94F1C8F801F6CF6091C90B7091CA0B17
:103600008091CB0B9091CC0B4AE00E947ACB8FE259
:103610000E94F1C86091C50B7091C60B8091C70BD9
:103620009091C80B4AE00E947ACB8AE00E94F1C8D0
:103630000C944E2684918F010F5F1F4F882311F445
:103640000C944E260E94F1C8F801F4CF40E060E0EF
:1036500080919414909195140E9462500C944E267F
:1036600080915009882311F40C944E2688E19BE048
:103670000E94DAD588E19BE00E94F9AE10924E09D3
:1036800010924D0980915009882311F40C944E2614
:1036900000919414109195140E94C54DB801CE016B
:1036A00080960E94D34F8C01892B11F40C944E26E6
:1036B00068A179A16115710511F06C5F7F4F1982C6
:1036C0001C8222E0A801CE0101960E9440B4811123
:1036D00002C0F12C14C0CE0101960E944A4D8823ED
:1036E000C1F361E0CE0101960E9402AF009789F319
:1036F00025EEFC0120831C820E94A3D3F82ECE016C
:1037000001960E9467C8F11003C0E7E4F2E022C00E
:10371000E9E3F2E084917F012FEFE21AF20A8823B5
:1037200021F00E94F1C8F701F5CFF80181918F01D6
:10373000882319F00E94F1C8F8CF8AE00E94F1C8EE
:103740001092C90B1092CA0B1092CB0B1092CC0B9B
:103750000C944E2684917F012FEFE21AF20A8823FF
:1037600021F00E94F1C8F701F5CFF80181918F0196
:10377000882319F00E94F1C8F8CF8EE20E94F1C8A8
:103780000C944E2680914F0981110E94A641809190
:103790005009882311F40C944E2680E50E945BC8E2
:1037A000882319F00E94DBC703C080E50E9412C87D
:1037B000182F482F61E080919414909195140E94E5
:1037C000625083E50E945BC8882381F00E94BAC7DB
:1037D000AB01BC014093C90B5093CA0B6093CB0B58
:1037E0007093CC0B88E19BE00E941DAE8091500944
:1037F000882319F081E080934F0911110C944E2613
:1038000075CE809194149091951421E020934E09E7
:1038100040E060E00E9462500C944E260E94694293
:103820006B017C0120E831E541E050E00E94E9F1C4
:10383000C9016DE671E00E9446F24B015C01C701CF
:10384000B60120E13EE040E050E00E94E9F1CA010B
:10385000B90128E130E040E050E00E94E9F12B019D
:103860003C011B01C701B6012CE330E040E050E011
:103870000E94E9F16B017C01CA01B9012CE330E03F
:1038800040E050E00E94E9F18E010F5F1F4F81146C
:10389000910499F0DF92CF927F936F935F924F9252
:1038A000BF92AF929F928F928FE592E09F938F93FA
:1038B0001F930F930E9495ED13C0A114B104B1F0B2
:1038C000DF92CF927F936F935F924F92BF92AF92AE
:1038D00083E692E09F938F931F930F930E9495ED41
:1038E0000FB6F894DEBF0FBECDBF32C041145104F5
:1038F00079F0DF92CF927F936F935F924F9287E63A
:1039000092E09F938F931F930F930E9495EDE8CFC2
:103910006115710569F0DF92CF927F936F938BE60B
:1039200092E09F938F931F930F930E9495EDD8CFB2
:10393000DF92CF928FE692E09F938F931F930F9326
:103940000E9495ED0F900F900F900F900F900F9099
:1039500060E0C8010E948467E4E6FFE084917F0193
:103960002FEFE21AF20A882321F00E94F1C8F70132
:10397000F5CFB80183E792E00E9449DD8AE00E941A
:10398000F1C80C944E2683E50E945BC8882311F48D
:103990000C944E260E94CAC7E82E80E50E945BC8A0
:1039A000882339F00E94CAC7182F87FF03C00C94E0
:1039B0004E261BE189E40E945BC8882351F00E94D7
:1039C000DBC781110C941F28E5E2F5E082E595E064
:1039D0000AC089E40E9412C8F4CF31968E179F075F
:1039E00011F40C941F2824911213F7CF0C947D2707
:1039F0000E94B8420C944E260E94DA420C944E2645
:103A00000E94EF420C944E2688E690E00E94D4CBB0
:103A100081110C944E268091970283FF02C00C9472
:103A20004E2683E50E945BC8882311F40C944E2631
:103A30000E94EAC70E9490F3CB010E94E6660E94B2
:103A4000EAC720E030E04AEA52E40E94FBED181693
:103A500014F40C944E260E94EF420E94A85C0C9431
:103A60004E268EE40E945BC8882311F40C944E26E7
:103A70000E94BAC760939B0870939C0880939D082E
:103A800090939E080C944E2683E50E9412C88823CA
:103A900059F083E50E945BC8882319F00E94CAC7C9
:103AA00001C080E080939702E4E6FFE084918F01FB
:103AB0000F5F1F4F811103C0E4E8F2E004C00E94D1
:103AC000F1C8F801F3CF84918F010F5F1F4F882356
:103AD00021F00E94F1C8F801F6CF80919702811180
:103AE00052CDE0E8F2E018C0BB24B394B20E22231A
:103AF00019F08CE20E94F1C8F60185919491FC01C5
:103B000084918F010F5F1F4F882321F00E94F1C81D
:103B1000F801F6CF2B2D49CD84918F010F5F1F4FF8
:103B2000882309F44CCD0E94F1C8F801F5CF10921A
:103B300061010C944E268DE69EE00E94B79E89E6B8
:103B400090E00E94D4CB81110C943428E5E3F1E29B
:103B500084918F010F5F1F4F882321F00E94F1C8CD
:103B6000F801F6CF0E9401548AE00E94F1C80C943B
:103B7000342883E50E945BC8882311F40C944E26F8
:103B80000E94CAC7182F8D3308F01CE31093C4118C
:103B90000E94BBDC6B017C01212F30E0A8EEB3E07A
:103BA0000E9437F2C60ED71EE81EF91EC092C01141
:103BB000D092C111E092C211F092C3110C944E2622
:103BC0008091970283FF02C00C944E2683E50E94E9
:103BD0005BC8882311F40C944E260E94EAC70E9409
:103BE00090F36436710514F064E670E070934E143F
:103BF00060934D140E9428560C944E260E94678AAA
:103C00000C944E2680E50E945BC8811106C083E5B6
:103C10000E945BC8882361F006C00E94CAC7811158
:103C20000C944E26F4CF0E94BAC76F3F710510F076
:103C30006FEF70E07093501460934F140C944E2605
:103C400080E50E945BC8811106C01092501410924A
:103C50004F140C944E260E94BAC7672B11F00C9497
:103C60004E26F3CF0E9474560E94477B1092501448
:103C700010924F1410927E0210927D0210927C02DC
:103C800068EE73E080E090E00E945B6660E08BE8A5
:103C900092E00E944A670C944E2681E08093820253
:103CA000FDC783E50E945BC8882399F00E94EAC79C
:103CB00020E030E04AE754E40E9460EE0E9495F371
:103CC00060934701709348018093490190934A01A2
:103CD000E5C788E50E9412C881110C944B2789E53D
:103CE0000E9412C881110C944B278AE50E9412C8C9
:103CF00081110C944B2785E40E9412C881110C9409
:103D00004B270C94702783E50E9412C8882309F47E
:103D1000C5C70E94EAC720E030E04AE754E40E94A9
:103D200060EE0E9495F36093BC117093BD11809377
:103D3000BE119093BF11B2C748E6C42E41E0D42E05
:103D40005AEEE52E5CE0F52E10E0F60181916F0150
:103D50000E9412C8882309F46DC0133009F063C0B3
:103D60000E94EAC74B015C0120E030E040EA51E4E8
:103D70000E94FBED87FF4EC0A50194016091F60CF7
:103D80007091F70C8091F80C9091F90C0E9428F337
:103D90002B013C019B01AC016091E60C7091E70C9A
:103DA0008091E80C9091E90C0E9460EE6093E60C23
:103DB0007093E70C8093E80C9093E90CA3019201B7
:103DC0006091BA0C7091BB0C8091BC0C9091BD0CB1
:103DD0000E9460EE6093BA0C7093BB0C8093BC0C95
:103DE0009093BD0C6091721470917314809174144F
:103DF000909175140E94FFEDA30192010E9460EE64
:103E00000E9495F3609372147093731480937414EA
:103E1000909375148092F60C9092F70CA092F80C87
:103E2000B092F90C07C00E94EAC7F7016083718362
:103E3000828393831F5FF4E0EF0EF11C143009F0CE
:103E400084CF0E94CCDE2AC70E94A64183E50E944F
:103E50005BC8882309F4ACC80E94BAC762307105F8
:103E600009F0A6C80E9465A48BE50E94F1C8609184
:103E7000AC117091AD118091AE119091AF1142E0F3
:103E80000E9429CC4091B0115091B1116091B211B2
:103E90007091B3118BE992E00E9411DD4091B41151
:103EA0005091B5116091B6117091B7118BE992E004
:103EB0000E9411DD8DE50E94F1C88AE00E94F1C8E0
:103EC000EDC684918F010F5F1F4F882309F4E6C66A
:103ED0000E94F1C8F801F5CF809194149091951447
:103EE000FC012081222321F060E00E948467D6C675
:103EF0000E94A85CD3C6009194141091951483E09D
:103F0000D12C40E08150E1F0F8019081292F2B7FE6
:103F10002134C1F721812133A9F7913421F095345F
:103F200021F441E002C0DD24D39498012E5F3F4F7D
:103F300089012F5F3F4FF80190819032C9F3E2CFA2
:103F4000442369F0E4E6FFE084917F012FEFE21A59
:103F5000F20A882321F00E94F1C8F701F5CFDD2095
:103F600069F0E6E6F3E084917F014FEFE41AF40A8A
:103F7000882321F00E94F1C8F701F5CFF801819163
:103F80008F01882309F41BCB0E94F1C8F7CF0E9450
:103F9000627E84C681E08093A7128093A6127EC6BB
:103FA00083E50E945BC8882319F00E94BAC702C04B
:103FB00060E070E08B01112702301105D4F0E5E3D9
:103FC000FFE084918F010F5F1F4F811103C0EAE66C
:103FD000F3E004C00E94F1C8F801F3CF84918F018F
:103FE0000F5F1F4F882309F459C60E94F1C8F801DA
:103FF000F5CF88E40E945BC88823A9F00E94BAC765
:104000006A3A71053CF06530F1E07F072CF064E01E
:1040100071E002C06AEA70E0F801EE0FFF1FEE5E89
:10402000FE4E7183608386E40E945BC88823A9F0FA
:104030000E94BAC7F801EE0FFF1FEA5EFE4E7183C1
:1040400060836F3F710519F014F06FEF70E077FF38
:1040500002C060E070E07183608382E40E945BC80C
:10406000882309F41BC60E94BAC76530710534F075
:10407000653671052CF064E670E002C065E070E022
:10408000000F111FF801E25FFE4E7183608306C6C8
:10409000F70181917F010E9412C8882349F00E9494
:1040A000EAC70E9495F3F80160837183828393834A
:1040B0000C5F1F4FC016D10659F70E9464DDEEC594
:1040C000A8E6EA2EA1E0FA2E0EEA1CE0F7018191A3
:1040D0007F010E9412C8882339F00E94EAC7F801C4
:1040E00060837183828393830C5F1F4FFCE00E3BE0
:1040F0001F0761F7D3C583E50E945BC88823A1F041
:104100000E94EAC76093D60C7093D70C8093D80CAA
:104110009093D90C6093CE0C7093CF0C8093D00CFD
:104120009093D10C10E001C011E080E50E945BC8C3
:10413000882359F00E94EAC76093D60C7093D70C7D
:104140008093D80C9093D90C10E082E50E945BC854
:10415000882359F00E94EAC76093D20C7093D30C65
:104160008093D40C9093D50C10E084E50E945BC83A
:10417000882359F00E94EAC76093CE0C7093CF0C4D
:104180008093D00C9093D10C89C5112309F486C576
:104190004091D60C5091D70C6091D80C7091D90CED
:1041A0008CE893E00E9411DD4091D20C5091D30C29
:1041B0006091D40C7091D50C87E19BE10E9411DDD8
:1041C0004091CE0C5091CF0C6091D00C7091D10CDD
:1041D00084E19BE10E9411DD8AE00E94F1C85EC586
:1041E00081E50E9412C8882351F00E94AAC76093FB
:1041F000920270939302809394029093950283E5C8
:104200000E9412C8882351F00E94EAC76093AA0C4A
:104210007093AB0C8093AC0C9093AD0C84E50E9432
:1042200012C8882351F00E94EAC76093A60C7093CD
:10423000A70C8093A80C9093A90C88E50E9412C843
:10424000882351F00E94EAC76093DA0C7093DB0C6C
:104250008093DC0C9093DD0C89E50E9412C88823C2
:1042600051F00E94EAC76093DE0C7093DF0C8093DC
:10427000E00C9093E10C8AE50E9412C88823F1F0CB
:104280000E94EAC76093E20C7093E30C8093E40C05
:104290009093E50C2DEC3CEC4CEC5DE30E94FBEDC7
:1042A000181664F0ECE9F3E084918F010F5F1F4F63
:1042B000882321F00E94F1C8F801F6CF85E40E941E
:1042C00012C8882309F4EAC40E94EAC76093E60C86
:1042D0007093E70C8093E80C9093E90CDFC4E8E658
:1042E000CE2EE1E0DE2EF9EAEF2EF2E1FF2E10E015
:1042F000F60181916F010E9412C8882351F00E943B
:10430000EAC7F7016083718382839383812F0E94C0
:1043100016321F5FF4E0EF0EF11C133049F70C94D6
:10432000D8170E949B8F8111B9C406EE11E281EE6D
:104330009DE09FA38EA3FE0131965F017DE1872E54
:1043400072E2972E1F01F801659175918591949104
:10435000EEA1FFA1C190D190E190F190FFA3EEA357
:10436000A70196010E94ADF22B013C01F10160838F
:1043700071838283938320E030E040EA51EC0E9415
:104380004DF487FD0AC020E030E040EA51E4C3016B
:10439000B2010E94FBED18162CF4F401849118165A
:1043A0000CF4A1C5F101C190D190E190F1901F01F1
:1043B00020E030E040EA51ECC701B6010E944DF424
:1043C00087FD0AC020E030E040EA51E4C701B601B1
:1043D0000E94FBED181684F5E5E3FFE084918F0160
:1043E0000F5F1F4F811103C0ECEEF3E004C00E9489
:1043F000F1C8F801F3CF84918F010F5F1F4F88231D
:1044000021F00E94F1C8F801F6CF61E08EED93E053
:104410000E944A670E94576B88E290E099A388A3A4
:1044200088EC90E09DA38CA3BE01605E7F4FCE011F
:1044300084960E944C8F32C40C5F1F4FFFEF8F1A7F
:104440009F0A82EF91E28017910709F07CCF69EA19
:10445000E62E62E1F62E10E0F50181919191A19195
:10446000B1915F01F70181939193A193B1937F0182
:10447000812F0E9416321F5F133071F70E941D8832
:1044800060E08EEC93E00E944A6783E992E09DA38E
:104490008CA304E610E019A308A3BE016C5D7F4F56
:1044A000CE0180960E944C8F8AEB92E09DA38CA354
:1044B00019A308A3BE016C5D7F4FCE0180960E94B8
:1044C0004C8FECC300911F011091200182E50E94E6
:1044D00012C8882341F080910001909101019093CE
:1044E000200180931F0182E40E9412C8882321F0DA
:1044F000109301010093000183E50E945BC88823AB
:1045000009F4CCC30E94BAC77093200160931F01C5
:10451000C5C38DED90E00E94D4CB8111BFC383E56C
:104520000E945BC8811103C0E4E6FFE02FC0009148
:10453000D80B10E00E94BAC7000F111FF801E35E0C
:10454000FE4F718360838091D80B90E08C01000F47
:10455000111F000F111F075E1E4F880F991FFC01CE
:10456000E35EFE4F60817181072E000C880B990B72
:104570000E9401EE2AE037ED43E25CE30E9460EE28
:10458000F801608371838283938388C384918F0150
:104590000F5F1F4F882321F00E94F1C8F801F6CF6A
:1045A00085E40E94F1C88091D80B805D0E94F1C81B
:1045B000E091D80BF0E0EE0FFF1FE35EFE4F60814D
:1045C00071818AE094E00E942FDD85E20E94F1C8AB
:1045D0008AE00E94F1C862C380E50E9412C8882365
:1045E00009F45CC30E94BAC76B017C0183E50E9499
:1045F0005BC8882321F00E94BAC78B0102C00FEF6D
:104600001FEFC8010196039708F048C3D7FC46C3C3
:104610002C2DE5E2F5E082E595E03491231709F4CD
:104620006CC431968E179F07C1F76AC48AE50E9451
:104630005BC881118AC483E50E945BC8811185C46F
:104640002DC383E50E945BC8882319F00E94BAC776
:1046500002C064E071E079A368A380E50E945BC8B2
:10466000882339F00E94BAC76938F3E17F0730F434
:1046700002C068EE73E07A83698304C088E893E13E
:104680009A838983BE01605E7F4FCE0101960E94AE
:104690004C8F04C385E40E945BC8811110C080E583
:1046A0000E9412C8882391F00E94EAC76093021109
:1046B00070930311809304119093051107C00E9419
:1046C000CAC7882361F3E5E3FFE071C089E40E9473
:1046D00012C8882381F00E94EAC72CEA35EC47E231
:1046E0005EE30E9460EE60930A1170930B11809359
:1046F0000C1190930D1184E40E9412C8882381F05C
:104700000E94EAC72CEA35EC47E25EE30E9428F3F8
:10471000609306117093071180930811909309110B
:10472000E4E6FFE084918F010F5F1F4F882321F0A3
:104730000E94F1C8F801F6CF409102115091031187
:1047400060910411709105118BE294E00E9411DDDB
:104750002CEA35EC47E25EE360910A1170910B118F
:1047600080910C1190910D110E9428F3AB01BC01B6
:1047700087E294E00E9411DD2CEA35EC47E25EE32B
:1047800060910611709107118091081190910911A3
:104790000E9460EEAB01BC0183E294E00E9411DD57
:1047A0008AE00E94F1C87AC20E94F1C8F80184919F
:1047B0008F010F5F1F4F8111F7CFEFE2F4E084917B
:1047C0008F010F5F1F4F882309F468C20E94F1C850
:1047D000F801F5CF83E50E9412C8182F882371F0E5
:1047E0000E94EAC70E9490F3709303016093020154
:1047F00021E0672B09F020E02093960280E50E94DB
:1048000012C8882359F02091020130910301232B13
:1048100011F00E94DBC78093960240C211113EC284
:10482000E4E6FFE084918F010F5F1F4F882321F0A2
:104830000E94F1C8F801F6CF80919602882319F002
:104840006EE272E002C061E372E086E594E00E94ED
:1048500049DD609102017091030185E494E00E94BA
:104860002FDDE1E4F4E084918F010F5F1F4F882377
:1048700009F414C20E94F1C8F801F5CF0E94278301
:104880000DC20E94A6410AC280E00E94072D0E942C
:104890007D2C0E941D8802C20E94E888FFC189E425
:1048A0000E945BC8882321F00E94BAC76B0103C035
:1048B000CC24CA94DC2CEC2C8AE40E945BC88823AC
:1048C00021F00E94BAC78B0102C00FEF1FEF8AE5EB
:1048D0000E9412C8F82E811105C081E50E9412C8FD
:1048E000B82E01C0B12CE7FC07C0802F07FD04C023
:1048F000F1101CC0B1101AC0E5E3FFE084918F01F4
:104900000F5F1F4F811103C0E8E8F4E004C00E946C
:10491000F1C8F801F3CF84918F010F5F1F4F8823F7
:1049200009F4BCC10E94F1C8F801F5CF26E02C15AE
:1049300010F00730D0F0E5E3FFE084918F010F5FC6
:104940001F4F811103C0E9E6F4E004C00E94F1C8E2
:10495000F801F3CF84918F010F5F1F4F882309F473
:104960009DC10E94F1C8F801F5CF0E2C000CFF0884
:10497000082F880F110B0E94EAC7BB2099F027E08F
:104980002E9DF0012F9DF00D1124E00FF11FEE0F71
:10499000FF1FEE0FFF1FE650F34F20813181428150
:1049A000538103C020E030E0A901A7E0AE9DF001F3
:1049B000AF9DF00D11240E0F1F1F000F111F000FD0
:1049C000111F0650134F0E94AEF2F80160837183ED
:1049D0008283938363C10E9468C260C10E945CC2EB
:1049E0005DC10E94A9BC5AC183E50E9412C88823F8
:1049F00021F00E94DBC791E089270E948D7E4EC185
:104A000081E0809331120E94B4BD1092311288234C
:104A100009F444C1E4E6FFE084918F010F5F1F4F6A
:104A2000811103C0E8EAF4E004C00E94F1C8F80173
:104A3000F3CF84918F010F5F1F4F882309F42EC19C
:104A40000E94F1C8F801F5CF80914F09882309F43D
:104A500025C181E08093520921C18AE50E945BC88B
:104A6000811103C0E4E6FFE03BC00E94EAC76B018E
:104A70007C0120E030E048E452EC0E944DF487FDD8
:104A80000AC020E030E048E452E4C701B6010E94C9
:104A9000FBED18161CF4E5E3FFE00CC0C092DD0D41
:104AA000D092DE0DE092DF0DF092E00DF7C00E9493
:104AB000F1C8F80184918F010F5F1F4F8111F7CF6B
:104AC000E3EBF4E084918F010F5F1F4F882309F41B
:104AD000E5C00E94F1C8F801F5CF0E94F1C8F801C5
:104AE00084918F010F5F1F4F8111F7CFE0EDF4E04C
:104AF00084918F010F5F1F4F882321F00E94F1C81E
:104B0000F801F6CF4091DD0D5091DE0D6091DF0D83
:104B10007091E00D8AE69EE00E9411DD8AE00E941D
:104B2000F1C8BCC08BE40E945BC8811103C0E4E6FD
:104B3000FFE036C08BE40E945BC88823C1F00E946E
:104B4000EAC76B017C0120E030E0A9010E944DF42E
:104B500087FD0AC020E030E040E251E4C701B60121
:104B60000E94FBED181634F4EFEDF4E00EC0C12CFA
:104B7000D12C76010E94A641C092FE10D092FF1067
:104B8000E0920011F092011189C084918F010F5FB2
:104B90001F4F882309F482C00E94F1C8F801F5CFA5
:104BA00084918F010F5F1F4F882321F00E94F1C86D
:104BB000F801F6CF4091FE105091FF106091001166
:104BC000709101118EEF94E00E9411DD8AE00E9445
:104BD000F1C864C081E0809315011092FD0F83E558
:104BE0000E945BC8882339F00E94DBC7811156C040
:104BF0000E949FA653C083E50E9412C8F7CF0E946F
:104C0000F2934CC0F09096140E94A6411091191294
:104C100080E048D4FF2029F1E4E6FFE084918F0191
:104C20000F5F1F4F882321F00E94F1C8F801F6CFD3
:104C300084E50E94F1C86F2D70E080E090E04AE0CA
:104C40000E947ACB80E20E94F1C8EFE2F4E0849106
:104C50008F010F5F1F4F882309F10E94F1C8F801EF
:104C6000F6CF1092340C812F1DD4E4E6FFE084913E
:104C70008F010F5F1F4F882321F00E94F1C8F801B8
:104C8000F6CF6091340C70E089E095E00E942FDD52
:104C90008AE00E94F1C802C00E94F2930E9484A69A
:104CA000E3C10E94A64180E0FDD330D511E010930E
:104CB000A71288E50E9412C8B82E89E50E9412C882
:104CC000082F8AE50E9412C8A82EB11004C0011155
:104CD00004C01A2505C0011102C010E001C01A2D40
:104CE0000E94E7C882E50E945BC8882361F00E94A9
:104CF000EAC76B017C0120E030E0A9010E94FBEDD6
:104D0000882361F105C0C12CD12CA0E4EA2EFE2C31
:104D1000111104C0B11002C0002389F1C092D91151
:104D2000D092DA11E092DB11F092DC11A70196012A
:104D30006091E90D7091EA0D8091EB0D9091EC0D71
:104D40000E94FBED87FF0AC019821A821B821C8217
:104D5000BE016F5F7F4F89ED91E1B1D5111105C0A3
:104D6000B11003C0011106C00AC080E00E94D79CA8
:104D70001123C1F381E00E94D79C111103C0AA2026
:104D800009F460C08091D00D83708330F9F060E049
:104D900083EB91E00E944A67E4E6FFE084918F0193
:104DA0000F5F1F4F811103C0E4EAF1E004C00E94CD
:104DB000F1C8F801F3CF84918F010F5F1F4F882353
:104DC00009F43FC00E94F1C8F801F5CF0E9470C7F6
:104DD00080E090E0AAECB2E48093D1119093D211DC
:104DE000A093D311B093D411E090E90DF090EA0DA7
:104DF0000091EB0D1091EC0DE092D911F092DA11C7
:104E00000093DB111093DC1180E090E0A2E1B3E4A9
:104E10008093D5119093D611A093D711B093D81148
:104E200019821A821B821C82FE0131966F019C013D
:104E3000AD0160E070E08AEC92E487D482E00E94E9
:104E4000D79C5BD50E9470C78091A6128093A71251
:104E500081E028D342D483E0809339010E941D88E9
:104E60001DCF11110C94CA190C94C3190E94179FDD
:104E70000C94E9190E94BAC7AB01BC014093C90B5D
:104E80005093CA0B6093CB0B7093CC0B88E19BE0E3
:104E90000E941DAE03CF0E94A64188E50E9412C861
:104EA000882331F05E9A8091D00D8E7F8093D00D53
:104EB00089E50E9412C8882331F05E9A8091D00D56
:104EC0008D7F8093D00D8AE50E9412C8882309F453
:104ED000E5CE159A8091D00D8B7F8093D00DDECEDC
:104EE0000E94477BDBCEF7FAF094F7F8F094F101DB
:104EF000C082D182E282F38255CA0E94F9E7CECE07
:104F00000E94A641BC2C60E08C2D0E94D9DB0F3F93
:104F1000FFEF1F0741F48C2D0E9485DB01E010E0BC
:104F2000892B31F00FC00130110561F401E010E070
:104F30008B2D0E9485DB8017910709F4AFCE0E946C
:104F4000179FF6CF00E010E0F3CF0E94EAC720E001
:104F500030E040E050EC0E94FBED87FD15C00E9460
:104F6000EAC720E030E040E050E40E944DF418161B
:104F70002CF00E94EAC76B017C010BC0C12CD12C24
:104F8000E12C90E4F92E05C0C12CD12CE12C80EC51
:104F9000F82E8091D00D82FF18C00091220C109144
:104FA000230C2091F20C3091F30C4091F40C5091B1
:104FB000F50CC701B6010E9460EE0E9490F3600FED
:104FC000711F7093230C6093220C80E50E9412C81D
:104FD000882329F00E94DBC7882309F45FCEA7014C
:104FE00096016091DD0D7091DE0D8091DF0D909145
:104FF000E00D0E94AEF26093DD0D7093DE0D8093A4
:10500000DF0D9093E00DE4E6FFE084918F010F5FE8
:105010001F4F882321F00E94F1C8F801F6CF40917C
:10502000DD0D5091DE0D6091DF0D7091E00D82E19C
:1050300094E00E9411DD8AE00E94F1C82FCE61E069
:10504000812F0E94D9DB6E2D812F0E94ABDBF12CCA
:10505000B701812F0E9415DC143009F01FCEF092A9
:105060005014E0924F141ACEA796E2E10C9492F2FB
:1050700090917E029817C9F080937E02882369F090
:1050800080914F149091501490937D0280937C02F4
:105090001092501410924F14089580917C029091B8
:1050A0007D029093501480934F140895CF92DF9215
:1050B000EF920F931F93CF93DF93CDB7DEB7609737
:1050C0000FB6F894DEBF0FBECDBFE090340CE1EE1A
:1050D000FDE080859185A285B385448155816681F7
:1050E0007781008111812281338109831A832B8387
:1050F0003C834D835E836F83788789879A87AB87EC
:10510000BC871D861E861F86188AAE01475F5F4FCB
:10511000BE016B5F7F4FCE0101960E94BC7BCE012A
:105120000D966C0105E311E02DEE3DE0AE01475F09
:105130005F4FBE016B5F7F4F0C970E9456326096A7
:105140000FB6F894DEBF0FBECDBFDF91CF911F9198
:105150000F91EF90DF90CF900895A4E1B0E0E3EBE2
:10516000F8E20C9477F2F82E4A015B01280139012C
:10517000082F10E0F801E35EFD4DE49133243394F1
:105180001E160CF4312CEE24E39420E030E0A9014B
:10519000C501B4010E944DF418160CF0E12C3E2418
:1051A00059F082E0F81208C081E062DF69E170E046
:1051B00080E090E00E945B66000F111F000F111F3E
:1051C000F801EF51F24F6F011082118212821382A7
:1051D0000E9470C7F60180829182A282B382E09021
:1051E000340C20E030E0A901C301B2010E94FBEDC4
:1051F000811107C0F801EE50FE4D45905590659025
:105200007490498A5A8A6B8A7C8A8091E90D9091C0
:10521000EA0DA091EB0DB091EC0D4091E50D509190
:10522000E60D6091E70D7091E80D0091E10D109190
:10523000E20D2091E30D3091E40D09831A832B8355
:105240003C834D835E836F83788789879A87AB879A
:10525000BC871D861E861F86188AAE01475F5F4F7A
:10526000BE016B5F7F4FCE0101960E94BC7BCE01D9
:105270000D966C018E010F5E1F4F2DEE3DE0AE01CD
:10528000475F5F4FBE016B5F7F4F0C970E945632A6
:105290000E94A641332081F092E0F91202C080E022
:1052A000E7DE8091BA12882319F01092BA1204C076
:1052B00087E895E00E94B79E6496E1E10C9493F232
:1052C000CF92DF92EF92FF926091111270911212C1
:1052D000072E000C880B990B0E9401EE6B017C01DC
:1052E0002DEB37E346E855EB0E944DF487FD0AC0ED
:1052F0002DEB37E346E855E3C701B6010E94FBED0D
:1053000018164CF4A701960160E070E080E89FE376
:105310000E9428F303C060E070E0CB016093A41109
:105320007093A5118093A6119093A7116091131209
:1053300070911412072E000C880B990B0E9401EE3D
:105340006B017C012DEB37E346E855EB0E944DF4F1
:1053500087FD0AC02DEB37E346E855E3C701B601E8
:105360000E94FBED18164CF4A701960160E070E076
:1053700080E89FE30E9428F303C060E070E0CB0167
:105380006093A8117093A9118093AA119093AB1107
:10539000FF90EF90DF90CF900895A0E0B0E0E3EDB4
:1053A000F9E20C947CF2EEE6F5E08491EF012196AF
:1053B000882321F00E94F1C8FE01F7CFC12CD12C27
:1053C0007601C0E080E20E94F1C8CF5FC630D1F71D
:1053D000C701B6010E940ECC8FEFC81AD80AE80A9E
:1053E000F80A97E0C916D104E104F10451F78AE004
:1053F0000E94F1C80AEF1CE0C12CD12C760180E29A
:105400000E94F1C8C701B6010E940ECCC0E0D0E0F6
:1054100080E20E94F1C8F801EC0FFD1F80809180AE
:10542000A280B380A5019401C501B4010E94C9F412
:10543000811112C020E030E0A901C501B4010E9431
:105440004DF487FD03C08BE20E94F1C843E0C50123
:10545000B4010E9429CC09C0B12C80E20E94F1C89D
:10546000B3948DE396E0B912F9CF6C96C43CD105A4
:1054700079F68AE00E94F1C88FEFC81AD80AE80AC4
:10548000F80A0C5F1F4F97E0C916D104E104F1043C
:1054900009F0B5CF8AE00E94F1C8CDB7DEB7ECE0E5
:1054A0000C9498F2ACE0B0E0E8E5FAE20C9485F2F6
:1054B000882331F02091111230911212232BA9F17F
:1054C00090911912891789F1182F0E94A6418CE03A
:1054D000ECE6F1E0DE01119601900D928A95E1F77C
:1054E000CE0101960E9481A410931912111117C0C8
:1054F0000E9465A48CEA91E10E94857B8091B411A1
:105500009091B511A091B611B091B7118093E90DAA
:105510009093EA0DA093EB0DB093EC0D04C081EED7
:105520009DE00E94857B0E9470C72C96E3E00C945E
:10553000A1F2CF92DF92EF92FF9280E0B3DF109260
:105540001412109213121092121210921112109241
:105550002F1210922E1210922D1210922C124AEF2E
:105560005CE027E0C12CD12C80ECE82E8FE7F82EF0
:1055700080E090E0FA01E80FF91FC082D182E28258
:10558000F38204968C319105A9F72150445E5F4F58
:105590002111EECFFF90EF90DF90CF900895ACE017
:1055A000B0E0E5EDFAE20C9480F26B017C01142F7F
:1055B0009B01AC0160915B0C70915C0C80915D0C67
:1055C00090915E0C0E94FBED882309F482C000914B
:1055D000191280E067DF20E030E0A901C701B601C1
:1055E0000E944DF418161CF0C12CD12C7601C092EB
:1055F0005B0CD0925C0CE0925D0CF0925E0C2DEB9B
:1056000037E346E855EBC701B6010E944DF487FD2C
:105610000AC02DEB37E346E855E3C701B6010E9407
:10562000FBED18164CF4A701960160E070E080E8ED
:105630009FE30E9428F303C060E070E0CB01609319
:1056400088027093890280938A0290938B0280EF84
:105650009FEFA9E7B4EC8093840290938502A09316
:105660008602B09387020023A1F18091E10D909111
:10567000E20DA091E30DB091E40D89839A83AB8391
:10568000BC838091E50D9091E60DA091E70DB0915E
:10569000E80D8D839E83AF83B8878091E90D90914B
:1056A000EA0DA091EB0DB091EC0D89879A87AB873D
:1056B000BC8781E0F7DE112361F04CE050E061EE41
:1056C0007DE0CE0101960E9416F5892B11F00E9413
:1056D0001D882C96E8E00C949CF280918E029091AB
:1056E0008F02A0919002B091910280933501909326
:1056F0003601A0933701B093380180918C029091CC
:105700008D029093200180931F01089580913501AF
:1057100090913601A0913701B091380180938E02AB
:1057200090938F02A0939002B093910280911F01F9
:105730009091200190938D0280938C0284E690E0FA
:105740009093200180931F010895AEE0B0E0EBEA52
:10575000FBE20C9478F26D837E838F839887298790
:105760003A874B875C8747015801DE86CD8680915A
:10577000350190913601A0913701B09138018983AC
:105780009A83AB83BC83D601CD90DD90ED90FC90E5
:1057900020E030E0A901C701B6010E94FBED8111B4
:1057A00006C0EAEFF1E2C590D590E590F490A5012E
:1057B00094016091E90D7091EA0D8091EB0D90914B
:1057C000EC0D0E94FBED87FF11C0C0923501D09215
:1057D0003601E0923701F09238018092E90D909203
:1057E000EA0DA092EB0DB092EC0D60DCED85FE852C
:1057F000408051806280738020E030E0A901C301C5
:10580000B2010E94FBED811108C04090310150901F
:105810003201609033017090340140923501509212
:10582000360160923701709238018D819E81AF817F
:10583000B8858093E10D9093E20DA093E30DB093B2
:10584000E40D89859A85AB85BC858093E50D9093A1
:10585000E60DA093E70DB093E80D28DC2091E90D4B
:105860003091EA0D4091EB0D5091EC0DC501B40162
:105870000E94FBED87FF11C0C0923501D092360126
:10588000E0923701F09238018092E90D9092EA0D92
:10589000A092EB0DB092EC0D09DC0E94A64189812B
:1058A0009A81AB81BC818093350190933601A0939E
:1058B0003701B09338012E96E0E10C9494F2CF9228
:1058C000DF92EF92FF920F931F936B01FC01E08038
:1058D000F18002811381E1EEFDE024813581468172
:1058E000578160817181828193812FDF1F910F9198
:1058F000FF90EF90DF90CF900895CF92DF92EF92DC
:10590000FF92CF93DF93CDB7DEB728970FB6F89409
:10591000DEBF0FBECDBF20E030E040E251E4609139
:10592000E90D7091EA0D8091EB0D9091EC0D0E94C4
:10593000FBED8823E1F01D821E821F821886C12C98
:10594000D12C80E2E82E81E4F82EC982DA82EB8243
:10595000FC82BE016B5F7F4FCE010196B0DFC0922B
:10596000E90DD092EA0DE092EB0DF092EC0D289645
:105970000FB6F894DEBF0FBECDBFDF91CF91FF9081
:10598000EF90DF90CF900895A8E0B0E0EAECFCE261
:105990000C9485F269837A838B839C832D833E8369
:1059A0004F83588781E064DB69E170E080E090E03C
:1059B0000E945B66BE016B5F7F4FCE0101967FDF69
:1059C0001091BA1280E054DB1092BA120E9465A4C2
:1059D0008CEA91E10E94857B8091B4119091B51180
:1059E000A091B611B091B7118093E90D9093EA0D93
:1059F000A093EB0DB093EC0D0E9470C712FB112722
:105A000010F981E081272896E3E00C94A1F2A8E048
:105A1000B0E0EDE0FDE20C9477F29091A8129817B7
:105A200009F4BBC0382E80E090E0A0E2B1E48D83A1
:105A30009E83AF83B8874090DD0D5090DE0D60905F
:105A4000DF0D7090E00D20E030E0A901C301B2014C
:105A50000E94FBED87FF0CC0A301920160E070E0A3
:105A600080E291E40E94ADF26D837E838F839887FC
:105A700020E030E044E353E46D817E818F8198859E
:105A80000E944DF4181644F480E090E0A4E3B3E4DF
:105A90008D839E83AF83B8872D813E814F8158854A
:105AA0006091E90D7091EA0D8091EB0D9091EC0DF4
:105AB0000E94FBED87FF0AC019821A821B821C829A
:105AC000BE016F5F7F4FCE010596F9DE4090E10D7C
:105AD0005090E20D6090E30D7090E40D8090E50D24
