:100000000C9428140C9452140C9452140C94521402
:100010000C9452140C9452140C9452140C945214C8
:100020000C9452140C9452140C9452140C945214B8
:100030000C9452140C94D5520C9452140C945214E7
:100040000C9452140C941A2E0C943A3D0C945214A5
:100050000C949FB20C9452140C9452140C9452149D
:100060000C9452140C9452140C9452140C94521478
:100070000C9452140C9452140C9452140C94521468
:100080000C9452140C9452140C9452142B3C2E3C8D
:10009000213C253C453C453C323C363C3C3C403CCC
:1000A000A93CAE3CB33CBD3CEB3CEB3CC73CCF3C3D
:1000B000D73CE13CEAC1B1C0E8C026C2E8C0E8C014
:1000C000E8C0E8C0E8C0E8C0E8C0E8C0E8C0E8C0F0
:1000D000E8C0E8C0E8C0E8C0E8C0E8C0E8C0E8C0E0
:1000E000E8C0E8C0E8C0E8C0E8C0E8C0E8C0E8C0D0
:1000F00020C2E8C0E8C0E8C0E8C0E8C0E8C0E8C086
:10010000E8C0F9C1E8C0E8C0E8C0E8C0E8C0E8C09D
:10011000E8C0E8C0E8C0E8C03DC2E5C0084AD73B37
:100120003BCE016E84BCBFFDC12F3D6C74319ABDC6
:1001300056833DDA3D00C77F11BED9E4BB4C3E91EA
:100140006BAAAABE000000803F05A84CCDB2D44ED9
:10015000B93836A9020C50B9918688083CA6AAAADB
:100160002ABE000000803F004E414E494E4954597E
:10017000494E46CDCCCC3D0AD7233C17B7D1387772
:10018000CC2B329595E6241FB14F0A000020410088
:1001900000C84200401C4620BCBE4CCA1B0E5AAED2
:1001A000C59D74434F4D4D554E49434154494F4EA3
:1001B0000044525952554E004552524F5253004935
:1001C0004E464F004543484F0047322F4733206289
:1001D000616420706172616D65746572730A0053A9
:1001E0006C6565702E2E2E00436C69636B20746FF6
:1001F00020726573756D652E2E2E004E6F206D6F0B
:1002000076652E00456E642066696C65206C6973A6
:10021000740A00426567696E2066696C65206C69C6
:1002200073740A00286E6F2066696C652900534458
:10023000207072696E74696E67206279746520003F
:100240004E6F74205344207072696E74696E670A31
:100250000043757272656E742066696C653A2000A1
:1002600046696C652064656C657465643A00446534
:100270006C6574696F6E206661696C65642C2046DC
:10028000696C653A20002569792025696420256913
:10029000682025696D20256973005072696E74208D
:1002A00074696D653A20006F6666004445425547A3
:1002B0003A004D3131332053004D616C79616E202D
:1002C0004D313530204F66662E002C2000544845B5
:1002D000524D414C5F50524F54454354494F4E008C
:1002E0004155544F5245504F52545F53445F5354FD
:1002F0004154555300454D455247454E43595F5073
:10030000415253455200434153455F4C494748547D
:100310005F4252494748544E45535300544F474754
:100320004C455F4C494748545300534F465457413E
:1003300052455F504F574552004255494C445F501B
:10034000455243454E54004C4556454C494E475F37
:1003500044415441005A5F50524F42450041555468
:100360004F4C4556454C005052494E545F4A4F42FF
:100370000050524F4752455353004155544F524538
:10038000504F52545F54454D5000564F4C554D45BB
:10039000545249430053455249414C5F584F4E5FB8
:1003A000584F4646004649524D574152455F4E41CF
:1003B0004D453A4D61726C696E20312E312E392EC9
:1003C0003220284769746875622920534F5552437B
:1003D000455F434F44455F55524C3A68747470739F
:1003E0003A2F2F6769746875622E636F6D2F4D61A8
:1003F000726C696E4669726D776172652F4D6172BC
:100400006C696E2050524F544F434F4C5F564552CB
:1004100053494F4E3A312E30204D414348494E45C5
:100420005F545950453A4D616C79616E204D3135BC
:10043000302045585452554445525F434F554E5411
:100440003A3120555549443A633034316433386188
:100450002D653364332D346362382D383864312D83
:100460006435623361366639343462610A002F2F95
:1004700020004D31343520533C696E6465783E2050
:100480006F7574206F662072616E67652028302D4D
:1004900031290A00416363656C65726174696F6E2E
:1004A0003A20500020204D61783A200020204D69EC
:1004B0006E3A2000536F667420656E6473746F70BB
:1004C000733A200020466C6F773A200020643A008F
:1004D00020693A0020703A00496E76616C696420A8
:1004E00065787472756465720A0043290A00616256
:1004F0006C656420286D696E2074656D7020004302
:100500006F6C6420657874727564657320617265C0
:1005100020004E6F2063617365206C696768740A00
:1005200000454550524F4D204F4B0A0041637469BE
:1005300076652045787472756465723A2000C4014E
:10054000BF01B801B101A30100010F150E12FFFF99
:10055000FFFF16170E13FFFFFFFF03021A14FFFF22
:10056000FFFFFFFFFF0C04FFFFFF01000EFFFFFF77
:100570000C190DFF186265640A002C2073797374DE
:10058000656D2073746F70706564212048656174B7
:1005900065725F49443A20004531204865617469BD
:1005A0006E67206661696C656400426564206865F9
:1005B0006174696E67206661696C6564004531200D
:1005C000544845524D414C2052554E4157415900D7
:1005D00042454420544845524D414C2052554E41CD
:1005E00057415900546865726D616C2052756E6197
:1005F000776179004531204572723A204D41585457
:10060000454D50004572723A204D415854454D5069
:1006100020424544004D415854454D502074726964
:10062000676765726564004531204572723A204DF6
:10063000494E54454D50004572723A204D494E5432
:10064000454D5020424544004D494E54454D5020A3
:10065000747269676765726564004D38342058208C
:1006600059205A204500202F002042403A002040C7
:100670003A0070012C0190012701B0012201C00154
:100680001D01F00118011002130130020E01600279
:10069000090190020401C002FF000003FA004003B8
:1006A000F5008003F000D003EB002004E6007004A6
:1006B000E100E004DC004005D700C005D2004006A0
:1006C000CD00D006C8008007C3003008BE00F00887
:1006D000B900C009B400B00AAF00B00BAA00D00C3A
:1006E000A500000EA000500F9B00C01096005012F5
:1006F000910000148C00C0158700B0178200B0195B
:100700007D00D01B7800001E730040206E009022F8
:100710006900F024640040275F0090295A00E02B14
:100720005500102E500020304B0010324600E033B0
:10073000410090353C001037370070383200A03946
:100740002D00B03A2800A03B2300603C1E00103D65
:100750001900903D1400103E0F00703E0A00C03E8C
:100760000500003F0000403FFBFF803FF6FFC03F19
:10077000F1FF4B494C4C45442E2000577269746977
:100780006E6720746F2066696C653A200046696C5C
:10079000652073656C65637465640A002053697A2B
:1007A000653A200046696C65206F70656E65643A35
:1007B0002000646F696E67004E6F772000454E44DD
:1007C00020535542524F5554494E450A002220703D
:1007D0006F73002220706172656E743A2200535567
:1007E00042524F5554494E452043414C4C20746170
:1007F000726765743A2200747279696E6720746F4B
:100800002063616C6C207375622D67636F64652073
:1008100066696C6573207769746820746F6F206DEA
:10082000616E79206C6576656C732E204D41582081
:100830006C6576656C2069733A004572726F723A26
:10084000006F70656E206661696C65642C20466976
:100850006C653A200043616E6E6F74206F70656E38
:100860002073756264697220006563686F3A0020C6
:100870005A3A0020593A002020506C616E6E657221
:1008800042756666657242797465733A2000204647
:10089000726565204D656D6F72793A2000436F6D0A
:1008A00070696C65643A204F6374202037203230C1
:1008B00032330A00207C20417574686F723A202818
:1008C0004C756361290A00323032332D30372D31B7
:1008D0003800204C61737420557064617465643A0B
:1008E0002000312E312E392E320A004D61726C6992
:1008F0006E0020536F667477617265205265736570
:10090000740A00205761746368646F6720526573CE
:1009100065740A002042726F776E206F75742052E2
:10092000657365740A002045787465726E616C2089
:1009300052657365740A00506F77657255700A00CE
:100940006175746F25692E67006572726F7220770A
:10095000726974696E6720746F2066696C650A003D
:10096000456E6473746F70732025632025632025A2
:100970006320256300656E6473746F70732068690B
:10098000743A2000446F6E6520736176696E67204B
:1009900066696C652E0A004D3239000000000000C7
:1009A00000000000000000000000000700000380BD
:1009B00000000000000000000000001FC0000FE069
:1009C0007C03E0781C0781E0F03E0E7FE0003FF002
:1009D0007E07E0FC1C0381C1F83F0E7FF8007FF02A
:1009E0007E07E0FC1C03C3C1F83F0E7BFE01FEF056
:1009F0007F0FE1FE1C01C383FC3F8E7CFF87F9F073
:100A0000770EE1FE1C01E783FC3B8E7F7FCFF7F082
:100A1000779EE1CE1C00E7039C3BCE7F9FFFCFF08B
:100A2000739CE3CF1C00FF079E39CE7FE7FF3FF0AA
:100A300073FCE3871C007E070E39EE7FFBFEFFF0A0
:100A400071F8E3871C007E0F0F38EE7FFCF9FFF092
:100A500071F8E7FF9C003C0FFF38FE7FFF27FFF097
:100A600070F0E7FF9C003C0FFF387E7FFFDFFFF058
:100A700070F0EFFFDC003C1FFFB87E7FDFFFDFF090
:100A80007060EF03DFF83C1E07B83E7FC7FF1FF022
:100A90007060EE01DFF83C1C03B83E7FC3FE1FF020
:100AA0007000EE01DFF83C1C03B81E7FC3FE1FF090
:100AB00000000000000000000000007FC3DE1FF007
:100AC0007FFFFFFFFFFFFFFFFFFFFE7FC3DE1FF083
:100AD0007FFFFFFFFFFFFFFFFFFFFE7FC3DE1FF073
:100AE0007C3FFAFBFFFFFFFD7ABFFE7FC3DE1FF0F6
:100AF0007D9FFBFFFFFFFFFF7EF7FE7FC3DE1FF042
:100B00007D931A8A18E38C451AA2DE3FC3DE0FF0EC
:100B10007C2DCACAD6E924CD6AB6BE1F83DE07E0A3
:100B20007DA36A9AD6E926656AB63E0603DE018091
:100B30007D910A8AD8E38C451AB37E0003DE00005B
:100B40007FFFFFFFFEEFFFFFFFFF7E0003DE0000E1
:100B50007FFFFFFFF1EFFFFFFFFEFE0003DE00005F
:100B60007FFFFFFFFFFFFFFFFFFFFE0003DE000030
:100B70007FFFFFFFFFFFFFFFFFFFFE0003DE000020
:100B800000000000000000000000000001DC000088
:100B90000000000000000000000000000050000005
:100BA00000000000000000000000001FFFFFFFFF2A
:100BB000FFFF600000000001FF400000000000FF98
:100BC0008000000000007F83CF00000C303F87FFD3
:100BD00080000C301F867980000C000F8C30C7839A
:100BE0008C30E78C30CFC7CC31F38C30DCECEC337D
:100BF000B98C30D86C6C33198C30D06C0C33198CA8
:100C000030D86C0C33198C30DC6C0E3B198C30CF27
:100C10007C079F198C30C77C038F194000000000AF
:100C20000002600000000000061FFFFFFFFFFFF84A
:100C300000002100240027002A00486F6D696E67BC
:100C4000206661696C65640050726F7465637465D9
:100C5000642050696E0A0020573A004520436F6FA8
:100C60006C696E672E2E2E00452048656174696E92
:100C7000672E2E2E0042656420636F6F6C696E676D
:100C80002E2E2E004265642068656174696E672EA1
:100C90002E2E0020436F756E7420583A0020453A7E
:100CA000004361703A0023646566696E65204445BF
:100CB0004641554C545F4B64200023646566696E61
:100CC000652044454641554C545F4B6920002364E0
:100CD0006566696E652044454641554C545F4B70CE
:100CE0002000504944204175746F74756E6520660C
:100CF000696E697368656421205075742074686535
:100D0000206C617374204B702C204B6920616E64E1
:100D1000204B6420636F6E7374616E74732066720F
:100D20006F6D2062656C6F7720696E746F20436F02
:100D30006E66696775726174696F6E2E680A00501D
:100D40004944204175746F74756E65206661696CE5
:100D50006564212074696D656F75740A00204B64A9
:100D60003A2000204B693A2000204B703A20000ABC
:100D700020436C617373696320504944200A00204A
:100D800054753A2000204B753A2000206D61783A66
:100D90002000206D696E3A200020643A2000206215
:100DA0006961733A2000504944204175746F74752D
:100DB0006E65206661696C6564212054656D70659F
:100DC00072617475726520746F6F20686967680A54
:100DD00000504944204175746F74756E65207374BA
:100DE0006172740A00504944204175746F74756EC5
:100DF00065206661696C65642120426164206578C4
:100E0000747275646572206E756D6265720A004851
:100E10006F6D652025732573257320666972737461
:100E2000002066697273740A00486F6D6520004F78
:100E3000666673657473206170706C6965640045E3
:100E400072723A20546F6F206661722100546F6F86
:100E5000206661722066726F6D20726566657265CC
:100E60006E636520706F696E740A0025753A2530CF
:100E700032750025756420253032753A253032757B
:100E800000202020202020000920004D616C796185
:100E90006E204D3135302052656164792E005072DC
:100EA000696E74696E672E2E2E005072696E742002
:100EB000706175736564005072696E742061626F51
:100EC00072746564004E6F20534420636172640045
:100ED0004368616E67652053442063617264004D0E
:100EE0003231005072696E742066726F6D20534407
:100EF0000053746F70207072696E74005265737560
:100F00006D65207072696E7400496E69742E20538D
:100F1000442063617264005061757365207072696A
:100F20006E740054756E6500496E666F207363724F
:100F300065656E0000000000000000000000000079
:100F40003FFFF0000000000000000000000000383B
:100F5000007000000000000000000000000030FCF5
:100F60003000000000000000000000000020FC1025
:100F700000000000000000000000000020781000C9
:100F80000000000000000000000000203010000001
:100F9000000000000000000000002C00D03FC00056
:100FA0000000000000002082002E31D07FE0000011
:100FB00000000000001041002F7BD07FE000000007
:100FC000000000001041002F7BD07FE000000000F7
:100FD0000000002082002E31D03FC0000000000041
:100FE00000004104002C00D03FC0000000000000C1
:100FF000008208002030107FE000000000000000A8
:101000008208002078107FE000000000000000410E
:10101000040020FC107FE00000000000000020829F
:101020000030FC301F8000000000000000000000C5
:101030003800700F0000000000000000FFFFC03FFC
:10104000FFF0060000000000000000FFFFC00000ED
:10105000000000000000000000000000003FFFF062
:1010600000000000000000000000000038007000D8
:101070000000000000000000000000318630000089
:1010800000000000000000000000238710000000A6
:101090000000000000000000002787900000000012
:1010A00000000000000000002F87D00000000000BA
:1010B000000000000000002F03D03FC0000000002F
:1010C0000000002082002030107FE00000000000BF
:1010D00000001041002078107FE0000000000000B8
:1010E000001041002078107FE000000000000000A8
:1010F0002082002030103FC00000000000000041AE
:1011000004002F03D03FC000000000000000820850
:10111000002F87D07FE00000000000000082080060
:101120002787907FE00000000000000041040023BA
:1011300087107FE000000000000000208200318660
:10114000301F800000000000000000000038007028
:101150000F0000000000000000FFFFC03FFFF0068E
:101160000000000000000000FFFFC000000024F4A9
:10117000D43050C38E20C2A24017828B7011127AD5
:10118000910D816CD90AA861E108C75866076151C1
:1011900043061E4B5D05C145A7041A411104093DD4
:1011A0009803713931034036DB0265339102D43044
:1011B0005402802E1D02632CEE01752AC501B02851
:1011C000A001102781018F2564012B244B01E0220F
:1011D0003401AC211F018D200D01801FFC00841EF5
:1011E000ED00971DDF00B81CD200E61BC600201BD7
:1011F000BC00641AB200B219A8000A19A0006A184B
:101200009900D117910040178B00B5168400311654
:101210007E00B31579003A157300C7146F00581497
:101220006A00EE1366008813630025135E00C71280
:101230005B006C12570015125400C111510070115F
:101240004F0021114B00D61049008D104700461069
:10125000440002104200C00F4000800F3E00420FC9
:101260003C00060F3B00CB0E3800930E37005C0E9F
:101270003500270E3400F30D3200C10D3100900D02
:101280003000600D2E00320D2D00050D2C00D90C04
:101290002B00AE0C2900850C29005C0C2700350CB6
:1012A00027000E0C2600E80B2400C40B2400A00B22
:1012B00023007D0B23005A0B2100390B2100180B52
:1012C0002000F80A1F00D90A1E00BB0A1E009D0A52
:1012D0001D00800A1D00630A1C00470A1B002C0A1F
:1012E0001B00110A1A00F7091A00DD091900C409C8
:1012F0001900AB091900920917007B09180063094E
:1013000017004C09160036091600200916000A09B4
:101310001500F5081500E0081400CC081400B80802
:101320001400A4081400900813007D0812006B0834
:101330001300580812004608120034081100230850
:1013400011001208110001081100F0071000E00759
:101350001000D0071000C0071000B0070F00A10751
:10136000100091070E0083070F0074070F00650738
:101370000E0057070E0049070E003B070D002E0711
:101380000E0020070D0013070D0006070D00F906DB
:101390000C00ED060D00E0060C00D4060C00C8069B
:1013A0000C00BC060C00B0060C00A4060B0099064D
:1013B0000C008D060B0082060B0077060B006C06F6
:1013C0000B0061060A0057060B004C060A00420695
:1013D0000A0038060A002E060A0024060A001A0629
:1013E0000A001006090007060A00FD050900F405B9
:1013F0000900EB050900E2050900D9050900D0053F
:101400000900C7050900BE050900B5050800AD05BE
:101410000800A50509009C050800940508008C0536
:101420000800840508007C050800740508006C05A8
:101430000700650508005D050700560508004E0514
:10144000070047050700400508003805070031057B
:1014500007002A050700230507001C0506001605DE
:1014600007000F0507000805060002050700FB043A
:101470000600F5040700EE040600E8040600E20496
:101480000700DB040600D5040600CF040600C904EB
:101490000600C3040600BD040600B7040600B1043C
:1014A0000500AC040600A6040600A00405009B0489
:1014B000060095040500900406008A0405008504D2
:1014C0000500800406007A04050075040500700418
:1014D00005006B04050066040500610405005C045A
:1014E000050057040500520405004D04050048049A
:1014F0000500430405003E0404003A0405003504D9
:101500000500300404002C04050027040400230413
:1015100005001E0404001A0404001604050011044A
:1015200004000D0404000904050004040400000480
:101530000400FC030400F8030400F4030400F003B7
:101540000400EC030400E8030400E4030400E003E7
:101550000400DC030400D8030400D4030400D00317
:101560000400CC030400C8030300C503030024F4F3
:1015700004D9201BC40C5C0E9804C4095F026507E3
:101580007101F405F900FB04B30048048700C103AE
:1015900069005803550003034500BE023A00840267
:1015A000310053022A002902250004022000E40130
:1015B0001C00C8011900AF01170098011400840134
:1015C0001300710110006101100051010E00430170
:1015D0000D0036010B002B010B0020010B00150143
:1015E00009000C01090003010800FB000800F300DA
:1015F0000800EB000700E4000600DE000600D8004B
:101600000600D2000600CC000500C7000500C2009D
:101610000500BD000400B9000400B5000400B100DD
:101620000400AD000400A9000400A5000300A2000E
:1016300003009F0004009B00030098000300950036
:10164000020093000300900003008D0002008B0055
:10165000030088000200860002008400030081006D
:1016600002007F0002007D0002007B000200790082
:101670000200770001007600020074000200720090
:101680000100710002006F0002006D0001006C009B
:1016900002006A00010069000200670001006600A4
:1016A00001006500010064000200620001006100A9
:1016B0000100600001005F0002005D0001005C00AD
:1016C00001005B0001005A000100590001005800B0
:1016D00001005700010056000100550001005400B0
:1016E00001005300000053000100520001005100AE
:1016F0000100500001004F0001004E0000004E00AC
:1017000001004D0001004C0001004B0000004B00A7
:1017100001004A00010049000100480000004800A3
:10172000010047000100460000004600010045009E
:101730000000450001004400010043000000430098
:101740000100420000004200010041000000410091
:101750000100400001003F0000003F0001003E008A
:1017600000003E0001003D0000003D0001003C0083
:1017700000003C0000003C0001003B0000003B007A
:1017800001003A0000003A00010039000000390071
:101790000100380000003800000038000100370068
:1017A000000037000100360000003600000036005F
:1017B0000100350000003500000035000100340054
:1017C000000034000000340001003300000033004A
:1017D000000033000100320000003200000032003F
:1017E0000100310000003100000031000100300034
:1017F000000030000000300001002F0000002F002A
:1018000000002F0000002F0001002E0000002E001D
:1018100000002E0001002D0000002D0000002D0012
:1018200000002D0001002C0000002C0000002C0006
:1018300000002C0001002B0000002B0000002B00FA
:1018400000002B0001002A0000002A0000002A00EE
:1018500000002A00010029000000290000002900E2
:1018600000002900000029000100280000002800D5
:1018700000002800000028000000280001002700C8
:1018800000002700000027000000270000002700BC
:1018900001002600000026000000260000002600AF
:1018A00000002600010025000000250000002500A2
:1018B0000000250000002500000025000100240094
:1018C0000000240000002400000024000000240088
:1018D000010023000000230000002300000023007B
:1018E000000023000000230000002300010022006C
:1018F0000000220000002200000022000000220060
:101900000000220001002100000021000000210051
:101910000000210000002100000021000000210043
:101920000100200000002000000020000000200036
:101930000000200000002000000020000000200027
:1019400001001F0000001F0000001F0000001F001A
:1019500000001F0000001F0000001F0001001E000B
:1019600000001E0000001E0000001E0000000437E2
:1019700000001E290000511B000058100000100933
:101980000000CC04000078020000410100004D6F0F
:1019900076652061786973004D6F766520302E3151
:1019A0006D6D004D6F766520316D6D004D6F766504
:1019B0002031306D6D004578747275646572004D2C
:1019C0006F7665205A004D6F76652059004D6F7611
:1019D00065205800507265706172650052657374BD
:1019E0006F7265206661696C73616665004C6F613A
:1019F000642073657474696E677300496E697469F5
:101A0000616C697A6520454550524F4D0053746FA3
:101A100072652073657474696E67730046696C61E2
:101A20006D656E740054656D706572617475726574
:101A300000507265686561742041425320636F6E87
:101A400066005072656865617420504C4120636F78
:101A50006E66005049442D44005049442D490050C1
:101A600049442D50004E6F7A7A6C650046616E20B5
:101A700073706565640000060900FE07019203218A
:101A8000207FFF07FF07FF00000006000001070797
:101A9000060200808080808000800302020601052B
:101AA000A0A00507070600005050F850F850500558
:101AB00007070600002078A07028F0200507070619
:101AC0000000C0C8102040981805070706000060F5
:101AD00090A040A89068020303060104C040800360
:101AE000070706010020408080804020030707068A
:101AF00001008040202020408005050506000120CF
:101B0000A870A8200505050600012020F820200265
:101B100003030602FFC04080050101060003F8022E
:101B20000202060200C0C0050505060001081020DB
:101B30004080050707060000708888888888700341
:101B4000070706010040C040404040E00507070687
:101B50000000708808708080F8050707060000F80C
:101B60001020100808F005070706000010305090FC
:101B7000F81010050707060000F880F008088870C4
:101B8000050707060000708080F088887005070749
:101B9000060000F808102020202005070706000096
:101BA000708888708888700507070600007088882C
:101BB00078080870020505060200C0C000C0C00217
:101BC00006060602FFC0C000C040800407070600EA
:101BD0000010204080402010050303060002F8009A
:101BE000F804070706010080402010204080050708
:101BF000070600007088081020002005070706006F
:101C00000070880868A8A87005070706000070889B
:101C100088F8888888050707060000F08888F0881B
:101C200088F00507070600007088808080887005AE
:101C30000707060000F08888888888F005070706EF
:101C40000000F88080F08080F8050707060000F8A3
:101C50008080F0808080050707060000708880B8CB
:101C6000888870050707060000888888F8888888B3
:101C700001070706020080808080808080050707BA
:101C800006000038101010109060050707060000CD
:101C90008890A0C0A090880507070600008080807B
:101CA000808080F805070706000088D8A888888803
:101CB000880507070600008888C8A898888805074F
:101CC0000706000070888888888870050707060066
:101CD00000F08888F0808080050707060000708883
:101CE0008888A89068050707060000F08888F0A09B
:101CF0009088050707060000788080700808F005C6
:101D00000707060000F820202020202005070706EE
:101D10000000888888888888700507070600008882
:101D200088888888502005070706000088888888EA
:101D300088A850050707060000888850205088882A
:101D4000050707060000888888502020200507071F
:101D5000060000F80810204080F80307070601007D
:101D6000E08080808080E00505050600018040203D
:101D70001008030707060100E02020202020E005CE
:101D80000303060004205088050101060000F80244
:101D9000020206020580400505050600007008786D
:101DA00088780507070600008080B0C88888F0059D
:101DB0000505060000708080887005070706000092
:101DC000080868988888780505050600007088F876
:101DD00080700507070600003048E040404040059D
:101DE00006060600FF708888780870050707060059
:101DF000008080B0C888888801070706020080003C
:101E000080808080800308080601FF2000202020B9
:101E100020A040040707060000808090A0C0A0908A
:101E2000030707060100C04040404040E0050505AB
:101E3000060000D0A8A8A8A8050505060000B0C89F
:101E40008888880505050600007088888870050662
:101E5000060600FFF08888F080800506060600FF71
:101E6000788888780808050505060000B0C88080D5
:101E70008005050506000070807008F0040707065D
:101E800000004040E0404040300505050600008865
:101E90008888986805050506000088888850200510
:101EA00005050600008888A8A8500505050600005D
:101EB00088502050880506060600FF888888780824
:101EC00070050505060000F8102040F80307070616
:101ED00001002040408040402001070706020080AA
:101EE00080808080808003070706010080404020BA
:101EF00040408005020206000268900000000600D3
:101F00000020540020520048617264636F6465646D
:101F10002044656661756C742053657474696E67DE
:101F200073204C6F616465640A0020286D6D290080
:101F300020490020204D33303120500050494420AA
:101F400073657474696E67733A0A00204600204214
:101F50000020480020204D3134352053004D61745D
:101F6000657269616C20686561747570207061725A
:101F7000616D65746572733A0A0020204D32303607
:101F8000205800486F6D65206F66667365743A0A65
:101F90000020204D32303520510020453C6D6178C5
:101FA0005F655F6A65726B3E0020583C6D61785FCB
:101FB000785F6A65726B3E20593C6D61785F795F2E
:101FC0006A65726B3E205A3C6D61785F7A5F6A6524
:101FD000726B3E00416476616E6365643A20513CE9
:101FE0006D696E5F7365676D656E745F74696D654D
:101FF0005F75733E20533C6D696E5F666565647204
:102000006174653E20543C6D696E5F7472617665E3
:102010006C5F66656564726174653E0020204D32B8
:102020003034205000416363656C65726174696F80
:102030006E2028756E6974732F7332293A20503CD4
:102040007072696E745F616363656C3E20523C72AE
:102050006574726163745F616363656C3E20543CB8
:1020600074726176656C5F616363656C3E0A002023
:10207000204D3230312058004D6178696D756D20EA
:10208000416363656C65726174696F6E2028756E5B
:102090006974732F7332293A0A0020204D3230338D
:1020A0002058004D6178696D756D206665656472B4
:1020B000617465732028756E6974732F73293A0AE9
:1020C0000020204D39322058005374657073207001
:1020D000657220756E69743A0A0020204D323030E6
:1020E0002044300A0020204D32303020440020446B
:1020F000697361626C65640A0046696C616D656E46
:10210000742073657474696E67733A0020204D31D2
:1021100034392043203B20556E69747320696E204A
:1021200043656C736975730A0020204732312020A3
:1021300020203B00545249474745524544006F70A8
:10214000656E007A5F6D696E00795F6D696E00780B
:102150005F6D696E005265706F7274696E6720659D
:102160006E6473746F70207374617475730A00BC4D
:10217000020000BC02000064000000102700000004
:10218000009643000096430000A0400000C8415E56
:1021900045B9425E45B9420000C8440000C8424FFC
:1021A0006666004F6E20004D61696E005374657065
:1021B000732F6D6D004A65726B00416363656C65DA
:1021C000726174696F6E0056656C6F636974790033
:1021D000436F6E74726F6C0046696C2E20446961A7
:1021E0002E004520696E206D6D330043616E6E6F69
:1021F0007420656E746572207375626469723A202A
:1022000000022E2E0001526566726573680020740C
:102210006F6F206C6F6E6720657874727573696F6D
:102220006E2070726576656E7465640A0020636F57
:102230006C6420657874727573696F6E2070726556
:1022400076656E7465640A004D6F74696F6E005632
:1022500054726176206D696E00566D696E00566D20
:102260006178204500566D6178205A00566D61787E
:10227000205900566D6178205800416D61782045E5
:1022800000416D6178205A00416D6178205900410C
:102290006D6178205800412D74726176656C004143
:1022A0002D7265747261637400416363656C0056DE
:1022B000652D6A65726B00567A2D6A65726B0056E1
:1022C000792D6A65726B0056782D6A65726B0045D0
:1022D00073746570732F6D6D005A73746570732F0E
:1022E0006D6D005973746570732F6D6D0058737444
:1022F0006570732F6D6D0000002200250028002BF3
:102300000000002000230026002900020202020231
:102310000202020404040404040404030303030388
:10232000030303010101010101010101020408107D
:10233000204080010204081020408001020408109F
:1023400020408080402010080402010000000102AB
:1023500000090A0000000004030807000000000054
:1023600000000000000000000000004D3234004D6D
:10237000323320257300556E6B6E6F776E20636F5E
:102380006D6D616E643A2022005344206361726473
:10239000206F6B0A006F70656E526F6F74206661FC
:1023A000696C65640A00766F6C756D652E696E697F
:1023B00074206661696C65640A00534420696E6923
:1023C00074206661696C0A00454550524F4D206487
:1023D00061746173697A65206572726F722E0A008A
:1023E0002062797465733B206372632000536574C7
:1023F00074696E67732053746F72656420280020BF
:1024000073746F7265642073657474696E6773208A
:10241000726574726965766564202800202863619E
:102420006C63756C6174656429210A0020213D206C
:1024300000454550524F4D20435243206D69736D06
:1024400061746368202D202873746F72656429207D
:1024500000496E6465783A2000204D61726C696EA7
:102460003D563536290A0028454550524F4D3D000E
:10247000454550524F4D2076657273696F6E206DE1
:1024800069736D6174636820007C3C3E5E2B3D3F48
:102490002F5B5D3B2C2A225C0053544F5050454427
:1024A0002E20005072696E7465722073746F7070A4
:1024B00065642064756520746F206572726F727335
:1024C0002E2046697820746865206572726F7220CC
:1024D000616E6420757365204D39393920746F2021
:1024E000726573746172742E202854656D70657204
:1024F00061747572652069732072657365742E202E
:102500005365742069742061667465722072657306
:1025100074617274696E67290A004E6F20436865A2
:10252000636B73756D2077697468206C696E6520C4
:102530006E756D6265722C204C617374204C696EEF
:10254000653A2000636865636B73756D206D697310
:102550006D617463682C204C617374204C696E65E6
:102560003A20004C696E65204E756D626572206977
:1025700073206E6F74204C617374204C696E6520FB
:102580004E756D6265722B312C204C617374204C3A
:10259000696E653A20004D313130004D33310053C2
:1025A000442072656164206572726F720A00446F24
:1025B0006E65207072696E74696E672066696C65FD
:1025C0000A0020496E76616C6964206578747275C2
:1025D00064657220006F6B00526573656E643A200B
:1025E00000627573793A2070617573656420666F57
:1025F0007220696E7075740A00627573793A207082
:10260000617573656420666F7220757365720A0068
:10261000627573793A2070726F63657373696E6760
:102620000A004B494C4C20636175736564206279E4
:1026300020746F6F206D75636820696E61637469C3
:1026400076652074696D65202D2063757272656EE4
:102650007420636F6D6D616E643A2000506C65612B
:102660007365207265736574005052494E5445522B
:102670002048414C544544005072696E7465722084
:1026800068616C7465642E206B696C6C282920630A
:10269000616C6C6564210A00656E717565756569AC
:1026A0006E672022005761726E696E673A20486F2C
:1026B0006D696E672042756D702044697669736F2D
:1026C00072203C20310A00000000000000000000E1
:1026D0000000000000484200004842000080400026
:1026E0000000000202040000A0400000A040000022
:1026F000004000004D4300005C4300003443FFFFF6
:10270000FF466C6F770053706565640050726568B2
:1027100065617420504C4120456E640050726568BC
:1027200065617420504C41204265640050726568B8
:1027300065617420504C4100507265686561742079
:1027400041425320456E6400507265686561742093
:10275000414253204265640050726568656174208F
:10276000414253004D34323800436F6F6C646F77D1
:102770006E0044697361626C652073746570706586
:102780007273004D38340053657420686F6D652096
:102790006F666673657473004175746F20686F6D42
:1027A00065004732380000060900FE000000000006
:1027B00001090008FE000005080806000040F0C8F6
:1027C0008888987810050808060000C0F88888886E
:1027D0008888F80505050600012030F83020050836
:1027E000080600002070F820202020E005090906D6
:1027F00000FF2070A8A8B888887020050909060085
:10280000FFE080C0B0A8283028280509090600FF8D
:10281000F8A88888888888A8F8050A0A0600FE2093
:102820005050505088A8A888700303030600034046
:10283000A0404572726F722077726974696E67206A
:10284000746F20454550524F4D210A003DC9DBD1E0
:1028500011241FBECFEFD0E4DEBFCDBF12E0A0E059
:10286000B1E0E2EFFDEB01E00BBF02C007900D927B
:10287000AC34B107D9F722E1ACE4B2E001C01D925B
:10288000A438B207E1F714E1C7E2D4E104C021970C
:10289000FE010E943DDBC632D107C9F70E94E8C99C
:1028A0000C94ECDE0C9400002F923F924F925F92BA
:1028B0006F927F928F929F92AF92BF92CF92DF9250
:1028C000EF92FF920F931F93CF93DF93CDB7DEB7B5
:1028D000CB57D1090FB6F894DEBF0FBECDBF21E0B4
:1028E000209330128091A1118D3409F422C78435D0
:1028F00011F40C94E429873411F00C94282A2090C8
:102900009F113090A01134E02316310409F4F3C56F
:102910004CF437FC0AC78091000152E025163104BF
:102920008CF52BC08AE52816310409F439C634F435
:10293000ACE12A16310409F41CC6F7C6BBE52B1618
:10294000310409F431C6ECE52E16310409F0EDC668
:1029500027E4222E21E0322E3EE3E32E32E1F32E55
:10296000ACEEB5E02996BFAFAEAF299742E6C42ED4
:1029700042E1D42E00E010E05DC681110C942F2AB4
:102980000C942A2A882311F40C942A2A0E94854840
:1029900082E50E949DAE882309F477C10E9421AE92
:1029A0006B017C0120E030E0A9010E94B3D68823AE
:1029B00009F49BC12091EC053091ED054091EE05A5
:1029C0005091EF052B962CAF3DAF4EAF5FAF2B97DD
:1029D0004090F0055090F1056090F2057090F3057D
:1029E00080914A1290914B12A0914C12B0914D12CD
:1029F0002F968CAF9DAFAEAFBFAF2F9720914E12E9
:102A000030914F12409150125091511267962CAF55
:102A10003DAF4EAF5FAF67979C01AD012B966CAD9C
:102A20007DAD8EAD9FAD2B970E94B3D681110DC0A9
:102A300067962CAD3DAD4EAD5FAD6797C301B2015A
:102A40000E94B3D6882309F450C111E032E0231666
:102A5000310409F010E020E030E0A901C701B6011F
:102A60000E94B3D6881F8827881F181759F080E066
:102A700090E0A0E8BFEBA3968CAF9DAFAEAFBFAF29
:102A8000A3970AC020E030E040E85FE3A3962CAFB4
:102A90003DAF4EAF5FAFA3972B962CAD3DAD4EAD86
:102AA0005FAD2B972F966CAD7DAD8EAD9FAD2F9703
:102AB0000E944EDB63966CAF7DAF8EAF9FAF639786
:102AC000A301920167966CAD7DAD8EAD9FAD67970A
:102AD0000E944EDB6B966CAF7DAF8EAF9FAF6B9756
:102AE00063962CAD3DAD4EAD5FAD6397CA01B901A4
:102AF0000E9419D74B015C016B962CAD3DAD4EADDC
:102B00005FAD6B97CA01B9010E9419D79B01AC0157
:102B1000C501B4010E944FDB0E94FDDD6F966CAFD2
:102B20007DAF8EAF9FAF6F9720E030E040E05FE376
:102B30000E9419D74B015C019B01AC01C701B60192
:102B40000E944EDBAF966CAF7DAF8EAF9FAFAF975D
:102B5000A5019401C701B6010E944FDB9B01AC01A6
:102B6000AF966CAD7DAD8EAD9FADAF970E9419D77E
:102B70006B017C0120E030E0A9010E94AFDD87FD00
:102B800007C0C701B6010E94FDDD9B01AC0103C077
:102B900020E030E0A901A3966CAD7DAD8EAD9FAD78
:102BA000A3970E9419D74B015C016B966CAD7DAD6C
:102BB0008EAD9FAD6B9790586F962CAD3DAD4EADE1
:102BC0005FAD6F970E9449DCA50194010E9419D75F
:102BD0006B017C012F962CAD3DAD4EAD5FAD2F97B7
:102BE0002B966CAD7DAD8EAD9FAD2B970E944FDBCC
:102BF00020E030E040E05FE30E9419D79B01AC0188
:102C0000C701B6010E944FDB2B962CAD3DAD4EADFA
:102C10005FAD2B970E944EDB6B017C0167962CAD5C
:102C20003DAD4EAD5FAD6797C301B2010E944FDB72
:102C300020E030E040E05FE30E9419D72B966CAFB4
:102C40007DAF8EAF9FAF2B976F962CAD3DAD4EAD48
:102C50005FAD6F9763966CAD7DAD8EAD9FAD6397A5
:102C60000E9449DCA50194010E9419D79B01AC0187
:102C70002B966CAD7DAD8EAD9FAD2B970E944FDB3B
:102C8000A30192010E944EDB14C089E40E949DAE14
:102C9000882329F00E9421AE6B017C0103C0C12C66
:102CA000D12C76018AE40E949DAE882309F10E940E
:102CB00021AE67966CAF7DAF8EAF9FAF679720E078
:102CC00030E0A901C701B6010E94B3D681111FC02F
:102CD00020E030E0A90167966CAD7DAD8EAD9FAD73
:102CE00067970E94B3D6811112C0EAE3F8E0EFC300
:102CF00020E030E0A901C701B6010E94B3D68823C5
:102D0000A1F367961CAE1DAE1EAE1FAE6797D7012E
:102D1000C601B0582B968CAF9DAFAEAFBFAF2B970F
:102D200067962CAD3DAD4EAD5FAD679750582F9671
:102D30002CAF3DAF4EAF5FAF2F979C01AD01BC01F3
:102D4000CD010E9419D74B015C012F962CAD3DADF2
:102D50004EAD5FAD2F97CA01B9010E9419D79B01F3
:102D6000AC01C501B4010E944FDB0E94FDDDE79676
:102D70006CAF7DAF8EAF9FAFE7978091EC059091E0
:102D8000ED05A091EE05B091EF0563968CAF9DAF78
:102D9000AEAFBFAF6397A7019601BC01CD010E9402
:102DA0004FDBA3966CAF7DAF8EAF9FAFA397209103
:102DB000F0053091F1054091F2055091F3056F96C1
:102DC0002CAF3DAF4EAF5FAF6F9767962CAD3DAD6B
:102DD0004EAD5FAD67976F966CAD7DAD8EAD9FAD1F
:102DE0006F970E944FDBAF966CAF7DAF8EAF9FAFFA
:102DF000AF9780914A1290914B12A0914C12B091D2
:102E00004D12A7968CAF9DAFAEAFBFAFA797A3965D
:102E10002CAD3DAD4EAD5FADA397BC01CD010E9481
:102E20004EDB6B017C0120914E1230914F1240918C
:102E3000501250915112AB962CAF3DAF4EAF5FAFD9
:102E4000AB97AF962CAD3DAD4EAD5FADAF97AB96AA
:102E50006CAD7DAD8EAD9FADAB970E944EDB4B014F
:102E60005C018091F4059091F505A091F605B09173
:102E7000F705E3968CAF9DAFAEAFBFAFE3979C0174
:102E8000AD01609152127091531280915412909141
:102E900055120E944EDB6B966CAF7DAF8EAF9FAF2D
:102EA0006B97A70196012B966CAD7DAD8EAD9FAD56
:102EB0002B970E9419D72B013C01A50194012F9655
:102EC0006CAD7DAD8EAD9FAD2F970E9419D79B0144
:102ED000AC01C301B2010E944FDB2B013C01A501F3
:102EE00094012B966CAD7DAD8EAD9FAD2B970E945E
:102EF00019D74B015C01A70196012F966CAD7DADF2
:102F00008EAD9FAD2F970E9419D79B01AC01C501D3
:102F1000B4010E944EDBA30192010E94CEDB6B0143
:102F20007C0120E030E0A9010E94B3D687FF0AC0EF
:102F30002BED3FE049EC50E4C701B6010E944FDBA6
:102F40006B017C0192E02916310451F42BED3FE036
:102F500049EC50E4C701B6010E944EDB6B017C01D5
:102F600020E030E0A901C701B6010E94B3D681116B
:102F700028C0A7962CAD3DAD4EAD5FADA79763962B
:102F80006CAD7DAD8EAD9FAD63970E94B3D68111C0
:102F900018C0AB962CAD3DAD4EAD5FADAB976F9607
:102FA0006CAD7DAD8EAD9FAD6F970E94B3D6811194
:102FB00008C06BEDC62E6FE0D62E69ECE62E60E4FD
:102FC000F62EA7019601E7966CAD7DAD8EAD9FAD57
:102FD000E7970E9419D74B015C0120E030E0A9017E
:102FE0006B966CAD7DAD8EAD9FAD6B970E94B3D6E9
:102FF0008823E9F0A5019401C501B4010E9419D705
:103000004B015C016B962CAD3DAD4EAD5FAD6B974A
:10301000CA01B9010E9419D79B01AC01C501B401D5
:103020000E944FDB0E94FDDD4B015C010DC020E0E2
:1030300030E0A901C501B4010E94AFDD87FF04C0E3
:10304000B7FAB094B7F8B0942FE632E143E85AE308
:10305000C501B4010E94B3D687FF02C00C942A2A8E
:10306000C501B4010E94F1DC0E94C2DC6D967FAF05
:103070006EAF6D97DB01AB2B31F4E1E0F0E06D96C4
:10308000FFAFEEAF6D974090F8055090F905609056
:10309000FA057090FB056D962EAD3FAD6D97B901A9
:1030A00080E090E00E94B8D64B015C019B01AC012E
:1030B000C701B6010E9449DC63966CAF7DAF8EAF4D
:1030C0009FAF6397A50194016B966CAD7DAD8EADFE
:1030D0009FAD6B970E9449DCE7966CAF7DAF8EAFDA
:1030E0009FAFE797A301920160915612709157121A
:1030F00080915812909159120E944EDBA5019401C3
:103100000E9449DCEB966CAF7DAF8EAF9FAFEB9723
:1031100063962CAD3DAD4EAD5FAD6397CA01B9016D
:103120000E9419D720E030E040E05FE30E9419D709
:103130009B01AC0160E070E080E89FE30E944EDB01
:10314000A7966CAF7DAF8EAF9FAFA797E3968CAD80
:103150009DADAEADBFADE39789879A87AB87BC873E
:103160004D865E866F86788A8E010D5B1F4F60915B
:10317000380170913901072E000C880B990B0E94C1
:10318000BAD620912D0130912E0140912F015091FE
:1031900030010E9419D72AE037ED43E25CE30E9438
:1031A00019D7D8016D937D938D939C9313970E94AB
:1031B0002E3D9B01AC0128533F4F4F4F5F4FAB96C5
:1031C0002CAF3DAF4EAF5FAFAB9728964FAC289773
:1031D00029965FAC29972A966FAC2A972B967FACDD
:1031E0002B9722242394312C39E168963FAF6897BE
:1031F000E0960FAFE097EC961FAFEC976D964EAD53
:103200005FAD6D974215530509F43BC10E945432DE
:103210000E942E3DDC01CB01AB962CAD3DAD4EADF9
:103220005FADAB97821B930BA40BB50BB7FD10C022
:103230000E942E3D9B01AC0128533F4F4F4F5F4FE3
:10324000AB962CAF3DAF4EAF5FAFAB970E94E1B4F2
:1032500068963FAD6897315068963FAF68973323C3
:1032600009F44BC02F962CAD3DAD4EAD5FAD2F9701
:10327000A7966CAD7DAD8EAD9FADA7970E9419D777
:103280006B017C019201A30163966CAD7DAD8EADA7
:103290009FAD63970E9419D7A70196010E944FDB4B
:1032A0007B018C019201A301A7966CAD7DAD8EAD23
:1032B0009FADA7970E9419D74B015C012F962CADAB
:1032C0003DAD4EAD5FAD2F9763966CAD7DAD8EADD0
:1032D0009FAD63970E9419D79B01AC01C501B40152
:1032E0000E944EDB2B013C01C701D8012F968CAF09
:1032F0009DAFAEAFBFAF2F975BC0B10180E090E054
:103300000E94B8D663962CAD3DAD4EAD5FAD6397D0
:103310000E9419D74B015C010E9444DC6B017C01C7
:10332000C501B4010E94EFDD4B015C01A7019601CC
:103330002B966CAD7DAD8EAD9FAD2B970E9419D7AE
:103340002B013C0167962CAD3DAD4EAD5FAD67974F
:10335000C501B4010E9419D7A30192010E944FDB5D
:103360002B013C01A50194012B966CAD7DAD8EAD7A
:103370009FAD2B970E9419D74B015C0167962CAD2E
:103380003DAD4EAD5FAD6797C701B6010E9419D73D
:103390009B01AC01C501B4010E944EDB2F966CAFBE
:1033A0007DAF8EAF9FAF2F9749E168964FAF68977B
:1033B0009201A301A3966CAD7DAD8EAD9FADA39799
:1033C0000E944FDB69837A838B839C832F962CAD7D
:1033D0003DAD4EAD5FAD2F97AF966CAD7DAD8EAD73
:1033E0009FADAF970E944FDB6D837E838F8398875D
:1033F000E7962CAD3DAD4EAD5FADE79769857A851B
:103400008B859C850E944FDB69877A878B879C8799
:10341000EB962CAD3DAD4EAD5FADEB976D857E85EA
:103420008F8598890E944FDB6D877E878F87988B69
:1034300080914601882321F0CE0101960E94D0B2EE
:10344000E090570818A219A21AA21BA2CE018096DA
:103450006C01E0960FADE097EC961FADEC979E01E6
:10346000235F3F4FAE01475F5F4FBE016B5F7F4FF2
:103470004F970E94B27E882321F09FEF291A390AC4
:10348000BDCEE090570823961CAE1DAE1EAE1FAEFB
:103490002397DE01DF966D018E010D5B1F4F26E540
:1034A00032E142E552E16EE472E18AE492E10E9487
:1034B000B27E80E1EAE4F2E1ACEEB5E001900D927B
:1034C0008A95E1F70C942A2A0E94B0AEF801849103
:1034D0008F010F5F1F4F8111F7CFE9ECF1E084916D
:1034E0008F010F5F1F4F882311F40C942A2A0E942A
:1034F000B0AEF801F4CF80E50E949DAE882329F09C
:103500000E94DDAD6B017C0103C0C12CD12C760182
:1035100083E50E949DAE882361F00E9421AE20E0E9
:1035200030E04AE754E40E9419D70E94C2DC6B01E4
:103530007C010E94F86D8091B102811105C060E0AC
:103540008FED91E00E94C6690E942E3DC60ED71EE7
:10355000E81EF91E0E942E3DDC01CB018C199D094D
:10356000AE09BF09B7FD02C00C942A2A0E94E1B43B
:10357000F1CF8091DF058770873011F00C94342AE9
:103580008FE40E949DAE882319F00E9411AE03C003
:103590008FE40E9454AE81110C942A2A0C94342A90
:1035A000109250020C942A2A209350020C942A2A3A
:1035B0000E9421AE2B013C01133049F0D6012D9120
:1035C0003D914D915C910E944EDB2B013C0129966F
:1035D000EEADFFAD29972081318142815381C30136
:1035E000B2010E944EDB4B015C012DEB37E346E854
:1035F00055EB0E94AFDD87FD25C02DEB37E346E894
:1036000055E3C501B4010E94B3D61816DCF01F5F64
:10361000F4E0EF0EF11C29962EAD3FAD29972C5FFB
:103620003F4F29963FAF2EAF299734E0C30ED11CF0
:10363000143031F1F10181911F010E949DAE882368
:1036400031F3B6CF133051F44092F8055092F9059A
:103650006092FA057092FB0501E0D9CFA5019401B3
:10366000D7016D917D918D919C910E944FDBF70167
:103670006083718382839383812F0E9416ADC7CFAD
:10368000002309F44EC020E030E0A9016091F80564
:103690007091F9058091FA059091FB050E944FDB2E
:1036A0002091D00F3091D10F4091D20F5091D30F74
:1036B0000E9419D70E94BCDD60932D0370932E03E6
:1036C00080932F039093300390910B0380910C0310
:1036D000981719F00E949A6D24C00E94F86D80918D
:1036E0006F00982F927081FF05C080916F008D7FD1
:1036F00080936F0040912D0350912E0360912F0312
:10370000709130034093EA075093EB076093EC0706
:103710007093ED07992329F080916F008260809368
:103720006F000E9476420C942A2A0E9477980C948B
:103730002A2A80919F119091A0118137910509F457
:1037400086C60CF0D5C08A32910509F4ADC50CF0DF
:1037500077C08831910509F486C2ACF582319105B4
:1037600009F44AC7BCF497FF02C00C94E1298230E7
:1037700091050CF4B5C1419711F00C94E12960E07A
:103780008BEF91E00E94C6695E985E9815985E98EE
:103790000C942A2A8531910509F44AC23CF44497D5
:1037A00011F00C94E129E3E1F2E011C286319105B8
:1037B00009F442C2479711F00C94E129E0919D1160
:1037C000F0919E1143C28D31910511F40C942A2A77
:1037D000C4F48A31910509F455C20CF44DC28B3101
:1037E000910509F45DC24C9711F00C94E12940E079
:1037F00060E080919D1190919E110E94133A0C946B
:103800002A2A8F31910509F499C40CF4F9C2803247
:10381000910509F487C3819711F00C94E129E09098
:103820009D11F0909E1182E08093CF05F7010190E9
:103830000020E9F731974F018E189F08F701B6C3B2
:103840008C35910509F424C734F58135910509F4C7
:10385000B8C68CF48C34910509F45AC58D349105A1
:1038600009F45AC58B34910511F00C94E1290E949A
:103870004B520C942A2A8335910509F4B9C60CF4ED
:10388000B4C68435910509F4B7C68535910509F4A8
:10389000E6C60C94E1298C36910509F4D4C5ACF444
:1038A0008936910509F400C634F48836910509F487
:1038B00037C50C94E1298A36910509F456C68B3632
:1038C000910509F46EC60C94E1298E36910509F430
:1038D00054C50CF42AC68F36910509F461C58037AA
:1038E000910511F00C94E12982E797E00E9480B4E1
:1038F0008C3D910511F40C94B3270CF065C081390F
:10390000910511F40C94D32434F58637910511F404
:103910000C9479246CF48337910509F4DEC00CF41F
:103920003FC78537910511F40C946A240C94E12962
:103930008837910511F40C94C82414F40C94C52410
:103940008937910511F40C94CE248C38910509F433
:10395000EFC50C94E1298B3C910511F40C94B4252E
:10396000ECF48E3B910509F4FDC534F48B399105D7
:1039700009F4B5C50C94E129883C910511F40C9427
:103980004B25893C910511F00C94E12977E4E72E51
:1039900071E0F72E0BED1FE00C949B258D3C9105FB
:1039A00011F40C94442614F40C94CF258E3C91050C
:1039B00011F40C94AF26833D910511F00C94E1298C
:1039C000E9E6F8E00C94D4268C3A41E0940711F42F
:1039D0000C94D1260CF03FC08E32A1E09A0711F46E
:1039E0000C942129D4F4823E910511F40C942F28D3
:1039F0003CF48D3D910511F40C94C0270C94E12901
:103A00008C32E1E09E0711F40C9458288D329140DD
:103A100011F40C9481280C94E129833621E092075B
:103A200009F457C04CF48F32914011F00C94E12905
:103A30000E94F03D0C942A2A803951E0950711F438
:103A40000C948B298A39914011F00C94E1290E9441
:103A5000B73D0C942A2A883FB1E09B0711F40C94DF
:103A6000A029ECF4853FF1E09F0711F40C948E2916
:103A70004CF4843F914011F00C94E1290E946DA018
:103A80000C942A2A863F41E0940711F40C94912962
:103A9000873F914011F40C9494290C94E1298B38C0
:103AA000A3E09A0711F40C942A2A3CF48C3092403B
:103AB00011F40C94C3290C94E129803AF3E09F0798
:103AC00009F42FC3873E934011F40C94CC290C9435
:103AD000E129EAE3F8E00C947829E5EAF3E09FC6EF
:103AE000A0909D11B0909E1180E50E949DAE88230C
:103AF00059F00E94DDAD6B017C0111E0672B682B52
:103B0000692B31F410E004C010E0C12CD12C7601F7
:103B100083E50E949DAE882311F40C94A12B0E9492
:103B200021AE20E030E04AE754E40E9419D70E9419
:103B3000C2DC6B017C0111110BC0672B682B692B58
:103B400039F4A114B10421F0D5018C91811102C086
:103B500010E001C011E00E94F86D112329F061E02E
:103B6000C5010E94006A05C060E088EE91E00E94F5
:103B7000C66983E08093301281E080936308C114AA
:103B8000D104E104F104B1F00E942E3DC60ED71E0F
:103B9000E81EF91E0E942E3DDC01CB018C199D0907
:103BA000AE09BF09B7FF0DC08091630881110C9465
:103BB000A62B07C080916308882319F00E94E1B406
:103BC000F9CF0E94F649109263080C942A2A849136
:103BD0008F010F5F1F4F882321F00E94B0AEF801C4
:103BE000F6CF1092CF0582E893E00E945AA76EE7C5
:103BF00073E0CE0101960E94E93640E050E0BE013C
:103C00006F5F7F4F80E090E00E947037CE01019699
:103C10000E9464B4E4E0F2E084918F010F5F1F4FD3
:103C2000882311F40C942A2A0E94B0AEF801F4CF34
:103C30000E949E960C942A2A1092510310925203CD
:103C40000C942A2A803209F41082319680818111E5
:103C5000F9CF40E061E080919D1190919E110E940A
:103C6000133A0C942A2A8091520381112093510314
:103C70000E944B520C942A2A109251030E946F52B8
:103C80000C942A2A80915203882311F40C942A2A36
:103C900083E50E949DAE81110C94AA2B0C942A2AD4
:103CA00083E40E9454AE882309F468C0E1E5F2E0A1
:103CB00084918F010F5F1F4F882321F00E94B0AEC7
:103CC000F801F6CF80911D05811103C0E4E2F2E016
:103CD0002AC0BE016F5F7F4F8AE195E00E9421A656
:103CE0008E010F5F1F4FF80181918F01882319F01A
:103CF0000E94B0AEF8CFBE016F5F7F4F80E090E0D2
:103D00000E94223980916203882399F180E20E9407
:103D1000B0AE02E613E0D8018D918D01882349F100
:103D20000E94B0AEF8CF84918F010F5F1F4F8823A0
:103D300001F10E94B0AEF801F6CF8EE3C82E85E007
:103D4000D82EE12CF12C20E08091C30F90E00E2CB6
:103D500002C0959587950A94E2F780FD51C3BFEFA5
:103D6000EB1AFB0AE2E0CE0ED11CF5E0EF16F104EF
:103D700059F78AE00E94B0AE0C942A2A809152032F
:103D8000882339F080915103882319F0EEE2F2E0A4
:103D900003C0E0E4F2E028C084918F010F5F1F4F61
:103DA000882321F00E94B0AEF801F6CF6091CB05D8
:103DB0007091CC058091CD059091CE054AE00E948E
:103DC0005FB18FE20E94B0AE6091C7057091C805E7
:103DD0008091C9059091CA054AE00E945FB18AE0CE
:103DE0000E94B0AE0C942A2A84918F010F5F1F4F5E
:103DF000882311F40C942A2A0E94B0AEF801F4CF63
:103E000080915203882311F40C942A2A8AE195E0C8
:103E10000E9476C78AE195E00E94FCA510925003AB
:103E200010924F0380915203882311F40C942A2A94
:103E300000919D1110919E110E94FD36B801CE0196
:103E400080960E9457398C01892B11F40C942A2AF0
:103E500068A179A16115710511F06C5F7F4F19821E
:103E60001C8222E0A801CE0101960E94ABAB811119
:103E700002C0F12C14C0CE0101960E94573688234F
:103E8000C1F361E0CE0101960E9405A6009789F377
:103E900025EEFC0120831C820E941BC5F82ECE015A
:103EA00001960E94AAAEF11003C0EEE6F2E022C035
:103EB000E0E6F2E084917F012FEFE21AF20A882314
:103EC00021F00E94B0AEF701F5CFD8018D918D01A0
:103ED000882319F00E94B0AEF8CF8AE00E94B0AEFD
:103EE0001092CB051092CC051092CD051092CE0504
:103EF0000C942A2A84917F01BFEFEB1AFB0A8823D6
:103F000021F00E94B0AEF701F5CFF80181918F0149
:103F1000882319F00E94B0AEF8CF8EE20E94B0AEB6
:103F20000C942A2A8091510381110E94F86D80918E
:103F30005203882311F40C942A2A80E50E949DAE36
:103F4000882319F00E9411AE03C080E50E9454AE90
:103F5000182F482F61E080919D1190919E110E9431
:103F6000133A83E50E949DAE882381F00E94EDAD57
:103F7000AB01BC014093CB055093CC056093CD05BC
:103F80007093CE058AE195E00E9412A580915203BC
:103F9000882319F081E08093510311110C942A2A8F
:103FA00067CE80818F3209F410823196CF018E194D
:103FB0009F0988159905ACF36EE773E0CE018096F2
:103FC0000E94E936C12CD12C05E511E0C814D904B2
:103FD0000CF09EC0F701EC0DFD1D8081811103C026
:103FE000FFEFCF1ADF0A5701AC0CBD1CD5018C9135
:103FF000882309F48DC0BFEFCB1ADB0AF701EC0D63
:10400000FD1D6F01CE18DF0881918111FACFCE011D
:1040100084960E945AA7BE01605E7F4FCE01019632
:104020000E94E936A501BE016F5F7F4F80E090E0FE
:104030000E947037CE0101960E9464B48FE20E9404
:10404000B0AE80916203811103C081E092E002C0B2
:1040500082E693E03C01F30181913F01882319F04E
:104060000E94B0AEF8CF80915303882309F450C06A
:104070001D8218861C821B821A83098321E0A501F8
:10408000BE016C5D7F4FCE0105960E94ABAB8111E6
:1040900029C08AE00E94B0AEE9E6F8E084918F0181
:1040A0000F5F1F4F811103C0E5E5F8E004C00E94D7
:1040B000B0AEF801F3CF84918F010F5F1F4F8823BB
:1040C00021F00E94B0AEF801F6CFD5018D915D01CF
:1040D000882319F00E94B0AEF8CFCE0101960E945D
:1040E00064B416C0CE0184960E94FCA58BE1FE014B
:1040F0003596DE01949601900D928A95E1F78B81B9
:104100009C819BA38AA3CE0101960E9464B45ECFDA
:104110008AE00E94B0AECE0180960E9464B40C94F6
:104120002A2A80919D1190919E1121E020935003A5
:1041300040E060E00E94133A0C942A2A0E94D13495
:104140007B018C0120E831E541E050E00E94BADAC1
:10415000C9016DE671E00E94F6DA4B015C01C8010D
:10416000B70120E13EE040E050E00E94BADACA0127
:10417000B90128E130E040E050E00E94BADA762E42
:10418000672EC62ED72E9CE3292E312C412C512C84
:10419000C801B701A20191010E94BADAF62EE72EFA
:1041A000CA01B901A20191010E94BADACB018E01C4
:1041B0000F5F1F4F8114910499F0EF92FF927F934C
:1041C0006F936F927F92BF92AF929F928F9286E889
:1041D00092E09F938F931F930F930E944BD613C02F
:1041E000A114B104B1F0EF92FF927F936F936F929D
:1041F0007F92BF92AF928AE892E09F938F931F9332
:104200000F930E944BD60FB6F894DEBF0FBECDBF02
:1042100030C0CD2879F0EF92FF927F936F936F9229
:104220007F928EE892E09F938F931F930F930E944B
:104230004BD6E9CF892B69F0EF92FF927F936F9372
:1042400082E992E09F938F931F930F930E944BD626
:10425000DACFEF92FF9286E992E09F938F931F93BC
:104260000F930E944BD60F900F900F900F900F90CE
:104270000F9060E0C8010E94006AE9E6F8E08491CE
:104280007F019FEFE91AF90A882321F00E94B0AE5E
:10429000F701F5CFB8018AE992E00E94645A8AE0FA
:1042A0000E94B0AE0C942A2A83E50E949DAE88231A
:1042B00011F40C942A2A0E94FDADE82E80E50E949C
:1042C0009DAE882339F00E94FDAD182F87FF03C0F3
:1042D0000C942A2A1BE189E40E949DAE882341F0B8
:1042E0000E9411AE81110C940B2CE8E4F5E00BC098
:1042F00089E40E9454AEF6CF3196A5E0E537FA077F
:1043000011F40C940B2C84911813F6CF0C94082CF8
:104310000E946F520C942A2A0E9484520C942A2ADA
:1043200088E690E00E94CCB181110C942A2A8091F9
:10433000C30F83FF02C00C942A2A83E50E949DAE1E
:10434000882311F40C942A2A0E9421AE0E94BBDC1F
:10435000CB010E9462690E9421AE20E030E04AEA6F
:1043600052E40E94B3D6181614F40C942A2A0E9420
:1043700084520E94F6490C942A2A8EE40E949DAE33
:10438000882311F40C942A2A0E94EDAD6093AD02AB
:104390007093AE028093AF029093B0020C942A2ADD
:1043A00083E50E9454AE882359F083E50E949DAEB8
:1043B000882319F00E94FDAD01C080E08093C30FF7
:1043C000E9E6F8E084918F010F5F1F4F811103C070
:1043D000EBEAF2E004C00E94B0AEF801F3CF8491A2
:1043E0008F010F5F1F4F882321F00E94B0AEF801AC
:1043F000F6CF8091C30F8111A0CCE7EAF2E018C09C
:10440000BB24B394B20E222319F08CE20E94B0AE0A
:10441000F60185919491FC0184918F010F5F1F4FEC
:10442000882321F00E94B0AEF801F6CF2B2D97CC57
:1044300084918F010F5F1F4F882309F49ACC0E944B
:10444000B0AEF801F5CF10920A010C942A2A83E548
:104450000E949DAE811103C0E9E6F8E00DC00E9404
:10446000FDAD8D3320F4809331010C942A2A8CE326
:10447000809331010C942A2A84918F010F5F1F4F82
:10448000882321F00E94B0AEF801F6CF40913101AF
:1044900050E060E070E082EB92E00E94115A8AE006
:1044A0000E94B0AE0C942A2A89E690E00E94CCB11A
:1044B000811111C0E5EDF5E284918F010F5F1F4F6F
:1044C000882321F00E94B0AEF801F6CF0E94952D0E
:1044D0008AE00E94B0AE109230120C94202C83E53A
:1044E0000E949DAE882311F40C942A2A0E94FDADEF
:1044F000182F8D3308F01CE310933D120E942E3DBF
:104500006B017C01212F30E0A8EEB3E00E94E7DAD6
:10451000C60ED71EE81EF91EC0923912D0923A126A
:10452000E0923B12F0923C1295C70E94A54692C7BA
:104530008091C30F83FD8EC783E50E949DAE8823C3
:1045400009F488C70E9421AE0E94BBDC6436710565
:1045500014F064E670E070930310609302100E9400
:10456000522E78C70E94CC4475C780E50E949DAE4C
:10457000811106C083E50E949DAE882359F005C0D5
:104580000E94FDAD811166C7F5CF0E94EDAD6F3F72
:10459000710510F06FEF70E07093ED0A6093EC0A14
:1045A00059C780E50E949DAE811105C01092ED0AA9
:1045B0001092EC0A4FC70E94EDAD672B09F04AC775
:1045C000F5CF0E949E2E0E94356E1092ED0A109239
:1045D000EC0A68EE73E080E090E00E94C76860E05B
:1045E00089EB92E00E94C66935C710924F0232C72C
:1045F00081E080934F022EC783E50E949DAE882301
:1046000099F00E9421AE20E030E04AE754E40E9495
:1046100019D70E94C2DC60933201709333018093FA
:1046200034019093350116C788E50E9454AE81117C
:104630000C94BB2B89E50E9454AE81110C94BB2BCA
:104640008AE50E9454AE81110C94BB2B85E40E9434
:1046500054AE81110C94BB2B0E94356EFBC683E5D2
:104660000E9454AE882309F4F5C60E9421AE20E0D2
:1046700030E04AE754E40E9419D70E94C2DC6093FC
:104680003512709336128093371290933812E2C627
:1046900017E4C12E11E0D12E04ECE02E0FE0F02E35
:1046A00010E0D6018D916D010E9454AE882309F46B
:1046B0006DC0133009F063C00E9421AE4B015C0154
:1046C00020E030E040EA51E40E94B3D687FF4EC0BC
:1046D000A50194016091D00F7091D10F8091D20FFC
:1046E0009091D30F0E9449DC2B013C019B01AC014E
:1046F0006091980A7091990A80919A0A90919B0A08
:104700000E9419D76093980A7093990A80939A0A25
:1047100090939B0AA30192016091C80A7091C90A03
:104720008091CA0A9091CB0A0E9419D76093C80A57
:104730007093C90A8093CA0A9093CB0A6091A80A21
:104740007091A90A8091AA0A9091AB0A0E94B8D6EA
:10475000A30192010E9419D70E94C2DC6093A80AAB
:104760007093A90A8093AA0A9093AB0A8092D00F03
:104770009092D10FA092D20FB092D30F07C00E9497
:1047800021AEF70160837183828393831F5FF4E01E
:10479000EF0EF11C143009F084CF0E94B45B5AC6AE
:1047A0000E94F86D83E50E949DAE882311F40C945D
:1047B000911B0E94EDAD6230710511F00C94911BBC
:1047C0000E9475B78BE50E94B0AE60912412709183
:1047D0002512809126129091271242E00E942AB25F
:1047E000409128125091291260912A1270912B1237
:1047F0008AEC92E00E942E5A40912C1250912D1278
:1048000060912E1270912F128AEC92E00E942E5A23
:104810008DE50E94B0AE8AE00E94B0AE1BC68491C6
:104820008F010F5F1F4F882321F00E94B0AEF80167
:10483000F6CF60E085E993E00E943F4261E086E0C8
:104840009AE10E943F4261E08AE893E00E943F4281
:1048500061E08AE793E00E943F4260E081E793E0F5
:104860000E943F4261E087E693E00E943F4260E0A1
:104870008DE593E00E943F4260E085E593E00E9471
:104880003F4260E087E493E00E943F4260E089E3BA
:1048900093E00E943F4260E08AE293E00E943F4240
:1048A00060E08CE193E00E943F4260E086E093E0AC
:1048B0000E943F4260E085EF92E00E943F4260E04C
:1048C00080EE92E00E943F4261E08DEC92E00E9417
:1048D0003F42C0C580919D1190919E11DC012C91A9
:1048E000222321F060E00E94006AB4C50E94F649CC
:1048F000B1C500919D1110919E1183E0D12C40E033
:104900008150E1F0F8019081292F2B7F2134C1F7EC
:1049100021812133A9F7913421F0953421F441E02C
:1049200002C0DD24D39498012E5F3F4F89012F5F91
:104930003F4FD8019C919032C9F3E2CF442369F0F4
:10494000E9E6F8E084917F01BFEFEB1AFB0A8823C8
:1049500021F00E94B0AEF701F5CFDD2069F0EEE660
:10496000F4E084917F012FEFE21AF20A882321F00C
:104970000E94B0AEF701F5CFD8018D918D0188234B
:1049800009F4F7C90E94B0AEF7CF0E94BB7062C5B0
:1049900081E08093DE058093DD055CC51092DE0525
:1049A0001092DD0557C583E50E949DAE882319F05E
:1049B0000E94EDAD02C060E070E08B011127023073
:1049C0001105D4F0EAE3F8E084918F010F5F1F4FE7
:1049D000811103C0E2E7F4E004C00E94B0AEF80128
:1049E000F3CF84918F010F5F1F4F882309F432C5E5
:1049F0000E94B0AEF801F5CF88E40E949DAE8823F6
:104A0000A9F00E94EDAD6A3A71053CF06530B1E065
:104A10007B072CF064E071E002C06AEA70E0F80104
:104A2000EE0FFF1FE95BF74F7183608386E40E94FE
:104A30009DAE8823A9F00E94EDADF801EE0FFF1F97
:104A4000E55BF74F718360836F3F710519F014F0D8
:104A50006FEF70E077FF02C060E070E07183608309
:104A600082E40E949DAE882309F4F4C40E94EDAD57
:104A70006530710534F0653671052CF064E670E040
:104A800002C065E070E0000F111FF801ED5BF74F09
:104A900071836083DFC488EC90E00E94CCB1811107
:104AA000D9C484E40E9454AE882309F441C00E9412
:104AB00021AE6B017C0111E020E030E0A9010E94F1
:104AC000B3D6811101C010E010937F0820E030E0E0
:104AD000A901C701B6010E94B3D6882349F10E94FB
:104AE00021AEE091650224E0E29FF0011124E55837
:104AF000F74F608371838283938320E030E0A901C4
:104B000060917B0870917C0880917D0890917E086F
:104B10000E94B3D681110CC080E090E0A0E4B0E424
:104B200080937B0890937C08A0937D08B0937E08C7
:104B30000E94026D8FC4D7018D917D010E9454AEF9
:104B4000882349F00E9421AE0E94C2DCF8016083F4
:104B50007183828393830C5F1F4FFFE00B3E1F071F
:104B600051F70E947F5A76C467E4E62E61E0F62E84
:104B70000CEB1AE0D7018D917D010E9454AE882381
:104B800039F00E9421AEF8016083718382839383A0
:104B90000C5F1F4FFAE00C3C1F0761F75BC483E515
:104BA0000E949DAE8823A1F00E9421AE6093B40ABA
:104BB0007093B50A8093B60A9093B70A6093B00ACF
:104BC0007093B10A8093B20A9093B30A10E001C0C7
:104BD00011E080E50E949DAE882359F00E9421AE2D
:104BE0006093B40A7093B50A8093B60A9093B70A9B
:104BF00010E082E50E949DAE882359F00E9421AE0C
:104C00006093B80A7093B90A8093BA0A9093BB0A6A
:104C100010E084E50E949DAE882359F00E9421AEE9
:104C20006093B00A7093B10A8093B20A9093B30A6A
:104C300011C4112309F40EC44091B40A5091B50A6D
:104C40006091B60A7091B70A84E994E00E942E5AE6
:104C50004091B80A5091B90A6091BA0A7091BB0AA2
:104C600084E09FE10E942E5A4091B00A5091B10A0F
:104C70006091B20A7091B30A81E09FE10E942E5ABE
:104C80008AE00E94B0AEE6C381E50E9454AE88235C
:104C900051F00E94DDAD6093D00A7093D10A8093E9
:104CA000D20A9093D30A83E50E9454AE882351F030
:104CB0000E9421AE6093E80A7093E90A8093EA0AA1
:104CC0009093EB0A84E50E9454AE882351F00E9431
:104CD00021AE6093E40A7093E50A8093E60A90930C
:104CE000E70A88E50E9454AE882351F00E9421AE65
:104CF00060938C0A70938D0A80938E0A90938F0A2A
:104D000089E50E9454AE882351F00E9421AE609341
:104D1000900A7093910A8093920A9093930A8AE57D
:104D20000E9454AE882351F00E9421AE6093940AF1
:104D30007093950A8093960A9093970A85E40E944F
:104D400054AE882309F486C30E9421AE6093980A6A
:104D50007093990A80939A0A90939B0A7BC347E4C5
:104D6000C42E41E0D42E50EEE52E55E0F52E10E095
:104D7000D6018D916D010E9454AE882351F00E949E
:104D800021AEF7016083718382839383812F0E9418
:104D900016AD1F5FF4E0EF0EF11C133049F70C94D1
:104DA000911B0E94404356C384918F010F5F1F4F98
:104DB000882321F00E94B0AEF801F6CF83E50E946F
:104DC00054AE882321F00E9411AE80934601E4EB9B
:104DD000F4E084918F010F5F1F4F882321F00E9420
:104DE000B0AEF801F6CF80914601882319F0E3EACE
:104DF000F1E202C0EFE9F1E284918F010F5F1F4FF2
:104E0000811103C0ECEAF4E004C00E94B0AEF801E6
:104E1000F3CF84918F010F5F1F4F882321F00E94F1
:104E2000B0AEF801F6CF209162123091631240913A
:104E300064125091651260916E1270916F128091A0
:104E40007012909171120E944FDBAB01BC0186E79A
:104E500090E20E942E5A2091661230916712409182
:104E60006812509169126091721270917312809160
:104E70007412909175120E944FDBAB01BC018AEC59
:104E800099E10E942E5A20916A1230916B12409142
:104E90006C1250916D126091761270917712809120
:104EA0007812909179120E944FDBAB01BC0183EC28
:104EB00099E10E942E5AE4EAF4E084918F010F5F99
:104EC0001F4F882321F00E94B0AEF801F6CF209149
:104ED0006212309163124091641250916512609198
:104EE0003A0170913B0180913C0190913D010E94FB
:104EF0004FDBAB01BC0186E790E20E942E5A209165
:104F00006612309167124091681250916912609157
:104F10003E0170913F0180914001909141010E94BA
:104F20004FDBAB01BC018AEC99E10E942E5A209123
:104F30006A1230916B1240916C1250916D12609117
:104F400042017091430180914401909145010E947A
:104F50004FDBAB01BC0183EC99E10E942E5A8AE041
:104F60000E94B0AE77C283E50E949DAE882309F40B
:104F700071C20E94EDAD70933901609338016AC22D
:104F80008DED90E00E94CCB1811164C283E50E9456
:104F90009DAE811103C0E9E6F8E03BC000916502D7
:104FA00010E00E94EDAD000F111FF801EA5CFE4F0A
:104FB000718360838091650290E08C01000F111F66
:104FC000000F111F9801295E3E4F7901880F991F2C
:104FD000FC01EA5CFE4F60817181072E000C880B9A
:104FE000990B0E94BAD62AE037ED43E25CE30E94B7
:104FF00019D7F801E25AFD4E208131814281538157
:105000000E9419D7D7016D937D938D939C9313972D
:1050100021C284918F010F5F1F4F882321F00E94CE
:10502000B0AEF801F6CF85E40E94B0AE8091650283
:10503000805D0E94B0AEE0916502F0E0EE0FFF1FD0
:10504000EA5CFE4F6081718184EC94E00E944B5ACF
:1050500085E20E94B0AE8AE00E94B0AEFBC180E55E
:105060000E9454AE882309F4F5C10E94EDAD6B0196
:105070007C0183E50E949DAE882321F00E94EDAD66
:105080008B0102C00FEF1FEFC8010196039708F0D4
:10509000E1C1D7FCDFC18C2DE8E4F5E094918917DC
:1050A00009F4B6C33196B5E0E537FB07B9F788C315
:1050B00083E50E949DAE882319F00E94EDAD02C0E9
:1050C00064E071E079A368A380E50E949DAE882327
:1050D00039F00E94EDAD6938E3E17E0730F402C09B
:1050E00068EE73E07A83698304C088E893E19A8369
:1050F0008983BE01605E7F4FCE0101960E943C37DE
:10510000A9C185E40E949DAE811110C080E50E9476
:1051100054AE882391F00E9421AE609337087093BB
:1051200038088093390890933A0807C00E94FDAD73
:10513000882361F3EAE3F8E071C089E40E9454AE89
:10514000882381F00E9421AE2CEA35EC47E25EE331
:105150000E9419D760933F087093400880934108DC
:105160009093420884E40E9454AE882381F00E9408
:1051700021AE2CEA35EC47E25EE30E9449DC609305
:105180003B0870933C0880933D0890933E08E9E605
:10519000F8E084918F010F5F1F4F882321F00E9458
:1051A000B0AEF801F6CF40913708509138086091C1
:1051B000390870913A0884ED94E00E942E5A2CEA46
:1051C00035EC47E25EE360913F08709140088091C2
:1051D0004108909142080E9449DCAB01BC0180ED7E
:1051E00094E00E942E5A2CEA35EC47E25EE360918F
:1051F0003B0870913C0880913D0890913E080E94C8
:1052000019D7AB01BC018CEC94E00E942E5A8AE0C5
:105210000E94B0AE1FC10E94B0AEF80184918F0110
:105220000F5F1F4F8111F7CFE8EDF4E084918F01FC
:105230000F5F1F4F882309F40DC10E94B0AEF80123
:10524000F5CF83E50E9454AE182F882371F00E9499
:1052500021AE0E94BBDC70931C0160931B0121E016
:10526000672B09F020E02093EE0A80E50E9454AEFF
:10527000882359F020911B0130911C01232B11F040
:105280000E9411AE8093EE0AE5C01111E3C0E9E679
:10529000F8E084918F010F5F1F4F882321F00E9457
:1052A000B0AEF801F6CF8091EE0A882319F065E0E0
:1052B00072E002C068E072E08FEF94E00E94645AEE
:1052C00060911B0170911C018EEE94E00E944B5A7C
:1052D000EAEEF4E084918F010F5F1F4F882309F4F9
:1052E000B9C00E94B0AEF801F5CF0E94B0AEF8018F
:1052F00084918F010F5F1F4F8111F7CFE2E1F5E03D
:1053000084918F010F5F1F4F882309F4A3C00E946F
:10531000B0AEF801F5CF0E94F86D9CC00E94BB753D
:1053200099C00E94A67496C083E50E9454AE88235B
:1053300021F00E9411AE91E089270E94E8708AC096
:10534000209379080E94FD9A10927908882309F425
:1053500081C0E9E6F8E084918F010F5F1F4F811152
:1053600003C0E1E2F5E004C00E94B0AEF801F3CF63
:1053700084918F010F5F1F4F882309F46BC00E9437
:10538000B0AEF801F5CF80915103882309F462C0D3
:1053900081E0809354035EC081E08093000110920D
:1053A0008B0A83E50E949DAE882339F00E9411AEDE
:1053B000811150C00E94AEB74DC083E50E9454AE2B
:1053C000F7CF0E94779846C0F0909F110E94F86D29
:1053D000FF2029F1E9E6F8E084918F010F5F1F4F6C
:1053E000882321F00E94B0AEF801F6CF84E50E9438
:1053F000B0AE6F2D70E080E090E04AE00E945FB1B7
:1054000080E20E94B0AEE8EDF4E084918F010F5F7E
:105410001F4F8823F9F00E94B0AEF801F6CF10922A
:105420005708E9E6F8E084918F010F5F1F4F88234A
:1054300021F00E94B0AEF801F6CF6091570870E0FD
:105440008CE295E00E944B5A8AE00E94B0AE02C006
:105450000E947798109230120E9491B7F1C10E9479
:1054600085480E9460B6F6CF0E94F86D80912D01AC
:1054700090912E01A0912F01B091300180935302A1
:1054800090935402A0935502B09356028091380134
:1054900090913901909352028093510284E690E0FA
:1054A000909339018093380111E01093DE0588E56F
:1054B0000E9454AEB82E89E50E9454AE082F8AE5AA
:1054C0000E9454AEA82EB11004C0011104C01A25C8
:1054D00005C0011102C010E001C01A2D80E1ECEE00
:1054E000F5E0AAE4B2E101900D928A95E1F782E538
:1054F0000E949DAE882309F4EAC00E9421AE6B0190
:105500007C0120E030E0A9010E94B3D6882309F491
:10551000DEC0111105C0B11003C0002309F4E8C0BA
:10552000C0925212D0925312E0925412F09255123D
:105530002091F4053091F5054091F6055091F7055D
:10554000C701B6010E94AFDD18160CF0C0C0209153
:10555000F0053091F1054091F2055091F3052F9639
:105560002CAF3DAF4EAF5FAF2F978091EC05909180
:10557000ED05A091EE05B091EF0567968CAF9DAF5C
:10558000AEAFBFAF679720912D0130912E014091B2
:105590002F015091300163962CAF3DAF4EAF5FAFFE
:1055A0006397EBEDF6E285919591A591B4912B96D9
:1055B0008CAF9DAFAEAFBFAF2B9780932D01909373
:1055C0002E01A0932F01B0933001C092F405D09228
:1055D000F505E092F605F092F7050E94A949609062
:1055E000C00A7090C10A8090C20A9090C30A2090AD
:1055F000BC0A3090BD0A4090BE0A5090BF0A91018B
:10560000A201B301C4010E94AFDD181614F43101E8
:105610004201C301D40180932D0190932E01A093E8
:105620002F01B093300167962CAD3DAD4EAD5FAD0F
:1056300067972093EC053093ED054093EE0550936A
:10564000EF052F968CAD9DADAEADBFAD2F9780937E
:10565000F0059093F105A093F205B093F3050E9435
:10566000A9492091F4053091F5054091F605509136
:10567000F705C701B6010E94B3D687FF18C02B9665
:105680002CAD3DAD4EAD5FAD2B9720932D013093EA
:105690002E0140932F0150933001C092F405D09217
:1056A000F505E092F605F092F7050E94A9490E94DF
:1056B000F86D63968CAD9DADAEADBFAD6397809335
:1056C0002D0190932E01A0932F01B0933001111161
:1056D00005C0B11003C0011106C00AC080E00E94DD
:1056E00062B31123C1F381E00E9462B3111102C0C1
:1056F000AA2019F082E00E9462B30E94D3AD80918B
:10570000DD058093DE058091530290915402A091B3
:105710005502B091560280932D0190932E01A093D3
:105720002F01B093300180915102909152029093D9
:1057300039018093380183E0809316010E947642FC
:1057400089CE11110C94A81D0C94A11D0E94E1B4E6
:105750000C94CA1D0E94EDADAB01BC014093CB057A
:105760005093CC056093CD057093CE058AE195E00A
:105770000E9412A56FCE0E94F86D88E50E9454AE7B
:10578000882331F05E9A8091DF058E7F8093DF055C
:1057900089E50E9454AE882331F05E9A8091DF053E
:1057A0008D7F8093DF058AE50E9454AE882309F43B
:1057B00051CE159A8091DF058B7F8093DF054ACE0D
:1057C0000E94F86DBC2C60E08C2D0E94463C0F3F7F
:1057D000FFEF1F0759F48C2D0E94849A31E020E0DE
:1057E000892B09F030E0032F122F05C0013011057D
:1057F00061F401E010E08B2D0E94849A80179107DC
:1058000009F428CE0E94E1B4F6CF00E010E0F3CF17
:105810000E948DCE1FCE61E0812F0E94463C6E2DEE
:10582000812F0E94AD9AF12CB701812F0E94823CFA
:10583000143009F00FCEF092ED0AE092EC0A0ACE95
:10584000C558DF4F0FB6F894DEBF0FBECDBFDF9156
:10585000CF911F910F91FF90EF90DF90CF90BF906D
:10586000AF909F908F907F906F905F904F903F9000
:105870002F900895DF92EF92FF920F931F93CF9393
:10588000DF93EC01D62E1CAD0BAD7C0184E0E80E5D
:10589000F11CE98DFA8DC7010995412F480F2D2D77
:1058A000602FC7010E947C649BAD890F8BAF81E0A4
:1058B00090E0DF91CF911F910F91FF90EF90DF90DB
:1058C0000895FF920F931F93CF93DF938C01EB0109
:1058D000F42E80E20E94B0AE8FEFF81611F084E54E
:1058E00001C082E40E94B0AE8AE30E94B0AEF8012B
:1058F000608171818281938142E00E942AB2488155
:1059000059816A817B8186E696E00E942E5A62E088
:1059100070E080E090E0DF91CF911F910F91FF90B8
:105920000C94F43C5B980000000087FD5AC040983E
:10593000000000005B9A00000000880F5B980000E8
:10594000000087FD5AC04098000000005B9A0000EC
:105950000000880F5B980000000087FD4CC0409855
:10596000000000005B9A00000000880F5B980000B8
:10597000000087FD3EC04098000000005B9A0000D8
:105980000000880F5B980000000087FD30C0409841
:10599000000000005B9A00000000880F5B98000088
:1059A000000087FD22C04098000000005B9A0000C4
:1059B0000000880F5B980000000087FD14C040982D
:1059C000000000005B9A000000005B9800000000EF
:1059D00086FD15C04098000000005B9A00000000A2
:1059E0000895409AA5CF409AEBCF409ADDCF409AD8
:1059F000CFCF409AC1CF409AB3CF409AA5CF409A1B
:105A0000EACF8F929F92AF92BF92CF92DF92EF92A6
:105A1000FF920F931F93CF93DF93F0E4FF2EE12CBF
:105A2000AE2DB0E0BD016F0D711D759567956E15BA
:105A300011F0F6120BC0E0E7F7E065917491072EC4
:105A4000000C880B990B0E94BAD662C09B012150B2
:105A50003109220F331F220F331FF901EE58F94F7E
:105A600005911491AB01440F551F440F551FFA01C6
:105A7000EE58F94FC591D4918017910714F4F62E82
:105A8000D1CFC817D90714F4E62ECACFF901EC58C4
:105A9000F94FE590F490FA01EC58F94FC590D49085
:105AA000BC01601B710B072E000C880B990B0E9428
:105AB000BAD64B015C01B6016E197F09072E000CA6
:105AC000880B990B0E94BAD69B01AC01C501B401A9
:105AD0000E9419D74B015C01C01BD10BBE01DD0F29
