:020000021000EC
:10FC0000112488E180936000109260000C9A14988F
:10FC100085B78F7E85BF0B98139A2FEF81EE94E006
:10FC2000215080409040E1F700C0000084B714BE2E
:10FC30000399C8D082E08093C00088E18093C1001E
:10FC400086E08093C20080E18093C400D0E0C0E0F1
:10FC5000EE24E39441E1D42E53E0F52E94D0813488
:10FC600079F491D0182F9BD0123829F480E084D0F9
:10FC700080E182D0F3CF83E01138C9F785E0F7CF78
:10FC8000823419F484E191D0F3CF853411F485E006
:10FC9000FACF853579F477D0C82FD0E074D0D82B3F
:10FCA000CE018827990F881F99278BBFCC0FDD1FA6
:10FCB00076D0DECF863519F484E077D0D7CF84367E
:10FCC00009F043C060D05FD0C82E5DD0C115E0EE12
:10FCD000DE0718F4FE01F7BEE89500E011E05801D8
:10FCE000FFEFAF1ABF0A4FD0F80180838501CA1019
:10FCF000F6CFC115F0EEDF0718F0FE01F7BEE8956C
:10FD00004ED007B600FCFDCFFE01A0E0B1E09C9113
:10FD10009D012E5F3F4F11968C911197892798274F
:10FD200089270C01E7BEE89511243296AE3FB14019
:10FD300051F485E0FE0187BFE89507B600FCFDCFD2
:10FD4000D7BEE89595CFD901E2CF843761F41BD0B7
:10FD50001AD0182F18D023D0FE018791EF010CD0B4
:10FD60001150D1F785CF853709F0A2CF18D08EE199
:10FD700003D087E901D082CF9091C00095FFFCCFDE
:10FD80008093C60008958091C00087FFFCCF8091CA
:10FD9000C00084FD01C0A8958091C6000895F3DFDE
:10FDA000803209F0FFCF84E1E7CFCF93C82FEBDF9C
:10FDB000C150E9F7CF91F3CFE0E6F0E098E190830E
:0CFDC00080830895282EEE27FF27099469
:02FFFE000005FC
:040000031000FC00ED
:00000001FF
